:100000000C94F5000C943C070C946D070C941F01A4
:100010000C941F010C94DA060C94A9060C94780633
:100020000C940B070C94F5100C941D110C944511B5
:100030000C941F010C9418060C941F010C941F01C2
:100040000C941F010C941F010C941F010C941F01B0
:100050000C942C100C941F010C941F010C94A907F4
:100060000C941F010C9422010C94B8010C941F01F4
:100070000C941F010C941F010C941F010C941F0180
:100080000C941F010C941F010C941F010C94571029
:100090000C945B010C9405020C941F010C94E10D6F
:1000A0000C941F010C941F010C941F010C941F0150
:1000B0000C941F010C941F010C941F010C941F0140
:1000C0000C941F010C941F010C941F010C941F0130
:1000D0000C941F010C941F010C941F010C941F0120
:1000E0000C941F010C941F010C941F010C94620BC3
:1000F0000C94C50B0C941F010C941F010C94680CFC
:100100000C941F010C941F010C941F010C941F01EF
:100110000C941F010C941F010C941F010C941F01DF
:100120000504000201030F0F0F0F0F0E0E0E0D0D31
:100130000C0C0B0A0908070604020000000000244A
:100140000000002A002D00300033000000000000F5
:10015000000000000000000000250000002B002E21
:10016000003100340000000000000000000000002A
:100170000000000000260029002C002F00320000A3
:10018000000000000000000000050505050505054C
:100190000502020202020206060606060602040420
:1001A000040401024020040810801080402008024E
:1001B00001020408102004010220400000000B008E
:1001C000090A000705040300000000000000000009
:1001D00000000000000080031604390BA90FA811CD
:1001E000AF1100122112A1111A1211241FBECFEF5C
:1001F000D1E4DEBFCDBF12E0A0E0B2E0E0E5FAE27C
:1002000000E00BBF02C007900D92A635B107D9F7E9
:1002100016E0A6E5B2E001C01D92A53BB107E1F7EB
:1002200011E0C6EED1E004C02297FE010E9417152E
:10023000C63DD107C9F70E948B130C94A1140C94EE
:10024000000008951F920F920FB60F920BB60F92F7
:1002500011242F933F934F938F939F93EF93FF938B
:100260004091C60020919602309197022F5F3F4F38
:100270002F73307080919802909199022817390756
:1002800059F0E0919602F0919702EA5AFD4F4083AF
:100290003093970220939602FF91EF919F918F9157
:1002A0004F913F912F910F900BBE0F900FBE0F906B
:1002B0001F90189508951F920F920FB60F920BB6CC
:1002C0000F9211242F933F934F938F939F93EF930C
:1002D000FF934091CE0020911E0330911F032F5FAA
:1002E0003F4F2F7330708091200390912103281786
:1002F000390759F0E0911E03F0911F03E252FD4FC0
:10030000408330931F0320931E03FF91EF919F9131
:100310008F914F913F912F910F900BBE0F900FBE79
:100320000F901F901895E0919103F0919203E05C7B
:10033000FF4F8191919120813181821B930B8F73AB
:100340009070892B11F00E942101E0919103F091AE
:100350009203E05CFF4F8191919120813181821B5A
:10036000930B8F739070892B11F00E945A0108959E
:100370001F920F920FB60F920BB60F9211242F936C
:100380003F934F935F936F937F938F939F93AF931D
:10039000BF93EF93FF932091DA023091DB028091BB
:1003A000DC029091DD022817390731F48091C100F9
:1003B0008F7D8093C10016C0E091DC02F091DD02D8
:1003C000E656FD4F40818091DC029091DD0201965E
:1003D00060E470E00E94E0149093DD028093DC0200
:1003E0004093C600FF91EF91BF91AF919F918F9184
:1003F0007F916F915F914F913F912F910F900BBE25
:100400000F900FBE0F901F9018951F920F920FB66E
:100410000F920BB60F9211242F933F934F935F933C
:100420006F937F938F939F93AF93BF93EF93FF93BC
:10043000209162033091630380916403909165037E
:100440002817390731F48091C9008F7D8093C90046
:1004500016C0E0916403F0916503EE5DFC4F4081AE
:100460008091640390916503019660E470E00E94BE
:10047000E01490936503809364034093CE00FF9152
:10048000EF91BF91AF919F918F917F916F915F910C
:100490004F913F912F910F900BBE0F900FBE0F9079
:1004A0001F901895AF92BF92DF92EF92FF920F9339
:1004B0001F93CF93DF93EC017A018B01DD24403051
:1004C00081EE580780E0680780E0780711F0DD24AE
:1004D000D39491E0A92EB12CEC89FD89DD2069F03F
:1004E000C5010E8C02C0880F991F0A94E2F7808321
:1004F00060E079E08DE390E005C0108260E874E888
:100500008EE190E0A80197010E94F3142150304041
:1005100040405040569547953795279580E12030CB
:10052000380720F0DD2011F0DD24D6CFE889F989E5
:100530003083EA89FB892083EE89FF89408121E0AD
:1005400030E0C9010A8C02C0880F991F0A94E2F7B3
:10055000482B4083EE89FF894081C9010B8C02C082
:10056000880F991F0A94E2F7482B4083EE89FF8990
:100570004081C9010C8C02C0880F991F0A94E2F7D0
:10058000482B4083EE89FF8980810D8C02C0220FA9
:10059000331F0A94E2F7209528232083DF91CF911F
:1005A0001F910F91FF90EF90DF90BF90AF90089553
:1005B000DC011C96ED91FC911D97E05CFF4F2191B1
:1005C000319180819181281B390B2F733070C901C3
:1005D0000895DC011C96ED91FC911D97E05CFF4FA6
:1005E00020813181E054F040DF01AE5BBF4F8D913F
:1005F0009C9111972817390719F42FEF3FEF07C087
:100600008D919C91E80FF91F8081282F30E0C9015E
:100610000895DC011C96ED91FC911D97E05CFF4F65
:1006200020813181E054F040DF01AE5BBF4F8D91FE
:100630009C9111972817390719F42FEF3FEF10C03D
:100640008D919C911197E80FF91F20818D919C91BC
:10065000119701968F73907011969C938E9330E052
:10066000C9010895FC0186859785DC01A05CBF4F18
:10067000FC01EE5BFF4F2D913C91119780819181A0
:1006800028173907C1F70895CF93DF93EC01462F60
:10069000EE85FF85E05CFF4F80819181E054F04062
:1006A000019660E470E00E94E0149C01DF01AE5B03
:1006B000BF4F8D919C91119728173907D1F3E05CBA
:1006C000FF4F80819181E054F040E80FF91F408393
:1006D000EE85FF85E05CFF4F31832083EE89FF8943
:1006E000208181E090E00D8C02C0880F991F0A9450
:1006F000E2F7282B208381E090E0DF91CF910895ED
:100700001F93109269031092680328EE33E040E0D3
:1007100050E020936A0330936B0340936C03509333
:100720006D0363E272E0709367036093660386E58E
:1007300092E090937303809372038AE992E090931E
:1007400075038093740385EC90E090937703809316
:10075000760384EC90E0909379038093780380ECA7
:1007600090E090937B0380937A0381EC90E09093E8
:100770007D0380937C0386EC90E090937F038093CD
:100780007E0314E010938003B3E0B0938103A7E0ED
:10079000A0938203F5E0F0938303E1E0E093840308
:1007A00010928803109287032093890330938A0361
:1007B00040938B0350938C0370938603609385035F
:1007C0008EED92E0909392038093910382E293E006
:1007D00090939403809393038DEC90E09093960311
:1007E000809395038CEC90E090939803809397030B
:1007F00088EC90E090939A038093990389EC90E0C1
:1008000090939C0380939B038EEC90E090939E03C7
:1008100080939D0310939F03B093A003A093A10323
:10082000F093A203E093A3031F91089583E392E062
:100830009093A5038093A4031092A6031092A7039C
:100840001092A8031092A90308958F929F92AF92DD
:10085000BF92CF92DF92EF92FF920F931F93CF93AD
:10086000DF934C016B017C01AA24BB24C0E0D0E0E3
:10087000C601F70162814AE050E00E9440058C0108
:10088000C6016EE20E949104080F191FA00EB11E4E
:1008900021960894E11CF11CC330D10549F7C6012B
:1008A000F40165814AE050E00E9440059501280F5F
:1008B000391FC901DF91CF911F910F91FF90EF90E8
:1008C000DF90CF90BF90AF909F908F900895CF9280
:1008D000DF92EF92FF920F931F93CF93DF937C01F0
:1008E0006B018A01C0E0D0E00FC0D6016D916D01AF
:1008F000D701ED91FC910190F081E02DC7010995A0
:10090000C80FD91F015010400115110571F7CE0114
:10091000DF91CF911F910F91FF90EF90DF90CF90DB
:100920000895DC01ED91FC910190F081E02D099595
:100930000895EF92FF920F931F938C01DC01ED91CC
:10094000FC910190F081E02D6DE009957C01D801CA
:10095000ED91FC910190F081E02DC8016AE00995CC
:100960009C012E0D3F1DC9011F910F91FF90EF902B
:100970000895CF93DF93DB010D900020E9F71197E5
:10098000A61BB70BEC01E881F9810280F381E02D11
:10099000AD010995DF91CF9108954F925F927F92BB
:1009A0008F929F92AF92BF92CF92DF92EF92FF927F
:1009B0000F931F93DF93CF93CDB7DEB7A1970FB6F9
:1009C000F894DEBF0FBECDBF2C01742ECB012230B8
:1009D00008F42AE019A231E2C32ED12CCC0EDD1E80
:1009E000822E9924AA24BB24672D752FA50194017A
:1009F0000E94F31479018A01C801B701A50194018D
:100A00000E94AD14472D461B0894C108D1084A30F6
:100A100010F4405D01C0495CF6014083E114F1042B
:100A20000105110521F07E2C5F2DC801DDCFC2012B
:100A3000B6010E94B904A1960FB6F894DEBF0FBEAE
:100A4000CDBFCF91DF911F910F91FF90EF90DF907D
:100A5000CF90BF90AF909F908F907F905F904F907E
:100A60000895DC012115310541F4ED91FC910190CF
:100A7000F081E02D642F099508950E94CD0408951A
:100A8000EF92FF920F931F939A01E62EFF2400E04E
:100A900010E0B801A7010E9431051F910F91FF904E
:100AA000EF900895CF92DF92EF92FF920F931F93F2
:100AB000CF93DF93EC016A017B012115310541F4ED
:100AC000E881F9810190F081E02D642F09951FC024
:100AD0002A303105D1F477FF17C0E881F981019000
:100AE000F081E02D6DE209958C0144275527BA016C
:100AF0004C195D096E097F09CE012AE00E94CD04E0
:100B00009801280F391F04C02AE00E94CD049C01DF
:100B1000C901DF91CF911F910F91FF90EF90DF906E
:100B2000CF900895EF92FF920F931F937B019A014C
:100B30000027F7FC0095102FB801A7010E9452056D
:100B40001F910F91FF90EF900895CF92DF92EF9257
:100B5000FF920F931F936C017B019A010027F7FC12
:100B60000095102FB801A7010E9452058C01C60103
:100B70000E949904080F191FC8011F910F91FF903F
:100B8000EF90DF90CF9008950E94B90408958230CD
:100B9000B9F0833028F4882351F0813051F50AC030
:100BA000843011F18430E8F0853019F520C01092BE
:100BB0006E00089580916F008D7F80936F0008957F
:100BC000809170008D7F8093700081E08093B000F1
:100BD0008091B100887F84608093B1001092B3004F
:100BE0000895109271000895109272000895109265
:100BF000730008951F93182FA9E1B2E020E231E0BD
:100C00009FEF4FEF8C91811719F4F90194914C9358
:100C100011962F5F3F4FF2E0AF31BF0799F7892F51
:100C20000E94C705812F60E00E9448091F91089526
:100C30001F920F920FB60F920BB60F9211242F93A3
:100C40003F934F935F936F937F938F939F93AF9354
:100C5000BF93EF93FF938091AA039091AB03A09170
:100C6000AC03B091AD030097A105B10551F1E0913E
:100C7000AE03F091AF0380819091B0038927808308
:100C80008091AA039091AB03A091AC03B091AD0306
:100C9000181619061A061B06C4F48091AA0390912F
:100CA000AB03A091AC03B091AD030197A109B109C9
:100CB0008093AA039093AB03A093AC03B093AD03CE
:100CC00004C0809119020E94FA05FF91EF91BF9133
:100CD000AF919F918F917F916F915F914F913F91D4
:100CE0002F910F900BBE0F900FBE0F901F90189575
:100CF0001F920F920FB60F920BB60F9211242F93E3
:100D00003F934F935F936F937F938F939F93AF9393
:100D1000BF93EF93FF938091B1039091B203892B1E
:100D200029F0E091B103F091B2030995FF91EF91A1
:100D3000BF91AF919F918F917F916F915F914F91F3
:100D40003F912F910F900BBE0F900FBE0F901F90F1
:100D500018951F920F920FB60F920BB60F92112497
:100D60002F933F934F935F936F937F938F939F93B3
:100D7000AF93BF93EF93FF938091B3039091B4032C
:100D8000892B29F0E091B303F091B4030995FF9109
:100D9000EF91BF91AF919F918F917F916F915F91F3
:100DA0004F913F912F910F900BBE0F900FBE0F9060
:100DB0001F9018951F920F920FB60F920BB60F92BD
:100DC00011242F933F934F935F936F937F938F9350
:100DD0009F93AF93BF93EF93FF938091B50390914F
:100DE000B603892B29F0E091B503F091B60309957C
:100DF000FF91EF91BF91AF919F918F917F916F91F3
:100E00005F914F913F912F910F900BBE0F900FBEAE
:100E10000F901F9018951F920F920FB60F920BB65E
:100E20000F9211242F933F934F935F936F937F9370
:100E30008F939F93AF93BF93EF93FF938091B703EB
:100E40009091B803892B29F0E091B703F091B80392
:100E50000995FF91EF91BF91AF919F918F917F91F4
:100E60006F915F914F913F912F910F900BBE0F901B
:100E70000FBE0F901F9018951F920F920FB60F92F2
:100E80000BB60F9211242F933F934F935F936F9361
:100E90007F938F939F93AF93BF93EF93FF93809133
:100EA000B9039091BA03892B29F0E091B903F0912D
:100EB000BA030995FF91EF91BF91AF919F918F91E7
:100EC0007F916F915F914F913F912F910F900BBE4A
:100ED0000F900FBE0F901F9018951F920F920FB694
:100EE0000F920BB60F9211242F933F934F935F9362
:100EF0006F937F938F939F93AF93BF93EF93FF93E2
:100F00008091BB039091BC03892B29F0E091BB0336
:100F1000F091BC030995FF91EF91BF91AF919F9123
:100F20008F917F916F915F914F913F912F910F9092
:100F30000BBE0F900FBE0F901F901895009711F0E9
:100F40000E94491408950E94491408950E949C1318
:100F500008951F920F920FB60F9211242F933F9373
:100F60008F939F93AF93BF938091C5039091C603D6
:100F7000A091C703B091C8033091C9030196A11D88
:100F8000B11D232F2D5F2D3720F02D570196A11D68
:100F9000B11D2093C9038093C5039093C603A0930A
:100FA000C703B093C8038091C1039091C203A0917D
:100FB000C303B091C4030196A11DB11D8093C10369
:100FC0009093C203A093C303B093C403BF91AF91A6
:100FD0009F918F913F912F910F900FBE0F901F9077
:100FE00018959FB7F8942091C1033091C2034091A6
:100FF000C3035091C40386B5A89B06C08F3F21F060
:101000002F5F3F4F4F4F5F4F9FBF542F432F322FC4
:101010002227280F311D411D511D82E0220F331F51
:10102000441F551F8A95D1F7B901CA010895EF925F
:10103000FF920F931F93CF93DF937B018C010E944C
:10104000F107EB010EC00E94F1076C1B7D0B685E7F
:101050007340C8F30894E108F10801091109C85167
:10106000DC4FE114F1040105110569F7DF91CF911F
:101070001F910F91FF90EF900895789484B582604E
:1010800084BD84B5816084BD85B5826085BD85B52C
:10109000816085BDEEE6F0E0808181608083E1E8DB
:1010A000F0E0108280818260808380818160808313
:1010B000E0E8F0E0808181608083E1EBF0E0808116
:1010C00084608083E0EBF0E0808181608083E1E9EF
:1010D000F0E0808182608083808181608083E0E9AC
:1010E000F0E0808181608083E1EAF0E080818260CD
:1010F0008083808181608083E0EAF0E0808181608C
:101100008083E1E2F1E08081826080838081816080
:101110008083E0E2F1E0808181608083EAE7F0E0B3
:10112000808184608083808182608083808181600F
:101130008083808180688083ECE7F0E08081806438
:1011400080831092C1000895482F50E0CA018E5547
:101150009E4FFC01249147575E4FFA0184918823EA
:10116000C1F0E82FF0E0EE0FFF1FE55CFE4FA59108
:10117000B491662341F49FB7F8948C912095822313
:101180008C939FBF08959FB7F8948C91822B8C937A
:101190009FBF0895893009F44FC08A30A0F484308D
:1011A00081F1853040F48230C9F1833030F58130EF
:1011B00009F06DC030C08730A9F18830B8F58530AE
:1011C00009F065C022C08D3009F448C08E3028F483
:1011D0008B30D1F18C30F0F533C0803109F448C048
:1011E000813120F48E3009F052C03CC0813109F4C5
:1011F00043C0823109F04BC045C0809180008F7799
:1012000007C0809180008F7D03C080918000877F20
:1012100080938000089584B58F7702C084B58F7D58
:1012200084BD08958091B0008F7703C08091B00095
:101230008F7D8093B0000895809190008F7707C0D4
:10124000809190008F7D03C080919000877F809374
:10125000900008958091A0008F7707C08091A00032
:101260008F7D03C08091A000877F8093A0000895A8
:10127000809120018F7703C0809120018F7D809322
:101280002001089580912001877F80932001089597
:10129000FF920F931F93F62E482F50E0CA018554FA
:1012A0009E4FFC012491CA018E559E4FFC01149162
:1012B00047575E4FFA0104910023C9F0222319F029
:1012C000822F0E94CA08E02FF0E0EE0FFF1FEB5ABA
:1012D000FE4FA591B4919FB7F894FF2021F48C9113
:1012E0001095812302C08C91812B8C939FBF1F91FD
:1012F0000F91FF90089570935605609355050895DA
:10130000709353056093520510924D05672B19F0A9
:1013100081E080934D050895CF93DF93582F40933C
:101320004B0580914C05882309F044C08091CA0484
:10133000583030F4C82FD0E0462FCB01DC0135C047
:10134000C82FD0E097E0252F30E02250304015C064
:101350008091C904E82FF0E03196AF014F775070CB
:1013600031974C175D0771F1E75BFB4FA60FB71F75
:101370008C9180834093C9049F5FA92FB0E0A2178E
:10138000B30734F31FC08091C904E82FF0E0319611
:101390009F012F77307031972C173D0799F0E75B4D
:1013A000FB4F8D9180832093C9048A2F841B85175E
:1013B00050F308C0E0915005F0915105852F099533
:1013C0009C0102C029E434E0C901DF91CF91089566
:1013D0009091CA048091C904891719F42FEF3FEF47
:1013E0000CC0892F90E0FC01E75BFB4F2081019648
:1013F0008F7790708093CA0430E0C901089580917E
:10140000C90490E080589F4F2091CA04821B910923
:1014100060E870E00E94E014089581E080934E053A
:1014200087E080934A0508959C0180914D058823AB
:1014300031F0E0915205F0915305C90109951092E0
:101440004F050895DF93CF9300D0CDB7DEB710924C
:101450004E0580914A058E5F80934A05F8948FEF80
:101460009FEF9A83898380914F058823A1F089811A
:101470009A8101979A838983019669F0F4CF8091CC
:101480004F058823D1F089819A8101979A838983B6
:10149000019699F0F4CF81E080934F050E94EE0B06
:1014A0005D9A80914A056BEC74E040E00E948E0BDF
:1014B0008FEF9FEF9A838983E2CF82E00E94EE0B49
:1014C00010924F0578940F900F90CF91DF9108956F
:1014D000DF93CF9300D0CDB7DEB79C0180914E054E
:1014E0008823D1F080914A058D3708F04DC0E82F50
:1014F000F0E0E553FB4F60838F5F80934A058D37A3
:1015000009F042C0C9010E94220A81E080934E0581
:1015100087E080934A0538C06093D2041092D304C8
:101520001092D4048FEF9FEF9A83898380914F05A7
:101530008823A1F089819A8101979A8389830196F2
:1015400069F0F4CF80914F058823C9F089819A8191
:1015500001979A838983019691F0F4CF81E080937B
:101560004F050E94EE0B5D9A8AE06BEC74E040E060
:101570000E948E0B8FEF9FEF9A838983E3CF82E0E7
:101580000E94EE0B10924F050F900F90CF91DF91BC
:101590000895EF92FF920F931F93CF93DF937C01F7
:1015A000042FEB0110E005C0C70169910E94680A91
:1015B0001F5F1017C8F3DF91CF911F910F91FF901C
:1015C000EF9008951F93CF93DF93162FEA018AECD3
:1015D00093E06FE70E942A0D209781F020E030E031
:1015E000F901E553FB4FDE01A20FB31F8C918083FD
:1015F0002F5F3F4F2730310599F714C081E080936A
:10160000CB0480E88093CC041092CD0481E18093D8
:10161000CE0482E28093CF0483E38093D00484E4F9
:101620008093D10480E090E0612F70E00E94B20CC2
:1016300082E00E94EE0B569A559A5E985D98DF9173
:10164000CF911F91089540E050E00E94E20A089572
:101650001092560510925505109258051092570594
:101660008CE899E00E94580B84E19AE00E945D0B9F
:10167000089584E595E00E94280B0895E0915505B2
:10168000F0915605309709F009950895E0915905B4
:10169000F0915A05309711F00995BC01CB010895DE
:1016A000E0915B05F0915C05309709F0099508958C
:1016B00090935A0580935905089590935C05809303
:1016C0005B0508951F920F920FB60F920BB60F9203
:1016D00011242F933F934F935F936F937F938F9337
:1016E0009F93AF93BF93EF93FF935E9A86E00E9420
:1016F000770D8093B006FF91EF91BF91AF919F91CD
:101700008F917F916F915F914F913F912F910F90AA
:101710000BBE0F900FBE0F901F9018950E94BB0D2F
:10172000E9E3F1E080818260808380818D7F808326
:1017300008951F93DF93CF930F92CDB7DEB786E066
:1017400060E847E00E947D0D182F8091620590911E
:10175000630560916405AE014F5F5F4F0E949C0D71
:101760008F77609162057091630520E0112309F481
:1017700021E049810E94460B9093630580936205A6
:101780000F90CF91DF911F9108951F920F920FB686
:101790000F920BB60F9211242F933F934F935F93A9
:1017A0006F937F938F939F93AF93BF93EF93FF9329
:1017B0005E980E94990BFF91EF91BF91AF919F911D
:1017C0008F917F916F915F914F913F912F910F90EA
:1017D0000BBE0F900FBE0F901F901895CF92DF9207
:1017E000FF920F931F93DF93CF9300D00F92CDB74B
:1017F000DEB7F82E82E0F81689F08F1530F0FF2062
:10180000F1F081E0F816C1F40BC084E0F81651F055
:10181000F81650F085E0F81679F408C086E010C09C
:1018200089E00EC086E10CC089E10AC088E08A83A5
:1018300083E0898311E007C084E00E943E0B88E0CA
:101840008A83898310E080916005853059F41123E3
:10185000A1F5809139018D7F8093390180ED97E06A
:101860000197F1F7298182E06FE140E00E948A0D43
:101870000CE830E8C32ED12C81E06FE140E00E94FB
:101880007D0D8B839A818B81981739F0C601019762
:10189000F1F7002311F00150EFCF9A818B81981757
:1018A00019F081E00E943E0B112329F0809139014B
:1018B000826080933901F09260050F900F900F9035
:1018C000CF91DF911F910F91FF90DF90CF900895FE
:1018D0001F920F920FB60F920BB60F9211242F93F7
:1018E0003F934F935F936F937F938F939F93AF93A8
:1018F000BF93EF93FF935D9880916005813019F459
:1019000080E090E016C08330D1F482E060EE45E0E4
:101910000E947D0D833029F0833028F0853039F422
:1019200004C081E005C080E003C082E001C083E024
:1019300090E00E94500B809161050E94EE0BFF9198
:10194000EF91BF91AF919F918F917F916F915F9137
:101950004F913F912F910F900BBE0F900FBE0F90A4
:101960001F9018950F931F93CF93DF93162F072F78
:101970008430C9F1853058F4813009F466C0813073
:1019800090F08230F1F0833009F05CC037C08630CF
:1019900009F43FC08630C0F1873009F442C0883076
:1019A00009F050C04BC0862F8B50803108F04AC0E0
:1019B00088E06FE140E0212F0E948A0D10935D05C1
:1019C00044C0E62FEF5EE53108F03CC060935E0551
:1019D000F0E0EA5DFE4FE081F0E0E49185E06FE049
:1019E00040E02E2F08C0643068F560935F0588E002
:1019F00060E645E0212F0E948A0D27C060936105B3
:101A0000862F0E94EE0B21C082E20E94710D83E2BC
:101A100004C080E20E94710D81E2602F0E94710D6E
:101A200014C0862F972F9C01E90114E2812F699140
:101A30000E94710D1F5F1C32C9F707C0862F0E94DC
:101A40006D0D03C082E00E943E0BDF91CF911F918C
:101A50000F910895909363058093620560936405E8
:101A6000809139018E7F80933901809139018D7F7A
:101A70008093390188E190E00197F1F78091390175
:101A80008160809339018EE060E00E94710D8FE0EB
:101A90000E94770D82E06FE140E028E00E948A0D0D
:101AA00088EF97E00197F1F781E06FE140E00E9455
:101AB0007D0D883019F081E00E943E0B84E060E2E9
:101AC00045E021E00E948A0D8EE06CE40E94710DD9
:101AD00010926005109261050895833309F08FEF2D
:101AE0000895E82FF0E0E05CFE4F60830895E82F52
:101AF000F0E0E05CFE4F80810895E82FF0E0E05CCC
:101B0000FE4F8081862390E002C0959587954A9587
:101B1000E2F70895E82FF0E0E05CFE4F30E002C00D
:101B2000220F331F4A95E2F7962F9223609580810A
:101B30008623982B90830895FF920F931F93CF9342
:101B4000DF93EA01F0907B01F61608F46F2D062F63
:101B500010E060E871E0402F50E00E94A4140058AB
:101B60001E4FF801808188838F2DDF91CF911F91C7
:101B70000F91FF900895482F87FD4FE74093800114
:101B800081E891E050E00E94A4140895482F61324A
:101B900010F081E0089580916505843011F082E0B5
:101BA00008956093AE05ADE8B5E0842F9C01F9017E
:101BB00002C081918D938E2F841B8617D0F380E015
:101BC00008951F920F920FB60F920BB60F92112429
:101BD0002F933F934F935F936F937F938F939F9335
:101BE000AF93BF93EF93FF938091B90090E0887F0C
:101BF00090708036910509F4DCC081369105CCF5F2
:101C00008832910509F47BC089329105B4F48031A2
:101C1000910509F46FC0813191053CF4009709F4F6
:101C200031C1089709F039C165C08831910509F4BF
:101C300066C0809709F031C17DC08034910509F4F8
:101C40009FC08134910544F48033910509F47DC02F
:101C5000C89709F022C184C08035910509F484C079
:101C60008835910509F491C08834910509F015C1B2
:101C700098C08839910509F4FDC089399105ECF4C3
:101C80008837910509F495C0893791054CF4883659
:101C9000910509F48EC08037910509F0FEC089C016
:101CA0008838910509F4E6C08039910509F487C0A8
:101CB0008038910509F0F1C082C0803B910509F49C
:101CC000B0C0813B91054CF4803A910509F489C07C
:101CD000883A910509F0E1C0A4C0803C910509F45F
:101CE000CDC0883C910509F4C9C0883B910509F035
:101CF000D4C0ACC0809166058093BB00B9C0909100
:101D00008B0580918C05981768F490918B05E92FCD
:101D1000F0E0E559FA4F80818093BB009F5F90937C
:101D20008B05A6C085ED8093BC008091BC0084FD2E
:101D3000FCCFB1C080E28093D00585ED8093BC00DC
:101D40008091BC0084FDFCCFA6C080E38093D005C9
:101D500085ED8093BC008091BC0084FDFCCF9BC0CE
:101D600088E38093D0058AC080918B059091BB0059
:101D7000E82FF0E0E559FA4F90838F5F80938B0551
:101D800090918B0580918C0571C080918B0590910D
:101D9000BB00E82FF0E0E559FA4F90838F5F809306
:101DA0008B0585ED8093BC008091BC0084FDFCCF49
:101DB00072C083E0809365051092CF0559C0809171
:101DC000CF05803208F056C08091CF059091BB00BE
:101DD000E82FF0E0E155FA4F90838F5F8093CF05B5
:101DE00047C08091CF05803230F4E091CF05F0E01C
:101DF000E155FA4F108285ED8093BC008091BC00C4
:101E000084FDFCCF109265056091CF05E0916905D6
:101E1000F0916A058FEA95E070E009951092CF0580
:101E20002DC084E0809365051092AD051092AE053B
:101E3000E0916705F091680509958091AE058823CA
:101E400029F481E08093AE0510928D059091AD0547
:101E5000E92FF0E0E357FA4F80818093BB009F5F4A
:101E60009093AD059091AD058091AE05981710F453
:101E700085EC01C085E88093BC000FC085EC8093A1
:101E8000BC0009C01092D00585ED8093BC00809104
:101E9000BC0084FDFCCF10926505FF91EF91BF91CE
:101EA000AF919F918F917F916F915F914F913F91F2
:101EB0002F910F900BBE0F900FBE0F901F90189593
:101EC0001092650585E161E00E94480986E161E0C4
:101ED0000E944809E9EBF0E080818E7F8083808159
:101EE0008D7F808388E48093B80085E48093BC0074
:101EF00008952091F20530E08091F105281B310909
:101F0000C90108954091F1058091F205481718F034
:101F10002FEF3FEF0AC0E42FF0E0EF52FA4F80813D
:101F2000282F30E04F5F4093F105C9010895E091FB
:101F3000F1058091F205E81718F0EFEFFFEF06C00A
:101F4000F0E0EF52FA4F8081E82FF0E0CF010895E2
:101F50000895109219061092180688EE93E0A0E0FA
:101F6000B0E080931A0690931B06A0931C06B093D2
:101F70001D0689E392E09093170680931606089554
:101F8000CF92DF92EF92FF920F931F93CF93DF9345
:101F90007C016B018A01809115068823A1F0C0E0C5
:101FA000D0E00DC0D701ED91FC91D601AC0FBD1F63
:101FB0000190F081E02DC7016C9109952196C01721
:101FC000D10780F304C0CB01642F0E94C60DC80165
:101FD000DF91CF911F910F91FF90EF90DF90CF9005
:101FE0000895DF93CF930F92CDB7DEB7FC016983DD
:101FF000809115068823C9F080911406803238F04C
:1020000081E090E09383828320E030E015C08091EE
:102010001306E82FF0E0ED50FA4F998190838F5F1F
:10202000809313068093140605C0CE01019661E0EB
:102030000E94C60D21E030E0C9010F90CF91DF91E1
:1020400008951092F1051092F20510921306109265
:1020500014060E94600F08951F920F920FB60F9200
:102060000BB60F9211242F933F934F935F936F936F
:102070007F938F939F93AF93BF93EF93FF93E091E1
:102080002606F09127060995FF91EF91BF91AF9138
:102090009F918F917F916F915F914F913F912F9180
:1020A0000F900BBE0F900FBE0F901F9018951F92B0
:1020B0000F920FB60F920BB60F9211242F933F93EE
:1020C0004F935F936F937F938F939F93AF93BF9340
:1020D000EF93FF93E0912A06F0912B060995FF916B
:1020E000EF91BF91AF919F918F917F916F915F9190
:1020F0004F913F912F910F900BBE0F900FBE0F90FD
:102100001F9018950F931F93CF93DF93FC01838D3E
:10211000A685B7859585082F027081FF05C08C9133
:10212000892309F454C004C08C91892309F04FC05D
:102130008389948920E001972FEF8F3F9207D9F789
:10214000C589D689A685B785758560E031E040E010
:1021500050E010E0CE01212F01972FEF8F3F920723
:10216000D9F78C91872311F0632B03C0832F8095BF
:102170006823330F4F5F5F4F4830510559F7878908
:10218000908D20E001972FEF8F3F9207D9F7011133
:10219000609580916E0620916F0690E001968F7396
:1021A000907030E08217930779F0E0916E06F0E0CE
:1021B000E25DF94F608380916E0690E001968F7327
:1021C000907080936E0603C0838D8160838FDF9152
:1021D000CF911F910F91089580912C0690912D061B
:1021E000009711F00E94821008951F920F920FB66F
:1021F0000F920BB60F9211242F933F934F935F933F
:102200006F937F938F939F93AF93BF93EF93FF93BE
:102210000E94EC10FF91EF91BF91AF919F918F9130
:102220007F916F915F914F913F912F910F900BBED6
:102230000F900FBE0F901F9018951F920F920FB620
:102240000F920BB60F9211242F933F934F935F93EE
:102250006F937F938F939F93AF93BF93EF93FF936E
:102260000E94EC10FF91EF91BF91AF919F918F91E0
:102270007F916F915F914F913F912F910F900BBE86
:102280000F900FBE0F901F9018951F920F920FB6D0
:102290000F920BB60F9211242F933F934F935F939E
:1022A0006F937F938F939F93AF93BF93EF93FF931E
:1022B0000E94EC10FF91EF91BF91AF919F918F9190
:1022C0007F916F915F914F913F912F910F900BBE36
:1022D0000F900FBE0F901F901895FC0189E492E0BB
:1022E000918380830895FC0189E492E09183808347
:1022F000CF010E94A3070895FC0189E492E0918335
:1023000080838EE060E00E94A4088EE060E00E947E
:10231000480908958130910541F46F5F7F4F81F442
:1023200080E796E00E947C110895892B49F46F5F45
:102330007F4F31F489E492E09093710680937006A8
:10234000089580E090E06FEF7FEF0E948A1108957A
:1023500081E090E06FEF7FEF0E948A11089588E698
:10236000809372060895FC0181E592E09183808359
:1023700082819381009711F00E949E070895CF9368
:10238000DF93EC0181E592E0998388838A819B81C8
:10239000009711F00E949E07CE010E94A307DF91D3
:1023A000CF9108951F93CF93DF93EC01162F81E512
:1023B00092E0998388831C821E821F821886198668
:1023C0001D82862F90E0880F991F880F991F0E9409
:1023D000A6079B838A8320E080E090E00AC0EA8120
:1023E000FB81E80FF91F10821182128213822F5F86
:1023F00004962117A0F31A87DF91CF911F910895BA
:102400008EE18093810608958130910549F46F5FD4
:102410007F4F79F489E896E065E00E94D211089533
:10242000892B39F46F5F7F4F21F489E896E00E9491
:10243000B311089580E090E06FEF7FEF0E940412E7
:10244000089581E090E06FEF7FEF0E9404120895FD
:10245000FF920F931F93F82E05E813E0C8010E9426
:102460009904C80160E072E00E94C405C8016F2DA4
:102470004AE050E00E944005C8010E9499041F9163
:102480000F91FF900895FF920F931F93F82E05E888
:1024900013E0C8010E949904C80169E072E00E943B
:1024A000C405C8016F2D4AE050E00E944005C801F4
:1024B0000E9499041F910F91FF900895DF93CF938D
:1024C000CDB7DEB72D970FB6F894DEBF0FBECDBFE8
:1024D0001092A3061092A20681E08093A106DE016D
:1024E0001196E1EAF6E08DE001900D928150E1F75E
:1024F00084E595E00E940D0A84E595E0BE016F5FDA
:102500007F4F4DE00E94C90A84E595E00E94220AAF
:102510002D960FB6F894DEBF0FBECDBFCF91DF91E1
:1025200008958091950690919606029709F073C0E0
:1025300080919406823009F06EC085E893E062E0F5
:102540004AE050E00E94400585E893E061E172E0D6
:102550000E94C405609195067091960685E893E007
:102560004AE050E00E94920585E893E061E172E064
:102570000E94C40560919706772767FD709585E8EE
:1025800093E04AE050E00E94920585E893E061E123
:1025900072E00E94C40560919806772767FD7095E8
:1025A00085E893E04AE050E00E94920585E893E0D8
:1025B00061E172E00E94C40560919906772767FD8A
:1025C000709585E893E04AE050E00E94920585E826
:1025D00093E061E172E00E94C40560919A0677275A
:1025E00067FD709585E893E04AE050E00E9492050F
:1025F00085E893E061E172E00E94C40560919B066A
:10260000772767FD709585E893E04AE050E00E94E7
:10261000A5050E945E120895EF92FF920F931F93FB
:10262000DF93CF93CDB7DEB72D970FB6F894DEBF0B
:102630000FBECDBF84E595E00E94FF098D3014F1F7
:102640001092AF061092AE068E010F5F1F4F8EE004
:10265000E82EF12CEC0EFD1E84E595E00E94E809C1
:10266000F80181938F01EE15FF05B1F7A4E9B6E0FB
:10267000FE0131968DE001900D928150E1F70E94AC
:10268000911211C08091AE069091AF060196909381
:10269000AF068093AE060D9730F01092AF06109201
:1026A000AE060E945E126AE070E080E090E00E9458
:1026B00017082D960FB6F894DEBF0FBECDBFCF9191
:1026C000DF911F910F91FF90EF9008950F931F934B
:1026D00086E196E00E94211085E893E040E855E20B
:1026E00060E070E00E94520287E161E00E94A4086D
:1026F00004E515E0C80165E10E94230BC80163E40D
:1027000072E10E947B09C80168E272E10E948009BF
:102710001F910F910895CF93DF930E943D080E946F
:1027200066130E945E12C3E9D1E00E940C13209749
:10273000E1F30E949301F9CFCF93DF93BC01823084
:10274000910510F462E070E0A091B306B091B40678
:10275000ED01E0E0F0E040E050E021C088819981A7
:102760008617970769F48A819B81309719F09383C4
:10277000828304C09093B4068093B306FE0134C0F4
:102780006817790738F44115510519F08417950732
:1027900008F4AC01FE018A819B819C01E90120972C
:1027A000E9F641155105A9F1CA01861B970B04975B
:1027B00008F4BA01E0E0F0E02AC08D919C911197F5
:1027C00084179507F9F46417750781F412968D91B3
:1027D0009C911397309719F09383828304C0909350
:1027E000B4068093B306FD0132964FC0CA01861B22
:1027F000970BFD01E80FF91F6193719302978D9379
:102800009C9343C0FD01828193819C01D901109763
:10281000A1F68091B1069091B206892B41F4809186
:102820001502909116029093B2068093B1064091E2
:102830001702509118024115510541F44DB75EB78A
:102840008091130290911402481B590B2091B106FC
:102850003091B20624173507B0F4CA01821B930BDE
:102860008617970780F0AB014E5F5F4F841795077F
:1028700050F0420F531F5093B2064093B106F90136
:102880006193719302C0E0E0F0E0CF01DF91CF915E
:102890000895CF93DF93009709F450C0EC0122977D
:1028A0001B821A82A091B306B091B406109709F169
:1028B00040E050E0AC17BD0708F1BB83AA83FE01DE
:1028C00021913191E20FF31FAE17BF0779F48D917B
:1028D0009C911197280F391F2E5F3F4F3983288312
:1028E00012968D919C9113979B838A834115510574
:1028F00071F4D093B406C093B30620C012968D91A4
:102900009C911397AD01009711F0DC01D3CFFA0130
:10291000D383C28321913191E20FF31FCE17DF07DA
:1029200069F488819981280F391F2E5F3F4FFA0182
:10293000318320838A819B8193838283DF91CF912E
:102940000895F8940C941B15FB01DC0102C0019062
:102950000D9241505040D8F70895629FD001739F67
:10296000F001829FE00DF11D649FE00DF11D929F2B
:10297000F00D839FF00D749FF00D659FF00D99276A
:10298000729FB00DE11DF91F639FB00DE11DF91F8E
:10299000BD01CF0111240895AA1BBB1B51E107C043
:1029A000AA1FBB1FA617B70710F0A61BB70B881FDF
:1029B000991F5A95A9F780959095BC01CD0108956E
:1029C00097FB092E07260AD077FD04D0E5DF06D055
:1029D00000201AF4709561957F4F0895F6F7909551
:1029E00081959F4F0895A1E21A2EAA1BBB1BFD01E2
:1029F0000DC0AA1FBB1FEE1FFF1FA217B307E407DE
:102A0000F50720F0A21BB30BE40BF50B661F771F35
:102A1000881F991F1A9469F7609570958095909515
:102A20009B01AC01BD01CF010895EE0FFF1F059082
:102A3000F491E02D099411E0C6EED1E004C0FE014E
:102A40000E9417152296CA3ED107C9F7F894FFCF06
:102A50005478446F6E653A20004572726F723A2066
:102A6000002C002000B5060000FFFFFFFFFFFF0065
:102A700000000044036704D8020903E9023203009E
:102A8000000000250400000000F10FC00F790F8244
:102A90000F970FA80F000000006D117311000000C8
:062AA00000B311BF11009C
:00000001FF
