:100000000C94EC000C9463070C9494070C94160168
:100010000C9416010C9401070C94D0060C949F06C6
:100020000C9432070C94E10F0C9409100C943110CD
:100030000C9416010C943F060C9416010C941601B6
:100040000C9416010C9416010C9416010C941601D4
:100050000C94180F0C9416010C9416010C94D007F4
:100060000C9416010C9419010C94AF010C94160118
:100070000C9416010C9416010C9416010C941601A4
:100080000C9416010C9416010C9416010C94430F59
:100090000C9452010C94FC010C9416010C94A60CC7
:1000A0000C9416010C9416010C9416010C94160174
:1000B0000C9416010C9416010C9416010C94160164
:1000C0000C9416010C9416010C9416010C94160154
:1000D0000C9416010C9416010C9416010C94160144
:1000E0000C9416010C9416010C9416010C94880AB9
:1000F0000C94E00A0C9416010C9416010C94830BDA
:100100000C9416010C9416010C9416010C94160113
:100110000C9416010C9416010C9416010C94160103
:1001200005040002010300000000240000002A0072
:100130002D0030003300000000000000000000002F
:1001400000000000250000002B002E0031003400CC
:10015000000000000000000000000000000000009F
:10016000260029002C002F003200000000000000B3
:10017000000000000505050505050505020202024F
:1001800002020606060606060204040404010240F2
:10019000200408108010804020080201020408108A
:1001A0002004010220400000000B00090A0007059E
:1001B0000403000000000000000000000000000038
:1001C000000077030D045F0A780E98109F106413E7
:1001D00022143C1491101B1411241FBECFEFD1E444
:1001E000DEBFCDBF13E0A0E0B2E0EAE1FEE200E056
:1001F0000BBF02C007900D92A830B107D9F716E0E7
:10020000A8E0B3E001C01D92A03BB107E1F711E007
:10021000C4EDD1E004C02297FE010E94FC16C23C4E
:10022000D107C9F70E9472150C9486160C94000031
:1002300008951F920F920FB60F920BB60F921124D2
:100240002F933F934F938F939F93EF93FF934091FF
:10025000C60020914803309149032F5F3F4F2F7311
:10026000307080914A0390914B032817390759F059
:10027000E0914803F0914903E85FFC4F40833093DD
:10028000490320934803FF91EF919F918F914F91E4
:100290003F912F910F900BBE0F900FBE0F901F90AC
:1002A000189508951F920F920FB60F920BB60F92EA
:1002B00011242F933F934F938F939F93EF93FF932B
:1002C0004091CE002091D0033091D1032F5F3F4F5A
:1002D0002F7330708091D2039091D3032817390780
:1002E00059F0E091D003F091D103E057FC4F4083E7
:1002F0003093D1032093D003FF91EF919F918F9181
:100300004F913F912F910F900BBE0F900FBE0F900A
:100310001F901895E0914304F0914404E05CFF4F76
:100320008191919120813181821B930B8F73907009
:10033000892B11F00E941801E0914304F0914404CC
:10034000E05CFF4F8191919120813181821B930B61
:100350008F739070892B11F00E94510108951F92A4
:100360000F920FB60F920BB60F9211242F933F935B
:100370004F935F936F937F938F939F93AF93BF93AD
:10038000EF93FF9320918C0330918D0380918E0326
:1003900090918F032817390731F48091C1008F7D28
:1003A0008093C10016C0E0918E03F0918F03E45B4F
:1003B000FC4F408180918E0390918F03019660E401
:1003C00070E00E94C51690938F0380938E03409334
:1003D000C600FF91EF91BF91AF919F918F917F9157
:1003E0006F915F914F913F912F910F900BBE0F90A6
:1003F0000FBE0F901F9018951F920F920FB60F927D
:100400000BB60F9211242F933F934F935F936F93EB
:100410007F938F939F93AF93BF93EF93FF9320911D
:100420001404309115048091160490911704281734
:10043000390731F48091C9008F7D8093C90016C0BF
:10044000E0911604F0911704EC52FC4F408180912A
:10045000160490911704019660E470E00E94C5169E
:1004600090931704809316044093CE00FF91EF9170
:10047000BF91AF919F918F917F916F915F914F91BC
:100480003F912F910F900BBE0F900FBE0F901F90BA
:100490001895AF92BF92DF92EF92FF920F931F9346
:1004A000CF93DF93EC017A018B01DD24403081EEA4
:1004B000580780E0680780E0780711F0DD24D394C6
:1004C00091E0A92EB12CEC89FD89DD2069F0C501F0
:1004D0000E8C02C0880F991F0A94E2F7808360E0B7
:1004E00079E08DE390E005C0108260E874E88EE169
:1004F00090E0A80197010E94D8162150304040405A
:100500005040569547953795279580E1203038071C
:1005100020F0DD2011F0DD24D6CFE889F989308381
:10052000EA89FB892083EE89FF89408121E030E060
:10053000C9010A8C02C0880F991F0A94E2F7482B60
:100540004083EE89FF894081C9010B8C02C0880F6E
:10055000991F0A94E2F7482B4083EE89FF89408176
:10056000C9010C8C02C0880F991F0A94E2F7482B2E
:100570004083EE89FF8980810D8C02C0220F331FDA
:100580000A94E2F7209528232083DF91CF911F91D1
:100590000F91FF90EF90DF90BF90AF900895DC0136
:1005A0001C96ED91FC911D97E05CFF4F21913191DC
:1005B00080819181281B390B2F733070C9010895F8
:1005C000DC011C96ED91FC911D97E05CFF4F2081B2
:1005D0003181E054F040DF01AE5BBF4F8D919C91C3
:1005E00011972817390719F42FEF3FEF07C08D91A6
:1005F0009C91E80FF91F8081282F30E0C9010895F0
:10060000DC011C96ED91FC911D97E05CFF4F208171
:100610003181E054F040DF01AE5BBF4F8D919C9182
:1006200011972817390719F42FEF3FEF10C08D915C
:100630009C911197E80FF91F20818D919C91119742
:1006400001968F73907011969C938E9330E0C90140
:100650000895FC0186859785DC01A05CBF4FFC01F5
:10066000EE5BFF4F2D913C9111978081918128176E
:100670003907C1F70895CF93DF93EC01462FEE853C
:10068000FF85E05CFF4F80819181E054F04001964E
:1006900060E470E00E94C5169C01DF01AE5BBF4FB5
:1006A0008D919C91119728173907D1F3E05CFF4F8A
:1006B00080819181E054F040E80FF91F4083EE857E
:1006C000FF85E05CFF4F31832083EE89FF89208125
:1006D00081E090E00D8C02C0880F991F0A94E2F728
:1006E000282B208381E090E0DF91CF9108951F9324
:1006F00010921B0410921A0428EE33E040E050E000
:1007000020931C0430931D0440931E0450931F0437
:1007100066ED72E0709319046093180488E093E02A
:1007200090932504809324048CE493E09093270411
:100730008093260485EC90E090932904809328040C
:1007400084EC90E090932B0480932A0480EC90E05A
:1007500090932D0480932C0481EC90E090932F04CF
:1007600080932E0486EC90E09093310480933004C3
:1007700014E010933204B3E0B0933304A7E0A093E5
:100780003404F5E0F0933504E1E0E0933604109290
:100790003A041092390420933B0430933C04409374
:1007A0003D0450933E04709338046093370480E90D
:1007B00093E0909344048093430484ED93E09093FA
:1007C0004604809345048DEC90E090934804809318
:1007D00047048CEC90E090934A048093490488ECA1
:1007E00090E090934C0480934B0489EC90E09093BC
:1007F0004E0480934D048EEC90E0909350048093CF
:100800004F0410935104B0935204A0935304F093F7
:100810005404E09355041F91089586EE92E090935E
:100820005704809356041092580410925904109261
:100830005A0410925B0408958F929F92AF92BF92D8
:10084000CF92DF92EF92FF920F931F93CF93DF939C
:100850004C016B017C01AA24BB24C0E0D0E0C6019E
:10086000F70162814AE050E00E9454058C01C60104
:100870006EE20E948804080F191FA00EB11E219677
:100880000894E11CF11CC330D10549F7C601F401FD
:1008900065814AE050E00E9454059501280F391FF8
:1008A000C901DF91CF911F910F91FF90EF90DF90E1
:1008B000CF90BF90AF909F908F900895CF92DF928E
:1008C000EF92FF920F931F93CF93DF937C016B0105
:1008D0008A01C0E0D0E00FC0D6016D916D01D70153
:1008E000ED91FC910190F081E02DC7010995C80FB1
:1008F000D91F015010400115110571F7CE01DF918C
:10090000CF911F910F91FF90EF90DF90CF900895BE
:10091000DC01ED91FC910190F081E02D09950895A5
:10092000EF92FF920F931F938C01DC01ED91FC91EC
:100930000190F081E02D6DE009957C01D801ED91E9
:10094000FC910190F081E02DC8016AE009959C01BD
:100950002E0D3F1DC9011F910F91FF90EF9008953B
:10096000CF93DF93DB010D900020E9F71197A61BD1
:10097000B70BEC01E881F9810280F381E02DAD0134
:100980000995DF91CF9108954F925F927F928F9258
:100990009F92AF92BF92CF92DF92EF92FF920F930E
:1009A0001F93DF93CF93CDB7DEB7A1970FB6F8941F
:1009B000DEBF0FBECDBF2C01742ECB01223008F458
:1009C0002AE019A231E2C32ED12CCC0EDD1E822EDC
:1009D0009924AA24BB24672D752FA50194010E9498
:1009E000D81679018A01C801B701A50194010E94B6
:1009F0009216472D461B0894C108D1084A3010F4BE
:100A0000405D01C0495CF6014083E114F104010539
:100A1000110521F07E2C5F2DC801DDCFC201B6018A
:100A20000E94B004A1960FB6F894DEBF0FBECDBFF2
:100A3000CF91DF911F910F91FF90EF90DF90CF90BA
:100A4000BF90AF909F908F907F905F904F90089550
:100A5000DC012115310541F4ED91FC910190F0810B
:100A6000E02D642F099508950E94C4040895CF9243
:100A7000DF92EF92FF920F931F936C017B019A011B
:100A800000E010E0B801A7010E9428058C01C60112
:100A90000E949004080F191FC8011F910F91FF9029
:100AA000EF90DF90CF900895EF92FF920F931F93F6
:100AB0009A01E62EFF2400E010E0B801A7010E9491
:100AC00028051F910F91FF90EF900895CF92DF922C
:100AD000EF92FF920F931F93CF93DF93EC016A0184
:100AE0007B012115310541F4E881F9810190F08104
:100AF000E02D642F09951FC02A303105D1F477FF0E
:100B000017C0E881F9810190F081E02D6DE209952F
:100B10008C0144275527BA014C195D096E097F09DC
:100B2000CE012AE00E94C4049801280F391F04C096
:100B30002AE00E94C4049C01C901DF91CF911F915A
:100B40000F91FF90EF90DF90CF900895EF92FF927A
:100B50000F931F937B019A010027F7FC0095102F3C
:100B6000B801A7010E9466051F910F91FF90EF90B9
:100B70000895CF92DF92EF92FF920F931F936C0133
:100B80007B019A010027F7FC0095102FB801A701FF
:100B90000E9466058C01C6010E949004080F191F6F
:100BA000C8011F910F91FF90EF90DF90CF900895B3
:100BB0000E94B0040895EF92FF920F931F937C015F
:100BC0000E94B0048C01C7010E949004080F191FF5
:100BD000C8011F910F91FF90EF9008958230B9F0F6
:100BE000833028F4882351F0813051F50AC08430D5
:100BF00011F18430E8F0853019F520C010926E00B4
:100C0000089580916F008D7F80936F00089580918B
:100C100070008D7F8093700081E08093B0008091A0
:100C2000B100887F84608093B1001092B300089572
:100C3000109271000895109272000895109273003E
:100C400008951F93182FA9ECB2E020E231E09FEF46
:100C50004FEF8C91811719F4F90194914C931196EF
:100C60002F5F3F4FF2E0AF3CBF0799F7892F0E94FB
:100C7000EE05812F60E00E94B1091F9108951F9237
:100C80000F920FB60F920BB60F9211242F933F9332
:100C90004F935F936F937F938F939F93AF93BF9384
:100CA000EF93FF9380915C0490915D04A0915E04AA
:100CB000B0915F040097A105B10551F1E091600486
:100CC000F0916104808190916204892780838091F2
:100CD0005C0490915D04A0915E04B0915F041816CD
:100CE00019061A061B06C4F480915C0490915D04F9
:100CF000A0915E04B0915F040197A109B1098093AE
:100D00005C0490935D04A0935E04B0935F0404C000
:100D10008091C9020E942106FF91EF91BF91AF918E
:100D20009F918F917F916F915F914F913F912F9103
:100D30000F900BBE0F900FBE0F901F9018951F9233
:100D40000F920FB60F920BB60F9211242F933F9371
:100D50004F935F936F937F938F939F93AF93BF93C3
:100D6000EF93FF938091630490916404892B29F0A1
:100D7000E0916304F09164040995FF91EF91BF91B4
:100D8000AF919F918F917F916F915F914F913F9123
:100D90002F910F900BBE0F900FBE0F901F901895C4
:100DA0001F920F920FB60F920BB60F9211242F9332
:100DB0003F934F935F936F937F938F939F93AF93E3
:100DC000BF93EF93FF938091650490916604892B04
:100DD00029F0E0916504F09166040995FF91EF9187
:100DE000BF91AF919F918F917F916F915F914F9143
:100DF0003F912F910F900BBE0F900FBE0F901F9041
:100E000018951F920F920FB60F920BB60F921124E6
:100E10002F933F934F935F936F937F938F939F9302
:100E2000AF93BF93EF93FF93809167049091680411
:100E3000892B29F0E0916704F09168040995FF91EE
:100E4000EF91BF91AF919F918F917F916F915F9142
:100E50004F913F912F910F900BBE0F900FBE0F90AF
:100E60001F9018951F920F920FB60F920BB60F920C
:100E700011242F933F934F935F936F937F938F939F
:100E80009F93AF93BF93EF93FF93809169049091E9
:100E90006A04892B29F0E0916904F0916A040995AC
:100EA000FF91EF91BF91AF919F918F917F916F9142
:100EB0005F914F913F912F910F900BBE0F900FBEFE
:100EC0000F901F9018951F920F920FB60F920BB6AE
:100ED0000F9211242F933F934F935F936F937F93C0
:100EE0008F939F93AF93BF93EF93FF9380916B0486
:100EF00090916C04892B29F0E0916B04F0916C04C3
:100F00000995FF91EF91BF91AF919F918F917F9143
:100F10006F915F914F913F912F910F900BBE0F906A
:100F20000FBE0F901F9018951F920F920FB60F9241
:100F30000BB60F9211242F933F934F935F936F93B0
:100F40007F938F939F93AF93BF93EF93FF93809182
:100F50006D0490916E04892B29F0E0916D04F0915D
:100F60006E040995FF91EF91BF91AF919F918F9181
:100F70007F916F915F914F913F912F910F900BBE99
:100F80000F900FBE0F901F901895009711F00E94C0
:100F90002E1608950E942E1608950E948115089518
:100FA0001F920F920FB60F9211242F933F938F939E
:100FB0009F93AF93BF938091770490917804A09111
:100FC0007904B0917A0430917B040196A11DB11D82
:100FD000232F2D5F2D3720F02D570196A11DB11D18
:100FE00020937B048093770490937804A0937904F2
:100FF000B0937A048091730490917404A091750465
:10100000B09176040196A11DB11D80937304909355
:101010007404A0937504B0937604BF91AF919F912F
:101020008F913F912F910F900FBE0F901F901895A9
:101030008FB7F89420917704309178044091790427
:1010400050917A048FBFB901CA0108959FB7F894EF
:10105000209173043091740440917504509176048A
:1010600086B5A89B06C08F3F21F02F5F3F4F4F4FA3
:101070005F4F9FBF542F432F322F2227280F311D40
:10108000411D511D82E0220F331F441F551F8A95B9
:10109000D1F7B901CA010895EF92FF920F931F9300
:1010A000CF93DF937B018C010E942608EB010EC0D9
:1010B0000E9426086C1B7D0B685E7340C8F3089481
:1010C000E108F10801091109C851DC4FE114F104EC
:1010D0000105110569F7DF91CF911F910F91FF90E5
:1010E000EF900895789484B5826084BD84B5816062
:1010F00084BD85B5826085BD85B5816085BDEEE620
:10110000F0E0808181608083E1E8F0E010828081FE
:1011100082608083808181608083E0E8F0E080816C
:1011200081608083E1EBF0E0808184608083E0EB8C
:10113000F0E0808181608083E1E9F0E0808182607D
:101140008083808181608083E0E9F0E0808181603C
:101150008083E1EAF0E08081826080838081816029
:101160008083E0EAF0E0808181608083E1E2F1E069
:10117000808182608083808181608083E0E2F1E011
:10118000808181608083EAE7F0E0808184608083F1
:10119000808182608083808181608083808180689B
:1011A0008083ECE7F0E08081806480831092C1004E
:1011B0000895382F8E3008F03E5020917B00832F09
:1011C00086958695869590E08170907043E0880FB3
:1011D000991F4A95E1F7277F282B20937B003770D2
:1011E0008091CF028295880F880F807C832B80931B
:1011F0007C0080917A00806480937A0080917A00EC
:1012000086FDFCCF2091780040917900942F80E0FA
:1012100030E0282B392BC9010895482F50E0CA012E
:1012200083579E4FFC0124914C585E4FFA018491E4
:101230008823C1F0E82FF0E0EE0FFF1FEA5DFE4FBC
:10124000A591B491662341F49FB7F8948C912095B1
:1012500082238C939FBF08959FB7F8948C91822B23
:101260008C939FBF0895893009F44FC08A30A0F451
:10127000843081F1853040F48230C9F1833030F51B
:10128000813009F06DC030C08730A9F18830B8F5E1
:10129000853009F065C022C08D3009F448C08E3019
:1012A00028F48B30D1F18C30F0F533C0803109F463
:1012B00048C0813120F48E3009F052C03CC08131E9
:1012C00009F443C0823109F04BC045C080918000D1
:1012D0008F7707C0809180008F7D03C08091800050
:1012E000877F80938000089584B58F7702C084B58E
:1012F0008F7D84BD08958091B0008F7703C0809169
:10130000B0008F7D8093B0000895809190008F771A
:1013100007C0809190008F7D03C080919000877FEF
:101320008093900008958091A0008F7707C08091EE
:10133000A0008F7D03C08091A000877F8093A000D4
:101340000895809120018F7703C0809120018F7DC7
:1013500080932001089580912001877F8093200150
:101360000895FF920F931F93F62E482F50E0CA0165
:101370008A559E4FFC012491CA0183579E4FFC0160
:1013800014914C585E4FFA0104910023C9F02223B6
:1013900019F0822F0E943309E02FF0E0EE0FFF1FBB
:1013A000E05CFE4FA591B4919FB7F894FF2021F423
:1013B0008C911095812302C08C91812B8C939FBFBF
:1013C0001F910F91FF900895CF93DF93582F409373
:1013D000FE048091FF04882309F044C08091FD043D
:1013E000583030F4C82FD0E0462FCB01DC0135C097
:1013F000C82FD0E097E0252F30E02250304015C0B4
:101400008091FC04E82FF0E03196AF014F775070E7
:1014100031974C175D0771F1E458FB4FA60FB71FCA
:101420008C9180834093FC049F5FA92FB0E0A217AA
:10143000B30734F31FC08091FC04E82FF0E031962D
:101440009F012F77307031972C173D0799F0E458A2
:10145000FB4F8D9180832093FC048A2F841B85177A
:1014600050F308C0E0910205F0910305852F09951E
:101470009C0102C02CE734E0C901DF91CF910895AF
:101480009C0180910005882331F0E0910405F091E2
:101490000505C901099510920105089510920805E6
:1014A0001092070510920A051092090584EE99E042
:1014B0000E947E0A80E49AE00E94830A089586E0F2
:1014C00095E00E944E0A0895E0910705F091080505
:1014D000309709F009950895E0910B05F0910C05FE
:1014E000309711F00995BC01CB010895E0910D05ED
:1014F000F0910E05309709F00995089590930C0529
:1015000080930B05089590930E0580930D05089523
:101510001F920F920FB60F920BB60F9211242F93BA
:101520003F934F935F936F937F938F939F93AF936B
:10153000BF93EF93FF935E9A86E00E94CD0B80935A
:10154000AB06FF91EF91BF91AF919F918F917F91EA
:101550006F915F914F913F912F910F900BBE0F9024
:101560000FBE0F901F9018951F93DF93CF930F928C
:10157000CDB7DEB786E060E847E00E94D30B182FB6
:10158000809114059091150560911605AE014F5F8D
:101590005F4F0E94F20B8F776091140570911505D3
:1015A00020E0112309F421E049810E946C0A909304
:1015B0001505809314050F90CF91DF911F91089529
:1015C0001F920F920FB60F920BB60F9211242F930A
:1015D0003F934F935F936F937F938F939F93AF93BB
:1015E000BF93EF93FF935E980E94B40AFF91EF912F
:1015F000BF91AF919F918F917F916F915F914F912B
:101600003F912F910F900BBE0F900FBE0F901F9028
:101610001895CF92DF92FF920F931F93DF93CF9392
:1016200000D00F92CDB7DEB7F82E82E0F81689F021
:101630008F1530F0FF20F1F081E0F816C1F40BC0F7
:1016400084E0F81651F0F81650F085E0F81679F4B9
:1016500008C086E010C089E00EC086E10CC089E1B8
:101660000AC088E08A8383E0898311E007C084E0B0
:101670000E94640A88E08A83898310E080911205C1
:10168000853059F41123A1F5809139018D7F809324
:10169000390180ED97E00197F1F7298182E06FE150
:1016A00040E00E94E00B0CE830E8C32ED12C81E032
:1016B0006FE140E00E94D30B8B839A818B81981756
:1016C00039F0C6010197F1F7002311F00150EFCF77
:1016D0009A818B81981719F081E00E94640A112386
:1016E00029F080913901826080933901F0921205CE
:1016F0000F900F900F90CF91DF911F910F91FF905E
:10170000DF90CF9008951F920F920FB60F920BB6F5
:101710000F9211242F933F934F935F936F937F9377
:101720008F939F93AF93BF93EF93FF935D988091B7
:101730001205813019F480E090E016C08330D1F4B6
:1017400082E060EE45E00E94D30B833029F08330C5
:1017500028F0853039F404C081E005C080E003C082
:1017600082E001C083E090E00E94760A8091130538
:101770000E94090BFF91EF91BF91AF919F918F91C3
:101780007F916F915F914F913F912F910F900BBE81
:101790000F900FBE0F901F901895E82FF0E0E05CBF
:1017A000FE4F80810895E82FF0E0E05CFE4F8081DD
:1017B000862390E002C0959587954A95E2F70895B3
:1017C000E82FF0E0E05CFE4F30E002C0220F331F54
:1017D0004A95E2F7962F9223609580818623982B75
:1017E00090830895FF920F931F93CF93DF93EA01A5
:1017F000F0907B01F61608F46F2D062F10E060E8DC
:1018000071E0402F50E00E94891600581E4FF801E9
:10181000808188838F2DDF91CF911F910F91FF9051
:101820000895982F413210F040E030C080911705A4
:101830008823E1F781E0809317058FEF809382057D
:1018400010923D05415040933E054F5F990F9160C6
:101850009093180585EE8093BC0080911705813028
:10186000E1F380913D05841710F440913D0520E09F
:1018700030E00AC0FB01E20FF31FD901A35EBA4FAB
:101880008C9180832F5F3F4F2417A0F3842F0895FE
:101890001F93582F122F413210F081E03AC08091EF
:1018A00017058823E1F782E0809317058FEF809377
:1018B000820510923D0540933E05ADE1B5E0FB0188
:1018C00002C081918D938E2F861B8417D0F3852FB4
:1018D00090E0880F991F8093180585EE8093BC00D7
:1018E000112321F0809117058230E1F38091820568
:1018F0008F3F11F480E00DC080918205803211F499
:1019000082E007C080918205803311F084E001C03D
:1019100083E01F910895482F613210F081E008950F
:1019200080911705843011F082E00895609360057E
:10193000AFE3B5E0842F9C01F90102C081918D9342
:101940008E2F841B8617D0F380E008951F920F928C
:101950000FB60F920BB60F9211242F933F934F9314
:101960005F936F937F938F939F93AF93BF93EF9307
:10197000FF938091B90090E0887F90708036910548
:1019800009F4DCC081369105CCF58832910509F463
:101990007BC089329105B4F48031910509F46FC0A0
:1019A000813191053CF4009709F431C1089709F0A1
:1019B00039C165C08831910509F466C0809709F086
:1019C00031C17DC08034910509F49FC081349105F7
:1019D00044F48033910509F47DC0C89709F022C111
:1019E00084C08035910509F484C08835910509F4D7
:1019F00091C08834910509F015C198C088399105C6
:101A000009F4FDC089399105ECF48837910509F492
:101A100095C0893791054CF48836910509F48EC03C
:101A20008037910509F0FEC089C08838910509F416
:101A3000E6C08039910509F487C08038910509F026
:101A4000F1C082C0803B910509F4B0C0813B910593
:101A50004CF4803A910509F489C0883A910509F05F
:101A6000E1C0A4C0803C910509F4CDC0883C91053B
:101A700009F4C9C0883B910509F0D4C0ACC080917D
:101A800018058093BB00B9C090913D0580913E053B
:101A9000981768F490913D05E92FF0E0E35EFA4F66
:101AA00080818093BB009F5F90933D05A6C085ED2C
:101AB0008093BC008091BC0084FDFCCFB1C080E26B
:101AC0008093820585ED8093BC008091BC0084FDED
:101AD000FCCFA6C080E38093820585ED8093BC0097
:101AE0008091BC0084FDFCCF9BC088E3809382057D
:101AF0008AC080913D059091BB00E82FF0E0E35E45
:101B0000FA4F90838F5F80933D0590913D058091C2
:101B10003E0571C080913D059091BB00E82FF0E03B
:101B2000E35EFA4F90838F5F80933D0585ED809350
:101B3000BC008091BC0084FDFCCF72C083E0809328
:101B400017051092810559C080918105803208F0F7
:101B500056C0809181059091BB00E82FF0E0EF59CD
:101B6000FA4F90838F5F8093810547C080918105F4
:101B7000803230F4E0918105F0E0EF59FA4F1082A5
:101B800085ED8093BC008091BC0084FDFCCF109259
:101B9000170560918105E0911B05F0911C0581E618
:101BA00095E070E00995109281052DC084E0809346
:101BB000170510925F0510926005E0911905F091EC
:101BC0001A05099580916005882329F481E08093A6
:101BD000600510923F0590915F05E92FF0E0E15C10
:101BE000FA4F80818093BB009F5F90935F05909137
:101BF0005F0580916005981710F485EC01C085E8B9
:101C00008093BC000FC085EC8093BC0009C010928B
:101C1000820585ED8093BC008091BC0084FDFCCFE3
:101C200010921705FF91EF91BF91AF919F918F9106
:101C30007F916F915F914F913F912F910F900BBECC
:101C40000F900FBE0F901F9018951092170585E109
:101C500061E00E94B10986E161E00E94B109E9EB0F
:101C6000F0E080818E7F808380818D7F808388E417
:101C70008093B80085E48093BC00089581E0809350
:101C8000C8056093A5051092C6051092C705089572
:101C90002091A40530E08091A305281B3109C901DA
:101CA00008954091A3058091A405481718F02FEFDF
:101CB0003FEF0AC0E42FF0E0ED57FA4F8081282F64
:101CC00030E04F5F4093A305C9010895E091A3055B
:101CD0008091A405E81718F0EFEFFFEF06C0F0E0E1
:101CE000ED57FA4F8081E82FF0E0CF010895089575
:101CF0001092CC051092CB0588EE93E0A0E0B0E006
:101D00008093CD059093CE05A093CF05B093D005D9
:101D10008CEE92E09093CA058093C9050895CF9206
:101D2000DF92EF92FF920F931F93CF93DF937C018B
:101D30006B018A018091C8058823A1F0C0E0D0E042
:101D40000DC0D701ED91FC91D601AC0FBD1F0190E4
:101D5000F081E02DC7016C9109952196C017D1073C
:101D600080F304C0CB01642F0E948B0CC801DF916B
:101D7000CF911F910F91FF90EF90DF90CF9008953A
:101D8000DF93CF930F92CDB7DEB7FC0169838091CB
:101D9000C8058823C9F08091C705803238F081E0FA
:101DA00090E09383828320E030E015C08091C605E7
:101DB000E82FF0E0EA55FA4F998190838F5F809386
:101DC000C6058093C70505C0CE01019661E00E945B
:101DD0008B0C21E030E0C9010F90CF91DF91089585
:101DE0008091A50566EA75E04091C70521E00E9453
:101DF000480C1092C6051092C7051092C8050895A8
:101E0000413208F040E2862F63E875E00E94110C31
:101E10001092A3058093A40508951092A305109233
:101E2000A4051092C6051092C7050E94250E0895BC
:101E30001F920F920FB60F920BB60F9211242F9391
:101E40003F934F935F936F937F938F939F93AF9342
:101E5000BF93EF93FF93E091D905F091DA050995CF
:101E6000FF91EF91BF91AF919F918F917F916F9172
:101E70005F914F913F912F910F900BBE0F900FBE2E
:101E80000F901F9018951F920F920FB60F920BB6DE
:101E90000F9211242F933F934F935F936F937F93F0
:101EA0008F939F93AF93BF93EF93FF93E091DD05E3
:101EB000F091DE050995FF91EF91BF91AF919F9150
:101EC0008F917F916F915F914F913F912F910F90E3
:101ED0000BBE0F900FBE0F901F9018950F931F937E
:101EE000CF93DF93FC01838DA685B7859585082F59
:101EF000027081FF05C08C91892309F454C004C08D
:101F00008C91892309F04FC08389948920E001973F
:101F10002FEF8F3F9207D9F7C589D689A685B78558
:101F2000758560E031E040E050E010E0CE01212F07
:101F300001972FEF8F3F9207D9F78C91872311F0EC
:101F4000632B03C0832F80956823330F4F5F5F4F50
:101F50004830510559F78789908D20E001972FEF80
:101F60008F3F9207D9F7011160958091210620914A
:101F7000220690E001968F73907030E082179307ED
:101F800079F0E0912106F0E0EF51FA4F6083809103
:101F9000210690E001968F7390708093210603C014
:101FA000838D8160838FDF91CF911F910F91089571
:101FB0008091DF059091E005009711F00E946E0F6F
:101FC00008951F920F920FB60F920BB60F92112425
:101FD0002F933F934F935F936F937F938F939F9331
:101FE000AF93BF93EF93FF930E94D80FFF91EF91B0
:101FF000BF91AF919F918F917F916F915F914F9121
:102000003F912F910F900BBE0F900FBE0F901F901E
:1020100018951F920F920FB60F920BB60F921124C4
:102020002F933F934F935F936F937F938F939F93E0
:10203000AF93BF93EF93FF930E94D80FFF91EF915F
:10204000BF91AF919F918F917F916F915F914F91D0
:102050003F912F910F900BBE0F900FBE0F901F90CE
:1020600018951F920F920FB60F920BB60F92112474
:102070002F933F934F935F936F937F938F939F9390
:10208000AF93BF93EF93FF930E94D80FFF91EF910F
:10209000BF91AF919F918F917F916F915F914F9180
:1020A0003F912F910F900BBE0F900FBE0F901F907E
:1020B0001895FC018CEF92E0918380830895FC01D8
:1020C0008CEF92E091838083CF010E94CA0708952C
:1020D0008EE00E94D9080895FC018CEF92E0918374
:1020E00080838EE060E00E940D098EE060E00E9437
:1020F000B10908958130910541F46F5F7F4F81F4FC
:1021000083E296E00E946C100895892B49F46F5F7A
:102110007F4F31F48CEF92E0909324068093230656
:10212000089580E090E06FEF7FEF0E947A100895AD
:1021300081E090E06FEF7FEF0E947A10089588E6CB
:102140008093250608952F923F924F925F926F924F
:102150007F928F929F92AF92BF92CF92DF92EF9237
:10216000FF920F931F935C014B013A012901180163
:102170009C012F5F3F4F0091D0021091D102FC01D2
:1021800080816BE34EE00E940E12F501918180E0A8
:10219000228130E0822B932BF40191838083F5011F
:1021A000938180E0248130E0822B932BF301918393
:1021B0008083F501958180E0268130E0822B932B8E
:1021C000F20191838083F501918580E0228530E0E2
:1021D000822B932BF10191838083F501938580E01D
:1021E000248530E0822B932BF70191838083F501C6
:1021F000958580E0268530E0822B932BF601918334
:1022000080831F910F91FF90EF90DF90CF90BF9050
:10221000AF909F908F907F906F905F904F903F9086
:102220002F900895FC01262F80816BE646E00E94E6
:10223000E8120895FC01262F808167E341E00E94A7
:10224000E81208950F93FC01062F80816BE642E0AF
:1022500023E00E949E120F9108950F93FC01062F18
:1022600080816CE144E022E00E949E120F9108956B
:102270000F93FC01062F80816BE144E022E00E9475
:102280009E120F9108950F931F938C0161E00E949D
:102290002211C80160E00E943811C80160E00E946C
:1022A0002D11C80160E00E9412111F910F91089535
:1022B000CF92DF92EF92FF920F931F936C018C01EC
:1022C0000F5F1F4FE090D002F090D102FC0180819F
:1022D00065E746E026E00E942213F60181811F9106
:1022E0000F91FF90EF90DF90CF9008950E945811CA
:1022F00090E0843309F491E0892F0895FC0184E093
:1023000093E09183808382819381009711F00E94F2
:10231000C5070895CF93DF93EC0184E093E09983A0
:1023200088838A819B81009711F00E94C507CE01A6
:102330000E94CA07DF91CF9108951F93CF93DF9337
:10234000EC01162F84E093E0998388831C821E821F
:102350001F82188619861D82862F90E0880F991F8C
:10236000880F991F0E94CD079B838A8320E080E01D
:1023700090E00AC0EA81FB81E80FF91F1082118208
:10238000128213822F5F04962117A0F31A87DF9120
:10239000CF911F910895EF92FF920F931F93CF93C8
:1023A000DF93582F162FE42E022FF32E89EC95E0A1
:1023B000652F0E943E0E89EC95E0612F0E94C00EB1
:1023C000202F3F2DC901EC0110E006C089EC95E0FB
:1023D00069910E94C00E1F5F1E15C0F389EC95E045
:1023E0000E94F00E90E0882309F491E0892FDF919C
:1023F000CF911F910F91FF90EF900895DF93CF93AE
:102400000F92CDB7DEB7498341E09E012F5F3F4F6A
:102410000E94CB110F90CF91DF9108955F926F9240
:102420007F928F929F92AF92BF92CF92DF92EF9264
:10243000FF920F931F93CF93DF93F82EE62E542E27
:102440006901580189EC95E06F2D0E943E0E89ECE0
:1024500095E06E2D0E94C00E89EC95E00E94F00E72
:1024600089EC95E06F2D0E943E0E89EC95E06F2D72
:10247000452D0E94000F0E9418083B014C01E60107
:10248000780100E010E0CE018C19D82E89EC95E09F
:102490000E94480E892B09F442C0A114B10459F0DE
:1024A0000E94180866197709880999096E157F0531
:1024B0008007910730F489EC95E00E94510E8993D2
:1024C000E2CF0E94180866197709880999099501D1
:1024D00040E050E0621773078407950758F02D2DF0
:1024E000332727FD3095852D90E02817390714F400
:1024F000DD24DA9489EC95E00E94F00E8D2DDF91B9
:10250000CF911F910F91FF90EF90DF90CF90BF90F0
:10251000AF909F908F907F906F905F900895A114DF
:10252000B10441F3CECF0F931F93FA01890141E02B
:102530009F010E940E121F910F910895DF92EF925A
:10254000FF920F931F93DF93CF930F92CDB7DEB718
:10255000E82ED62EF42E122F2091D0023091D102E7
:10256000AE014F5F5F4F0E949312882341F1212FEC
:1025700030E04F2D50E04F5F5F4F421B530B81E027
:1025800090E002C0880F991F1A95E2F70197042E78
:1025900002C0880F991F0A94E2F7202F30E002C092
:1025A000220F331F4A95E2F7482F40955981452362
:1025B0008223482B49838E2D6D2D0E94FE110F9092
:1025C000CF91DF911F910F91FF90EF90DF900895D1
:1025D000EF92FF920F931F93DF93CF930F92CDB79C
:1025E000DEB7F82EE62E042F122F2091D002309164
:1025F000D102AE014F5F5F4F0E94931229811123D8
:1026000051F081E090E002C0880F991F0A95E2F72F
:10261000422F482B0AC081E090E002C0880F991F2A
:102620000A95E2F7482F4095422349838F2D6E2D5E
:102630000E94FE110F90CF91DF911F910F91FF909B
:10264000EF900895CF92DF92EF92FF920F931F9336
:10265000DF93CF930F92CDB7DEB7C42ED22E970162
:10266000AE014F5F5F4F0E949312682F882309F1DC
:102670008D2D90E04C2D50E04F5F5F4F481B590B64
:1026800021E030E002C0220F331FDA94E2F721503C
:102690003040042E02C0220F331F0A94E2F78981D2
:1026A000822390E002C0959587954A95E2F7F8015C
:1026B0008083862F0F90CF91DF911F910F91FF9014
:1026C000EF90DF90CF9008958EE1809334060895C7
:1026D0000F931F93CF93DF93EC019C012F5F3F4F2C
:1026E0000091D0021091D10288816AE043E00E94FB
:1026F0000E12833061F48981883449F48A818433ED
:1027000031F440E08B81833319F441E001C040E0B3
:10271000842FDF91CF911F910F910895AF92BF92B7
:10272000CF92DF92EF92FF920F931F93CF93DF939D
:10273000EC017B016A0159019C012F5F3F4F009121
:10274000D0021091D102888163E046E00E940E120F
:102750008F81813029F4888162E041E00E94FE117E
:10276000998180E02A8130E0822B932BF7019183BD
:1027700080839B8180E02C8130E0822B932BF601BB
:10278000918380839D8180E02E8130E0822B932B8A
:10279000F50191838083DF91CF911F910F91FF907D
:1027A000EF90DF90CF90BF90AF900895FF920F937E
:1027B0001F938C01F62EFC01808162E047810E940C
:1027C000FE11F801F7821F910F91FF900895FC010F
:1027D000462F4295440F407E808161E00E94FE11A9
:1027E00008950F931F938C01FC01808160E040E706
:1027F0000E94FE11C80161E00E94E713C80161E078
:102800000E94D6131F910F9108958130910549F4CC
:102810006F5F7F4F79F48CE396E065E00E949D1135
:102820000895892B39F46F5F7F4F21F48CE396E094
:102830000E947E11089580E090E06FEF7FEF0E948C
:102840000514089581E090E06FEF7FEF0E9405147A
:102850000895FC01138A128A158A148A178A168A27
:10286000118E108E138E128EE45BFF4F119281E059
:1028700090E09183808308958BE596E00E9429146F
:102880000895CF92DF92EF92FF920F931F9385E20C
:1028900096E06DE476E04FE456E021E536E003E5AE
:1028A00016E0F5E5EF2EF6E0FF2EE7E5CE2EE6E0AA
:1028B000DE2E0E94A31007E314E0C80160E072E07E
:1028C0000E94D80560914D0670914E06C8014AE0FD
:1028D00050E00E94A60586E0E82E82E0F82EC801AE
:1028E000B7010E94D80560914F0670915006C8014B
:1028F0004AE050E00E94A605C801B7010E94D80531
:102900006091510670915206C8014AE050E00E9461
:10291000A605C801B7010E94D805609153067091C1
:102920005406C8014AE050E00E94A605C801B7015C
:102930000E94D8056091550670915606C8014AE07C
:1029400050E00E94A605C801B7010E94D805609119
:10295000570670915806C8014AE050E00E94B90538
:1029600084E396E067E476E049E456E02BE436E061
:102970000E948E13C80168E072E00E94D805609141
:102980004706709148068091710690917206681B07
:10299000790BC8014AE050E00E94A605C801B701C2
:1029A0000E94D8056091490670914A06809173068D
:1029B00090917406681B790BC8014AE050E00E94B0
:1029C000A605C801B7010E94D80560914B06709119
:1029D0004C068091750690917606681B790BC801AC
:1029E0004AE050E00E94B90583E296E00E94681038
:1029F00090935A0680935906C8016EE072E00E94D7
:102A0000D8056091590670915A06C8014AE050E015
:102A10000E94370564EF71E080E090E00E944C086E
:102A20006091AA0681E068276093AA0687E10E9468
:102A3000B1091F910F91FF90EF90DF90CF90089513
:102A400087E161E00E940D0989EC95E00E940D0F7D
:102A500087E394E040E855E260E070E00E944902BC
:102A600087E394E067E172E00E94DB0585E296E08F
:102A70000E94431185E296E061E00E941A1184E30E
:102A800096E00E94F11384E396E060E00E94E71371
:102A900084E396E060E00E94D61387E394E063E36A
:102AA00072E00E94DB0584E396E00E9468138823AD
:102AB00019F461E572E002C06CE672E087E394E02D
:102AC0000E94DB0585E296E00E947611882319F4C6
:102AD0006BE872E002C065EA72E087E394E00E946E
:102AE000DB050895CF93DF930E9472080E942015A2
:102AF000CAE8D1E00E9441142097E1F30E948A01C4
:102B0000F9CFCF93DF93BC018230910510F462E0DE
:102B100070E0A091AE06B091AF06ED01E0E0F0E00C
:102B200040E050E021C0888199818617970769F4B9
:102B30008A819B81309719F09383828304C090939C
:102B4000AF068093AE06FE0134C06817790738F4EB
:102B50004115510519F08417950708F4AC01FE01E1
:102B60008A819B819C01E9012097E9F64115510575
:102B7000A9F1CA01861B970B049708F4BA01E0E09B
:102B8000F0E02AC08D919C91119784179507F9F474
:102B90006417750781F412968D919C911397309765
:102BA00019F09383828304C09093AF068093AE069E
:102BB000FD0132964FC0CA01861B970BFD01E80F3D
:102BC000F91F6193719302978D939C9343C0FD010C
:102BD000828193819C01D9011097A1F68091AC0666
:102BE0009091AD06892B41F48091C5029091C60267
:102BF0009093AD068093AC064091C7025091C802F5
:102C00004115510541F44DB75EB78091C3029091D3
:102C1000C402481B590B2091AC063091AD06241715
:102C20003507B0F4CA01821B930B8617970780F013
:102C3000AB014E5F5F4F8417950750F0420F531F53
:102C40005093AD064093AC06F9016193719302C0B5
:102C5000E0E0F0E0CF01DF91CF910895CF93DF93D3
:102C6000009709F450C0EC0122971B821A82A091B0
:102C7000AE06B091AF06109709F140E050E0AC17F6
:102C8000BD0708F1BB83AA83FE0121913191E20FB8
:102C9000F31FAE17BF0779F48D919C911197280F00
:102CA000391F2E5F3F4F3983288312968D919C9157
:102CB00013979B838A834115510571F4D093AF0616
:102CC000C093AE0620C012968D919C911397AD01D2
:102CD000009711F0DC01D3CFFA01D383C283219195
:102CE0003191E20FF31FCE17DF0769F488819981D4
:102CF000280F391F2E5F3F4FFA01318320838A81CD
:102D00009B8193838283DF91CF910895F8940C94F3
:102D10000017FB01DC0102C001900D9241505040B0
:102D2000D8F70895629FD001739FF001829FE00D54
:102D3000F11D649FE00DF11D929FF00D839FF00D3A
:102D4000749FF00D659FF00D9927729FB00DE11DE6
:102D5000F91F639FB00DE11DF91FBD01CF011124C3
:102D60000895AA1BBB1B51E107C0AA1FBB1FA617D2
:102D7000B70710F0A61BB70B881F991F5A95A9F724
:102D800080959095BC01CD01089597FB092E0726EB
:102D90000AD077FD04D0E5DF06D000201AF4709544
:102DA00061957F4F0895F6F7909581959F4F08950F
:102DB000A1E21A2EAA1BBB1BFD010DC0AA1FBB1F3F
:102DC000EE1FFF1FA217B307E407F50720F0A21BB1
:102DD000B30BE40BF50B661F771F881F991F1A941E
:102DE00069F760957095809590959B01AC01BD0148
:102DF000CF010895EE0FFF1F0590F491E02D099487
:102E000011E0C4EDD1E004C0FE010E94FC16229640
:0A2E1000C83DD107C9F7F894FFCFC1
:102E1A00612F673A090009006D61673A0900686520
:102E2A00696768743A0900496E697469616C697AFC
:102E3A00696E672049324320646576696365732E3B
:102E4A002E2E0054657374696E6720646576696313
:102E5A006520636F6E6E656374696F6E732E2E2EB6
:102E6A0000484D43353838334C20636F6E6E6563C6
:102E7A0074696F6E206661696C656400484D4335FC
:102E8A003838334C20636F6E6E656374696F6E20D9
:102E9A007375636365737366756C004D5055363090
:102EAA00353020636F6E6E656374696F6E2066617C
:102EBA00696C6564004D50553630353020636F6E4D
:102ECA006E656374696F6E20737563636573736689
:102EDA00756C002000B0060000FFFFFFFFFFFF0136
:102EEA00E803000000003B035E04CF020003E00297
:102EFA002903000000001C0400000000C00E8F0E11
:102F0A00480E510E660E770E0000000059105F1031
:082F1A00000000007E118A1185
:00000001FF
