:100000000C94E9000C9443070C9474070C941301AE
:100010000C9413010C94E1060C94B0060C947F062A
:100020000C9412070C947D0F0C94A50F0C94CD0F1B
:100030000C9413010C941F060C9413010C941301DF
:100040000C9413010C9413010C9413010C941301E0
:100050000C94B40E0C9413010C9413010C94A5078A
:100060000C9413010C9416010C94AC010C94130124
:100070000C9413010C9413010C9413010C941301B0
:100080000C9413010C9413010C9413010C94DF0EC7
:100090000C944F010C94F9010C9413010C94420C34
:1000A0000C9413010C9413010C9413010C94130180
:1000B0000C9413010C9413010C9413010C94130170
:1000C0000C9413010C9413010C9413010C94130160
:1000D0000C9413010C9413010C9413010C94130150
:1000E0000C9413010C9413010C9413010C94240A26
:1000F0000C947C0A0C9413010C9413010C941F0BA8
:100100000C9413010C9413010C9413010C9413011F
:100110000C9413010C9413010C9413010C9413010F
:1001200005040002010300000000240000002A0072
:100130002D0030003300000000000000000000002F
:1001400000000000250000002B002E0031003400CC
:10015000000000000000000000000000000000009F
:10016000260029002C002F003200000000000000B3
:10017000000000000505050505050505020202024F
:10018000020206060606060602040404040604012A
:100190000240200408108010804020080201020460
:1001A0000810200401022040800C0000000B000910
:1001B0000A00070504030000000000000000000022
:1001C00000000000000074030A04FB09140EF50F80
:1001D0006D1211241FBECFEFD1E4DEBFCDBF12E000
:1001E000A0E0B2E0E0E4F9E200E00BBF02C007905B
:1001F0000D92A83EB107D9F716E0A8EEB2E001C013
:100200001D92AE32B107E1F711E0C2EDD1E004C0BA
:100210002297FE010E949A14C63CD107C9F70E949A
:1002200015140C9424140C94000008951F920F923E
:100230000FB60F920BB60F9211242F933F934F934B
:100240008F939F93EF93FF934091C60020912803D3
:10025000309129032F5F3F4F2F73307080912A0315
:1002600090912B032817390759F0E0912803F0915A
:100270002903E851FD4F408330932903209328033D
:10028000FF91EF919F918F914F913F912F910F90FF
:100290000BBE0F900FBE0F901F90189508951F92E0
:1002A0000F920FB60F920BB60F9211242F933F931C
:1002B0004F938F939F93EF93FF934091CE002091A4
:1002C000B0033091B1032F5F3F4F2F733070809197
:1002D000B2039091B3032817390759F0E091B003A6
:1002E000F091B103E059FC4F40833093B103209368
:1002F000B003FF91EF919F918F914F913F912F917B
:100300000F900BBE0F900FBE0F901F901895E091AD
:100310002304F0912404E05CFF4F819191912081AE
:100320003181821B930B8F739070892B11F00E9487
:100330001501E0912304F0912404E05CFF4F8191CA
:10034000919120813181821B930B8F739070892B47
:1003500011F00E944E0108951F920F920FB60F9256
:100360000BB60F9211242F933F934F935F936F938C
:100370007F938F939F93AF93BF93EF93FF932091BE
:100380006C0330916D0380916E0390916F03281779
:10039000390731F48091C1008F7D8093C10016C070
:1003A000E0916E03F0916F03E45DFC4F408180911A
:1003B0006E0390916F03019660E470E00E946314F5
:1003C00090936F0380936E034093C600FF91EF916B
:1003D000BF91AF919F918F917F916F915F914F915D
:1003E0003F912F910F900BBE0F900FBE0F901F905B
:1003F00018951F920F920FB60F920BB60F92112401
:100400002F933F934F935F936F937F938F939F931C
:10041000AF93BF93EF93FF932091F4033091F503D3
:100420008091F6039091F7032817390731F48091F2
:10043000C9008F7D8093C90016C0E091F603F0914A
:10044000F703EC54FC4F40818091F6039091F70341
:10045000019660E470E00E9463149093F703809328
:10046000F6034093CE00FF91EF91BF91AF919F9122
:100470008F917F916F915F914F913F912F910F904D
:100480000BBE0F900FBE0F901F901895AF92BF92AA
:10049000DF92EF92FF920F931F93CF93DF93EC01C4
:1004A0007A018B01DD24403081EE580780E0680737
:1004B00080E0780711F0DD24D39491E0A92EB12CCF
:1004C000EC89FD89DD2069F0C5010E8C02C0880F22
:1004D000991F0A94E2F7808360E079E08DE390E071
:1004E00005C0108260E874E88EE190E0A8019701F1
:1004F0000E94761421503040404050405695479518
:100500003795279580E12030380720F0DD2011F065
:10051000DD24D6CFE889F9893083EA89FB892083F5
:10052000EE89FF89408121E030E0C9010A8C02C0D8
:10053000880F991F0A94E2F7482B4083EE89FF89C0
:100540004081C9010B8C02C0880F991F0A94E2F701
:10055000482B4083EE89FF894081C9010C8C02C081
:10056000880F991F0A94E2F7482B4083EE89FF8990
:1005700080810D8C02C0220F331F0A94E2F7209570
:1005800028232083DF91CF911F910F91FF90EF904F
:10059000DF90BF90AF900895DC011C96ED91FC9127
:1005A0001D97E05CFF4F2191319180819181281B43
:1005B000390B2F733070C9010895DC011C96ED9141
:1005C000FC911D97E05CFF4F20813181E054F040A9
:1005D000DF01AE5BBF4F8D919C91119728173907B2
:1005E00019F42FEF3FEF07C08D919C91E80FF91F91
:1005F0008081282F30E0C9010895DC011C96ED911F
:10060000FC911D97E05CFF4F20813181E054F04068
:10061000DF01AE5BBF4F8D919C9111972817390771
:1006200019F42FEF3FEF10C08D919C911197E80FB7
:10063000F91F20818D919C91119701968F73907075
:1006400011969C938E9330E0C9010895FC01868534
:100650009785DC01A05CBF4FFC01EE5BFF4F2D9145
:100660003C9111978081918128173907C1F708952E
:10067000CF93DF93EC01462FEE85FF85E05CFF4FC3
:1006800080819181E054F040019660E470E00E9426
:1006900063149C01DF01AE5BBF4F8D919C9111975C
:1006A00028173907D1F3E05CFF4F80819181E05436
:1006B000F040E80FF91F4083EE85FF85E05CFF4FB7
:1006C00031832083EE89FF89208181E090E00D8CC9
:1006D00002C0880F991F0A94E2F7282B208381E03B
:1006E00090E0DF91CF9108951F931092FB03109239
:1006F000FA0328EE33E040E050E02093FC0330930F
:10070000FD034093FE035093FF0366EC72E0709389
:10071000F9036093F80388EE92E0909305048093C8
:1007200004048CE293E0909307048093060485EC24
:1007300090E0909309048093080484EC90E09093F7
:100740000B0480930A0480EC90E090930D04809356
:100750000C0481EC90E090930F0480930E0486ECDF
:1007600090E0909311048093100414E0109312040D
:10077000B3E0B0931304A7E0A0931404F5E0F09362
:100780001504E1E0E093160410921A041092190483
:1007900020931B0430931C0440931D0450931E04AB
:1007A000709318046093170480E793E090932404F7
:1007B0008093230484EB93E0909326048093250494
:1007C0008DEC90E090932804809327048CEC90E0CB
:1007D00090932A048093290488EC90E090932C0451
:1007E00080932B0489EC90E090932E0480932D0449
:1007F0008EEC90E09093300480932F04109331049A
:10080000B0933204A0933304F0933404E09335049E
:100810001F91089586ED92E09093370480933604FB
:10082000109238041092390410923A0410923B044A
:1008300008958F929F92AF92BF92CF92DF92EF92E4
:10084000FF920F931F93CF93DF934C016B017C01B9
:10085000AA24BB24C0E0D0E0C601F70162814AE0CF
:1008600050E00E9434058C01C6016EE20E948504AE
:10087000080F191FA00EB11E21960894E11CF11C4F
:10088000C330D10549F7C601F40165814AE050E063
:100890000E9434059501280F391FC901DF91CF91BE
:1008A0001F910F91FF90EF90DF90CF90BF90AF908E
:1008B0009F908F900895CF92DF92EF92FF920F93C7
:1008C0001F93CF93DF937C016B018A01C0E0D0E0DE
:1008D0000FC0D6016D916D01D701ED91FC91019092
:1008E000F081E02DC7010995C80FD91F01501040B4
:1008F0000115110571F7CE01DF91CF911F910F9175
:10090000FF90EF90DF90CF900895DC01ED91FC9186
:100910000190F081E02D09950895EF92FF920F93D9
:100920001F938C01DC01ED91FC910190F081E02D91
:100930006DE009957C01D801ED91FC910190F08169
:10094000E02DC8016AE009959C012E0D3F1DC901EB
:100950001F910F91FF90EF900895CF93DF93DB01EC
:100960000D900020E9F71197A61BB70BEC01E88169
:10097000F9810280F381E02DAD010995DF91CF91DE
:1009800008954F925F927F928F929F92AF92BF9203
:10099000CF92DF92EF92FF920F931F93DF93CF934B
:1009A000CDB7DEB7A1970FB6F894DEBF0FBECDBFAF
:1009B0002C01742ECB01223008F42AE019A231E276
:1009C000C32ED12CCC0EDD1E822E9924AA24BB244A
:1009D000672D752FA50194010E94761479018A0173
:1009E000C801B701A50194010E943014472D461B90
:1009F0000894C108D1084A3010F4405D01C0495C38
:100A0000F6014083E114F1040105110521F07E2C6B
:100A10005F2DC801DDCFC201B6010E94AD04A196D1
:100A20000FB6F894DEBF0FBECDBFCF91DF911F91FF
:100A30000F91FF90EF90DF90CF90BF90AF909F907D
:100A40008F907F905F904F900895DC0121153105C4
:100A500041F4ED91FC910190F081E02D642F099516
:100A600008950E94C1040895EF92FF920F931F937F
:100A70009A01E62EFF2400E010E0B801A7010E94D1
:100A800025051F910F91FF90EF900895CF92DF926F
:100A9000EF92FF920F931F93CF93DF93EC016A01C4
:100AA0007B012115310541F4E881F9810190F08144
:100AB000E02D642F09951FC02A303105D1F477FF4E
:100AC00017C0E881F9810190F081E02D6DE2099570
:100AD0008C0144275527BA014C195D096E097F091D
:100AE000CE012AE00E94C1049801280F391F04C0DA
:100AF0002AE00E94C1049C01C901DF91CF911F919E
:100B00000F91FF90EF90DF90CF900895EF92FF92BA
:100B10000F931F937B019A010027F7FC0095102F7C
:100B2000B801A7010E9446051F910F91FF90EF9019
:100B30000895CF92DF92EF92FF920F931F936C0173
:100B40007B019A010027F7FC0095102FB801A7013F
:100B50000E9446058C01C6010E948D04080F191FD2
:100B6000C8011F910F91FF90EF90DF90CF900895F3
:100B70000E94AD040895EF92FF920F931F937C01A2
:100B80000E94AD048C01C7010E948D04080F191F3B
:100B9000C8011F910F91FF90EF9008958230B9F036
:100BA000833028F4882351F0813051F50AC0843015
:100BB00011F18430E8F0853019F520C010926E00F4
:100BC000089580916F008D7F80936F0008958091CC
:100BD00070008D7F8093700081E08093B0008091E1
:100BE000B100887F84608093B1001092B3000895B3
:100BF000109271000895109272000895109273007F
:100C000008951F93182FAAEBB2E020E231E09FEF86
:100C10004FEF8C91811719F4F90194914C9311962F
:100C20002F5F3F4FF2E0A03CBF0799F7892F0E944A
:100C3000CE05812F60E00E944D091F9108951F92FB
:100C40000F920FB60F920BB60F9211242F933F9372
:100C50004F935F936F937F938F939F93AF93BF93C4
:100C6000EF93FF9380913C0490913D04A0913E044A
:100C7000B0913F040097A105B10551F1E091400406
:100C8000F091410480819091420489278083809172
:100C90003C0490913D04A0913E04B0913F0418168D
:100CA00019061A061B06C4F480913C0490913D0479
:100CB000A0913E04B0913F040197A109B10980932E
:100CC0003C0490933D04A0933E04B0933F0404C0C1
:100CD0008091BA020E940106FF91EF91BF91AF91FE
:100CE0009F918F917F916F915F914F913F912F9144
:100CF0000F900BBE0F900FBE0F901F9018951F9274
:100D00000F920FB60F920BB60F9211242F933F93B1
:100D10004F935F936F937F938F939F93AF93BF9303
:100D2000EF93FF938091430490914404892B29F021
:100D3000E0914304F09144040995FF91EF91BF9134
:100D4000AF919F918F917F916F915F914F913F9163
:100D50002F910F900BBE0F900FBE0F901F90189504
:100D60001F920F920FB60F920BB60F9211242F9372
:100D70003F934F935F936F937F938F939F93AF9323
:100D8000BF93EF93FF938091450490914604892B84
:100D900029F0E0914504F09146040995FF91EF9107
:100DA000BF91AF919F918F917F916F915F914F9183
:100DB0003F912F910F900BBE0F900FBE0F901F9081
:100DC00018951F920F920FB60F920BB60F92112427
:100DD0002F933F934F935F936F937F938F939F9343
:100DE000AF93BF93EF93FF93809147049091480492
:100DF000892B29F0E0914704F09148040995FF916F
:100E0000EF91BF91AF919F918F917F916F915F9182
:100E10004F913F912F910F900BBE0F900FBE0F90EF
:100E20001F9018951F920F920FB60F920BB60F924C
:100E300011242F933F934F935F936F937F938F93DF
:100E40009F93AF93BF93EF93FF9380914904909149
:100E50004A04892B29F0E0914904F0914A0409954C
:100E6000FF91EF91BF91AF919F918F917F916F9182
:100E70005F914F913F912F910F900BBE0F900FBE3E
:100E80000F901F9018951F920F920FB60F920BB6EE
:100E90000F9211242F933F934F935F936F937F9300
:100EA0008F939F93AF93BF93EF93FF9380914B04E6
:100EB00090914C04892B29F0E0914B04F0914C0463
:100EC0000995FF91EF91BF91AF919F918F917F9184
:100ED0006F915F914F913F912F910F900BBE0F90AB
:100EE0000FBE0F901F9018951F920F920FB60F9282
:100EF0000BB60F9211242F933F934F935F936F93F1
:100F00007F938F939F93AF93BF93EF93FF938091C2
:100F10004D0490914E04892B29F0E0914D04F091FD
:100F20004E040995FF91EF91BF91AF919F918F91E1
:100F30007F916F915F914F913F912F910F900BBED9
:100F40000F900FBE0F901F9018951F920F920FB623
:100F50000F9211242F933F938F939F93AF93BF933F
:100F60008091570490915804A0915904B0915A046B
:100F700030915B040196A11DB11D232F2D5F2D37EC
:100F800020F02D570196A11DB11D20935B04809385
:100F9000570490935804A0935904B0935A04809135
:100FA000530490915404A0915504B09156040196B5
:100FB000A11DB11D8093530490935404A093550434
:100FC000B0935604BF91AF919F918F913F912F9114
:100FD0000F900FBE0F901F9018958FB7F894209127
:100FE0005704309158044091590450915A048FBFCE
:100FF000B901CA0108959FB7F89420915304309124
:101000005404409155045091560486B5A89B06C0DF
:101010008F3F21F02F5F3F4F4F4F5F4F9FBF542FA8
:10102000432F322F2227280F311D411D511D82E0F1
:10103000220F331F441F551F8A95D1F7B901CA01EA
:101040000895EF92FF920F931F93CF93DF937B014D
:101050008C010E94FB07EB010EC00E94FB076C1B7A
:101060007D0B685E7340C8F30894E108F10801093C
:101070001109C851DC4FE114F1040105110569F7AC
:10108000DF91CF911F910F91FF90EF900895789489
:1010900084B5826084BD84B5816084BD85B582607D
:1010A00085BD85B5816085BDEEE6F0E0808181601B
:1010B0008083E1E8F0E0108280818260808380811B
:1010C00081608083E0E8F0E0808181608083E1EBF3
:1010D000F0E0808184608083E0EBF0E080818160DB
:1010E0008083E1E9F0E0808182608083808181609B
:1010F0008083E0E9F0E0808181608083E1EAF0E0D4
:10110000808182608083808181608083E0EAF0E07A
:10111000808181608083E1E2F1E080818260808370
:10112000808181608083E0E2F1E080818160808362
:10113000EAE7F0E080818460808380818260808340
:101140008081816080838081806880831092C1006B
:101150000895482F50E0CA0181579E4FFC01249109
:101160004C585E4FFA0184918823C1F0E82FF0E0DB
:10117000EE0FFF1FEA5DFE4FA591B491662341F487
:101180009FB7F8948C91209582238C939FBF0895EC
:101190009FB7F8948C91822B8C939FBF08958930D0
:1011A00009F44FC08A30A0F4843081F1853040F4D6
:1011B0008230C9F1833030F5813009F06DC030C024
:1011C0008730A9F18830B8F5853009F065C022C0B4
:1011D0008D3009F448C08E3028F48B30D1F18C303A
:1011E000F0F533C0803109F448C0813120F48E30ED
:1011F00009F052C03CC0813109F443C0823109F08A
:101200004BC045C0809180008F7707C080918000DF
:101210008F7D03C080918000877F80938000089538
:1012200084B58F7702C084B58F7D84BD0895809189
:10123000B0008F7703C08091B0008F7D8093B000A5
:101240000895809190008F7707C0809190008F7DE6
:1012500003C080919000877F8093900008958091D3
:10126000A0008F7707C08091A0008F7D03C0809180
:10127000A000877F8093A0000895809120018F7740
:1012800003C0809120018F7D80932001089580917B
:101290002001877F809320010895FF920F931F9371
:1012A000F62E482F50E0CA0186559E4FFC0124912E
:1012B000CA0181579E4FFC0114914C585E4FFA01B0
:1012C00004910023C9F0222319F0822F0E94CF0835
:1012D000E02FF0E0EE0FFF1FE05CFE4FA591B49110
:1012E0009FB7F894FF2021F48C911095812302C0C0
:1012F0008C91812B8C939FBF1F910F91FF9008952C
:10130000CF93DF93582F4093DE048091DF0488232E
:1013100009F044C08091DD04583030F4C82FD0E08B
:10132000462FCB01DC0135C0C82FD0E097E0252F38
:1013300030E02250304015C08091DC04E82FF0E00E
:101340003196AF014F77507031974C175D0771F1AF
:10135000E45AFB4FA60FB71F8C9180834093DC04A7
:101360009F5FA92FB0E0A217B30734F31FC080918D
:10137000DC04E82FF0E031969F012F773070319731
:101380002C173D0799F0E45AFB4F8D9180832093F1
:10139000DC048A2F841B851750F308C0E091E20417
:1013A000F091E304852F09959C0102C02CE534E0FF
:1013B000C901DF91CF9108959C018091E0048823B9
:1013C00031F0E091E404F091E504C901099510922F
:1013D000E10408951092E8041092E7041092EA04E0
:1013E0001092E90480E899E00E941A0A8CED99E0D5
:1013F0000E941F0A089586EE94E00E94EA0908956B
:10140000E091E704F091E804309709F00995089518
:10141000E091EB04F091EC04309711F00995BC01D8
:10142000CB010895E091ED04F091EE04309709F0BE
:10143000099508959093EC048093EB04089590939C
:10144000EE048093ED0408951F920F920FB60F9251
:101450000BB60F9211242F933F934F935F936F938B
:101460007F938F939F93AF93BF93EF93FF935E9A76
:1014700086E00E94690B80932D06FF91EF91BF914A
:10148000AF919F918F917F916F915F914F913F911C
:101490002F910F900BBE0F900FBE0F901F901895BD
:1014A0001F93DF93CF930F92CDB7DEB786E060E84E
:1014B00047E00E946F0B182F8091F4049091F5047F
:1014C0006091F604AE014F5F5F4F0E948E0B8F77E5
:1014D0006091F4047091F50420E0112309F421E0F7
:1014E00049810E94080A9093F5048093F4040F90B8
:1014F000CF91DF911F9108951F920F920FB60F9217
:101500000BB60F9211242F933F934F935F936F93DA
:101510007F938F939F93AF93BF93EF93FF935E98C7
:101520000E94500AFF91EF91BF91AF919F918F91CF
:101530007F916F915F914F913F912F910F900BBED3
:101540000F900FBE0F901F901895CF92DF92FF92D1
:101550000F931F93DF93CF9300D00F92CDB7DEB7D9
:10156000F82E82E0F81689F08F1530F0FF20F1F0A8
:1015700081E0F816C1F40BC084E0F81651F0F816BB
:1015800050F085E0F81679F408C086E010C089E0D4
:101590000EC086E10CC089E10AC088E08A8383E03E
:1015A000898311E007C084E00E94000A88E08A83F2
:1015B000898310E08091F204853059F41123A1F55C
:1015C000809139018D7F8093390180ED97E00197FB
:1015D000F1F7298182E06FE140E00E947C0B0CE88A
:1015E00030E8C32ED12C81E06FE140E00E946F0B08
:1015F0008B839A818B81981739F0C6010197F1F797
:10160000002311F00150EFCF9A818B81981719F0C8
:1016100081E00E94000A112329F080913901826043
:1016200080933901F092F2040F900F900F90CF91B8
:10163000DF911F910F91FF90DF90CF9008951F923F
:101640000F920FB60F920BB60F9211242F933F9368
:101650004F935F936F937F938F939F93AF93BF93BA
:10166000EF93FF935D988091F204813019F480E04C
:1016700090E016C08330D1F482E060EE45E00E9435
:101680006F0B833029F0833028F0853039F404C0A3
:1016900081E005C080E003C082E001C083E090E00B
:1016A0000E94120A8091F3040E94A50AFF91EF9113
:1016B000BF91AF919F918F917F916F915F914F916A
:1016C0003F912F910F900BBE0F900FBE0F901F9068
:1016D0001895E82FF0E0E05CFE4F80810895E82F38
:1016E000F0E0E05CFE4F8081862390E002C095959B
:1016F00087954A95E2F70895E82FF0E0E05CFE4F09
:1017000030E002C0220F331F4A95E2F7962F922352
:10171000609580818623982B90830895FF920F9384
:101720001F93CF93DF93EA01F0907B01F61608F444
:101730006F2D062F10E060E871E0402F50E00E940E
:10174000271400581E4FF801808188838F2DDF9168
:10175000CF911F910F91FF900895982F413210F073
:1017600040E030C08091F7048823E1F781E0809366
:10177000F7048FEF8093620510921D05415040934E
:101780001E054F5F990F91609093F80485EE80934A
:10179000BC008091F7048130E1F380911D0584172E
:1017A00010F440911D0520E030E00AC0FB01E20F7B
:1017B000F31FD901A350BB4F8C9180832F5F3F4F04
:1017C0002417A0F3842F08951F93582F122F41320E
:1017D00010F081E03AC08091F7048823E1F782E0BD
:1017E0008093F7048FEF8093620510921D0540935C
:1017F0001E05ADEFB4E0FB0102C081918D938E2FE9
:10180000861B8417D0F3852F90E0880F991F809353
:10181000F80485EE8093BC00112321F08091F70439
:101820008230E1F3809162058F3F11F480E00DC0BA
:1018300080916205803211F482E007C080916205D8
:10184000803311F084E001C083E01F910895482F98
:10185000613210F081E008958091F704843011F036
:1018600082E0089560934005AFE1B5E0842F9C01CC
:10187000F90102C081918D938E2F841B8617D0F3BE
:1018800080E008951F920F920FB60F920BB60F9241
:1018900011242F933F934F935F936F937F938F9375
:1018A0009F93AF93BF93EF93FF938091B90090E024
:1018B000887F90708036910509F4DCC081369105EF
:1018C000CCF58832910509F47BC089329105B4F4D6
:1018D0008031910509F46FC0813191053CF4009786
:1018E00009F431C1089709F039C165C08831910503
:1018F00009F466C0809709F031C17DC0803491053C
:1019000009F49FC08134910544F48033910509F4B2
:101910007DC0C89709F022C184C08035910509F4C3
:1019200084C08835910509F491C08834910509F087
:1019300015C198C08839910509F4FDC08939910510
:10194000ECF48837910509F495C0893791054CF47A
:101950008836910509F48EC08037910509F0FEC0E4
:1019600089C08838910509F4E6C08039910509F4E9
:1019700087C08038910509F0F1C082C0803B910595
:1019800009F4B0C0813B91054CF4803A910509F40B
:1019900089C0883A910509F0E1C0A4C0803C910556
:1019A00009F4CDC0883C910509F4C9C0883B910574
:1019B00009F0D4C0ACC08091F8048093BB00B9C0DA
:1019C00090911D0580911E05981768F490911D0552
:1019D000E92FF0E0E350FB4F80818093BB009F5FD5
:1019E00090931D05A6C085ED8093BC008091BC003E
:1019F00084FDFCCFB1C080E28093620585ED8093C9
:101A0000BC008091BC0084FDFCCFA6C080E3809325
:101A1000620585ED8093BC008091BC0084FDFCCF05
:101A20009BC088E3809362058AC080911D059091D8
:101A3000BB00E82FF0E0E350FB4F90838F5F809373
:101A40001D0590911D0580911E0571C080911D0599
:101A50009091BB00E82FF0E0E350FB4F90838F5F45
:101A600080931D0585ED8093BC008091BC0084FDB2
:101A7000FCCF72C083E08093F7041092610559C0D7
:101A800080916105803208F056C080916105909187
:101A9000BB00E82FF0E0EF5BFA4F90838F5F8093FD
:101AA000610547C080916105803230F4E0916105A5
:101AB000F0E0EF5BFA4F108285ED8093BC008091DF
:101AC000BC0084FDFCCF1092F70460916105E091A9
:101AD000FB04F091FC0481E495E070E0099510921C
:101AE00061052DC084E08093F70410923F051092A9
:101AF0004005E091F904F091FA04099580914005C0
:101B0000882329F481E08093400510921F0590916D
:101B10003F05E92FF0E0E15EFA4F80818093BB0042
:101B20009F5F90933F0590913F05809140059817E6
:101B300010F485EC01C085E88093BC000FC085ECF3
:101B40008093BC0009C01092620585ED8093BC00B3
:101B50008091BC0084FDFCCF1092F704FF91EF91BF
:101B6000BF91AF919F918F917F916F915F914F91B5
:101B70003F912F910F900BBE0F900FBE0F901F90B3
:101B800018951092F70485E161E00E944D0986E105
:101B900061E00E944D09E9EBF0E080818E7F808357
:101BA00080818D7F808388E48093B80085E4809372
:101BB000BC00089581E08093A8056093850510928C
:101BC000A6051092A70508952091840530E0809124
:101BD0008305281B3109C90108954091830580912F
:101BE0008405481718F02FEF3FEF0AC0E42FF0E00C
:101BF000ED59FA4F8081282F30E04F5F40938305E5
:101C0000C9010895E091830580918405E81718F0D3
:101C1000EFEFFFEF06C0F0E0ED59FA4F8081E82FBB
:101C2000F0E0CF01089508951092AC051092AB0535
:101C300088EE93E0A0E0B0E08093AD059093AE0510
:101C4000A093AF05B093B0058CED92E09093AA05F8
:101C50008093A9050895CF92DF92EF92FF920F93A0
:101C60001F93CF93DF937C016B018A018091A805BC
:101C70008823A1F0C0E0D0E00DC0D701ED91FC9128
:101C8000D601AC0FBD1F0190F081E02DC7016C9112
:101C900009952196C017D10780F304C0CB01642FAA
:101CA0000E94270CC801DF91CF911F910F91FF90E7
:101CB000EF90DF90CF900895DF93CF930F92CDB741
:101CC000DEB7FC0169838091A8058823C9F0809163
:101CD000A705803238F081E090E09383828320E092
:101CE00030E015C08091A605E82FF0E0EA57FA4FE2
:101CF000998190838F5F8093A6058093A70505C087
:101D0000CE01019661E00E94270C21E030E0C9017C
:101D10000F90CF91DF9108958091850566E875E079
:101D20004091A70521E00E94E40B1092A6051092B5
:101D3000A7051092A8050895413208F040E2862FC9
:101D400063E675E00E94AD0B1092830580938405D5
:101D5000089510928305109284051092A6051092A2
:101D6000A7050E94C10D08951F920F920FB60F9202
:101D70000BB60F9211242F933F934F935F936F9362
:101D80007F938F939F93AF93BF93EF93FF93E091D4
:101D9000B905F091BA050995FF91EF91BF91AF9107
:101DA0009F918F917F916F915F914F913F912F9173
:101DB0000F900BBE0F900FBE0F901F9018951F92A3
:101DC0000F920FB60F920BB60F9211242F933F93E1
:101DD0004F935F936F937F938F939F93AF93BF9333
:101DE000EF93FF93E091BD05F091BE050995FF913A
:101DF000EF91BF91AF919F918F917F916F915F9183
:101E00004F913F912F910F900BBE0F900FBE0F90EF
:101E10001F9018950F931F93CF93DF93FC01838D31
:101E2000A685B7859585082F027081FF05C08C9126
:101E3000892309F454C004C08C91892309F04FC050
:101E40008389948920E001972FEF8F3F9207D9F77C
:101E5000C589D689A685B785758560E031E040E003
:101E600050E010E0CE01212F01972FEF8F3F920716
:101E7000D9F78C91872311F0632B03C0832F8095B2
:101E80006823330F4F5F5F4F4830510559F78789FB
:101E9000908D20E001972FEF8F3F9207D9F7011126
:101EA0006095809101062091020690E001968F7363
:101EB000907030E08217930779F0E0910106F0E02E
:101EC000EF53FA4F60838091010690E001968F7383
:101ED00090708093010603C0838D8160838FDF91B2
:101EE000CF911F910F9108958091BF059091C005EA
:101EF000009711F00E940A0F08951F920F920FB6DB
:101F00000F920BB60F9211242F933F934F935F9331
:101F10006F937F938F939F93AF93BF93EF93FF93B1
:101F20000E94740FFF91EF91BF91AF919F918F919C
:101F30007F916F915F914F913F912F910F900BBEC9
:101F40000F900FBE0F901F9018951F920F920FB613
:101F50000F920BB60F9211242F933F934F935F93E1
:101F60006F937F938F939F93AF93BF93EF93FF9361
:101F70000E94740FFF91EF91BF91AF919F918F914C
:101F80007F916F915F914F913F912F910F900BBE79
:101F90000F900FBE0F901F9018951F920F920FB6C3
:101FA0000F920BB60F9211242F933F934F935F9391
:101FB0006F937F938F939F93AF93BF93EF93FF9311
:101FC0000E94740FFF91EF91BF91AF919F918F91FC
:101FD0007F916F915F914F913F912F910F900BBE29
:101FE0000F900FBE0F901F90189588E68093030600
:101FF00008952F923F924F925F926F927F928F92AD
:102000009F92AF92BF92CF92DF92EF92FF920F9387
:102010001F935C014B013A01290118019C012F5FBC
:102020003F4F0091C0021091C102FC0180816BE31F
:102030004EE00E941711F501918180E0228130E08D
:10204000822B932BF40191838083F501938180E0AF
:10205000248130E0822B932BF30191838083F5015F
:10206000958180E0268130E0822B932BF2019183D1
:102070008083F501918580E0228530E0822B932BCF
:10208000F10191838083F501938580E0248530E020
:10209000822B932BF70191838083F501958580E056
:1020A000268530E0822B932BF601918380831F914C
:1020B0000F91FF90EF90DF90CF90BF90AF909F90E7
:1020C0008F907F906F905F904F903F902F900895EA
:1020D000FC01262F80816BE646E00E94F1110895F5
:1020E000FC01262F808167E341E00E94F1110895F1
:1020F0000F93FC01062F80816BE642E023E00E94F3
:10210000A7110F9108950F93FC01062F80816CE1B8
:1021100044E022E00E94A7110F9108950F93FC0163
:10212000062F80816BE144E022E00E94A7110F910D
:1021300008950F931F938C0161E00E947810C801ED
:1021400060E00E948E10C80160E00E948310C80108
:1021500060E00E9468101F910F910895CF92DF9266
:10216000EF92FF920F931F936C018C010F5F1F4F33
:10217000E090C002F090C102FC01808165E746E07A
:1021800026E00E942B12F60181811F910F91FF9092
:10219000EF90DF90CF9008950E94AE1090E08433CE
:1021A00009F491E0892F0895EF92FF920F931F9306
:1021B000CF93DF93582F162FE42E022FF32E89EAA8
:1021C00095E0652F0E94DA0D89EA95E0612F0E9463
:1021D0005C0E202F3F2DC901EC0110E006C089EAFA
:1021E00095E069910E945C0E1F5F1E15C0F389EA9D
:1021F00095E00E948C0E90E0882309F491E0892FED
:10220000DF91CF911F910F91FF90EF900895DF9391
:10221000CF930F92CDB7DEB7498341E09E012F5F88
:102220003F4F0E94D4100F90CF91DF9108955F929D
:102230006F927F928F929F92AF92BF92CF92DF92D6
:10224000EF92FF920F931F93CF93DF93F82EE62E1A
:10225000542E6901580189EA95E06F2D0E94DA0D2C
:1022600089EA95E06E2D0E945C0E89EA95E00E9455
:102270008C0E89EA95E06F2D0E94DA0D89EA95E0CF
:102280006F2D452D0E949C0E0E94ED073B014C01D5
:10229000E601780100E010E0CE018C19D82E89EA21
:1022A00095E00E94E40D892B09F442C0A114B10409
:1022B00059F00E94ED0766197709880999096E158A
:1022C0007F058007910730F489EA95E00E94ED0DC3
:1022D0008993E2CF0E94ED07661977098809990969
:1022E000950140E050E0621773078407950758F0A6
:1022F0002D2D332727FD3095852D90E028173907A0
:1023000014F4DD24DA9489EA95E00E948C0E8D2D78
:10231000DF91CF911F910F91FF90EF90DF90CF90C1
:10232000BF90AF909F908F907F906F905F90089537
:10233000A114B10441F3CECF0F931F93FA01890189
:1023400041E09F010E9417111F910F910895DF92A4
:10235000EF92FF920F931F93DF93CF930F92CDB71E
:10236000DEB7E82ED62EF42E122F2091C002309127
:10237000C102AE014F5F5F4F0E949C11882341F163
:10238000212F30E04F2D50E04F5F5F4F421B530B2A
:1023900081E090E002C0880F991F1A95E2F701973B
:1023A000042E02C0880F991F0A94E2F7202F30E014
:1023B00002C0220F331F4A95E2F7482F40955981FA
:1023C00045238223482B49838E2D6D2D0E940711B2
:1023D0000F90CF91DF911F910F91FF90EF90DF90C1
:1023E0000895EF92FF920F931F93DF93CF930F9275
:1023F000CDB7DEB7F82EE62E042F122F2091C002A3
:102400003091C102AE014F5F5F4F0E949C11298144
:10241000112351F081E090E002C0880F991F0A95C6
:10242000E2F7422F482B0AC081E090E002C0880FFB
:10243000991F0A95E2F7482F4095422349838F2D33
:102440006E2D0E9407110F90CF91DF911F910F9178
:10245000FF90EF900895CF92DF92EF92FF920F934B
:102460001F93DF93CF930F92CDB7DEB7C42ED22E3A
:102470009701AE014F5F5F4F0E949C11682F882328
:1024800009F18D2D90E04C2D50E04F5F5F4F481BC0
:10249000590B21E030E002C0220F331FDA94E2F73B
:1024A00021503040042E02C0220F331F0A94E2F75D
:1024B0008981822390E002C0959587954A95E2F73D
:1024C000F8018083862F0F90CF91DF911F910F919C
:1024D000FF90EF90DF90CF9008958EE180931206E9
:1024E00008950F931F93CF93DF93EC019C012F5F0F
:1024F0003F4F0091C0021091C10288816AE043E021
:102500000E941711833061F48981883449F48A81EB
:10251000843331F440E08B81833319F441E001C00E
:1025200040E0842FDF91CF911F910F910895AF92DA
:10253000BF92CF92DF92EF92FF920F931F93CF93B0
:10254000DF93EC017B016A0159019C012F5F3F4F32
:102550000091C0021091C102888163E046E00E94B0
:1025600017118F81813029F4888162E041E00E9457
:102570000711998180E02A8130E0822B932BF701AB
:10258000918380839B8180E02C8130E0822B932B90
:10259000F601918380839D8180E02E8130E0822B43
:1025A000932BF50191838083DF91CF911F910F9140
:1025B000FF90EF90DF90CF90BF90AF900895FF9283
:1025C0000F931F938C01F62EFC01808162E04781FE
:1025D0000E940711F801F7821F910F91FF90089553
:1025E000FC01462F4295440F407E808161E00E94AD
:1025F000071108950F931F938C01FC01808160E007
:1026000040E70E940711C80161E00E94F012C80172
:1026100061E00E94DF121F910F910895CF92DF9227
:10262000EF92FF920F931F9383E096E060E276E0D3
:1026300042E256E024E236E006E216E0F8E2EF2E4F
:10264000F6E0FF2EEAE2CE2EE6E0DE2E0E94F90F43
:1026500007E114E0C80160E072E00E94B8056091F3
:10266000200670912106C8014AE050E00E948605CC
:1026700086E0E82E82E0F82EC801B7010E94B80576
:102680006091220670912306C8014AE050E00E9442
:102690008605C801B7010E94B805609124067091B3
:1026A0002506C8014AE050E00E948605C801B7012E
:1026B0000E94B8056091260670912706C8014AE07D
:1026C00050E00E948605C801B7010E94B8056091DC
:1026D000280670912906C8014AE050E00E9486054C
:1026E000C801B7010E94B80560912A0670912B06B7
:1026F000C8014AE050E00E94990582E196E06AE153
:1027000076E04CE156E02EE136E00E949712C801D7
:1027100068E072E00E94B80560911A0670911B068D
:10272000C8014AE050E00E948605C801B7010E9436
:10273000B80560911C0670911D06C8014AE050E082
:102740000E948605C801B7010E94B80560911E0667
:1027500070911F06C8014AE050E00E94990564EF9D
:1027600071E080E090E00E94210860912C0681E0F9
:10277000682760932C0687E10E944D091F910F91F5
:10278000FF90EF90DF90CF90089587E161E00E9485
:10279000A90889E161E00E94A90889E160E00E943E
:1027A0004D0989EA95E00E94A90E87E194E040E88E
:1027B00055E260E070E00E94460287E194E06EE03E
:1027C00072E00E94BB0583E096E00E94991083E0CE
:1027D00096E061E00E94701082E196E00E94FA1299
:1027E00087E194E06AE272E00E94BB0582E196E034
:1027F0000E947112882319F468E472E002C063E653
:1028000072E087E194E00E94BB0583E096E00E94BD
:10281000CC10882319F462E872E002C06CE972E01F
:1028200087E194E00E94BB050895CF93DF930E9457
:1028300047080E94C513C7E8D1E00E940E132097F5
:10284000E1F30E948701F9CFF8940C949E14FB01E8
:10285000DC0102C001900D9241505040D8F708951C
:10286000629FD001739FF001829FE00DF11D649F74
:10287000E00DF11D929FF00D839FF00D749FF00D00
:10288000659FF00D9927729FB00DE11DF91F639FA1
:10289000B00DE11DF91FBD01CF0111240895AA1B40
:1028A000BB1B51E107C0AA1FBB1FA617B70710F03B
:1028B000A61BB70B881F991F5A95A9F7809590956D
:1028C000BC01CD01089597FB092E07260AD077FD9C
:1028D00004D0E5DF06D000201AF4709561957F4F93
:1028E0000895F6F7909581959F4F0895A1E21A2ECD
:1028F000AA1BBB1BFD010DC0AA1FBB1FEE1FFF1FA4
:10290000A217B307E407F50720F0A21BB30BE40BF3
:10291000F50B661F771F881F991F1A9469F760953A
:102920007095809590959B01AC01BD01CF010895F4
:10293000EE0FFF1F0590F491E02D0994F894FFCF5E
:10294000612F673A090009006D61673A0900496E15
:10295000697469616C697A696E67204932432064E1
:102960006576696365732E2E2E0054657374696EE7
:10297000672064657669636520636F6E6E65637456
:10298000696F6E732E2E2E00484D43353838334C08
:1029900020636F6E6E656374696F6E206661696C2B
:1029A000656400484D43353838334C20636F6E6E94
:1029B000656374696F6E20737563636573736675A1
:1029C0006C004D50553630353020636F6E6E656348
:1029D00074696F6E206661696C6564004D50553690
:1029E00030353020636F6E6E656374696F6E20736F
:1029F00075636365737366756C00FFFFFFFFFFFF10
:102A0000E8030000000038035B04CC02FD02DD0295
:102A10002603000000001904000000005C0E2B0ECD
:082A2000E40DED0D020E130E92
:00000001FF
