:100000000C941B010C94F4070C9425080C944501E6
:100010000C9445010C9492070C9461070C943007E2
:100020000C94C3070C94B2110C94DA110C940212C4
:100030000C9445010C94D0060C9445010C94450198
:100040000C9445010C9445010C9445010C94450118
:100050000C94E9100C9445010C9445010C94610832
:100060000C9445010C9448010C94DE010C9445015C
:100070000C9445010C9445010C9445010C944501E8
:100080000C9445010C9445010C9445010C941411F9
:100090000C9481010C942B020C9445010C949E0E3F
:1000A0000C9445010C9445010C9445010C944501B8
:1000B0000C9445010C9445010C9445010C944501A8
:1000C0000C9445010C9445010C9445010C94450198
:1000D0000C9445010C9445010C9445010C94450188
:1000E0000C9445010C9445010C9445010C941F0C93
:1000F0000C94820C0C9445010C9445010C94250D34
:100100000C9445010C9445010C9445010C94450157
:100110000C9445010C9445010C9445010C94450147
:100120000504000201030F0F0F0F0F0E0E0E0D0D31
:100130000C0C0B0A0908070604020000000000244A
:100140000000002A002D00300033000000000000F5
:10015000000000000000000000250000002B002E21
:10016000003100340000000000000000000000002A
:100170000000000000260029002C002F00320000A3
:10018000000000000000000000050505050505054C
:100190000502020202020206060606060602040420
:1001A000040401024020040810801080402008024E
:1001B00001020408102004010220400000000B008E
:1001C000090A000705040300000000000000000009
:1001D0000000000000006364696E6F7073757858EA
:1001E0005B00494E46494E4954594E414ECDCCCC08
:1001F0003D0AD7233C17B7D13877CC2B329595E6FB
:10020000241FB14F0A000020410000C84200401CDA
:100210004620BCBE4CCA1B0E5AAEC59D7400A60338
:100220003C04F60B66109A12A112EC120D13301357
:1002300093120613291311241FBECFEFD1E4DEBFA2
:10024000CDBF13E0A0E0B2E0E8E6FDE300E00BBFC5
:1002500002C007900D92AC33B107D9F717E0ACE3B9
:10026000B3E001C01D92A738B107E1F712E0C0E387
:10027000D2E004C02297FE010E94A31ECE31D10716
:10028000C9F70E9411160C9429170C9400000895C8
:100290001F920F920FB60F920BB60F9211242F934D
:1002A0003F934F938F939F93EF93FF934091C6009B
:1002B00020917C0330917D032F5F3F4F2F7330706F
:1002C00080917E0390917F032817390759F0E091C0
:1002D0007C03F0917D03E45CFC4F408330937D030D
:1002E00020937C03FF91EF919F918F914F913F91CC
:1002F0002F910F900BBE0F900FBE0F901F9018956F
:1003000008951F920F920FB60F920BB60F92112401
:100310002F933F934F938F939F93EF93FF9340912E
:10032000CE0020910404309105042F5F3F4F2F73BE
:10033000307080910604909107042817390759F00E
:10034000E0910404F0910504EC53FC4F408330939A
:10035000050420930404FF91EF919F918F914F9199
:100360003F912F910F900BBE0F900FBE0F901F90DB
:100370001895E0917704F0917804E05CFF4F81914B
:10038000919120813181821B930B8F739070892B07
:1003900011F00E944701E0917704F0917804E05C4D
:1003A000FF4F8191919120813181821B930B8F733B
:1003B0009070892B11F00E94800108951F920F9276
:1003C0000FB60F920BB60F9211242F933F934F93BA
:1003D0005F936F937F938F939F93AF93BF93EF93AD
:1003E000FF932091C0033091C1038091C20390918B
:1003F000C3032817390731F48091C1008F7D8093A2
:10040000C10016C0E091C203F091C303E058FC4F55
:1004100040818091C2039091C303019660E470E033
:100420000E946C1E9093C3038093C2034093C60046
:10043000FF91EF91BF91AF919F918F917F916F91BC
:100440005F914F913F912F910F900BBE0F900FBE78
:100450000F901F9018951F920F920FB60F920BB628
:100460000F9211242F933F934F935F936F937F933A
:100470008F939F93AF93BF93EF93FF932091480483
:100480003091490480914A0490914B042817390710
:1004900031F48091C9008F7D8093C90016C0E0912E
:1004A0004A04F0914B04E85FFB4F408180914A047D
:1004B00090914B04019660E470E00E946C1E909352
:1004C0004B0480934A044093CE00FF91EF91BF917B
:1004D000AF919F918F917F916F915F914F913F91DC
:1004E0002F910F900BBE0F900FBE0F901F9018957D
:1004F000AF92BF92DF92EF92FF920F931F93CF9331
:10050000DF93EC017A018B01DD24403081EE580746
:1005100080E0680780E0780711F0DD24D39491E053
:10052000A92EB12CEC89FD89DD2069F0C5010E8C66
:1005300002C0880F991F0A94E2F7808360E079E097
:100540008DE390E005C0108260E874E88EE190E0F1
:10055000A80197010E947F1E21503040404050402A
:10056000569547953795279580E12030380720F03C
:10057000DD2011F0DD24D6CFE889F9893083EA89BE
:10058000FB892083EE89FF89408121E030E0C901A9
:100590000A8C02C0880F991F0A94E2F7482B408307
:1005A000EE89FF894081C9010B8C02C0880F991F19
:1005B0000A94E2F7482B4083EE89FF894081C90104
:1005C0000C8C02C0880F991F0A94E2F7482B4083D5
:1005D000EE89FF8980810D8C02C0220F331F0A949F
:1005E000E2F7209528232083DF91CF911F910F916F
:1005F000FF90EF90DF90BF90AF900895DC011C96C4
:10060000ED91FC911D97E05CFF4F2191319180812C
:100610009181281B390B2F733070C9010895DC01BB
:100620001C96ED91FC911D97E05CFF4F208131817C
:10063000E054F040DF01AE5BBF4F8D919C9111976C
:100640002817390719F42FEF3FEF07C08D919C91C0
:10065000E80FF91F8081282F30E0C9010895DC01DF
:100660001C96ED91FC911D97E05CFF4F208131813C
:10067000E054F040DF01AE5BBF4F8D919C9111972C
:100680002817390719F42FEF3FEF10C08D919C9177
:100690001197E80FF91F20818D919C911197019678
:1006A0008F73907011969C938E9330E0C9010895DA
:1006B000FC0186859785DC01A05CBF4FFC01EE5BE9
:1006C000FF4F2D913C911197808191812817390717
:1006D000C1F70895CF93DF93EC01462FEE85FF8598
:1006E000E05CFF4F80819181E054F040019660E42E
:1006F00070E00E946C1E9C01DF01AE5BBF4F8D91CC
:100700009C91119728173907D1F3E05CFF4F808146
:100710009181E054F040E80FF91F4083EE85FF859A
:10072000E05CFF4F31832083EE89FF89208181E0E7
:1007300090E00D8C02C0880F991F0A94E2F7282BD5
:10074000208381E090E0DF91CF9108951F93109274
:100750004F0410924E0428EE33E040E050E0209326
:10076000500430935104409352045093530462E078
:1007700073E070934D0460934C048CE393E090938A
:1007800059048093580480E893E090935B0480932D
:100790005A0485EC90E090935D0480935C0484ECB3
:1007A00090E090935F0480935E0480EC90E09093DF
:1007B00061048093600481EC90E0909363048093E3
:1007C000620486EC90E0909365048093640414E0E6
:1007D00010936604B3E0B0936704A7E0A0936804A5
:1007E000F5E0F0936904E1E0E0936A0410926E048E
:1007F00010926D0420936F04309370044093710441
:100800005093720470936C0460936B0484EC93E0D7
:10081000909378048093770488E094E090937A042E
:10082000809379048DEC90E090937C0480937B041A
:100830008CEC90E090937E0480937D0488EC90E0B3
:100840009093800480937F0489EC90E090938204DD
:10085000809381048EEC90E09093840480938304D1
:1008600010938504B0938604A0938704F0938804C2
:10087000E09389041F91089582E193E090938B04A3
:1008800080938A0410928C0410928D0410928E042E
:1008900010928F0408958F929F92AF92BF92CF9241
:1008A000DF92EF92FF920F931F93CF93DF934C0150
:1008B0006B017C01AA24BB24C0E0D0E0C601F70193
:1008C00062814AE050E00E9466058C01C6016EE23A
:1008D0000E94B704080F191FA00EB11E219608949C
:1008E000E11CF11CC330D10549F7C601F401658153
:1008F0004AE050E00E9466059501280F391FC901A2
:10090000DF91CF911F910F91FF90EF90DF90CF90EB
:10091000BF90AF909F908F900895CF92DF92EF920B
:10092000FF920F931F93CF93DF937C016B018A019A
:10093000C0E0D0E00FC0D6016D916D01D701ED91FF
:10094000FC910190F081E02DC7010995C80FD91FD6
:10095000015010400115110571F7CE01DF91CF91C3
:100960001F910F91FF90EF90DF90CF900895DC01E1
:10097000ED91FC910190F081E02D09950895EF92A1
:10098000FF920F931F938C01DC01ED91FC9101907C
:10099000F081E02D6DE009957C01D801ED91FC918D
:1009A0000190F081E02DC8016AE009959C012E0DAF
:1009B0003F1DC9011F910F91FF90EF900895CF93B4
:1009C000DF93DB010D900020E9F71197A61BB70B11
:1009D000EC01E881F9810280F381E02DAD010995F8
:1009E000DF91CF9108954F925F927F928F929F9265
:1009F000AF92BF92CF92DF92EF92FF920F931F932D
:100A0000DF93CF93CDB7DEB7A1970FB6F894DEBFD3
:100A10000FBECDBF2C01742ECB01223008F42AE08A
:100A200019A231E2C32ED12CCC0EDD1E822E9924C8
:100A3000AA24BB24672D752FA50194010E947F1E57
:100A400079018A01C801B701A50194010E94391EEC
:100A5000472D461B0894C108D1084A3010F4405D68
:100A600001C0495CF6014083E114F1040105110560
:100A700021F07E2C5F2DC801DDCFC201B6010E949E
:100A8000DF04A1960FB6F894DEBF0FBECDBFCF91A5
:100A9000DF911F910F91FF90EF90DF90CF90BF906B
:100AA000AF909F908F907F905F904F900895DC0162
:100AB0002115310541F4ED91FC910190F081E02D7B
:100AC000642F099508950E94F3040895EF92FF9210
:100AD0000F931F939A01E62EFF2400E010E0B80167
:100AE000A7010E9457051F910F91FF90EF90089565
:100AF000CF92DF92EF92FF920F931F93CF93DF93EA
:100B0000EC016A017B012115310541F4E881F9818D
:100B10000190F081E02D642F09951FC02A30310526
:100B2000D1F477FF17C0E881F9810190F081E02DC1
:100B30006DE209958C0144275527BA014C195D09CE
:100B40006E097F09CE012AE00E94F3049801280F64
:100B5000391F04C02AE00E94F3049C01C901DF91FF
:100B6000CF911F910F91FF90EF90DF90CF9008955C
:100B7000EF92FF920F931F937B019A010027F7FCDE
:100B80000095102FB801A7010E9478051F910F91C1
:100B9000FF90EF9008950E94DF0408957F928F9256
:100BA0009F92AF92BF92CF92DF92EF92FF920F93FC
:100BB0001F93CF93DF934C017A018B01722ECB01EF
:100BC000BA0120E030E040E050E00E94C51787FD08
:100BD00003C0C0E0D0E00EC0D401ED91FC910190C3
:100BE000F081E02DC4016DE20995EC0117FB109531
:100BF00017F9109520E030E040E05FE3AA240BC035
:100C0000CA01B90120E030E040E251E40E94C91776
:100C10009B01AC01A394A71498F3C801B7010E94EB
:100C200061175B016C010E9436187B018C01C401C5
:100C3000B801A7012AE030E00E945705C80FD91F6C
:100C4000772039F0C40160E072E00E94DF04C80F31
:100C5000D91FC801B7010E9462189B01AC01C601EF
:100C6000B5010E94601724C020E030E040E251E46A
:100C70000E9414197B018C010E9431185B016C01E8
:100C8000CC24B7FCC094DC2CC401B601A5012AE039
:100C900030E00E947805C80FD91FC601B5010E9437
:100CA00064189B01AC01C801B7010E9460177A94D7
:100CB0007720D1F6CE01DF91CF911F910F91FF9058
:100CC000EF90DF90CF90BF90AF909F908F907F90EC
:100CD00008950E94CE050895EF92FF920F931F93FF
:100CE0007C010E94DF048C01C7010E94BF04080F31
:100CF000191FC8011F910F91FF90EF900895823046
:100D0000B9F0833028F4882351F0813051F50AC0BE
:100D1000843011F18430E8F0853019F520C010924C
:100D20006E00089580916F008D7F80936F0008950D
:100D3000809170008D7F8093700081E08093B0007F
:100D40008091B100887F84608093B1001092B300DD
:100D500008951092710008951092720008951092F3
:100D6000730008951F93182FA8EFB2E020E231E03E
:100D70009FEF4FEF8C91811719F4F90194914C93E7
:100D800011962F5F3F4FF2E0AE3FBF0799F7892FD3
:100D90000E947F06812F60E00E94000A1F91089543
:100DA0001F920F920FB60F920BB60F9211242F9332
:100DB0003F934F935F936F937F938F939F93AF93E3
:100DC000BF93EF93FF938091900490919104A09131
:100DD0009204B09193040097A105B10551F1E091FF
:100DE0009404F091950480819091960489278083E2
:100DF0008091900490919104A0919204B0919304F9
:100E0000181619061A061B06C4F4809190049091D6
:100E10009104A0919204B09193040197A109B109A2
:100E20008093900490939104A0939204B0939304C0
:100E300004C08091F8020E94B206FF91EF91BF9129
:100E4000AF919F918F917F916F915F914F913F9162
:100E50002F910F900BBE0F900FBE0F901F90189503
:100E60001F920F920FB60F920BB60F9211242F9371
:100E70003F934F935F936F937F938F939F93AF9322
:100E8000BF93EF93FF938091970490919804892BDF
:100E900029F0E0919704F09198040995FF91EF9162
:100EA000BF91AF919F918F917F916F915F914F9182
:100EB0003F912F910F900BBE0F900FBE0F901F9080
:100EC00018951F920F920FB60F920BB60F92112426
:100ED0002F933F934F935F936F937F938F939F9342
:100EE000AF93BF93EF93FF938091990490919A04ED
:100EF000892B29F0E0919904F0919A040995FF91CA
:100F0000EF91BF91AF919F918F917F916F915F9181
:100F10004F913F912F910F900BBE0F900FBE0F90EE
:100F20001F9018951F920F920FB60F920BB60F924B
:100F300011242F933F934F935F936F937F938F93DE
:100F40009F93AF93BF93EF93FF9380919B049091F6
:100F50009C04892B29F0E0919B04F0919C04099555
:100F6000FF91EF91BF91AF919F918F917F916F9181
:100F70005F914F913F912F910F900BBE0F900FBE3D
:100F80000F901F9018951F920F920FB60F920BB6ED
:100F90000F9211242F933F934F935F936F937F93FF
:100FA0008F939F93AF93BF93EF93FF9380919D0493
:100FB00090919E04892B29F0E0919D04F0919E046C
:100FC0000995FF91EF91BF91AF919F918F917F9183
:100FD0006F915F914F913F912F910F900BBE0F90AA
:100FE0000FBE0F901F9018951F920F920FB60F9281
:100FF0000BB60F9211242F933F934F935F936F93F0
:101000007F938F939F93AF93BF93EF93FF938091C1
:101010009F049091A004892B29F0E0919F04F09106
:10102000A0040995FF91EF91BF91AF919F918F918E
:101030007F916F915F914F913F912F910F900BBED8
:101040000F900FBE0F901F9018951F920F920FB622
:101050000F920BB60F9211242F933F934F935F93F0
:101060006F937F938F939F93AF93BF93EF93FF9370
:101070008091A1049091A204892B29F0E091A10410
:10108000F091A2040995FF91EF91BF91AF919F91CB
:101090008F917F916F915F914F913F912F910F9021
:1010A0000BBE0F900FBE0F901F901895009711F078
:1010B0000E94CD1608950E94CD1608950E94201614
:1010C00008951F920F920FB60F9211242F933F9302
:1010D0008F939F93AF93BF938091AB049091AC0497
:1010E000A091AD04B091AE043091AF040196A11D62
:1010F000B11D232F2D5F2D3720F02D570196A11DF7
:10110000B11D2093AF048093AB049093AC04A093E3
:10111000AD04B093AE048091A7049091A804A0916F
:10112000A904B091AA040196A11DB11D8093A70442
:101130009093A804A093A904B093AA04BF91AF917F
:101140009F918F913F912F910F900FBE0F901F9005
:1011500018959FB7F8942091A7043091A804409166
:10116000A9045091AA0486B5A89B06C08F3F21F020
:101170002F5F3F4F4F4F5F4F9FBF542F432F322F53
:101180002227280F311D411D511D82E0220F331FE0
:10119000441F551F8A95D1F7B901CA010895EF92EE
:1011A000FF920F931F93CF93DF937B018C010E94DB
:1011B000A908EB010EC00E94A9086C1B7D0B685E9C
:1011C0007340C8F30894E108F10801091109C851F6
:1011D000DC4FE114F1040105110569F7DF91CF91AE
:1011E0001F910F91FF90EF900895789484B58260DD
:1011F00084BD84B5816084BD85B5826085BD85B5BB
:10120000816085BDEEE6F0E0808181608083E1E869
:10121000F0E01082808182608083808181608083A1
:10122000E0E8F0E0808181608083E1EBF0E08081A4
:1012300084608083E0EBF0E0808181608083E1E97D
:10124000F0E0808182608083808181608083E0E93A
:10125000F0E0808181608083E1EAF0E0808182605B
:101260008083808181608083E0EAF0E0808181601A
:101270008083E1E2F1E0808182608083808181600F
:101280008083E0E2F1E0808181608083EAE7F0E042
:10129000808184608083808182608083808181609E
:1012A0008083808180688083ECE7F0E080818064C7
:1012B00080831092C1000895482F50E0CA018E55D6
:1012C0009E4FFC01249147575E4FFA018491882379
:1012D000C1F0E82FF0E0EE0FFF1FE55CFE4FA59197
:1012E000B491662341F49FB7F8948C9120958223A2
:1012F0008C939FBF08959FB7F8948C91822B8C9309
:101300009FBF0895893009F44FC08A30A0F484301B
:1013100081F1853040F48230C9F1833030F581307D
:1013200009F06DC030C08730A9F18830B8F585303C
:1013300009F065C022C08D3009F448C08E3028F411
:101340008B30D1F18C30F0F533C0803109F448C0D6
:10135000813120F48E3009F052C03CC0813109F453
:1013600043C0823109F04BC045C0809180008F7727
:1013700007C0809180008F7D03C080918000877FAF
:1013800080938000089584B58F7702C084B58F7DE7
:1013900084BD08958091B0008F7703C08091B00024
:1013A0008F7D8093B0000895809190008F7707C063
:1013B000809190008F7D03C080919000877F809303
:1013C000900008958091A0008F7707C08091A000C1
:1013D0008F7D03C08091A000877F8093A000089537
:1013E000809120018F7703C0809120018F7D8093B1
:1013F0002001089580912001877F80932001089526
:10140000FF920F931F93F62E482F50E0CA01855488
:101410009E4FFC012491CA018E559E4FFC011491F0
:1014200047575E4FFA0104910023C9F0222319F0B7
:10143000822F0E948209E02FF0E0EE0FFF1FEB5A8F
:10144000FE4FA591B4919FB7F894FF2021F48C91A1
:101450001095812302C08C91812B8C939FBF1F918B
:101460000F91FF90089570933C0660933B0608959A
:10147000709339066093380610923306672B19F083
:1014800081E0809333060895CF93DF93582F4093E4
:10149000310680913206882309F044C08091B0055E
:1014A000583030F4C82FD0E0462FCB01DC0135C0D6
:1014B000C82FD0E097E0252F30E02250304015C0F3
:1014C0008091AF05E82FF0E03196AF014F77507073
:1014D00031974C175D0771F1E15DFA4FA60FB71F09
:1014E0008C9180834093AF059F5FA92FB0E0A21736
:1014F000B30734F31FC08091AF05E82FF0E03196B9
:101500009F012F77307031972C173D0799F0E15DDF
:10151000FA4F8D9180832093AF058A2F841B851706
:1015200050F308C0E0913606F0913706852F0995F3
:101530009C0102C02FE235E0C901DF91CF910895EF
:101540008091B0058093AF0508959091B00580918A
:10155000AF05891719F42FEF3FEF0CC0892F90E0EA
:10156000FC01E15DFA4F208101968F7790708093A6
:10157000B00530E0C90108958091AF0590E0805832
:101580009F4F2091B005821B910960E870E00E9496
:101590006C1E089581E08093340687E080933006C6
:1015A00008959C0180913306882331F0E09138063C
:1015B000F0913906C9010995109235060895DF9317
:1015C000CF9300D0CDB7DEB71092340680913006AD
:1015D0008E5F80933006F8948FEF9FEF9A83898314
:1015E000809135068823A1F089819A8101979A8399
:1015F0008983019669F0F4CF809135068823D1F074
:1016000089819A8101979A838983019699F0F4CF11
:1016100081E0809335060E94AB0C5D9A8091300684
:1016200061EB75E040E00E944B0C8FEF9FEF9A83D7
:101630008983E2CF82E00E94AB0C10923506789449
:101640000F900F90CF91DF910895DF93CF9300D04B
:10165000CDB7DEB79C01809134068823D1F080910C
:1016600030068D3708F04DC0E82FF0E0EF54FA4F08
:1016700060838F5F809330068D3709F042C0C901C7
:101680000E94DF0A81E08093340687E08093300671
:1016900038C06093B8051092B9051092BA058FEF63
:1016A0009FEF9A838983809135068823A1F08981F1
:1016B0009A8101979A838983019669F0F4CF80918A
:1016C00035068823C9F089819A8101979A83898395
:1016D000019691F0F4CF81E0809335060E94AB0C27
:1016E0005D9A8AE061EB75E040E00E944B0C8FEF61
:1016F0009FEF9A838983E3CF82E00E94AB0C109224
:1017000035060F900F90CF91DF910895EF92FF92E1
:101710000F931F93CF93DF937C01042FEB0110E015
:1017200005C0C70169910E94250B1F5F1017C8F300
:10173000DF91CF911F910F91FF90EF9008951F932C
:10174000CF93DF93162FEA0180EB94E06FE70E94BE
:10175000E70D209781F020E030E0F901EF54FA4FD7
:10176000DE01A20FB31F8C9180832F5F3F4F273084
:10177000310599F714C081E08093B10580E880932A
:10178000B2051092B30581E18093B40582E28093A3
:10179000B50583E38093B60584E48093B70580E0C4
:1017A00090E0612F70E00E946F0D82E00E94AB0C10
:1017B000569A559A5E985D98DF91CF911F91089542
:1017C00040E050E00E949F0B089510923C0610925A
:1017D0003B0610923E0610923D0684E49AE00E9479
:1017E000150C81ED9AE00E941A0C08958AE396E0A8
:1017F0000E94E50B0895E0913B06F0913C0630977E
:1018000009F009950895E0913F06F0914006309760
:1018100011F00995BC01CB010895E0914106F091CA
:101820004206309709F009950895909340068093F9
:101830003F060895909342068093410608951F92B3
:101840000F920FB60F920BB60F9211242F933F9366
:101850004F935F936F937F938F939F93AF93BF93B8
:10186000EF93FF935E9A86E00E94340E8093800788
:10187000FF91EF91BF91AF919F918F917F916F9168
:101880005F914F913F912F910F900BBE0F900FBE24
:101890000F901F9018950E94780EE9E3F1E0808187
:1018A0008260808380818D7F808308951F93DF9382
:1018B000CF930F92CDB7DEB786E060E847E00E9495
:1018C0003A0E182F809148069091490660914A0679
:1018D000AE014F5F5F4F0E94590E8F7760914806AF
:1018E0007091490620E0112309F421E049810E940A
:1018F000030C90934906809348060F90CF91DF9197
:101900001F9108951F920F920FB60F920BB60F9270
:1019100011242F933F934F935F936F937F938F93F4
:101920009F93AF93BF93EF93FF935E980E94560CE3
:10193000FF91EF91BF91AF919F918F917F916F91A7
:101940005F914F913F912F910F900BBE0F900FBE63
:101950000F901F901895CF92DF92FF920F931F93D5
:10196000DF93CF9300D00F92CDB7DEB7F82E82E091
:10197000F81689F08F1530F0FF20F1F081E0F816AD
:10198000C1F40BC084E0F81651F0F81650F085E071
:10199000F81679F408C086E010C089E00EC086E130
:1019A0000CC089E10AC088E08A8383E0898311E062
:1019B00007C084E00E94FB0B88E08A83898310E0E3
:1019C00080914606853059F41123A1F580913901A3
:1019D0008D7F8093390180ED97E00197F1F72981A0
:1019E00082E06FE140E00E94470E0CE830E8C32E31
:1019F000D12C81E06FE140E00E943A0E8B839A8106
:101A00008B81981739F0C6010197F1F7002311F087
:101A10000150EFCF9A818B81981719F081E00E94D5
:101A2000FB0B112329F080913901826080933901E9
:101A3000F09246060F900F900F90CF91DF911F917B
:101A40000F91FF90DF90CF9008951F920F920FB6E5
:101A50000F920BB60F9211242F933F934F935F93E6
:101A60006F937F938F939F93AF93BF93EF93FF9366
:101A70005D9880914606813019F480E090E016C0B0
:101A80008330D1F482E060EE45E00E943A0E83306C
:101A900029F0833028F0853039F404C081E005C096
:101AA00080E003C082E001C083E090E00E940D0C62
:101AB000809147060E94AB0CFF91EF91BF91AF91CF
:101AC0009F918F917F916F915F914F913F912F9156
:101AD0000F900BBE0F900FBE0F901F9018950F9395
:101AE0001F93CF93DF93162F072F8430C9F18530D2
:101AF00058F4813009F466C0813090F08230F1F002
:101B0000833009F05CC037C0863009F43FC08630AE
:101B1000C0F1873009F442C0883009F050C04BC092
:101B2000862F8B50803108F04AC088E06FE140E09A
:101B3000212F0E94470E1093430644C0E62FEF5E0C
:101B4000E53108F03CC060934406F0E0EA5DFE4FEA
:101B5000E081F0E0E49185E06FE040E02E2F08C0E6
:101B6000643068F56093450688E060E645E0212F23
:101B70000E94470E27C060934706862F0E94AB0C39
:101B800021C082E20E942E0E83E204C080E20E9405
:101B90002E0E81E2602F0E942E0E14C0862F972FEA
:101BA0009C01E90114E2812F69910E942E0E1F5FB2
:101BB0001C32C9F707C0862F0E942A0E03C082E09C
:101BC0000E94FB0BDF91CF911F910F91089590938D
:101BD00049068093480660934A06809139018E7FBA
:101BE00080933901809139018D7F8093390188E19B
:101BF00090E00197F1F7809139018160809339017C
:101C00008EE060E00E942E0E8FE00E94340E82E093
:101C10006FE140E028E00E94470E88EF97E00197CF
:101C2000F1F781E06FE140E00E943A0E883019F050
:101C300081E00E94FB0B84E060E245E021E00E942D
:101C4000470E8EE06CE40E942E0E10924606109213
:101C500047060895833309F08FEF0895E82FF0E0E9
:101C6000E05CFE4F60830895E82FF0E0E05CFE4FFB
:101C700080810895E82FF0E0E05CFE4F80818623AC
:101C800090E002C0959587954A95E2F70895E82F70
:101C9000F0E0E05CFE4F30E002C0220F331F4A95B7
:101CA000E2F7962F9223609580818623982B90836C
:101CB0000895FF920F931F93CF93DF93EA01F09063
:101CC0007B01F61608F46F2D062F10E060E871E036
:101CD000402F50E00E94341700581E4FF8018081B9
:101CE00088838F2DDF91CF911F910F91FF900895E1
:101CF000482F87FD4FE74093800181E891E050E055
:101D00000E9434170895482F613210F081E0089541
:101D100080914B06843011F082E008956093940620
:101D2000A3E7B6E0842F9C01F90102C081918D9355
:101D30008E2F841B8617D0F380E008951F920F9298
:101D40000FB60F920BB60F9211242F933F934F9320
:101D50005F936F937F938F939F93AF93BF93EF9313
:101D6000FF938091B90090E0887F90708036910554
:101D700009F4DCC081369105CCF58832910509F46F
:101D80007BC089329105B4F48031910509F46FC0AC
:101D9000813191053CF4009709F431C1089709F0AD
:101DA00039C165C08831910509F466C0809709F092
:101DB00031C17DC08034910509F49FC08134910503
:101DC00044F48033910509F47DC0C89709F022C11D
:101DD00084C08035910509F484C08835910509F4E3
:101DE00091C08834910509F015C198C088399105D2
:101DF00009F4FDC089399105ECF48837910509F49F
:101E000095C0893791054CF48836910509F48EC048
:101E10008037910509F0FEC089C08838910509F422
:101E2000E6C08039910509F487C08038910509F032
:101E3000F1C082C0803B910509F4B0C0813B91059F
:101E40004CF4803A910509F489C0883A910509F06B
:101E5000E1C0A4C0803C910509F4CDC0883C910547
:101E600009F4C9C0883B910509F0D4C0ACC0809189
:101E70004C068093BB00B9C09091710680917206A8
:101E8000981768F490917106E92FF0E0EF5AF94F36
:101E900080818093BB009F5F90937106A6C085ED03
:101EA0008093BC008091BC0084FDFCCFB1C080E277
:101EB0008093B60685ED8093BC008091BC0084FDC4
:101EC000FCCFA6C080E38093B60685ED8093BC006E
:101ED0008091BC0084FDFCCF9BC088E38093B60654
:101EE0008AC0809171069091BB00E82FF0E0EF5A14
:101EF000F94F90838F5F8093710690917106809166
:101F0000720671C0809171069091BB00E82FF0E0DD
:101F1000EF5AF94F90838F5F8093710685ED809320
:101F2000BC008091BC0084FDFCCF72C083E0809334
:101F30004B061092B50659C08091B506803208F064
:101F400056C08091B5069091BB00E82FF0E0EB56AB
:101F5000F94F90838F5F8093B50647C08091B50697
:101F6000803230F4E091B506F0E0EB56F94F108284
:101F700085ED8093BC008091BC0084FDFCCF109265
:101F80004B066091B506E0914F06F091500685E949
:101F900096E070E009951092B5062DC084E080931C
:101FA0004B061092930610929406E0914D06F09124
:101FB0004E06099580919406882329F481E0809348
:101FC00094061092730690919306E92FF0E0ED5875
:101FD000F94F80818093BB009F5F9093930690910F
:101FE000930680919406981710F485EC01C085E85B
:101FF0008093BC000FC085EC8093BC0009C0109298
:10200000B60685ED8093BC008091BC0084FDFCCFBA
:1020100010924B06FF91EF91BF91AF919F918F91DD
:102020007F916F915F914F913F912F910F900BBED8
:102030000F900FBE0F901F90189510924B0685E1E0
:1020400061E00E94000A86E161E00E94000AE9EB7B
:10205000F0E080818E7F808380818D7F808388E423
:102060008093B80085E48093BC0008952091D80641
:1020700030E08091D706281B3109C90108954091AD
:10208000D7068091D806481718F02FEF3FEF0AC007
:10209000E42FF0E0E954F94F8081282F30E04F5FC2
:1020A0004093D706C9010895E091D7068091D806DC
:1020B000E81718F0EFEFFFEF06C0F0E0E954F94F32
:1020C0008081E82FF0E0CF01089508951092FF0677
:1020D0001092FE0688EE93E0A0E0B0E08093000747
:1020E00090930107A0930207B093030788E193E060
:1020F0009093FD068093FC060895CF92DF92EF92B5
:10210000FF920F931F93CF93DF937C016B018A01A2
:102110008091FB068823A1F0C0E0D0E00DC0D7017C
:10212000ED91FC91D601AC0FBD1F0190F081E02D27
:10213000C7016C9109952196C017D10780F304C09F
:10214000CB01642F0E94830EC801DF91CF911F91B4
:102150000F91FF90EF90DF90CF900895DF93CF9392
:102160000F92CDB7DEB7FC0169838091FB0688230F
:10217000C9F08091FA06803238F081E090E09383D4
:10218000828320E030E015C08091F906E82FF0E06E
:10219000E752F94F998190838F5F8093F90680937E
:1021A000FA0605C0CE01019661E00E94830E21E08F
:1021B00030E0C9010F90CF91DF9108951092D706BA
:1021C0001092D8061092F9061092FA060E941D107D
:1021D00008951F920F920FB60F920BB60F92112413
:1021E0002F933F934F935F936F937F938F939F931F
:1021F000AF93BF93EF93FF93E0910C07F0910D071E
:102200000995FF91EF91BF91AF919F918F917F9130
:102210006F915F914F913F912F910F900BBE0F9057
:102220000FBE0F901F9018951F920F920FB60F922E
:102230000BB60F9211242F933F934F935F936F939D
:102240007F938F939F93AF93BF93EF93FF93E0910F
:102250001007F09111070995FF91EF91BF91AF9190
:102260009F918F917F916F915F914F913F912F91AE
:102270000F900BBE0F900FBE0F901F9018950F93ED
:102280001F93CF93DF93FC01838DA685B78595853A
:10229000082F027081FF05C08C91892309F454C076
:1022A00004C08C91892309F04FC08389948920E070
:1022B00001972FEF8F3F9207D9F7C589D689A68559
:1022C000B785758560E031E040E050E010E0CE0178
:1022D000212F01972FEF8F3F9207D9F78C918723FA
:1022E00011F0632B03C0832F80956823330F4F5F5A
:1022F0005F4F4830510559F78789908D20E001974D
:102300002FEF8F3F9207D9F7011160958091540705
:102310002091550790E001968F73907030E08217FE
:10232000930779F0E0915407F0E0EC5EF84F60839A
:102330008091540790E001968F73907080935407BA
:1023400003C0838D8160838FDF91CF911F910F91A7
:1023500008958091120790911307009711F00E9441
:102360003F1108951F920F920FB60F920BB60F9266
:1023700011242F933F934F935F936F937F938F938A
:102380009F93AF93BF93EF93FF930E94A911FF9187
:10239000EF91BF91AF919F918F917F916F915F91DD
:1023A0004F913F912F910F900BBE0F900FBE0F904A
:1023B0001F9018951F920F920FB60F920BB60F92A7
:1023C00011242F933F934F935F936F937F938F933A
:1023D0009F93AF93BF93EF93FF930E94A911FF9137
:1023E000EF91BF91AF919F918F917F916F915F918D
:1023F0004F913F912F910F900BBE0F900FBE0F90FA
:102400001F9018951F920F920FB60F920BB60F9256
:1024100011242F933F934F935F936F937F938F93E9
:102420009F93AF93BF93EF93FF930E94A911FF91E6
:10243000EF91BF91AF919F918F917F916F915F913C
:102440004F913F912F910F900BBE0F900FBE0F90A9
:102450001F901895FC0188E293E09183808312829B
:1024600080E090E0A0E0B0E083839483A583B6830E
:102470000895DC01FB0113962D913D914D915C91E6
:10248000169712968C9180832183BB27A52F942FBA
:10249000832F8283CA01AA27BB278383252F332753
:1024A0004427552724830895FC0188E293E0918313
:1024B00080830895FC0188E293E091838083CF01BB
:1024C0000E945B080895FC0180E393E09183808380
:1024D0000895FC0180E393E091838083CF010E9403
:1024E0005B080895FC0180E393E0918380838EE094
:1024F00060E00E945C0908958130910541F46F5FAE
:102500007F4F81F486E597E00E9472120895892B2F
:1025100049F46F5F7F4F31F480E393E09093570766
:1025200080935607089580E090E06FEF7FEF0E9460
:102530007C12089581E090E06FEF7FEF0E947C12A3
:10254000089588E6809358070895FC0188E393E096
:102550009183808382819381009711F00E945608B5
:102560000895CF93DF93EC0188E393E09983888308
:102570008A819B81009711F00E945608CE010E942B
:102580005B08DF91CF9108951F93CF93DF93EC0108
:10259000162F88E393E0998388831C821F821E8212
:1025A0001D82862F90E0880F991F0E945E089B83F2
:1025B0008A8320E080E090E008C0EA81FB81E80F98
:1025C000F91F118210822F5F02962117B0F318872E
:1025D000DF91CF911F9108958EE180936707089551
:1025E0008130910549F46F5F7F4F79F48FE697E072
:1025F0006AE00E94C4120895892B39F46F5F7F4FFF
:1026000021F48FE697E00E94A512089580E090E003
:102610006FEF7FEF0E94F012089581E090E06FEF7E
:102620007FEF0E94F01208958130910541F46F5FB1
:102630007F4F71F488E797E00E942A120895892B52
:1026400039F46F5F7F4F21F488E797E00E945412BE
:10265000089580E090E06FEF7FEF0E9414130895DB
:1026600081E090E06FEF7FEF0E9414130895FF92D6
:102670000F931F93F82E0BE614E0C8010E94BF04CD
:10268000C80162E072E00E94CB05C8016F2D4AE0EC
:1026900050E00E946605C8010E94BF041F910F917F
:1026A000FF900895FF920F931F93F82E0BE614E00E
:1026B000C8010E94BF04C8016BE072E00E94CB0514
:1026C000C8016F2D4AE050E00E946605C8010E94D3
:1026D000BF041F910F91FF9008959F92AF92BF92F8
:1026E000CF92DF92EF92FF920F931F93DF93CF93DE
:1026F000CDB7DEB7C556D0400FB6F894DEBF0FBEDB
:10270000CDBF1A8219821C821B821E821D821886EE
:102710001F821A8619861C861B8680E090E0A0E046
:10272000B0E0898B9A8BAB8BBC8B8D8B9E8BAF8BE8
:10273000B88F898F9A8FAB8FBC8F8D8F9E8FAF8F05
:10274000B8A380917F07833609F449C1823709F025
:10275000F3C18AE396E00E94BC0A882309F424C1ED
:102760008BE694E00E94BF048BE694E063E172E0A4
:102770000E94CB0546E4E42EF12CEC0EFD1E30E267
:10278000C32ED12CCE0CDF1C0AC08AE396E00E9437
:10279000A50AD8018D938D01AC15BD05B1F78AE36B
:1027A00096E00E94BC0A803214F08701EECF8AE3E3
:1027B00096E00E94A00AF701808191819E838D831B
:1027C000828193819A838983848195819C838B8381
:1027D00086819781A085B185898B9A8BAB8BBC8BC9
:1027E00082859385A485B5858D8B9E8BAF8BB88FA5
:1027F000868597859A878987808991899C878B8729
:1028000082899389A489B589898F9A8FAB8FBC8F70
:1028100086899789A08DB18D8D8F9E8FAF8FB8A33C
:10282000828D938D98878F83848D958DA68DB78D9E
:102830008D879E87AF87B88B8BE694E00E94BF049C
:102840008BE694E068E172E00E94CB056D817E81A9
:102850008BE694E04AE050E00E94B8058BE694E0F5
:102860006BE172E00E94CB0569817A818BE694E08E
:102870004AE050E00E94B8058BE694E061E272E025
:102880000E94CB056B817C818BE694E04AE050E0AE
:102890000E94B8058BE694E00E94BF048BE694E0AA
:1028A00067E272E00E94CB0549895A896B897C896D
:1028B0008BE694E022E030E00E9469068BE694E02B
:1028C0006FE272E00E94CB054D895E896F89788D39
:1028D0008BE694E022E030E00E9469068BE694E00B
:1028E00069E372E00E94CB0569857A858BE694E006
:1028F0004AE050E00E94B8058BE694E063E472E0A1
:102900000E94CB056B857C858BE694E04AE050E025
:102910000E94B8058BE694E00E94BF048BE694E029
:102920006DE472E00E94CB05498D5A8D6B8D7C8DD4
:102930008BE694E022E030E00E9469068BE694E0AA
:1029400065E572E00E94CB054D8D5E8D6F8D78A19F
:102950008BE694E022E030E00E9469068BE694E08A
:102960006FE572E00E94CB056F8178858BE694E07D
:102970004AE050E00E94B8058BE694E00E94BF0454
:102980008BE694E06BE672E00E94CB054D855E8598
:102990006F8578898BE694E022E030E00E9469063A
:1029A0008BE694E00E94BF048BE694E00E945803FB
:1029B00064EF71E080E090E00E94CF088BE694E045
:1029C0000E94FE02892B09F4EEC08BE694E00E947F
:1029D0002F038B3109F0E7C010927F07E4C08BE62C
:1029E00094E00E9458038BE694E064E772E00E9452
:1029F0006C068BE694E063E872E00E94CB0522E36C
:102A0000E22EF12CEC0EFD1E8701C701AE2C992E93
:102A100093E1C92ED12CCE0CDF1CB02EBE188BE654
:102A200094E00E94FE02892BD1F38BE694E00E9491
:102A30002F03682F8B3119F410927F0707C08D3058
:102A400051F4EA2DF92DEB0DF11D10828BE694E087
:102A50000E94580310C00C151D0529F4FE01EB5B04
:102A6000FF4F108208C0D8018D938D018BE694E052
:102A70000E94B704D2CF8BE694E00E94BF04EDB76A
:102A8000FEB738970FB6F894FEBF0FBEEDBF319674
:102A9000CE01C296ADB7BEB712969C938E93119796
:102AA00086E892E0938382838AE7C82E87E0D82E57
:102AB000D582C4828E01085D1F4F178306830E9452
:102AC0003D17F82EEDB7FEB738960FB6F894FEBF57
:102AD0000FBEEDBFC8010E94251760937B0770935E
:102AE0007C0780937D0790937E07F2E0FF16E9F460
:102AF0008BE694E06CE872E00E946C068E010F5D3C
:102B00001F4FC6010297B8010E9439128AE396E06E
:102B10000E94CA0A8AE396E0B80147E00E94860B49
:102B20008AE396E00E94DF0A3EC08BE694E06FE8FD
:102B300072E00E946C0637C08BE694E00E94580356
:102B40008BE694E061EA72E00E946C068BE694E00A
:102B50006BEB72E00E946C068BE694E068EC72E02E
:102B60000E946C068BE694E061EE72E00E946C06B7
:102B70008BE694E063E872E00E94CB058BE694E07C
:102B80000E94FE02892BD1F38BE694E00E942F0372
:102B9000682F80937F078BE694E00E94B7048BE652
:102BA00094E00E94BF0464E670E080E090E00E9440
:102BB000CF08CB59DF4F0FB6F894DEBF0FBECDBFA5
:102BC000CF91DF911F910F91FF90EF90DF90CF9009
:102BD000BF90AF909F9008950F931F938CEF96E056
:102BE0000E94DE108BE694E040E855E260E070E081
:102BF0000E94780287E161E00E945C090AE316E026
:102C0000C8016BE00E94E00BC80162E573E10E941D
:102C1000330AC80167E373E10E94380A1F910F91DC
:102C20000895CF93DF930E94F5080E94EC15C9EB3D
:102C3000D1E00E946D132097E1F30E94B901F9CF12
:102C4000CF93DF93BC018230910510F462E070E015
:102C5000A0918307B0918407ED01E0E0F0E040E04F
:102C600050E021C0888199818617970769F48A818D
:102C70009B81309719F09383828304C090938407DB
:102C800080938307FE0134C06817790738F4411533
:102C9000510519F08417950708F4AC01FE018A81EB
:102CA0009B819C01E9012097E9F641155105A9F1A5
:102CB000CA01861B970B049708F4BA01E0E0F0E024
:102CC0002AC08D919C91119784179507F9F4641788
:102CD000750781F412968D919C911397309719F096
:102CE0009383828304C09093840780938307FD01BC
:102CF00032964FC0CA01861B970BFD01E80FF91FE2
:102D00006193719302978D939C9343C0FD018281DF
:102D100093819C01D9011097A1F680918107909130
:102D20008207892B41F48091F4029091F5029093EF
:102D30008207809381074091F6025091F702411576
:102D4000510541F44DB75EB78091F2029091F302C4
:102D5000481B590B209181073091820724173507B2
:102D6000B0F4CA01821B930B8617970780F0AB0162
:102D70004E5F5F4F8417950750F0420F531F5093DB
:102D8000820740938107F9016193719302C0E0E0EB
:102D9000F0E0CF01DF91CF910895CF93DF930097BB
:102DA00009F450C0EC0122971B821A82A09183077C
:102DB000B0918407109709F140E050E0AC17BD07CF
:102DC00008F1BB83AA83FE0121913191E20FF31F29
:102DD000AE17BF0779F48D919C911197280F391F79
:102DE0002E5F3F4F3983288312968D919C911397C4
:102DF0009B838A834115510571F4D0938407C09356
:102E0000830720C012968D919C911397AD01009776
:102E100011F0DC01D3CFFA01D383C2832191319128
:102E2000E20FF31FCE17DF0769F488819981280F1D
:102E3000391F2E5F3F4FFA01318320838A819B81A6
:102E400093838283DF91CF910895662777270C942F
:102E5000491CF8940C94A71E911189C6803219F070
:102E600089508550D0F70895FB01DC0102C0019024
:102E70000D9241505040D8F70895DF93CF93CDB7CE
:102E8000DEB72E970FB6F894DEBF0FBECDBF85E03C
:102E90008C838B899C899A8389839E01295E3F4F0D
:102EA000CE0101966D897E89A9010E94261B2E966E
:102EB0000FB6F894DEBF0FBECDBFCF91DF9108955E
:102EC0005058BB27AA270ED075C166D130F06BD100
:102ED00020F031F49F3F11F41EF45BC10EF4E09535
:102EE000E7FB51C1E92F77D180F3BA176207730767
:102EF0008407950718F071F49EF58FC10EF4E095E4
:102F00000B2EBA2FA02D0B01B90190010C01CA01A3
:102F1000A0011124FF27591B99F0593F50F4503E4E
:102F200068F11A16F040A22F232F342F4427585F40
:102F3000F3CF469537952795A795F0405395C9F758
:102F40007EF41F16BA0B620B730B840BBAF0915010
:102F5000A1F0FF0FBB1F661F771F881FC2F70EC0AF
:102F6000BA0F621F731F841F48F487957795679582
:102F7000B795F7959E3F08F0B3CF9395880F08F06B
:102F80009927EE0F979587950895D9D008F481E099
:102F900008950CD00FC107D140F0FED030F021F4DD
:102FA0005F3F19F0F0C0511139C1F3C014D198F34B
:102FB0009923C9F35523B1F3951B550BBB27AA27BA
:102FC00062177307840738F09F5F5F4F220F331F2C
:102FD000441FAA1FA9F333D00E2E3AF0E0E830D0F8
:102FE00091505040E695001CCAF729D0FE2F27D0FB
:102FF000660F771F881FBB1F261737074807AB07C9
:10300000B0E809F0BB0B802DBF01FF2793585F4F3D
:103010002AF09E3F510568F0B6C000C15F3FECF357
:10302000983EDCF3869577956795B795F7959F5F02
:10303000C9F7880F911D9695879597F90895E1E056
:10304000660F771F881FBB1F621773078407BA07B5
:1030500020F0621B730B840BBA0BEE1F88F7E09510
:10306000089504D06894B111D9C00895BCD088F0F7
:103070009F5790F0B92F9927B751A0F0D1F0660F64
:10308000771F881F991F1AF0BA95C9F712C0B1307F
:1030900081F0C3D0B1E00895C0C0672F782F882792
:1030A000B85F39F0B93FCCF3869577956795B395BE
:1030B000D9F73EF490958095709561957F4F8F4F2D
:1030C0009F4F0895E89409C097FB3EF49095809532
:1030D000709561957F4F8F4F9F4F9923A9F0F92FDE
:1030E00096E9BB279395F695879577956795B7955C
:1030F000F111F8CFFAF4BB0F11F460FF1BC06F5F42
:103100007F4F8F4F9F4F16C0882311F096E911C053
:10311000772321F09EE8872F762F05C0662371F074
:1031200096E8862F70E060E02AF09A95660F771F88
:10313000881FDAF7880F9695879597F90895990F64
:103140000008550FAA0BE0E8FEEF16161706E80771
:10315000F907C0F012161306E407F50798F0621B92
:10316000730B840B950B39F40A2661F0232B242B67
:10317000252B21F408950A2609F4A140A6958FEF86
:10318000811D811D089597F99F6780E870E060E0D8
:1031900008959FEF80EC089500240A9416161706F0
:1031A00018060906089500240A9412161306140638
:1031B00005060895092E0394000C11F4882352F09B
:1031C000BB0F40F4BF2B11F460FF04C06F5F7F4F53
:1031D0008F4F9F4F089557FD9058440F551F59F03A
:1031E0005F3F71F04795880F97FB991F61F09F3FF4
:1031F00079F087950895121613061406551FF2CF1D
:103200004695F1DF08C0161617061806991FF1CF6C
:1032100086957105610508940895E894BB27662793
:103220007727CB0197F908950BD0C4CFB5DF28F0ED
:10323000BADF18F0952309F0A6CFABCF1124EECF5B
:10324000CADFA0F3959FD1F3950F50E0551F629F01
:10325000F001729FBB27F00DB11D639FAA27F00DEF
:10326000B11DAA1F649F6627B00DA11D661F829F16
:103270002227B00DA11D621F739FB00DA11D621FFB
:10328000839FA00D611D221F749F3327A00D611D18
:10329000231F849F600D211D822F762F6A2F1124FA
:1032A0009F5750408AF0E1F088234AF0EE0FFF1F4D
:1032B000BB1F661F771F881F91505040A9F79E3F84
:1032C000510570F060CFAACF5F3FECF3983EDCF37E
:1032D000869577956795B795F795E7959F5FC1F7C1
:1032E000FE2B880F911D9695879597F90895FC01FF
:1032F00020FD08C023FD05C022FF02C07383628346
:10330000518340830895EF92FF920F931F9344FFE0
:1033100002C033E011C046FF02C034E00DC0DB0143
:10332000FC01AA0FBB1FEE1FFF1F1094D1F76A0FFD
:103330007B1F8E1F9F1F31E0660F771F881F991F0D
:103340003150D1F77B018C01E20EF11C011D111DE2
:10335000A8019701B701CA011F910F91FF90EF904B
:1033600008950F931F93CF93DF938C01C8010E94A0
:10337000DD1DEC0197FD08C00E942C17892BB1F7C9
:10338000CE01B8010E941F1ECE01DF91CF911F9187
:103390000F910895AF92BF92CF92DF92EF92FF927A
:1033A0000F931F93CF93DF93EC01C62E5A01122F78
:1033B0000E94DD1DAC018B3219F08D3251F4106882
:1033C000CA9409F46DC0CE010E94DD1DAC0197FDC9
:1033D00067C06DEFD62ED1228D2D807301F540335D
:1033E000F1F4CA9409F447C0CE010E94DD1DAC017E
:1033F00097FD41C082E0D82A483711F0483559F48A
:1034000080E4D82ACA94B9F1CE010E94DD1DAC0136
:1034100099232CF430C0D6FC02C080E1D82AEE24D7
:10342000FF248701242F2053283088F0D4FC09C0C2
:103430002A3068F0D6FE05C02F7D822F815186305C
:1034400028F0CA01BE010E941F1E12C02750C801E9
:10345000B7014D2D0E9483197B018C0182E0D82A8F
:10346000CA9461F0CE010E94DD1DAC0197FFDACF56
:10347000D1FC04C015C0EE24FF248701D7FE08C08C
:1034800010950095F094E094E11CF11C011D111DB4
:10349000C501B801A7012D2D0E94771981E001C057
:1034A00080E0DF91CF911F910F91FF90EF90DF901F
:1034B000CF90BF90AF9008956F927F928F929F921E
:1034C000AF92BF92CF92DF92EF92FF920F931F9332
:1034D000DF93CF93CDB7DEB7A0970FB6F894DEBFDA
:1034E0000FBECDBF6C01A62E8A017901FE01319677
:1034F00080E2DF011D928A95E9F770E030E060E03C
:1035000040E050E04F01A1E0B0E0F6018381F70117
:1035100083FD259183FF21917F01222309F47EC041
:103520002E3519F44115510569F1872F90E0841764
:10353000950744F42D3551F12D3221F4332329F42C
:1035400031E021C0332309F4622F322F832F869577
:1035500086958695F401E80FF11D832F87703D0154
:1035600002C0660C771C8A95E2F720812629208309
:10357000361711F430E007C0361710F43F5FE6CF7E
:103580003150E4CF71E04F5F5F4FBFCF332319F06D
:103590008E8180628E83772359F0FE0131969E01E1
:1035A0002F5D3F4F808180958193E217F307D1F71C
:1035B000BB24B3944E010894811C911CC6010E9447
:1035C000DD1DAC0197FD22C0869586958695F40198
:1035D000E80FF11D808190E09A012770307002C0E1
:1035E000959587952A95E2F780FD05C0CA01B60139
:1035F0000E941F1E0BC00115110519F0D8014D9333
:103600008D01AA94BB24AA20C9F602C0BB2031F4C4
:103610000115110529F0F801108202C0EE24FF24E3
:10362000C701A0960FB6F894DEBF0FBECDBFCF91F5
:10363000DF911F910F91FF90EF90DF90CF90BF909F
:10364000AF909F908F907F906F9008956F927F9230
:103650008F929F92AF92BF92CF92DF92EF92FF92A2
:103660000F931F93CF93DF935C016B013A01FC0131
:10367000178216828824EAC0812F90E00E942C17BE
:10368000892B21F0C5010E94B119E0C0153249F41F
:10369000F601F3FC6591F3FE61916F01653269F407
:1036A00015E2C5010E94DD1D97FDDCC0181709F465
:1036B000CDC0B5010E941F1EDAC06A3219F0162F64
:1036C00000E006C0F3FC1591F3FE11916F0101E0DB
:1036D00099240FC00260692D70E080E090E040E224
:1036E0000E948319962EF601F3FC1591F3FE1191B9
:1036F0006F01212F20532A3068F301FD03C0992464
:103700009A9403C0992009F4B2C0183621F01C36EF
:1037100099F4F6010BC0F601F3FC6591F3FE61919B
:10372000683619F06F01162F07C008600460F3FCBB
:103730001591F3FE11916F01112309F498C086EDE4
:1037400091E0612F70E00E94BA1D892B09F48FC0AF
:10375000802F00FF03C0EE24FF2407C0F301E080A8
:10376000F18022E030E0620E731E1E3651F4F50146
:103770004681578160E070E0C701202F0E947719D1
:1037800065C0133691F481FD02C099249394C5015C
:103790000E94DD1D97FD66C0E114F10419F0F701E8
:1037A00081937F019A9499F74FC01B3559F4C50155
:1037B000692DA70196010E945C1A6C01009709F01F
:1037C00043C03DC0C5010E94B11997FD4BC01F36D3
:1037D00059F1103728F4143629F1193639F527C074
:1037E000133719F0153711F51DC0C5010E94DD1DF5
:1037F000EC0197FD11C00E942C17892B29F0CE01F6
:10380000B5010E941F1E08C0E114F10419F0F70170
:10381000C1937F019A9449F7E114F104A9F0F701EB
:10382000108212C0006203C0006101C00064C501C3
:10383000692DA701202F0E94CA19882329F4F501B8
:103840008381807379F413C000FF8394F501F380C2
:10385000F601F3FC1591F3FE11916F01112309F0AC
:103860000BCF05C0882019F42FEF3FEF02C0282DA1
:1038700030E0C901DF91CF911F910F91FF90EF9040
:10388000DF90CF90BF90AF909F908F907F906F9080
:1038900008958F929F92AF92BF92CF92DF92EF9254
:1038A000FF920F931F93CF93DF93EC015B016115A0
:1038B000710519F0FB0191838083F9908F2D90E0C1
:1038C0000E942C17892BC9F7FDE2FF1621F4F9900D
:1038D000EE24E39405C02BE2F21609F4F990EE24ED
:1038E0008E0101501040C80162EE71E043E050E0EB
:1038F0000E94C51D892B01F58E010E5F1F4FC80167
:1039000065EE71E045E050E00E94C51D892B19F479
:103910008E01095F1F4FA114B10419F0F501118345
:103920000083E0FC04C070E090E080E814C070E028
:1039300090E080E86FEF08C1C8016AEE71E043E0F3
:1039400050E00E94C51D892B69F4A114B10429F42B
:1039500070E090E080EC6FE7F7C02296F501D1832C
:10396000C083F6CF8824992440E050E060E070E006
:10397000EF2DE053EA30A0F5F2E0EF2A8E2D90E033
:103980009C0128703070E2FE06C0232B79F5089464
:10399000811C911C2BC0232B19F0089481089108DD
:1039A000DB01CA0112E0880F991FAA1FBB1F1A95DD
:1039B000D1F7480F591F6A1F7B1F440F551F661F01
:1039C000771F4E0F511D611D711D483929E952079E
:1039D00029E9620729E1720748F084E0E82A06C075
:1039E000EE3F31F4E3FC39C098E0E92AF990C0CF0A
:1039F000E53311F0E53189F529912D3219F4E0E133
:103A0000EE2A05C02B3219F081E090E003C0299125
:103A100082E090E0E22FE053EA3018F0C81BD90BA7
:103A20001CC020E030E0FCE020383F075CF4C90116
:103A3000880F991F880F991F280F391F220F331FD6
:103A40002E0F311DE991E053EA3068F3E4FE03C024
:103A5000309521953F4F820E931ECE2CDD24E1FE42
:103A600007C0A114B10421F02197F501D183C083CF
:103A7000CB01BA010E9462187B018C01F3E0CF22D6
:103A8000DD2423E0C216D10421F417FB109517F9A9
:103A9000109557016801C801B70120E030E040E00F
:103AA00050E00E94C517882309F44AC097FE0DC054
:103AB00021E0E22E22E0F22E9094819491089394DA
:103AC000C0E2D0E000E010E012C099E1E92E92E0FF
:103AD000F92EF6CFF7012591359145915491C60104
:103AE000B5010E9414195B016C018C1A9D0A8C1699
:103AF0009D0684F7D595C7950F5F1F4F06301105BA
:103B000029F08CEF9FEFE80EF91EF1CFC501D60129
:103B10007C018D018C2D880F8D2D881F8F3F51F0DA
:103B2000C601B50120E030E040E050E00E94C5173A
:103B3000882331F482E290E0909386078093850792
:103B40007E2D9F2D802F612F272F392F482F562F05
:103B5000B901CA01DF91CF911F910F91FF90EF90B2
:103B6000DF90CF90BF90AF909F908F90089599274E
:103B700088270895FC010590061621F00020D9F74A
:103B8000C00108953197CF010895FB01DC01415038
:103B9000504088F08D9181341CF08B350CF4805EA0
:103BA000659161341CF06B350CF4605E861B61110D
:103BB00071F3990B0895881BFCCFCF93DF93EC0131
:103BC0004B8140FF1AC046FF0AC04F7B4B838E815A
:103BD0009F8101969F838E838A81282F2BC042FF6D
:103BE00013C0E881F9818081282F332727FD309584
:103BF0002115310529F440624B832FEF3FEF1BC0A5
:103C00003196F983E88311C0EA85FB85CE010995D9
:103C10009C0197FF0AC09B812F5F3F4F11F080E20C
:103C200001C080E1892B8B83E8CF8E819F81019633
:103C30009F838E8330E0C901DF91CF9108959C016D
:103C4000FB01838180FF11C086FD0FC09FEF2F3FD6
:103C5000390759F0228380648F7D83838681978121
:103C600001979783868330E002C02FEF3FEFC901B1
:103C70000895629FD001739FF001829FE00DF11DB6
:103C8000649FE00DF11D929FF00D839FF00D749FD6
:103C9000F00D659FF00D9927729FB00DE11DF91F82
:103CA000639FB00DE11DF91FBD01CF0111240895DF
:103CB000AA1BBB1B51E107C0AA1FBB1FA617B70752
:103CC00010F0A61BB70B881F991F5A95A9F780956E
:103CD0009095BC01CD01089597FB092E07260AD0C7
:103CE00077FD04D0E5DF06D000201AF470956195C9
:103CF0007F4F0895F6F7909581959F4F0895A1E223
:103D00001A2EAA1BBB1BFD010DC0AA1FBB1FEE1F55
:103D1000FF1FA217B307E407F50720F0A21BB30BA0
:103D2000E40BF50B661F771F881F991F1A9469F71C
:103D300060957095809590959B01AC01BD01CF0178
:103D40000895EE0FFF1F0590F491E02D099412E005
:103D5000C0E3D2E004C0FE010E94A31E2296C63337
:083D6000D107C9F7F894FFCF69
:103D68002E005478446F6E653A20004572726F7267
:103D78003A200052783A2000683A000920677A3AD7
:103D88000009206D7A3A00796177496E703A000926
:103D9800207961774572723A000920746F70526F0A
:103DA800743A000920626F74526F743A00616C743F
:103DB800496E703A000920616C744572723A0009C4
:103DC800207468726F74746C653A006779726F73E7
:103DD800756D3A00456E74657220636F6D6D616E26
:103DE800643A003E3E0025633D2573004F4B004575
:103DF80072726F722E2054727920416761696E2E3B
:103E0800002A2A2A2A2A2A2A2A2A2A2A2A2A2A2A34
:103E18002A2A2A2A2A2A2A2A2A2A0053656C65630A
:103E280074204D6F64653A0072202D2053686F77B7
:103E38002053656E736F722052656164696E677393
:103E48000063202D2053656E6420636F6D6D616E75
:103E58006400200087070000FFFFFFFFFFFF00004E
:103E680000006A038D04FE022F030F0358030000AD
:103E780000004B0400000000AE107D1036103F100B
:103E8800541065100000000054125A12000000007F
:0C3E98006312691200000000A512B112B4
:00000001FF
