:100000000C941B010C94F4070C9425080C944501E6
:100010000C9445010C9492070C9461070C943007E2
:100020000C94C3070C94B2110C94DA110C940212C4
:100030000C9445010C94D0060C9445010C94450198
:100040000C9445010C9445010C9445010C94450118
:100050000C94E9100C9445010C9445010C94610832
:100060000C9445010C9448010C94DE010C9445015C
:100070000C9445010C9445010C9445010C944501E8
:100080000C9445010C9445010C9445010C941411F9
:100090000C9481010C942B020C9445010C949E0E3F
:1000A0000C9445010C9445010C9445010C944501B8
:1000B0000C9445010C9445010C9445010C944501A8
:1000C0000C9445010C9445010C9445010C94450198
:1000D0000C9445010C9445010C9445010C94450188
:1000E0000C9445010C9445010C9445010C941F0C93
:1000F0000C94820C0C9445010C9445010C94250D34
:100100000C9445010C9445010C9445010C94450157
:100110000C9445010C9445010C9445010C94450147
:100120000504000201030F0F0F0F0F0E0E0E0D0D31
:100130000C0C0B0A0908070604020000000000244A
:100140000000002A002D00300033000000000000F5
:10015000000000000000000000250000002B002E21
:10016000003100340000000000000000000000002A
:100170000000000000260029002C002F00320000A3
:10018000000000000000000000050505050505054C
:100190000502020202020206060606060602040420
:1001A000040401024020040810801080402008024E
:1001B00001020408102004010220400000000B008E
:1001C000090A000705040300000000000000000009
:1001D0000000000000006364696E6F7073757858EA
:1001E0005B00494E46494E4954594E414ECDCCCC08
:1001F0003D0AD7233C17B7D13877CC2B329595E6FB
:10020000241FB14F0A000020410000C84200401CDA
:100210004620BCBE4CCA1B0E5AAEC59D7400A60338
:100220003C04F60B66109E12A512F61217133A1331
:1002300097121013331311241FBECFEFD1E4DEBF8A
:10024000CDBF13E0A0E0B2E0ECEBFDE300E00BBFBC
:1002500002C007900D92A834B107D9F717E0A8E4BF
:10026000B3E001C01D92A539B107E1F712E0C0E388
:10027000D2E004C02297FE010E94CD1ECE31D107EC
:10028000C9F70E943B160C9453170C940000089574
:100290001F920F920FB60F920BB60F9211242F934D
:1002A0003F934F938F939F93EF93FF934091C6009B
:1002B00020918803309189032F5F3F4F2F73307057
:1002C00080918A0390918B032817390759F0E091A8
:1002D0008803F0918903E85BFC4F408330938903E6
:1002E00020938803FF91EF919F918F914F913F91C0
:1002F0002F910F900BBE0F900FBE0F901F9018956F
:1003000008951F920F920FB60F920BB60F92112401
:100310002F933F934F938F939F93EF93FF9340912E
:10032000CE0020911004309111042F5F3F4F2F73A6
:10033000307080911204909113042817390759F0F6
:10034000E0911004F0911104E053FC4F408330938E
:10035000110420931004FF91EF919F918F914F9181
:100360003F912F910F900BBE0F900FBE0F901F90DB
:100370001895E0918304F0918404E05CFF4F819133
:10038000919120813181821B930B8F739070892B07
:1003900011F00E944701E0918304F0918404E05C35
:1003A000FF4F8191919120813181821B930B8F733B
:1003B0009070892B11F00E94800108951F920F9276
:1003C0000FB60F920BB60F9211242F933F934F93BA
:1003D0005F936F937F938F939F93AF93BF93EF93AD
:1003E000FF932091CC033091CD038091CE03909167
:1003F000CF032817390731F48091C1008F7D809396
:10040000C10016C0E091CE03F091CF03E457FC4F3A
:1004100040818091CE039091CF03019660E470E01B
:100420000E94961E9093CF038093CE034093C60004
:10043000FF91EF91BF91AF919F918F917F916F91BC
:100440005F914F913F912F910F900BBE0F900FBE78
:100450000F901F9018951F920F920FB60F920BB628
:100460000F9211242F933F934F935F936F937F933A
:100470008F939F93AF93BF93EF93FF932091540477
:1004800030915504809156049091570428173907EC
:1004900031F48091C9008F7D8093C90016C0E0912E
:1004A0005604F0915704EC5EFB4F40818091560456
:1004B00090915704019660E470E00E94961E90931C
:1004C0005704809356044093CE00FF91EF91BF9163
:1004D000AF919F918F917F916F915F914F913F91DC
:1004E0002F910F900BBE0F900FBE0F901F9018957D
:1004F000AF92BF92DF92EF92FF920F931F93CF9331
:10050000DF93EC017A018B01DD24403081EE580746
:1005100080E0680780E0780711F0DD24D39491E053
:10052000A92EB12CEC89FD89DD2069F0C5010E8C66
:1005300002C0880F991F0A94E2F7808360E079E097
:100540008DE390E005C0108260E874E88EE190E0F1
:10055000A80197010E94A91E215030404040504000
:10056000569547953795279580E12030380720F03C
:10057000DD2011F0DD24D6CFE889F9893083EA89BE
:10058000FB892083EE89FF89408121E030E0C901A9
:100590000A8C02C0880F991F0A94E2F7482B408307
:1005A000EE89FF894081C9010B8C02C0880F991F19
:1005B0000A94E2F7482B4083EE89FF894081C90104
:1005C0000C8C02C0880F991F0A94E2F7482B4083D5
:1005D000EE89FF8980810D8C02C0220F331F0A949F
:1005E000E2F7209528232083DF91CF911F910F916F
:1005F000FF90EF90DF90BF90AF900895DC011C96C4
:10060000ED91FC911D97E05CFF4F2191319180812C
:100610009181281B390B2F733070C9010895DC01BB
:100620001C96ED91FC911D97E05CFF4F208131817C
:10063000E054F040DF01AE5BBF4F8D919C9111976C
:100640002817390719F42FEF3FEF07C08D919C91C0
:10065000E80FF91F8081282F30E0C9010895DC01DF
:100660001C96ED91FC911D97E05CFF4F208131813C
:10067000E054F040DF01AE5BBF4F8D919C9111972C
:100680002817390719F42FEF3FEF10C08D919C9177
:100690001197E80FF91F20818D919C911197019678
:1006A0008F73907011969C938E9330E0C9010895DA
:1006B000FC0186859785DC01A05CBF4FFC01EE5BE9
:1006C000FF4F2D913C911197808191812817390717
:1006D000C1F70895CF93DF93EC01462FEE85FF8598
:1006E000E05CFF4F80819181E054F040019660E42E
:1006F00070E00E94961E9C01DF01AE5BBF4F8D91A2
:100700009C91119728173907D1F3E05CFF4F808146
:100710009181E054F040E80FF91F4083EE85FF859A
:10072000E05CFF4F31832083EE89FF89208181E0E7
:1007300090E00D8C02C0880F991F0A94E2F7282BD5
:10074000208381E090E0DF91CF9108951F93109274
:100750005B0410925A0428EE33E040E050E020930E
:100760005C0430935D0440935E0450935F046EE03C
:1007700073E0709359046093580488E493E0909375
:100780006504809364048CE893E0909367048093FD
:10079000660485EC90E0909369048093680484EC8F
:1007A00090E090936B0480936A0480EC90E09093C7
:1007B0006D0480936C0481EC90E090936F048093BF
:1007C0006E0486EC90E0909371048093700414E0C2
:1007D00010937204B3E0B0937304A7E0A093740481
:1007E000F5E0F0937504E1E0E093760410927A046A
:1007F0001092790420937B0430937C0440937D0411
:1008000050937E04709378046093770480ED93E0B6
:10081000909384048093830484E194E0909386040D
:10082000809385048DEC90E09093880480938704F6
:100830008CEC90E090938A048093890488EC90E09B
:1008400090938C0480938B0489EC90E090938E04B9
:1008500080938D048EEC90E09093900480938F04AD
:1008600010939104B0939204A0939304F093940492
:10087000E09395041F9108958EE193E0909397047F
:1008800080939604109298041092990410929A04FE
:1008900010929B0408958F929F92AF92BF92CF9235
:1008A000DF92EF92FF920F931F93CF93DF934C0150
:1008B0006B017C01AA24BB24C0E0D0E0C601F70193
:1008C00062814AE050E00E9466058C01C6016EE23A
:1008D0000E94B704080F191FA00EB11E219608949C
:1008E000E11CF11CC330D10549F7C601F401658153
:1008F0004AE050E00E9466059501280F391FC901A2
:10090000DF91CF911F910F91FF90EF90DF90CF90EB
:10091000BF90AF909F908F900895CF92DF92EF920B
:10092000FF920F931F93CF93DF937C016B018A019A
:10093000C0E0D0E00FC0D6016D916D01D701ED91FF
:10094000FC910190F081E02DC7010995C80FD91FD6
:10095000015010400115110571F7CE01DF91CF91C3
:100960001F910F91FF90EF90DF90CF900895DC01E1
:10097000ED91FC910190F081E02D09950895EF92A1
:10098000FF920F931F938C01DC01ED91FC9101907C
:10099000F081E02D6DE009957C01D801ED91FC918D
:1009A0000190F081E02DC8016AE009959C012E0DAF
:1009B0003F1DC9011F910F91FF90EF900895CF93B4
:1009C000DF93DB010D900020E9F71197A61BB70B11
:1009D000EC01E881F9810280F381E02DAD010995F8
:1009E000DF91CF9108954F925F927F928F929F9265
:1009F000AF92BF92CF92DF92EF92FF920F931F932D
:100A0000DF93CF93CDB7DEB7A1970FB6F894DEBFD3
:100A10000FBECDBF2C01742ECB01223008F42AE08A
:100A200019A231E2C32ED12CCC0EDD1E822E9924C8
:100A3000AA24BB24672D752FA50194010E94A91E2D
:100A400079018A01C801B701A50194010E94631EC2
:100A5000472D461B0894C108D1084A3010F4405D68
:100A600001C0495CF6014083E114F1040105110560
:100A700021F07E2C5F2DC801DDCFC201B6010E949E
:100A8000DF04A1960FB6F894DEBF0FBECDBFCF91A5
:100A9000DF911F910F91FF90EF90DF90CF90BF906B
:100AA000AF909F908F907F905F904F900895DC0162
:100AB0002115310541F4ED91FC910190F081E02D7B
:100AC000642F099508950E94F3040895EF92FF9210
:100AD0000F931F939A01E62EFF2400E010E0B80167
:100AE000A7010E9457051F910F91FF90EF90089565
:100AF000CF92DF92EF92FF920F931F93CF93DF93EA
:100B0000EC016A017B012115310541F4E881F9818D
:100B10000190F081E02D642F09951FC02A30310526
:100B2000D1F477FF17C0E881F9810190F081E02DC1
:100B30006DE209958C0144275527BA014C195D09CE
:100B40006E097F09CE012AE00E94F3049801280F64
:100B5000391F04C02AE00E94F3049C01C901DF91FF
:100B6000CF911F910F91FF90EF90DF90CF9008955C
:100B7000EF92FF920F931F937B019A010027F7FCDE
:100B80000095102FB801A7010E9478051F910F91C1
:100B9000FF90EF9008950E94DF0408957F928F9256
:100BA0009F92AF92BF92CF92DF92EF92FF920F93FC
:100BB0001F93CF93DF934C017A018B01722ECB01EF
:100BC000BA0120E030E040E050E00E94EF1787FDDE
:100BD00003C0C0E0D0E00EC0D401ED91FC910190C3
:100BE000F081E02DC4016DE20995EC0117FB109531
:100BF00017F9109520E030E040E05FE3AA240BC035
:100C0000CA01B90120E030E040E251E40E94F3174C
:100C10009B01AC01A394A71498F3C801B7010E94EB
:100C20008B175B016C010E9460187B018C01C40171
:100C3000B801A7012AE030E00E945705C80FD91F6C
:100C4000772039F0C40160E072E00E94DF04C80F31
:100C5000D91FC801B7010E948C189B01AC01C601C5
:100C6000B5010E948A1724C020E030E040E251E440
:100C70000E943E197B018C010E945B185B016C0194
:100C8000CC24B7FCC094DC2CC401B601A5012AE039
:100C900030E00E947805C80FD91FC601B5010E9437
:100CA0008E189B01AC01C801B7010E948A177A9483
:100CB0007720D1F6CE01DF91CF911F910F91FF9058
:100CC000EF90DF90CF90BF90AF909F908F907F90EC
:100CD00008950E94CE050895EF92FF920F931F93FF
:100CE0007C010E94DF048C01C7010E94BF04080F31
:100CF000191FC8011F910F91FF90EF900895823046
:100D0000B9F0833028F4882351F0813051F50AC0BE
:100D1000843011F18430E8F0853019F520C010924C
:100D20006E00089580916F008D7F80936F0008950D
:100D3000809170008D7F8093700081E08093B0007F
:100D40008091B100887F84608093B1001092B300DD
:100D500008951092710008951092720008951092F3
:100D6000730008951F93182FA4E0B3E020E231E050
:100D70009FEF4FEF8C91811719F4F90194914C93E7
:100D800011962F5F3F4FF3E0AA30BF0799F7892FE5
:100D90000E947F06812F60E00E94000A1F91089543
:100DA0001F920F920FB60F920BB60F9211242F9332
:100DB0003F934F935F936F937F938F939F93AF93E3
:100DC000BF93EF93FF9380919C0490919D04A09119
:100DD0009E04B0919F040097A105B10551F1E091E7
:100DE000A004F091A10480819091A20489278083BE
:100DF00080919C0490919D04A0919E04B0919F04C9
:100E0000181619061A061B06C4F480919C049091CA
:100E10009D04A0919E04B0919F040197A109B1097E
:100E200080939C0490939D04A0939E04B0939F0490
:100E300004C0809104030E94B206FF91EF91BF911C
:100E4000AF919F918F917F916F915F914F913F9162
:100E50002F910F900BBE0F900FBE0F901F90189503
:100E60001F920F920FB60F920BB60F9211242F9371
:100E70003F934F935F936F937F938F939F93AF9322
:100E8000BF93EF93FF938091A3049091A404892BC7
:100E900029F0E091A304F091A4040995FF91EF914A
:100EA000BF91AF919F918F917F916F915F914F9182
:100EB0003F912F910F900BBE0F900FBE0F901F9080
:100EC00018951F920F920FB60F920BB60F92112426
:100ED0002F933F934F935F936F937F938F939F9342
:100EE000AF93BF93EF93FF938091A5049091A604D5
:100EF000892B29F0E091A504F091A6040995FF91B2
:100F0000EF91BF91AF919F918F917F916F915F9181
:100F10004F913F912F910F900BBE0F900FBE0F90EE
:100F20001F9018951F920F920FB60F920BB60F924B
:100F300011242F933F934F935F936F937F938F93DE
:100F40009F93AF93BF93EF93FF938091A7049091EA
:100F5000A804892B29F0E091A704F091A804099531
:100F6000FF91EF91BF91AF919F918F917F916F9181
:100F70005F914F913F912F910F900BBE0F900FBE3D
:100F80000F901F9018951F920F920FB60F920BB6ED
:100F90000F9211242F933F934F935F936F937F93FF
:100FA0008F939F93AF93BF93EF93FF938091A90487
:100FB0009091AA04892B29F0E091A904F091AA0448
:100FC0000995FF91EF91BF91AF919F918F917F9183
:100FD0006F915F914F913F912F910F900BBE0F90AA
:100FE0000FBE0F901F9018951F920F920FB60F9281
:100FF0000BB60F9211242F933F934F935F936F93F0
:101000007F938F939F93AF93BF93EF93FF938091C1
:10101000AB049091AC04892B29F0E091AB04F091E2
:10102000AC040995FF91EF91BF91AF919F918F9182
:101030007F916F915F914F913F912F910F900BBED8
:101040000F900FBE0F901F9018951F920F920FB622
:101050000F920BB60F9211242F933F934F935F93F0
:101060006F937F938F939F93AF93BF93EF93FF9370
:101070008091AD049091AE04892B29F0E091AD04EC
:10108000F091AE040995FF91EF91BF91AF919F91BF
:101090008F917F916F915F914F913F912F910F9021
:1010A0000BBE0F900FBE0F901F901895009711F078
:1010B0000E94F71608950E94F71608950E944A1696
:1010C00008951F920F920FB60F9211242F933F9302
:1010D0008F939F93AF93BF938091B7049091B8047F
:1010E000A091B904B091BA043091BB040196A11D3E
:1010F000B11D232F2D5F2D3720F02D570196A11DF7
:10110000B11D2093BB048093B7049093B804A093BF
:10111000B904B093BA048091B3049091B404A0913F
:10112000B504B091B6040196A11DB11D8093B3041E
:101130009093B404A093B504B093B604BF91AF915B
:101140009F918F913F912F910F900FBE0F901F9005
:1011500018959FB7F8942091B3043091B40440914E
:10116000B5045091B60486B5A89B06C08F3F21F008
:101170002F5F3F4F4F4F5F4F9FBF542F432F322F53
:101180002227280F311D411D511D82E0220F331FE0
:10119000441F551F8A95D1F7B901CA010895EF92EE
:1011A000FF920F931F93CF93DF937B018C010E94DB
:1011B000A908EB010EC00E94A9086C1B7D0B685E9C
:1011C0007340C8F30894E108F10801091109C851F6
:1011D000DC4FE114F1040105110569F7DF91CF91AE
:1011E0001F910F91FF90EF900895789484B58260DD
:1011F00084BD84B5816084BD85B5826085BD85B5BB
:10120000816085BDEEE6F0E0808181608083E1E869
:10121000F0E01082808182608083808181608083A1
:10122000E0E8F0E0808181608083E1EBF0E08081A4
:1012300084608083E0EBF0E0808181608083E1E97D
:10124000F0E0808182608083808181608083E0E93A
:10125000F0E0808181608083E1EAF0E0808182605B
:101260008083808181608083E0EAF0E0808181601A
:101270008083E1E2F1E0808182608083808181600F
:101280008083E0E2F1E0808181608083EAE7F0E042
:10129000808184608083808182608083808181609E
:1012A0008083808180688083ECE7F0E080818064C7
:1012B00080831092C1000895482F50E0CA018E55D6
:1012C0009E4FFC01249147575E4FFA018491882379
:1012D000C1F0E82FF0E0EE0FFF1FE55CFE4FA59197
:1012E000B491662341F49FB7F8948C9120958223A2
:1012F0008C939FBF08959FB7F8948C91822B8C9309
:101300009FBF0895893009F44FC08A30A0F484301B
:1013100081F1853040F48230C9F1833030F581307D
:1013200009F06DC030C08730A9F18830B8F585303C
:1013300009F065C022C08D3009F448C08E3028F411
:101340008B30D1F18C30F0F533C0803109F448C0D6
:10135000813120F48E3009F052C03CC0813109F453
:1013600043C0823109F04BC045C0809180008F7727
:1013700007C0809180008F7D03C080918000877FAF
:1013800080938000089584B58F7702C084B58F7DE7
:1013900084BD08958091B0008F7703C08091B00024
:1013A0008F7D8093B0000895809190008F7707C063
:1013B000809190008F7D03C080919000877F809303
:1013C000900008958091A0008F7707C08091A000C1
:1013D0008F7D03C08091A000877F8093A000089537
:1013E000809120018F7703C0809120018F7D8093B1
:1013F0002001089580912001877F80932001089526
:10140000FF920F931F93F62E482F50E0CA01855488
:101410009E4FFC012491CA018E559E4FFC011491F0
:1014200047575E4FFA0104910023C9F0222319F0B7
:10143000822F0E948209E02FF0E0EE0FFF1FEB5A8F
:10144000FE4FA591B4919FB7F894FF2021F48C91A1
:101450001095812302C08C91812B8C939FBF1F918B
:101460000F91FF9008957093480660934706089582
:10147000709345066093440610923F06672B19F05F
:1014800081E080933F060895CF93DF93582F4093D8
:101490003D0680913E06882309F044C08091BC053A
:1014A000583030F4C82FD0E0462FCB01DC0135C0D6
:1014B000C82FD0E097E0252F30E02250304015C0F3
:1014C0008091BB05E82FF0E03196AF014F77507067
:1014D00031974C175D0771F1E55CFA4FA60FB71F06
:1014E0008C9180834093BB059F5FA92FB0E0A2172A
:1014F000B30734F31FC08091BB05E82FF0E03196AD
:101500009F012F77307031972C173D0799F0E55CDC
:10151000FA4F8D9180832093BB058A2F841B8517FA
:1015200050F308C0E0914206F0914306852F0995DB
:101530009C0102C02BE335E0C901DF91CF910895F2
:101540008091BC058093BB0508959091BC05809166
:10155000BB05891719F42FEF3FEF0CC0892F90E0DE
:10156000FC01E55CFA4F208101968F7790708093A3
:10157000BC0530E0C90108958091BB0590E080581A
:101580009F4F2091BC05821B910960E870E00E948A
:10159000961E089581E08093400687E080933C0684
:1015A00008959C0180913F06882331F0E091440624
:1015B000F0914506C9010995109241060895DF93FF
:1015C000CF9300D0CDB7DEB71092400680913C0695
:1015D0008E5F80933C06F8948FEF9FEF9A83898308
:1015E000809141068823A1F089819A8101979A838D
:1015F0008983019669F0F4CF809141068823D1F068
:1016000089819A8101979A838983019699F0F4CF11
:1016100081E0809341060E94AB0C5D9A80913C066C
:101620006DEB75E040E00E944B0C8FEF9FEF9A83CB
:101630008983E2CF82E00E94AB0C1092410678943D
:101640000F900F90CF91DF910895DF93CF9300D04B
:10165000CDB7DEB79C01809140068823D1F0809100
:101660003C068D3708F04DC0E82FF0E0E354FA4F08
:1016700060838F5F80933C068D3709F042C0C901BB
:101680000E94DF0A81E08093400687E080933C0659
:1016900038C06093C4051092C5051092C6058FEF3F
:1016A0009FEF9A838983809141068823A1F08981E5
:1016B0009A8101979A838983019669F0F4CF80918A
:1016C00041068823C9F089819A8101979A83898389
:1016D000019691F0F4CF81E0809341060E94AB0C1B
:1016E0005D9A8AE06DEB75E040E00E944B0C8FEF55
:1016F0009FEF9A838983E3CF82E00E94AB0C109224
:1017000041060F900F90CF91DF910895EF92FF92D5
:101710000F931F93CF93DF937C01042FEB0110E015
:1017200005C0C70169910E94250B1F5F1017C8F300
:10173000DF91CF911F910F91FF90EF9008951F932C
:10174000CF93DF93162FEA018CEB94E06FE70E94B2
:10175000E70D209781F020E030E0F901E354FA4FE3
:10176000DE01A20FB31F8C9180832F5F3F4F273084
:10177000310599F714C081E08093BD0580E880931E
:10178000BE051092BF0581E18093C00582E280937F
:10179000C10583E38093C20584E48093C30580E0A0
:1017A00090E0612F70E00E946F0D82E00E94AB0C10
:1017B000569A559A5E985D98DF91CF911F91089542
:1017C00040E050E00E949F0B08951092480610924E
:1017D000470610924A061092490684E49AE00E9455
:1017E000150C81ED9AE00E941A0C089586E496E0AB
:1017F0000E94E50B0895E0914706F0914806309766
:1018000009F009950895E0914B06F0914C06309748
:1018100011F00995BC01CB010895E0914D06F091BE
:101820004E06309709F00995089590934C068093E1
:101830004B06089590934E0680934D0608951F928F
:101840000F920FB60F920BB60F9211242F933F9366
:101850004F935F936F937F938F939F93AF93BF93B8
:10186000EF93FF935E9A86E00E94340E80938E077A
:10187000FF91EF91BF91AF919F918F917F916F9168
:101880005F914F913F912F910F900BBE0F900FBE24
:101890000F901F9018950E94780EE9E3F1E0808187
:1018A0008260808380818D7F808308951F93DF9382
:1018B000CF930F92CDB7DEB786E060E847E00E9495
:1018C0003A0E182F80915406909155066091560655
:1018D000AE014F5F5F4F0E94590E8F7760915406A3
:1018E0007091550620E0112309F421E049810E94FE
:1018F000030C90935506809354060F90CF91DF917F
:101900001F9108951F920F920FB60F920BB60F9270
:1019100011242F933F934F935F936F937F938F93F4
:101920009F93AF93BF93EF93FF935E980E94560CE3
:10193000FF91EF91BF91AF919F918F917F916F91A7
:101940005F914F913F912F910F900BBE0F900FBE63
:101950000F901F901895CF92DF92FF920F931F93D5
:10196000DF93CF9300D00F92CDB7DEB7F82E82E091
:10197000F81689F08F1530F0FF20F1F081E0F816AD
:10198000C1F40BC084E0F81651F0F81650F085E071
:10199000F81679F408C086E010C089E00EC086E130
:1019A0000CC089E10AC088E08A8383E0898311E062
:1019B00007C084E00E94FB0B88E08A83898310E0E3
:1019C00080915206853059F41123A1F58091390197
:1019D0008D7F8093390180ED97E00197F1F72981A0
:1019E00082E06FE140E00E94470E0CE830E8C32E31
:1019F000D12C81E06FE140E00E943A0E8B839A8106
:101A00008B81981739F0C6010197F1F7002311F087
:101A10000150EFCF9A818B81981719F081E00E94D5
:101A2000FB0B112329F080913901826080933901E9
:101A3000F09252060F900F900F90CF91DF911F916F
:101A40000F91FF90DF90CF9008951F920F920FB6E5
:101A50000F920BB60F9211242F933F934F935F93E6
:101A60006F937F938F939F93AF93BF93EF93FF9366
:101A70005D9880915206813019F480E090E016C0A4
:101A80008330D1F482E060EE45E00E943A0E83306C
:101A900029F0833028F0853039F404C081E005C096
:101AA00080E003C082E001C083E090E00E940D0C62
:101AB000809153060E94AB0CFF91EF91BF91AF91C3
:101AC0009F918F917F916F915F914F913F912F9156
:101AD0000F900BBE0F900FBE0F901F9018950F9395
:101AE0001F93CF93DF93162F072F8430C9F18530D2
:101AF00058F4813009F466C0813090F08230F1F002
:101B0000833009F05CC037C0863009F43FC08630AE
:101B1000C0F1873009F442C0883009F050C04BC092
:101B2000862F8B50803108F04AC088E06FE140E09A
:101B3000212F0E94470E10934F0644C0E62FEF5E00
:101B4000E53108F03CC060935006F0E0EA5DFE4FDE
:101B5000E081F0E0E49185E06FE040E02E2F08C0E6
:101B6000643068F56093510688E060E645E0212F17
:101B70000E94470E27C060935306862F0E94AB0C2D
:101B800021C082E20E942E0E83E204C080E20E9405
:101B90002E0E81E2602F0E942E0E14C0862F972FEA
:101BA0009C01E90114E2812F69910E942E0E1F5FB2
:101BB0001C32C9F707C0862F0E942A0E03C082E09C
:101BC0000E94FB0BDF91CF911F910F91089590938D
:101BD00055068093540660935606809139018E7F96
:101BE00080933901809139018D7F8093390188E19B
:101BF00090E00197F1F7809139018160809339017C
:101C00008EE060E00E942E0E8FE00E94340E82E093
:101C10006FE140E028E00E94470E88EF97E00197CF
:101C2000F1F781E06FE140E00E943A0E883019F050
:101C300081E00E94FB0B84E060E245E021E00E942D
:101C4000470E8EE06CE40E942E0E10925206109207
:101C500053060895833309F08FEF0895E82FF0E0DD
:101C6000E05CFE4F60830895E82FF0E0E05CFE4FFB
:101C700080810895E82FF0E0E05CFE4F80818623AC
:101C800090E002C0959587954A95E2F70895E82F70
:101C9000F0E0E05CFE4F30E002C0220F331F4A95B7
:101CA000E2F7962F9223609580818623982B90836C
:101CB0000895FF920F931F93CF93DF93EA01F09063
:101CC0007B01F61608F46F2D062F10E060E871E036
:101CD000402F50E00E945E1700581E4FF80180818F
:101CE00088838F2DDF91CF911F910F91FF900895E1
:101CF000482F87FD4FE74093800181E891E050E055
:101D00000E945E170895482F613210F081E0089517
:101D100080915706843011F082E008956093A00608
:101D2000AFE7B6E0842F9C01F90102C081918D9349
:101D30008E2F841B8617D0F380E008951F920F9298
:101D40000FB60F920BB60F9211242F933F934F9320
:101D50005F936F937F938F939F93AF93BF93EF9313
:101D6000FF938091B90090E0887F90708036910554
:101D700009F4DCC081369105CCF58832910509F46F
:101D80007BC089329105B4F48031910509F46FC0AC
:101D9000813191053CF4009709F431C1089709F0AD
:101DA00039C165C08831910509F466C0809709F092
:101DB00031C17DC08034910509F49FC08134910503
:101DC00044F48033910509F47DC0C89709F022C11D
:101DD00084C08035910509F484C08835910509F4E3
:101DE00091C08834910509F015C198C088399105D2
:101DF00009F4FDC089399105ECF48837910509F49F
:101E000095C0893791054CF48836910509F48EC048
:101E10008037910509F0FEC089C08838910509F422
:101E2000E6C08039910509F487C08038910509F032
:101E3000F1C082C0803B910509F4B0C0813B91059F
:101E40004CF4803A910509F489C0883A910509F06B
:101E5000E1C0A4C0803C910509F4CDC0883C910547
:101E600009F4C9C0883B910509F0D4C0ACC0809189
:101E700058068093BB00B9C090917D0680917E0684
:101E8000981768F490917D06E92FF0E0E35AF94F36
:101E900080818093BB009F5F90937D06A6C085EDF7
:101EA0008093BC008091BC0084FDFCCFB1C080E277
:101EB0008093C20685ED8093BC008091BC0084FDB8
:101EC000FCCFA6C080E38093C20685ED8093BC0062
:101ED0008091BC0084FDFCCF9BC088E38093C20648
:101EE0008AC080917D069091BB00E82FF0E0E35A14
:101EF000F94F90838F5F80937D0690917D0680914E
:101F00007E0671C080917D069091BB00E82FF0E0C5
:101F1000E35AF94F90838F5F80937D0685ED809320
:101F2000BC008091BC0084FDFCCF72C083E0809334
:101F300057061092C10659C08091C106803208F040
:101F400056C08091C1069091BB00E82FF0E0EF559C
:101F5000F94F90838F5F8093C10647C08091C1067F
:101F6000803230F4E091C106F0E0EF55F94F108275
:101F700085ED8093BC008091BC0084FDFCCF109265
:101F800057066091C106E0915B06F0915C0681EA1C
:101F900096E070E009951092C1062DC084E0809310
:101FA000570610929F061092A006E0915906F091F4
:101FB0005A0609958091A006882329F481E0809330
:101FC000A00610927F0690919F06E92FF0E0E1585D
:101FD000F94F80818093BB009F5F90939F06909103
:101FE0009F068091A006981710F485EC01C085E843
:101FF0008093BC000FC085EC8093BC0009C0109298
:10200000C20685ED8093BC008091BC0084FDFCCFAE
:1020100010925706FF91EF91BF91AF919F918F91D1
:102020007F916F915F914F913F912F910F900BBED8
:102030000F900FBE0F901F9018951092570685E1D4
:1020400061E00E94000A86E161E00E94000AE9EB7B
:10205000F0E080818E7F808380818D7F808388E423
:102060008093B80085E48093BC0008952091E40635
:1020700030E08091E306281B3109C90108954091A1
:10208000E3068091E406481718F02FEF3FEF0AC0EF
:10209000E42FF0E0ED53F94F8081282F30E04F5FBF
:1020A0004093E306C9010895E091E3068091E406B8
:1020B000E81718F0EFEFFFEF06C0F0E0ED53F94F2F
:1020C0008081E82FF0E0CF010895089510920B076A
:1020D00010920A0788EE93E0A0E0B0E080930C072E
:1020E00090930D07A0930E07B0930F0784E293E03F
:1020F00090930907809308070895CF92DF92EF929B
:10210000FF920F931F93CF93DF937C016B018A01A2
:10211000809107078823A1F0C0E0D0E00DC0D7016F
:10212000ED91FC91D601AC0FBD1F0190F081E02D27
:10213000C7016C9109952196C017D10780F304C09F
:10214000CB01642F0E94830EC801DF91CF911F91B4
:102150000F91FF90EF90DF90CF900895DF93CF9392
:102160000F92CDB7DEB7FC01698380910707882302
:10217000C9F080910607803238F081E090E09383C7
:10218000828320E030E015C080910507E82FF0E061
:10219000EB51F94F998190838F5F8093050780936E
:1021A000060705C0CE01019661E00E94830E21E082
:1021B00030E0C9010F90CF91DF9108951092E306AE
:1021C0001092E40610920507109206070E941D1057
:1021D00008951F920F920FB60F920BB60F92112413
:1021E0002F933F934F935F936F937F938F939F931F
:1021F000AF93BF93EF93FF93E0911807F091190706
:102200000995FF91EF91BF91AF919F918F917F9130
:102210006F915F914F913F912F910F900BBE0F9057
:102220000FBE0F901F9018951F920F920FB60F922E
:102230000BB60F9211242F933F934F935F936F939D
:102240007F938F939F93AF93BF93EF93FF93E0910F
:102250001C07F0911D070995FF91EF91BF91AF9178
:102260009F918F917F916F915F914F913F912F91AE
:102270000F900BBE0F900FBE0F901F9018950F93ED
:102280001F93CF93DF93FC01838DA685B78595853A
:10229000082F027081FF05C08C91892309F454C076
:1022A00004C08C91892309F04FC08389948920E070
:1022B00001972FEF8F3F9207D9F7C589D689A68559
:1022C000B785758560E031E040E050E010E0CE0178
:1022D000212F01972FEF8F3F9207D9F78C918723FA
:1022E00011F0632B03C0832F80956823330F4F5F5A
:1022F0005F4F4830510559F78789908D20E001974D
:102300002FEF8F3F9207D9F70111609580916007F9
:102310002091610790E001968F73907030E08217F2
:10232000930779F0E0916007F0E0E05EF84F60839A
:102330008091600790E001968F73907080936007A2
:1023400003C0838D8160838FDF91CF911F910F91A7
:10235000089580911E0790911F07009711F00E9429
:102360003F1108951F920F920FB60F920BB60F9266
:1023700011242F933F934F935F936F937F938F938A
:102380009F93AF93BF93EF93FF930E94A911FF9187
:10239000EF91BF91AF919F918F917F916F915F91DD
:1023A0004F913F912F910F900BBE0F900FBE0F904A
:1023B0001F9018951F920F920FB60F920BB60F92A7
:1023C00011242F933F934F935F936F937F938F933A
:1023D0009F93AF93BF93EF93FF930E94A911FF9137
:1023E000EF91BF91AF919F918F917F916F915F918D
:1023F0004F913F912F910F900BBE0F900FBE0F90FA
:102400001F9018951F920F920FB60F920BB60F9256
:1024100011242F933F934F935F936F937F938F93E9
:102420009F93AF93BF93EF93FF930E94A911FF91E6
:10243000EF91BF91AF919F918F917F916F915F913C
:102440004F913F912F910F900BBE0F900FBE0F90A9
:102450001F901895FC0184E393E09183808312829E
:1024600080E090E0A0E0B0E083839483A583B6830E
:102470000895DC01FB0113962D913D914D915C91E6
:10248000169712968C9180832183BB27A52F942FBA
:10249000832F8283CA01AA27BB278383252F332753
:1024A0004427552724830895FC0184E393E0918316
:1024B00080830895FC0184E393E091838083CF01BE
:1024C0000E945B080895FC018CE393E09183808374
:1024D0000895FC018CE393E091838083CF010E94F7
:1024E0005B080895FC018CE393E0918380838EE088
:1024F00060E00E945C098EE060E00E94000A08959E
:102500008130910541F46F5F7F4F81F482E697E05F
:102510000E9472120895892B49F46F5F7F4F31F446
:102520008CE393E09093630780936207089580E0C3
:1025300090E06FEF7FEF0E948012089581E090E0BD
:102540006FEF7FEF0E948012089588E68093640702
:102550000895FC0184E493E09183808382819381D8
:10256000009711F00E9456080895CF93DF93EC0175
:1025700084E493E0998388838A819B81009711F09A
:102580000E945608CE010E945B08DF91CF9108950A
:102590001F93CF93DF93EC01162F84E493E099838C
:1025A00088831C821E821F82188619861D82862FB0
:1025B00090E0880F991F880F991F0E945E089B83E7
:1025C0008A8320E080E090E00AC0EA81FB81E80F86
:1025D000F91F10821182128213822F5F0496211735
:1025E000A0F31A87DF91CF911F9108958EE1809318
:1025F000730708958130910549F46F5F7F4F79F437
:102600008BE797E065E00E94C8120895892B39F4A2
:102610006F5F7F4F21F48BE797E00E94A912089526
:1026200080E090E06FEF7FEF0E94FA12089581E062
:1026300090E06FEF7FEF0E94FA12089581309105CC
:1026400041F46F5F7F4F71F486E897E00E942A1291
:102650000895892B39F46F5F7F4F21F486E897E066
:102660000E945412089580E090E06FEF7FEF0E9487
:102670001E13089581E090E06FEF7FEF0E941E131C
:102680000895FF920F931F93F82E07E714E0C801F7
:102690000E94BF04C80162E072E00E94CB05C8013D
:1026A0006F2D4AE050E00E946605C8010E94BF04F9
:1026B0001F910F91FF900895FF920F931F93F82E93
:1026C00007E714E0C8010E94BF04C8016BE072E094
:1026D0000E94CB05C8016F2D4AE050E00E946605BC
:1026E000C8010E94BF041F910F91FF9008959F920F
:1026F000AF92BF92CF92DF92EF92FF920F931F9310
:10270000DF93CF93CDB7DEB7C157D0400FB6F89463
:10271000DEBF0FBECDBF1A8219821C821B8280E0F1
:1027200090E0A0E0B0E08B8B9C8BAD8BBE8B1E82CB
:102730001D8218861F821A8619868F8B988FA98F03
:10274000BA8F8B8F9C8FAD8FBE8F8F8F98A3A9A3CD
:10275000BAA38BA39CA3ADA3BEA380918D078336A0
:1027600009F467C1823709F011C286E496E00E943D
:10277000BC0A882309F442C187E794E00E94BF04A1
:1027800087E794E063E172E00E94CB054CE4E42E1D
:10279000F12CEC0EFD1E36E2C32ED12CCE0CDF1C2C
:1027A0000AC086E496E00E94A50AD8018D938D01A7
:1027B000AC15BD05B1F786E496E00E94BC0A8632EE
:1027C00014F08701EECF86E496E00E94A00AF7019C
:1027D000808191819C838B83828193819A83898379
:1027E00084819581A681B7818B8B9C8BAD8BBE8BB1
:1027F00080859185A285B3858F8B988FA98FBA8F9D
:1028000084859585A685B7858B8F9C8FAD8FBE8F70
:102810008089918998878F83828993899A8789870C
:1028200084899589A689B7898F8F98A3A9A3BAA30C
:10283000808D918DA28DB38D8BA39CA3ADA3BEA3E0
:10284000848D958D9E838D83868D978DA0A1B1A15A
:102850008B879C87AD87BE8782A193A1A4A1B5A1D8
:102860008F87988BA98BBA8B87E794E00E94BF046F
:1028700087E794E068E172E00E94CB056B817C8180
:1028800087E794E04AE050E00E94B80587E794E0CB
:102890006CE172E00E94CB0569817A8187E794E060
:1028A0004AE050E00E94B80587E794E062E272E0F7
:1028B0000E94CB054B895C896D897E8987E794E00E
:1028C00022E030E00E94690687E794E00E94BF049E
:1028D00087E794E06AE272E00E94CB054F89588D49
:1028E000698D7A8D87E794E022E030E00E946906E6
:1028F00087E794E062E372E00E94CB054B8D5C8D2C
:102900006D8D7E8D87E794E022E030E00E946906BD
:1029100087E794E06CE372E00E94CB056F817885D5
:1029200087E794E04AE050E00E94B80587E794E02A
:1029300066E472E00E94CB0569857A8587E794E0BA
:102940004AE050E00E94B80587E794E00E94BF0487
:1029500087E794E060E572E00E94CB054F8D58A1B7
:1029600069A17AA187E794E022E030E00E9469063D
:1029700087E794E068E572E00E94CB054BA15CA17B
:102980006DA17EA187E794E022E030E00E94690615
:1029900087E794E062E672E00E94CB056D817E815C
:1029A00087E794E04AE050E00E94B80587E794E0AA
:1029B0000E94BF0487E794E06EE672E00E94CB05B8
:1029C0004B855C856D857E8587E794E022E030E06D
:1029D0000E94690687E794E067E772E00E94CB05F2
:1029E0004F85588969897A8987E794E022E030E049
:1029F0000E94690687E794E00E94BF0487E794E09D
:102A00000E94580364E670E080E090E00E94CF08E6
:102A100087E794E00E94FE02892B09F4EEC087E765
:102A200094E00E942F038B3109F0E7C010928D07CC
:102A3000E4C087E794E00E94580387E794E060E8E9
:102A400072E00E946C0687E794E06FE872E00E94F3
:102A5000CB0528E3E22EF12CEC0EFD1E8701C70109
:102A6000AE2C992E93E1C92ED12CCE0CDF1CB02EAA
:102A7000BE1887E794E00E94FE02892BD1F387E716
:102A800094E00E942F03682F8B3119F410928D0768
:102A900007C08D3051F4EA2DF92DEB0DF11D108298
:102AA00087E794E00E94580310C00C151D0529F417
:102AB000FE01E55BFF4F108208C0D8018D938D01A8
:102AC00087E794E00E94B704D2CF87E794E00E94A2
:102AD000BF04EDB7FEB738970FB6F894FEBF0FBE30
:102AE000EDBF3196CE01C896ADB7BEB712969C9396
:102AF0008E93119782E992E09383828388E8C82EAF
:102B000087E0D82ED582C4828E01025D1F4F1783C5
:102B100006830E946717F82EEDB7FEB738960FB6FA
:102B2000F894FEBF0FBEEDBFC8010E944F1760931F
:102B3000890770938A0780938B0790938C07F2E044
:102B4000FF16E9F487E794E068E972E00E946C06FA
:102B50008E01095D1F4FC6010297B8010E9439120C
:102B600086E496E00E94CA0A86E496E0B80147E04F
:102B70000E94860B86E496E00E94DF0A3EC087E74B
:102B800094E06BE972E00E946C0637C087E794E03E
:102B90000E94580387E794E06DEA72E00E946C0699
:102BA00087E794E067EC72E00E946C0687E794E0A8
:102BB00064ED72E00E946C0687E794E06DEE72E0CF
:102BC0000E946C0687E794E06FE872E00E94CB05F4
:102BD00087E794E00E94FE02892BD1F387E794E017
:102BE0000E942F03682F80938D0787E794E00E944F
:102BF000B70487E794E00E94BF046AE070E080E0D9
:102C000090E00E94CF08CF58DF4F0FB6F894DEBF98
:102C10000FBECDBFCF91DF911F910F91FF90EF902D
:102C2000DF90CF90BF90AF909F9008950F931F9328
:102C300088E097E00E94DE1087E794E040E855E2E4
:102C400060E070E00E94780287E161E00E945C0928
:102C500006E416E0C8016BE00E94E00BC8016CE5D9
:102C600073E10E94330AC80161E473E10E94380AEB
:102C70001F910F910895CF93DF930E94F5080E9452
:102C80001616C9EBD1E00E9477132097E1F30E945A
:102C9000B901F9CFCF93DF93BC018230910510F4D5
:102CA00062E070E0A0919107B0919207ED01E0E041
:102CB000F0E040E050E021C08881998186179707B5
:102CC00069F48A819B81309719F09383828304C0D1
:102CD0009093920780939107FE0134C0681779079B
:102CE00038F44115510519F08417950708F4AC0123
:102CF000FE018A819B819C01E9012097E9F641153B
:102D00005105A9F1CA01861B970B049708F4BA0173
:102D1000E0E0F0E02AC08D919C911197841795070F
:102D2000F9F46417750781F412968D919C911397AD
:102D3000309719F09383828304C090939207809315
:102D40009107FD0132964FC0CA01861B970BFD010A
:102D5000E80FF91F6193719302978D939C9343C081
:102D6000FD01828193819C01D9011097A1F6809188
:102D70008F0790919007892B41F4809100039091E7
:102D800001039093900780938F0740910203509125
:102D900003034115510541F44DB75EB78091FE0222
:102DA0009091FF02481B590B20918F07309190079B
:102DB00024173507B0F4CA01821B930B86179707B7
:102DC00080F0AB014E5F5F4F8417950750F0420FC4
:102DD000531F5093900740938F07F90161937193AC
:102DE00002C0E0E0F0E0CF01DF91CF910895CF93F2
:102DF000DF93009709F450C0EC0122971B821A82DE
:102E0000A0919107B0919207109709F140E050E02E
:102E1000AC17BD0708F1BB83AA83FE012191319154
:102E2000E20FF31FAE17BF0779F48D919C911197B4
:102E3000280F391F2E5F3F4F3983288312968D91BB
:102E40009C9113979B838A834115510571F4D0930C
:102E50009207C093910720C012968D919C91139771
:102E6000AD01009711F0DC01D3CFFA01D383C28307
:102E700021913191E20FF31FCE17DF0769F48881AA
:102E80009981280F391F2E5F3F4FFA01318320832C
:102E90008A819B8193838283DF91CF9108956627F6
:102EA00077270C94731CF8940C94D11E911189C649
:102EB000803219F089508550D0F70895FB01DC016C
:102EC00002C001900D9241505040D8F70895DF9311
:102ED000CF93CDB7DEB72E970FB6F894DEBF0FBEF7
:102EE000CDBF85E08C838B899C899A8389839E01E1
:102EF000295E3F4FCE0101966D897E89A9010E940E
:102F0000501B2E960FB6F894DEBF0FBECDBFCF91EB
:102F1000DF9108955058BB27AA270ED075C166D1FE
:102F200030F06BD120F031F49F3F11F41EF45BC1FF
:102F30000EF4E095E7FB51C1E92F77D180F3BA1782
:102F4000620773078407950718F071F49EF58FC127
:102F50000EF4E0950B2EBA2FA02D0B01B9019001B4
:102F60000C01CA01A0011124FF27591B99F0593FF8
:102F700050F4503E68F11A16F040A22F232F342F40
:102F80004427585FF3CF469537952795A795F0408E
:102F90005395C9F77EF41F16BA0B620B730B840BA3
:102FA000BAF09150A1F0FF0FBB1F661F771F881F5B
:102FB000C2F70EC0BA0F621F731F841F48F48795B3
:102FC00077956795B795F7959E3F08F0B3CF9395A2
:102FD000880F08F09927EE0F979587950895D9D017
:102FE00008F481E008950CD00FC107D140F0FED065
:102FF00030F021F45F3F19F0F0C0511139C1F3C036
:1030000014D198F39923C9F35523B1F3951B550BAC
:10301000BB27AA2762177307840738F09F5F5F4FAB
:10302000220F331F441FAA1FA9F333D00E2E3AF0EC
:10303000E0E830D091505040E695001CCAF729D006
:10304000FE2F27D0660F771F881FBB1F2617370755
:103050004807AB07B0E809F0BB0B802DBF01FF2785
:1030600093585F4F2AF09E3F510568F0B6C000C1EB
:103070005F3FECF3983EDCF3869577956795B795BF
:10308000F7959F5FC9F7880F911D9695879597F9DA
:103090000895E1E0660F771F881FBB1F6217730753
:1030A0008407BA0720F0621B730B840BBA0BEE1F68
:1030B00088F7E095089504D06894B111D9C00895B7
:1030C000BCD088F09F5790F0B92F9927B751A0F046
:1030D000D1F0660F771F881F991F1AF0BA95C9F7AC
:1030E00012C0B13081F0C3D0B1E00895C0C0672FE5
:1030F000782F8827B85F39F0B93FCCF3869577955C
:103100006795B395D9F73EF4909580957095619544
:103110007F4F8F4F9F4F0895E89409C097FB3EF46F
:1031200090958095709561957F4F8F4F9F4F992314
:10313000A9F0F92F96E9BB279395F6958795779592
:103140006795B795F111F8CFFAF4BB0F11F460FF52
:103150001BC06F5F7F4F8F4F9F4F16C0882311F0AA
:1031600096E911C0772321F09EE8872F762F05C0BE
:10317000662371F096E8862F70E060E02AF09A9559
:10318000660F771F881FDAF7880F9695879597F94E
:103190000895990F0008550FAA0BE0E8FEEF1616E8
:1031A0001706E807F907C0F012161306E407F5073B
:1031B00098F0621B730B840B950B39F40A2661F0AF
:1031C000232B242B252B21F408950A2609F4A14052
:1031D000A6958FEF811D811D089597F99F6780E85F
:1031E00070E060E008959FEF80EC089500240A9459
:1031F0001616170618060906089500240A941216D2
:103200001306140605060895092E0394000C11F404
:10321000882352F0BB0F40F4BF2B11F460FF04C0B1
:103220006F5F7F4F8F4F9F4F089557FD9058440F0A
:10323000551F59F05F3F71F04795880F97FB991F15
:1032400061F09F3F79F087950895121613061406D2
:10325000551FF2CF4695F1DF08C01616170618065F
:10326000991FF1CF86957105610508940895E8943A
:10327000BB2766277727CB0197F908950BD0C4CFDA
:10328000B5DF28F0BADF18F0952309F0A6CFABCF51
:103290001124EECFCADFA0F3959FD1F3950F50E034
:1032A000551F629FF001729FBB27F00DB11D639FF8
:1032B000AA27F00DB11DAA1F649F6627B00DA11D9E
:1032C000661F829F2227B00DA11D621F739FB00D44
:1032D000A11D621F839FA00D611D221F749F3327B4
:1032E000A00D611D231F849F600D211D822F762F4D
:1032F0006A2F11249F5750408AF0E1F088234AF04A
:10330000EE0FFF1FBB1F661F771F881F9150504095
:10331000A9F79E3F510570F060CFAACF5F3FECF355
:10332000983EDCF3869577956795B795F795E79581
:103330009F5FC1F7FE2B880F911D9695879597F992
:103340000895FC0120FD08C023FD05C022FF02C036
:1033500073836283518340830895EF92FF920F93AA
:103360001F9344FF02C033E011C046FF02C034E0A7
:103370000DC0DB01FC01AA0FBB1FEE1FFF1F109445
:10338000D1F76A0F7B1F8E1F9F1F31E0660F771FDB
:10339000881F991F3150D1F77B018C01E20EF11C7F
:1033A000011D111DA8019701B701CA011F910F91BD
:1033B000FF90EF9008950F931F93CF93DF938C01AD
:1033C000C8010E94071EEC0197FD08C00E94561715
:1033D000892BB1F7CE01B8010E94491ECE01DF91C1
:1033E000CF911F910F910895AF92BF92CF92DF922C
:1033F000EF92FF920F931F93CF93DF93EC01C62EB2
:103400005A01122F0E94071EAC018B3219F08D3227
:1034100051F41068CA9409F46DC0CE010E94071ED1
:10342000AC0197FD67C06DEFD62ED1228D2D807334
:1034300001F54033F1F4CA9409F447C0CE010E946B
:10344000071EAC0197FD41C082E0D82A483711F031
:10345000483559F480E4D82ACA94B9F1CE010E94C3
:10346000071EAC0199232CF430C0D6FC02C080E1C9
:10347000D82AEE24FF248701242F2053283088F0F7
:10348000D4FC09C02A3068F0D6FE05C02F7D822FFB
:103490008151863028F0CA01BE010E94491E12C027
:1034A0002750C801B7014D2D0E94AD197B018C0139
:1034B00082E0D82ACA9461F0CE010E94071EAC01B6
:1034C00097FFDACFD1FC04C015C0EE24FF2487019A
:1034D000D7FE08C010950095F094E094E11CF11C13
:1034E000011D111DC501B801A7012D2D0E94A119B3
:1034F00081E001C080E0DF91CF911F910F91FF909B
:10350000EF90DF90CF90BF90AF9008956F927F9231
:103510008F929F92AF92BF92CF92DF92EF92FF92E3
:103520000F931F93DF93CF93CDB7DEB7A0970FB65E
:10353000F894DEBF0FBECDBF6C01A62E8A017901C3
:10354000FE01319680E2DF011D928A95E9F770E075
:1035500030E060E040E050E04F01A1E0B0E0F60173
:103560008381F70183FD259183FF21917F01222330
:1035700009F47EC02E3519F44115510569F1872FE4
:1035800090E08417950744F42D3551F12D3221F444
:10359000332329F431E021C0332309F4622F322F81
:1035A000832F869586958695F401E80FF11D832F6C
:1035B00087703D0102C0660C771C8A95E2F7208176
:1035C00026292083361711F430E007C0361710F48F
:1035D0003F5FE6CF3150E4CF71E04F5F5F4FBFCF29
:1035E000332319F08E8180628E83772359F0FE0198
:1035F00031969E012F5D3F4F808180958193E21728
:10360000F307D1F7BB24B3944E010894811C911C9D
:10361000C6010E94071EAC0197FD22C086958695C3
:103620008695F401E80FF11D808190E09A012770E2
:10363000307002C0959587952A95E2F780FD05C008
:10364000CA01B6010E94491E0BC00115110519F0EF
:10365000D8014D938D01AA94BB24AA20C9F602C0BB
:10366000BB2031F40115110529F0F801108202C0C8
:10367000EE24FF24C701A0960FB6F894DEBF0FBE5C
:10368000CDBFCF91DF911F910F91FF90EF90DF9011
:10369000CF90BF90AF909F908F907F906F90089544
:1036A0006F927F928F929F92AF92BF92CF92DF9252
:1036B000EF92FF920F931F93CF93DF935C016B0107
:1036C0003A01FC01178216828824EAC0812F90E01B
:1036D0000E945617892B21F0C5010E94DB19E0C01A
:1036E000153249F4F601F3FC6591F3FE61916F0127
:1036F000653269F415E2C5010E94071E97FDDCC022
:10370000181709F4CDC0B5010E94491EDAC06A320B
:1037100019F0162F00E006C0F3FC1591F3FE11918D
:103720006F0101E099240FC00260692D70E080E014
:1037300090E040E20E94AD19962EF601F3FC15913F
:10374000F3FE11916F01212F20532A3068F301FD00
:1037500003C099249A9403C0992009F4B2C0183682
:1037600021F01C3699F4F6010BC0F601F3FC6591CB
:10377000F3FE6191683619F06F01162F07C00860DB
:103780000460F3FC1591F3FE11916F01112309F40C
:1037900098C086ED91E0612F70E00E94E41D892BB6
:1037A00009F48FC0802F00FF03C0EE24FF2407C060
:1037B000F301E080F18022E030E0620E731E1E36DD
:1037C00051F4F5014681578160E070E0C701202F78
:1037D0000E94A11965C0133691F481FD02C099249D
:1037E0009394C5010E94071E97FD66C0E114F10481
:1037F00019F0F70181937F019A9499F74FC01B3517
:1038000059F4C501692DA70196010E94861A6C0121
:10381000009709F043C03DC0C5010E94DB1997FD28
:103820004BC01F3659F1103728F4143629F11936D8
:1038300039F527C0133719F0153711F51DC0C5012B
:103840000E94071EEC0197FD11C00E945617892B9C
:1038500029F0CE01B5010E94491E08C0E114F1040F
:1038600019F0F701C1937F019A9449F7E114F1042B
:10387000A9F0F701108212C0006203C0006101C00C
:103880000064C501692DA701202F0E94F419882327
:1038900029F4F5018381807379F413C000FF8394C8
:1038A000F501F380F601F3FC1591F3FE11916F0120
:1038B000112309F00BCF05C0882019F42FEF3FEF3B
:1038C00002C0282D30E0C901DF91CF911F910F91E7
:1038D000FF90EF90DF90CF90BF90AF909F908F9030
:1038E0007F906F9008958F929F92AF92BF92CF92E8
:1038F000DF92EF92FF920F931F93CF93DF93EC0130
:103900005B016115710519F0FB0191838083F990CA
:103910008F2D90E00E945617892BC9F7FDE2FF1604
:1039200021F4F990EE24E39405C02BE2F21609F499
:10393000F990EE248E0101501040C80162EE71E052
:1039400043E050E00E94EF1D892B01F58E010E5FD0
:103950001F4FC80165EE71E045E050E00E94EF1D89
:10396000892B19F48E01095F1F4FA114B10419F0BE
:10397000F50111830083E0FC04C070E090E080E872
:1039800014C070E090E080E86FEF08C1C8016AEEF3
:1039900071E043E050E00E94EF1D892B69F4A1140F
:1039A000B10429F470E090E080EC6FE7F7C0229654
:1039B000F501D183C083F6CF8824992440E050E0FC
:1039C00060E070E0EF2DE053EA30A0F5F2E0EF2A7E
:1039D0008E2D90E09C0128703070E2FE06C0232BF3
:1039E00079F50894811C911C2BC0232B19F00894A5
:1039F00081089108DB01CA0112E0880F991FAA1FF4
:103A0000BB1F1A95D1F7480F591F6A1F7B1F440F20
:103A1000551F661F771F4E0F511D611D711D4839BF
:103A200029E9520729E9620729E1720748F084E091
:103A3000E82A06C0EE3F31F4E3FC39C098E0E92AF9
:103A4000F990C0CFE53311F0E53189F529912D3298
:103A500019F4E0E1EE2A05C02B3219F081E090E084
:103A600003C0299182E090E0E22FE053EA3018F0A1
:103A7000C81BD90B1CC020E030E0FCE020383F0719
:103A80005CF4C901880F991F880F991F280F391FEF
:103A9000220F331F2E0F311DE991E053EA3068F3F6
:103AA000E4FE03C0309521953F4F820E931ECE2C2D
:103AB000DD24E1FE07C0A114B10421F02197F50136
:103AC000D183C083CB01BA010E948C187B018C0189
:103AD000F3E0CF22DD2423E0C216D10421F417FB4A
:103AE000109517F9109557016801C801B70120E03A
:103AF00030E040E050E00E94EF17882309F44AC00C
:103B000097FE0DC021E0E22E22E0F22E90948194E7
:103B100091089394C0E2D0E000E010E012C099E177
:103B2000E92E92E0F92EF6CFF701259135914591D6
:103B30005491C601B5010E943E195B016C018C1ABB
:103B40009D0A8C169D0684F7D595C7950F5F1F4F6C
:103B50000630110529F08CEF9FEFE80EF91EF1CF2A
:103B6000C501D6017C018D018C2D880F8D2D881FFC
:103B70008F3F51F0C601B50120E030E040E050E059
:103B80000E94EF17882331F482E290E0909394072B
:103B9000809393077E2D9F2D802F612F272F392F04
:103BA000482F562FB901CA01DF91CF911F910F9174
:103BB000FF90EF90DF90CF90BF90AF909F908F904D
:103BC0000895992788270895FC010590061621F08D
:103BD0000020D9F7C00108953197CF010895FB0166
:103BE000DC014150504088F08D9181341CF08B35C0
:103BF0000CF4805E659161341CF06B350CF4605EF2
:103C0000861B611171F3990B0895881BFCCFCF932C
:103C1000DF93EC014B8140FF1AC046FF0AC04F7B87
:103C20004B838E819F8101969F838E838A81282F6B
:103C30002BC042FF13C0E881F9818081282F3327F0
:103C400027FD30952115310529F440624B832FEF74
:103C50003FEF1BC03196F983E88311C0EA85FB85ED
:103C6000CE0109959C0197FF0AC09B812F5F3F4FB2
:103C700011F080E201C080E1892B8B83E8CF8E8137
:103C80009F8101969F838E8330E0C901DF91CF91A0
:103C900008959C01FB01838180FF11C086FD0FC048
:103CA0009FEF2F3F390759F0228380648F7D8383F4
:103CB0008681978101979783868330E002C02FEF3A
:103CC0003FEFC9010895629FD001739FF001829F69
:103CD000E00DF11D649FE00DF11D929FF00D839F9B
:103CE000F00D749FF00D659FF00D9927729FB00D38
:103CF000E11DF91F639FB00DE11DF91FBD01CF014B
:103D000011240895AA1BBB1B51E107C0AA1FBB1FAA
:103D1000A617B70710F0A61BB70B881F991F5A9557
:103D2000A9F780959095BC01CD01089597FB092EC8
:103D300007260AD077FD04D0E5DF06D000201AF46C
:103D4000709561957F4F0895F6F7909581959F4FF7
:103D50000895A1E21A2EAA1BBB1BFD010DC0AA1FCC
:103D6000BB1FEE1FFF1FA217B307E407F50720F0E4
:103D7000A21BB30BE40BF50B661F771F881F991F5F
:103D80001A9469F760957095809590959B01AC01A8
:103D9000BD01CF010895EE0FFF1F0590F491E02DB6
:103DA000099412E0C0E3D2E004C0FE010E94CD1EDF
:0C3DB0002296C633D107C9F7F894FFCF64
:103DBC002E005478446F6E653A20004572726F7213
:103DCC003A200052783A2000617A3A000920677A4A
:103DDC003A000920686561643A00796177496E7030
:103DEC003A0009207961774572723A000920746FA4
:103DFC0070526F743A000920626F74526F743A00FB
:103E0C00616C74496E703A000920616C7445727271
:103E1C003A0009207468726F74746C653A006779A3
:103E2C00726F73756D3A000920646973705A3A00A9
:103E3C00456E74657220636F6D6D616E643A003E01
:103E4C003E0025633D2573004F4B004572726F7227
:103E5C002E2054727920416761696E2E002A2A2A1D
:103E6C002A2A2A2A2A2A2A2A2A2A2A2A2A2A2A2AA6
:103E7C002A2A2A2A2A2A0053656C656374204D6FFE
:103E8C0064653A0072202D2053686F772053656E5D
:103E9C00736F722052656164696E67730063202DC5
:103EAC002053656E6420636F6D6D616E640020003D
:103EBC0095070000FFFFFFFFFFFF000000006A03F3
:103ECC008D04FE022F030F035803000000004B0467
:103EDC0000000000AE107D1036103F10541065101D
:103EEC000000000054125A12000000006312691204
:083EFC0000000000A912B5123C
:00000001FF
