:100000000C94F5000C94BB070C94EC070C941F01A6
:100010000C941F010C9459070C9428070C94F706B4
:100020000C948A070C94FD120C9425130C944D1318
:100030000C941F010C9497060C941F010C941F0143
:100040000C941F010C941F010C941F010C941F01B0
:100050000C94B9100C941F010C941F010C942B08E4
:100060000C941F010C9422010C94B8010C941F01F4
:100070000C941F010C941F010C941F010C941F0180
:100080000C941F010C941F010C941F010C94C711B8
:100090000C945B010C9405020C941F010C94470E08
:1000A0000C941F010C941F010C941F010C941F0150
:1000B0000C941F010C941F010C941F010C941F0140
:1000C0000C941F010C941F010C941F010C941F0130
:1000D0000C941F010C941F010C941F010C941F0120
:1000E0000C941F010C941F010C941F010C94640BC1
:1000F0000C94BC0B0C941F010C941F010C945F0C0E
:100100000C941F010C941F010C941F010C941F01EF
:100110000C941F010C941F010C941F010C941F01DF
:100120000504000201030F0F0F0F0F0E0E0E0D0D31
:100130000C0C0B0A0908070604020000000000244A
:100140000000002A002D00300033000000000000F5
:10015000000000000000000000250000002B002E21
:10016000003100340000000000000000000000002A
:100170000000000000260029002C002F00320000A3
:10018000000000000000000000050505050505054C
:100190000502020202020206060606060602040420
:1001A000040401024020040810801080402008024E
:1001B00001020408102004010220400000000B008E
:1001C000090A000705040300000000000000000009
:1001D000000000000000800316043B0B19101D14E2
:1001E00024140E17E0171614D91711241FBECFEFD1
:1001F000D1E4DEBFCDBF13E0A0E0B2E0EAE5F7E472
:1002000000E00BBF02C007900D92A032B107D9F7F2
:1002100017E0A0E2B3E001C01D92A83CB107E1F7EE
:1002200011E0C6EED1E004C02297FE010E949C239B
:10023000C63DD107C9F70E94DC1F0C94F0200C9436
:10024000000008951F920F920FB60F920BB60F92F7
:1002500011242F933F934F938F939F93EF93FF938B
:100260004091C60020916003309161032F5F3F4FA2
:100270002F733070809162039091630328173907C0
:1002800059F0E0916003F0916103E05EFC4F408320
:100290003093610320936003FF91EF919F918F91C1
:1002A0004F913F912F910F900BBE0F900FBE0F906B
:1002B0001F90189508951F920F920FB60F920BB6CC
:1002C0000F9211242F933F934F938F939F93EF930C
:1002D000FF934091CE002091E8033091E9032F5F16
:1002E0003F4F2F7330708091EA039091EB032817F2
:1002F000390759F0E091E803F091E903E855FC4F24
:1003000040833093E9032093E803FF91EF919F919D
:100310008F914F913F912F910F900BBE0F900FBE79
:100320000F901F901895E0915B04F0915C04E05CE5
:10033000FF4F8191919120813181821B930B8F73AB
:100340009070892B11F00E942101E0915B04F091E3
:100350005C04E05CFF4F8191919120813181821B8F
:10036000930B8F739070892B11F00E945A0108959E
:100370001F920F920FB60F920BB60F9211242F936C
:100380003F934F935F936F937F938F939F93AF931D
:10039000BF93EF93FF932091A4033091A503809125
:1003A000A6039091A7032817390731F48091C10063
:1003B0008F7D8093C10016C0E091A603F091A70342
:1003C000EC59FC4F40818091A6039091A7030196C0
:1003D00060E470E00E944A239093A7038093A603F1
:1003E0004093C600FF91EF91BF91AF919F918F9184
:1003F0007F916F915F914F913F912F910F900BBE25
:100400000F900FBE0F901F9018951F920F920FB66E
:100410000F920BB60F9211242F933F934F935F933C
:100420006F937F938F939F93AF93BF93EF93FF93BC
:1004300020912C0430912D0480912E0490912F0452
:100440002817390731F48091C9008F7D8093C90046
:1004500016C0E0912E04F0912F04E451FC4F40812E
:1004600080912E0490912F04019660E470E00E9428
:100470004A2390932F0480932E044093CE00FF9143
:10048000EF91BF91AF919F918F917F916F915F910C
:100490004F913F912F910F900BBE0F900FBE0F9079
:1004A0001F901895AF92BF92DF92EF92FF920F9339
:1004B0001F93CF93DF93EC017A018B01DD24403051
:1004C00081EE580780E0680780E0780711F0DD24AE
:1004D000D39491E0A92EB12CEC89FD89DD2069F03F
:1004E000C5010E8C02C0880F991F0A94E2F7808321
:1004F00060E079E08DE390E005C0108260E874E888
:100500008EE190E0A80197010E945D2321503040C8
:1005100040405040569547953795279580E12030CB
:10052000380720F0DD2011F0DD24D6CFE889F989E5
:100530003083EA89FB892083EE89FF89408121E0AD
:1005400030E0C9010A8C02C0880F991F0A94E2F7B3
:10055000482B4083EE89FF894081C9010B8C02C082
:10056000880F991F0A94E2F7482B4083EE89FF8990
:100570004081C9010C8C02C0880F991F0A94E2F7D0
:10058000482B4083EE89FF8980810D8C02C0220FA9
:10059000331F0A94E2F7209528232083DF91CF911F
:1005A0001F910F91FF90EF90DF90BF90AF90089553
:1005B000DC011C96ED91FC911D97E05CFF4F2191B1
:1005C000319180819181281B390B2F733070C901C3
:1005D0000895DC011C96ED91FC911D97E05CFF4FA6
:1005E00020813181E054F040DF01AE5BBF4F8D913F
:1005F0009C9111972817390719F42FEF3FEF07C087
:100600008D919C91E80FF91F8081282F30E0C9015E
:100610000895DC011C96ED91FC911D97E05CFF4F65
:1006200020813181E054F040DF01AE5BBF4F8D91FE
:100630009C9111972817390719F42FEF3FEF10C03D
:100640008D919C911197E80FF91F20818D919C91BC
:10065000119701968F73907011969C938E9330E052
:10066000C9010895FC0186859785DC01A05CBF4F18
:10067000FC01EE5BFF4F2D913C91119780819181A0
:1006800028173907C1F70895CF93DF93EC01462F60
:10069000EE85FF85E05CFF4F80819181E054F04062
:1006A000019660E470E00E944A239C01DF01AE5B8A
:1006B000BF4F8D919C91119728173907D1F3E05CBA
:1006C000FF4F80819181E054F040E80FF91F408393
:1006D000EE85FF85E05CFF4F31832083EE89FF8943
:1006E000208181E090E00D8C02C0880F991F0A9450
:1006F000E2F7282B208381E090E0DF91CF910895ED
:100700001F93109233041092320428EE33E040E03D
:1007100050E02093340430933504409336045093D2
:1007200037046EED72E0709331046093300480E220
:1007300093E090933D0480933C0484E693E090938F
:100740003F0480933E0485EC90E0909341048093B5
:10075000400484EC90E0909343048093420480EC46
:1007600090E0909345048093440481EC90E0909352
:1007700047048093460486EC90E09093490480936C
:10078000480414E010934A04B3E0B0934B04A7E08C
:10079000A0934C04F5E0F0934D04E1E0E0934E04A7
:1007A0001092520410925104209353043093540435
:1007B00040935504509356047093500460934F0433
:1007C00088EA93E090935C0480935B048CEE93E062
:1007D00090935E0480935D048DEC90E090936004B0
:1007E00080935F048CEC90E09093620480936104AA
:1007F00088EC90E0909364048093630489EC90E02B
:1008000090936604809365048EEC90E09093680466
:100810008093670410936904B0936A04A0936B04F7
:10082000F0936C04E0936D041F9108958EEE92E0B6
:1008300090936F0480936E04109270041092710470
:10084000109272041092730408958F929F92AF9247
:10085000BF92CF92DF92EF92FF920F931F93CF93AD
:10086000DF934C016B017C01AA24BB24C0E0D0E0E3
:10087000C601F70162814AE050E00E9440058C0108
:10088000C6016EE20E949104080F191FA00EB11E4E
:1008900021960894E11CF11CC330D10549F7C6012B
:1008A000F40165814AE050E00E9440059501280F5F
:1008B000391FC901DF91CF911F910F91FF90EF90E8
:1008C000DF90CF90BF90AF909F908F900895CF9280
:1008D000DF92EF92FF920F931F93CF93DF937C01F0
:1008E0006B018A01C0E0D0E00FC0D6016D916D01AF
:1008F000D701ED91FC910190F081E02DC7010995A0
:10090000C80FD91F015010400115110571F7CE0114
:10091000DF91CF911F910F91FF90EF90DF90CF90DB
:100920000895DC01ED91FC910190F081E02D099595
:100930000895EF92FF920F931F938C01DC01ED91CC
:10094000FC910190F081E02D6DE009957C01D801CA
:10095000ED91FC910190F081E02DC8016AE00995CC
:100960009C012E0D3F1DC9011F910F91FF90EF902B
:100970000895CF93DF93DB010D900020E9F71197E5
:10098000A61BB70BEC01E881F9810280F381E02D11
:10099000AD010995DF91CF9108954F925F927F92BB
:1009A0008F929F92AF92BF92CF92DF92EF92FF927F
:1009B0000F931F93DF93CF93CDB7DEB7A1970FB6F9
:1009C000F894DEBF0FBECDBF2C01742ECB012230B8
:1009D00008F42AE019A231E2C32ED12CCC0EDD1E80
:1009E000822E9924AA24BB24672D752FA50194017A
:1009F0000E945D2379018A01C801B701A501940114
:100A00000E941723472D461B0894C108D1084A307D
:100A100010F4405D01C0495CF6014083E114F1042B
:100A20000105110521F07E2C5F2DC801DDCFC2012B
:100A3000B6010E94B904A1960FB6F894DEBF0FBEAE
:100A4000CDBFCF91DF911F910F91FF90EF90DF907D
:100A5000CF90BF90AF909F908F907F905F904F907E
:100A60000895DC012115310541F4ED91FC910190CF
:100A7000F081E02D642F099508950E94CD0408951A
:100A8000EF92FF920F931F939A01E62EFF2400E04E
:100A900010E0B801A7010E9431051F910F91FF904E
:100AA000EF900895CF92DF92EF92FF920F931F93F2
:100AB000CF93DF93EC016A017B012115310541F4ED
:100AC000E881F9810190F081E02D642F09951FC024
:100AD0002A303105D1F477FF17C0E881F981019000
:100AE000F081E02D6DE209958C0144275527BA016C
:100AF0004C195D096E097F09CE012AE00E94CD04E0
:100B00009801280F391F04C02AE00E94CD049C01DF
:100B1000C901DF91CF911F910F91FF90EF90DF906E
:100B2000CF9008950E94B90408957F928F929F926A
:100B3000AF92BF92CF92DF92EF92FF920F931F93EB
:100B4000CF93DF934C017A018B01722ECB01BA0156
:100B500020E030E040E050E00E94612187FD03C0CA
:100B6000C0E0D0E00EC0D401ED91FC910190F08185
:100B7000E02DC4016DE20995EC0117FB109517F902
:100B8000109520E030E040E05FE3AA240BC0CA01EA
:100B9000B90120E030E040E251E40E9465219B0170
:100BA000AC01A394A71498F3C801B7010E94FD20DB
:100BB0005B016C010E94D2217B018C01C401B80150
:100BC000A7012AE030E00E943105C80FD91F772025
:100BD00039F0C40160E072E00E94B904C80FD91F67
:100BE000C801B7010E94FE219B01AC01C601B501FD
:100BF0000E94FC2024C020E030E040E251E40E944A
:100C0000B4227B018C010E94CD215B016C01CC24BC
:100C1000B7FCC094DC2CC401B601A5012AE030E089
:100C20000E945205C80FD91FC601B5010E940022BB
:100C30009B01AC01C801B7010E94FC207A94772087
:100C4000D1F6CE01DF91CF911F910F91FF90EF90E0
:100C5000DF90CF90BF90AF909F908F907F9008953E
:100C60000E9495050895EF92FF920F931F937C01C8
:100C70000E94B9048C01C7010E949904080F191F32
:100C8000C8011F910F91FF90EF9008958230B9F045
:100C9000833028F4882351F0813051F50AC0843024
:100CA00011F18430E8F0853019F520C010926E0003
:100CB000089580916F008D7F80936F0008958091DB
:100CC00070008D7F8093700081E08093B0008091F0
:100CD000B100887F84608093B1001092B3000895C2
:100CE000109271000895109272000895109273008E
:100CF00008951F93182FA0EDB2E020E231E09FEF9E
:100D00004FEF8C91811719F4F90194914C9311963E
:100D10002F5F3F4FF2E0A63DBF0799F7892F0E9452
:100D20004606812F60E00E940C0A1F9108951F92D1
:100D30000F920FB60F920BB60F9211242F933F9381
:100D40004F935F936F937F938F939F93AF93BF93D3
:100D5000EF93FF938091740490917504A0917604B1
:100D6000B09177040097A105B10551F1E0917804A5
:100D7000F0917904808190917A0489278083809111
:100D8000740490917504A0917604B09177041816BC
:100D900019061A061B06C4F4809174049091750418
:100DA000A0917604B09177040197A109B1098093CD
:100DB000740490937504A0937604B093770404C0F0
:100DC0008091D0020E947906FF91EF91BF91AF917F
:100DD0009F918F917F916F915F914F913F912F9153
:100DE0000F900BBE0F900FBE0F901F9018951F9283
:100DF0000F920FB60F920BB60F9211242F933F93C1
:100E00004F935F936F937F938F939F93AF93BF9312
:100E1000EF93FF9380917B0490917C04892B29F0C0
:100E2000E0917B04F0917C040995FF91EF91BF91D3
:100E3000AF919F918F917F916F915F914F913F9172
:100E40002F910F900BBE0F900FBE0F901F90189513
:100E50001F920F920FB60F920BB60F9211242F9381
:100E60003F934F935F936F937F938F939F93AF9332
:100E7000BF93EF93FF9380917D0490917E04892B23
:100E800029F0E0917D04F0917E040995FF91EF91A6
:100E9000BF91AF919F918F917F916F915F914F9192
:100EA0003F912F910F900BBE0F900FBE0F901F9090
:100EB00018951F920F920FB60F920BB60F92112436
:100EC0002F933F934F935F936F937F938F939F9352
:100ED000AF93BF93EF93FF9380917F049091800431
:100EE000892B29F0E0917F04F09180040995FF910E
:100EF000EF91BF91AF919F918F917F916F915F9192
:100F00004F913F912F910F900BBE0F900FBE0F90FE
:100F10001F9018951F920F920FB60F920BB60F925B
:100F200011242F933F934F935F936F937F938F93EE
:100F30009F93AF93BF93EF93FF9380918104909120
:100F40008204892B29F0E0918104F09182040995B3
:100F5000FF91EF91BF91AF919F918F917F916F9191
:100F60005F914F913F912F910F900BBE0F900FBE4D
:100F70000F901F9018951F920F920FB60F920BB6FD
:100F80000F9211242F933F934F935F936F937F930F
:100F90008F939F93AF93BF93EF93FF9380918304BD
:100FA00090918404892B29F0E0918304F0918404CA
:100FB0000995FF91EF91BF91AF919F918F917F9193
:100FC0006F915F914F913F912F910F900BBE0F90BA
:100FD0000FBE0F901F9018951F920F920FB60F9291
:100FE0000BB60F9211242F933F934F935F936F9300
:100FF0007F938F939F93AF93BF93EF93FF938091D2
:10100000850490918604892B29F0E0918504F09164
:1010100086040995FF91EF91BF91AF919F918F91B8
:101020007F916F915F914F913F912F910F900BBEE8
:101030000F900FBE0F901F901895009711F00E940F
:10104000982008950E94982008950E94EB1F08950B
:101050000E94EB1F08951F920F920FB60F9211245A
:101060002F933F938F939F93AF93BF9380918F0460
:1010700090919004A0919104B091920430919304C6
:101080000196A11DB11D232F2D5F2D3720F02D5767
:101090000196A11DB11D2093930480938F0490931A
:1010A0009004A0939104B093920480918B0490914A
:1010B0008C04A0918D04B0918E040196A11DB11DE8
:1010C00080938B0490938C04A0938D04B0938E0432
:1010D000BF91AF919F918F913F912F910F900FBE34
:1010E0000F901F9018958FB7F89420918F0430912E
:1010F000900440919104509192048FBFB901CA01AC
:1011000008959FB7F89420918B0430918C044091FE
:101110008D0450918E0486B5A89B06C08F3F21F0A8
:101120002F5F3F4F4F4F5F4F9FBF542F432F322FA3
:101130002227280F311D411D511D82E0220F331F30
:10114000441F551F8A95D1F7B901CA010895EF923E
:10115000FF920F931F93CF93DF937B018C010E942B
:101160008108EB010EC00E9481086C1B7D0B685E3C
:101170007340C8F30894E108F10801091109C85146
:10118000DC4FE114F1040105110569F7DF91CF91FE
:101190001F910F91FF90EF900895789484B582602D
:1011A00084BD84B5816084BD85B5826085BD85B50B
:1011B000816085BDEEE6F0E0808181608083E1E8BA
:1011C000F0E01082808182608083808181608083F2
:1011D000E0E8F0E0808181608083E1EBF0E08081F5
:1011E00084608083E0EBF0E0808181608083E1E9CE
:1011F000F0E0808182608083808181608083E0E98B
:10120000F0E0808181608083E1EAF0E080818260AB
:101210008083808181608083E0EAF0E0808181606A
:101220008083E1E2F1E0808182608083808181605F
:101230008083E0E2F1E0808181608083EAE7F0E092
:1012400080818460808380818260808380818160EE
:101250008083808180688083ECE7F0E08081806417
:1012600080831092C1000895382F8E3008F03E50D0
:1012700020917B00832F86958695869590E08170DE
:10128000907043E0880F991F4A95E1F7277F282B3C
:1012900020937B0037708091D6028295880F880F4B
:1012A000807C832B80937C0080917A008064809383
:1012B0007A0080917A0086FDFCCF209178004091E1
:1012C0007900942F80E030E0282B392BC901089554
:1012D000482F50E0CA018E559E4FFC01249147577C
:1012E0005E4FFA0184918823C1F0E82FF0E0EE0F01
:1012F000FF1FE55CFE4FA591B491662341F49FB7B3
:10130000F8948C91209582238C939FBF08959FB76A
:10131000F8948C91822B8C939FBF0895893009F4A7
:101320004FC08A30A0F4843081F1853040F482309F
:10133000C9F1833030F5813009F06DC030C087309D
:10134000A9F18830B8F5853009F065C022C08D302C
:1013500009F448C08E3028F48B30D1F18C30F0F590
:1013600033C0803109F448C0813120F48E3009F057
:1013700052C03CC0813109F443C0823109F04BC0F6
:1013800045C0809180008F7707C0809180008F7D5D
:1013900003C080918000877F80938000089584B58A
:1013A0008F7702C084B58F7D84BD08958091B00091
:1013B0008F7703C08091B0008F7D8093B000089537
:1013C000809190008F7707C0809190008F7D03C03F
:1013D00080919000877F8093900008958091A00075
:1013E0008F7707C08091A0008F7D03C08091A000FF
:1013F000877F8093A0000895809120018F7703C09C
:10140000809120018F7D809320010895809120019B
:10141000877F809320010895FF920F931F93F62EEC
:10142000482F50E0CA0185549E4FFC012491CA0107
:101430008E559E4FFC01149147575E4FFA0104915F
:101440000023C9F0222319F0822F0E948E09E02F79
:10145000F0E0EE0FFF1FEB5AFE4FA591B4919FB73E
:10146000F894FF2021F48C911095812302C08C9177
:10147000812B8C939FBF1F910F91FF9008957093C4
:101480001E0660931D06089570931B0660931A064E
:1014900010921606672B19F081E0809316060895C6
:1014A000CF93DF93582F409314068091150688231D
:1014B00009F044C080919405583030F4C82FD0E032
:1014C000462FCB01DC0135C0C82FD0E097E0252F97
:1014D00030E02250304015C080919305E82FF0E0B5
:1014E0003196AF014F77507031974C175D0771F10E
:1014F000ED5EFA4FA60FB71F8C9180834093930542
:101500009F5FA92FB0E0A217B30734F31FC08091EB
:101510009305E82FF0E031969F012F7730703197D7
:101520002C173D0799F0ED5EFA4F8D918083209343
:1015300093058A2F841B851750F308C0E091180685
:10154000F0911906852F09959C0102C023E135E031
:10155000C901DF91CF9108958091940580939305FF
:1015600008959091940580919305891719F42FEFB0
:101570003FEF0CC0892F90E0FC01ED5EFA4F208117
:1015800001968F7790708093940530E0C90108959B
:101590008091930590E080589F4F20919405821B85
:1015A000910960E870E00E944A2308959C018091AF
:1015B0001606882331F0E0911A06F0911B06C90146
:1015C00009951092170608951F93CF93DF93162F56
:1015D000EA0184E994E06FE70E94210D209781F0F1
:1015E00020E030E0F901EB56FA4FDE01A20FB31F05
:1015F0008C9180832F5F3F4F2730310599F714C0BE
:1016000081E08093950580E8809396051092970578
:1016100081E18093980582E28093990583E380932A
:101620009A0584E480939B0580E090E0612F70E050
:101630000E94A90C82E00E94E50B569A559A5E988A
:101640005D98DF91CF911F91089540E050E00E9496
:10165000E40A089510921E0610921D0610922006AC
:1016600010921F0680E59AE00E945A0B86ED9AE0E0
:101670000E945F0B08958CE196E00E942A0B08956A
:10168000E0911D06F0911E06309709F00995089526
:10169000E0912106F0912206309711F00995BC01E6
:1016A000CB010895E0912306F0912406309709F0CC
:1016B00009950895909322068093210608959093AA
:1016C00024068093230608951F920F920FB60F925F
:1016D0000BB60F9211242F933F934F935F936F9309
:1016E0007F938F939F93AF93BF93EF93FF935E9AF4
:1016F00086E00E946E0D8093C307FF91EF91BF912A
:10170000AF919F918F917F916F915F914F913F9199
:101710002F910F900BBE0F900FBE0F901F9018953A
:101720001F93DF93CF930F92CDB7DEB786E060E8CB
:1017300047E00E94740D182F80912A0690912B0685
:1017400060912C06AE014F5F5F4F0E94930D8F7723
:1017500060912A0670912B0620E0112309F421E004
:1017600049810E94480B90932B0680932A060F9084
:10177000CF91DF911F9108951F920F920FB60F9294
:101780000BB60F9211242F933F934F935F936F9358
:101790007F938F939F93AF93BF93EF93FF935E9845
:1017A0000E94900BFF91EF91BF91AF919F918F910C
:1017B0007F916F915F914F913F912F910F900BBE51
:1017C0000F900FBE0F901F901895CF92DF92FF924F
:1017D0000F931F93DF93CF9300D00F92CDB7DEB757
:1017E000F82E82E0F81689F08F1530F0FF20F1F026
:1017F00081E0F816C1F40BC084E0F81651F0F81639
:1018000050F085E0F81679F408C086E010C089E051
:101810000EC086E10CC089E10AC088E08A8383E0BB
:10182000898311E007C084E00E94400B88E08A832E
:10183000898310E080912806853059F41123A1F5A1
:10184000809139018D7F8093390180ED97E0019778
:10185000F1F7298182E06FE140E00E94810D0CE800
:1018600030E8C32ED12C81E06FE140E00E94740D7E
:101870008B839A818B81981739F0C6010197F1F714
:10188000002311F00150EFCF9A818B81981719F046
:1018900081E00E94400B112329F080913901826080
:1018A00080933901F09228060F900F900F90CF91FE
:1018B000DF911F910F91FF90DF90CF9008951F92BD
:1018C0000F920FB60F920BB60F9211242F933F93E6
:1018D0004F935F936F937F938F939F93AF93BF9338
:1018E000EF93FF935D9880912806813019F480E092
:1018F00090E016C08330D1F482E060EE45E00E94B3
:10190000740D833029F0833028F0853039F404C019
:1019100081E005C080E003C082E001C083E090E088
:101920000E94520B809129060E94E50BFF91EF91D6
:10193000BF91AF919F918F917F916F915F914F91E7
:101940003F912F910F900BBE0F900FBE0F901F90E5
:1019500018950F931F93CF93DF93162F072F843083
:10196000C9F1853058F4813009F466C0813090F0B7
:101970008230F1F0833009F05CC037C0863009F462
:101980003FC08630C0F1873009F442C0883009F08A
:1019900050C04BC0862F8B50803108F04AC088E081
:1019A0006FE140E0212F0E94810D1093250644C075
:1019B000E62FEF5EE53108F03CC060932606F0E0CC
:1019C000EA5DFE4FE081F0E0E49185E06FE040E009
:1019D0002E2F08C0643068F56093270688E060E623
:1019E00045E0212F0E94810D27C060932906862F94
:1019F0000E94E50B21C082E20E94680D83E204C0D0
:101A000080E20E94680D81E2602F0E94680D14C080
:101A1000862F972F9C01E90114E2812F69910E9482
:101A2000680D1F5F1C32C9F707C0862F0E94640D26
:101A300003C082E00E94400BDF91CF911F910F9174
:101A4000089590932B0680932A0660932C0680912C
:101A500039018E7F80933901809139018D7F809388
:101A6000390188E190E00197F1F7809139018160B7
:101A7000809339018EE060E00E94680D8FE00E9443
:101A80006E0D82E06FE140E028E00E94810D88EF5A
:101A900097E00197F1F781E06FE140E00E94740D5B
:101AA000883019F081E00E94400B84E060E245E05C
:101AB00021E00E94810D8EE06CE40E94680D10927E
:101AC0002806109229060895833309F08FEF0895B0
:101AD000E82FF0E0E05CFE4F60830895E82FF0E02F
:101AE000E05CFE4F80810895E82FF0E0E05CFE4F5F
:101AF0008081862390E002C0959587954A95E2F70C
:101B00000895E82FF0E0E05CFE4F30E002C0220FC5
:101B1000331F4A95E2F7962F9223609580818623A2
:101B2000982B90830895FF920F931F93CF93DF9389
:101B3000EA01F0907B01F61608F46F2D062F10E0F5
:101B400060E871E0402F50E00E94F32000581E4FE3
:101B5000F801808188838F2DDF91CF911F910F91A4
:101B6000FF900895982F413210F040E030C08091EE
:101B70002D068823E1F781E080932D068FEF809377
:101B80009806109253064150409354064F5F990FA8
:101B9000916090932E0685EE8093BC0080912D0677
:101BA0008130E1F380915306841710F4409153067D
:101BB00020E030E00AC0FB01E20FF31FD901AD5C69
:101BC000B94F8C9180832F5F3F4F2417A0F3842F50
:101BD00008951F93582F122F413210F081E03AC020
:101BE00080912D068823E1F782E080932D068FEF08
:101BF000809398061092530640935406A3E3B6E0F0
:101C0000FB0102C081918D938E2F861B8417D0F328
:101C1000852F90E0880F991F80932E0685EE809384
:101C2000BC00112321F080912D068230E1F38091D8
:101C300098068F3F11F480E00DC0809198068032A5
:101C400011F482E007C080919806803311F084E09F
:101C500001C083E01F910895482F613210F081E0A8
:101C6000089580912D06843011F082E008956093EC
:101C70007606A5E5B6E0842F9C01F90102C08191AA
:101C80008D938E2F841B8617D0F380E008951F92CA
:101C90000F920FB60F920BB60F9211242F933F9312
:101CA0004F935F936F937F938F939F93AF93BF9364
:101CB000EF93FF938091B90090E0887F9070803619
:101CC000910509F4DCC081369105CCF58832910587
:101CD00009F47BC089329105B4F48031910509F48F
:101CE0006FC0813191053CF4009709F431C1089728
:101CF00009F039C165C08831910509F466C0809743
:101D000009F031C17DC08034910509F49FC0813450
:101D1000910544F48033910509F47DC0C89709F01A
:101D200022C184C08035910509F484C088359105AD
:101D300009F491C08834910509F015C198C088391B
:101D4000910509F4FDC089399105ECF488379105B6
:101D500009F495C0893791054CF48836910509F44A
:101D60008EC08037910509F0FEC089C08838910582
:101D700009F4E6C08039910509F487C080389105DF
:101D800009F0F1C082C0803B910509F4B0C0813BED
:101D900091054CF4803A910509F489C0883A91057F
:101DA00009F0E1C0A4C0803C910509F4CDC0883C95
:101DB000910509F4C9C0883B910509F0D4C0ACC0B5
:101DC00080912E068093BB00B9C0909153068091FC
:101DD0005406981768F490915306E92FF0E0ED5CF3
:101DE000F94F80818093BB009F5F90935306A6C0FC
:101DF00085ED8093BC008091BC0084FDFCCFB1C018
:101E000080E28093980685ED8093BC008091BC00B1
:101E100084FDFCCFA6C080E38093980685ED809377
:101E2000BC008091BC0084FDFCCF9BC088E3809304
:101E300098068AC0809153069091BB00E82FF0E08D
:101E4000ED5CF94F90838F5F80935306909153061A
:101E50008091540671C0809153069091BB00E82F89
:101E6000F0E0ED5CF94F90838F5F8093530685ED32
:101E70008093BC008091BC0084FDFCCF72C083E0E5
:101E800080932D061092970659C080919706803254
:101E900008F056C0809197069091BB00E82FF0E0C3
:101EA000E958F94F90838F5F8093970647C08091E0
:101EB0009706803230F4E0919706F0E0E958F94F48
:101EC000108285ED8093BC008091BC0084FDFCCF26
:101ED00010922D0660919706E0913106F09132063E
:101EE00087E796E070E00995109297062DC084E090
:101EF00080932D061092750610927606E0912F06BB
:101F0000F0913006099580917606882329F481E0C6
:101F1000809376061092550690917506E92FF0E0B1
:101F2000EB5AF94F80818093BB009F5F90937506B9
:101F30009091750680917606981710F485EC01C093
:101F400085E88093BC000FC085EC8093BC0009C07D
:101F50001092980685ED8093BC008091BC0084FDB2
:101F6000FCCF10922D06FF91EF91BF91AF919F9101
:101F70008F917F916F915F914F913F912F910F9032
:101F80000BBE0F900FBE0F901F90189510922D064C
:101F900085E161E00E940C0A86E161E00E940C0A82
:101FA000E9EBF0E080818E7F808380818D7F80836C
:101FB00088E48093B80085E48093BC00089581E0B4
:101FC0008093DE066093BB061092DC061092DD065D
:101FD00008952091BA0630E08091B906281B310996
:101FE000C90108954091B9068091BA06481718F0C2
:101FF0002FEF3FEF0AC0E42FF0E0E756F94F808162
:10200000282F30E04F5F4093B906C9010895E09151
:10201000B9068091BA06E81718F0EFEFFFEF06C097
:10202000F0E0E756F94F8081E82FF0E0CF01089506
:1020300008951092E2061092E10688EE93E0A0E087
:10204000B0E08093E3069093E406A093E506B09396
:10205000E60684EF92E09093E0068093DF06089511
:10206000CF92DF92EF92FF920F931F93CF93DF9364
:102070007C016B018A018091DE068823A1F0C0E01B
:10208000D0E00DC0D701ED91FC91D601AC0FBD1F82
:102090000190F081E02DC7016C9109952196C01740
:1020A000D10780F304C0CB01642F0E942C0EC8011D
:1020B000DF91CF911F910F91FF90EF90DF90CF9024
:1020C0000895DF93CF930F92CDB7DEB7FC016983FC
:1020D0008091DE068823C9F08091DD06803238F0D9
:1020E00081E090E09383828320E030E015C080910E
:1020F000DC06E82FF0E0E454F94F998190838F5F7C
:102100008093DC068093DD0605C0CE01019661E078
:102110000E942C0E21E030E0C9010F90CF91DF9199
:1021200008958091BB066CEB76E04091DD0621E0DE
:102130000E94E90D1092DC061092DD061092DE0678
:102140000895413208F040E2862F69E976E00E9466
:10215000B20D1092B9068093BA0608951092B9068E
:102160001092BA061092DC061092DD060E94C60F8D
:1021700008951F920F920FB60F920BB60F92112473
:102180002F933F934F935F936F937F938F939F937F
:10219000AF93BF93EF93FF93E091EF06F091F006BA
:1021A0000995FF91EF91BF91AF919F918F917F9191
:1021B0006F915F914F913F912F910F900BBE0F90B8
:1021C0000FBE0F901F901895FC01A3E0440F551F00
:1021D000661F771FAA95D1F7403080E0580781E04D
:1021E000680780E0780714F481E010C033E075954B
:1021F0006795579547953A95D1F7403080E0580755
:1022000081E0680780E078071CF482E0828339C0AF
:1022100023E075956795579547952A95D1F74030F6
:1022200080E0580781E0680780E0780714F483E0D5
:10223000EDCF92E075956795579547959A95D1F7AB
:10224000403080E0580781E0680780E0780714F4A8
:1022500084E0DCCF82E075956795579547958A9520
:10226000D1F7403080E0580781E0680780E07807C8
:1022700014F485E0CBCF85E082834FEF5FEF60E021
:1022800070E08FB78383F894518340835093870025
:102290004093860083818FBF80918100887F8093E7
:1022A0008100809181009281892B80938100089523
:1022B0001092800020E1209381000E94E410089594
:1022C000FF920F931F938C01F62EBA01FC0120811F
:1022D000318140E050E0882777FD8095982F0E945B
:1022E0001723BAE09695879577956795BA95D1F7B4
:1022F0002FB7F8012383F894FBE0FF1629F47093BD
:1023000089006093880007C03AE0F31621F47093C7
:102310008B0060938A002FBF1F910F91FF9008954B
:10232000CF92DF92FF920F931F93CF93DF93EC0135
:10233000F62E6A01101611061206130624F4B901CE
:10234000A8010E94E4108BE0F81629F4259A8091E8
:102350008000806807C08AE0F81631F4269A8091E0
:102360008000806280938000CE016F2DA6010E94C4
:102370006011809181009A81892B80938100DF9187
:10238000CF911F910F91FF90DF90CF9008951F92F2
:102390000F920FB60F920BB60F9211242F933F930B
:1023A0004F935F936F937F938F939F93AF93BF935D
:1023B000EF93FF93E091F306F091F4060995FF91F6
:1023C000EF91BF91AF919F918F917F916F915F91AD
:1023D0004F913F912F910F900BBE0F900FBE0F901A
:1023E0001F901895FC01A3E0440F551F661F771F2F
:1023F000AA95D1F7403080E0580781E0680780E077
:10240000780714F481E010C033E07595679557950F
:1024100047953A95D1F7403080E0580781E068074A
:1024200080E078071CF482E0808339C023E0759552
:102430006795579547952A95D1F7403080E0580722
:1024400081E0680780E0780714F483E0EDCF92E044
:1024500075956795579547959A95D1F7403080E0E7
:10246000580781E0680780E0780714F484E0DCCF47
:1024700082E075956795579547958A95D1F74030D5
:1024800080E0580781E0680780E0780714F485E071
:10249000CBCF85E080834FEF5FEF60E070E08FB7D8
:1024A0008183F89450939700409396008FBF80915A
:1024B0009100887F80939100809191009081892B79
:1024C0008093910008951092900020E12093910054
:1024D0000E94F21108950F931F93CF93DF93EC01A5
:1024E0008B01121613061406150624F4BA01A9016D
:1024F0000E94F2111B830A8381E080937100809116
:1025000091009881892B80939100DF91CF911F9149
:102510000F9108950F931F93CF93DF93FC01838D49
:10252000A685B7859585082F027081FF05C08C911F
:10253000892309F454C004C08C91892309F04FC049
:102540008389948920E001972FEF8F3F9207D9F775
:10255000C589D689A685B785758560E031E040E0FC
:1025600050E010E0CE01212F01972FEF8F3F92070F
:10257000D9F78C91872311F0632B03C0832F8095AB
:102580006823330F4F5F5F4F4830510559F78789F4
:10259000908D20E001972FEF8F3F9207D9F701111F
:1025A0006095809137072091380790E001968F73EE
:1025B000907030E08217930779F0E0913707F0E0F0
:1025C000E950F94F60838091370790E001968F734F
:1025D00090708093370703C0838D8160838FDF9174
:1025E000CF911F910F9108958091F5069091F60675
:1025F000009711F00E948A1208951F920F920FB651
:102600000F920BB60F9211242F933F934F935F932A
:102610006F937F938F939F93AF93BF93EF93FF93AA
:102620000E94F412FF91EF91BF91AF919F918F9112
:102630007F916F915F914F913F912F910F900BBEC2
:102640000F900FBE0F901F9018951F920F920FB60C
:102650000F920BB60F9211242F933F934F935F93DA
:102660006F937F938F939F93AF93BF93EF93FF935A
:102670000E94F412FF91EF91BF91AF919F918F91C2
:102680007F916F915F914F913F912F910F900BBE72
:102690000F900FBE0F901F9018951F920F920FB6BC
:1026A0000F920BB60F9211242F933F934F935F938A
:1026B0006F937F938F939F93AF93BF93EF93FF930A
:1026C0000E94F412FF91EF91BF91AF919F918F9172
:1026D0007F916F915F914F913F912F910F900BBE22
:1026E0000F900FBE0F901F901895FC0184E093E0AF
:1026F00091838083128280E090E0A0E0B0E0838349
:102700009483A583B68308950F931F93DF93CF938C
:1027100000D000D0CDB7DEB78C01FB018081D8019D
:1027200012968C93228130E040E050E0542F432FEA
:10273000322F2227838190E0A0E0B0E0DC019927CE
:102740008827282B392B4A2B5B2B818190E0A0E036
:10275000B0E0282B392B4A2B5B2B848190E0A0E042
:10276000B0E0B82FAA2799278827282B392B4A2B86
:102770005B2B29833A834B835C8389819A81AB816C
:10278000BC81F80183839483A583B6830F900F9057
:102790000F900F90CF91DF911F910F910895FC0141
:1027A00084E093E0918380830895FC0184E093E0CA
:1027B00091838083CF010E9422080895FC018CE060
:1027C00093E0918380830895FC018CE093E09183F2
:1027D0008083CF010E94220808958EE00E94340970
:1027E0000895FC018CE093E0918380838EE060E0AB
:1027F0000E9468098EE060E00E940C0A0895813012
:10280000910541F46F5F7F4F81F489E397E00E9467
:10281000F1130895892B49F46F5F7F4F31F48CE0F9
:1028200093E090933A0780933907089580E090E011
:102830006FEF7FEF0E94FF13089581E090E06FEF4C
:102840007FEF0E94FF13089588E680933B07089569
:10285000EF92FF920F931F937C019C012F5F3F4FDC
:102860000091D7021091D802FC01808167E442E018
:102870000E94B815F701918180E0228130E0282B79
:10288000392BC9011F910F91FF90EF900895EF929E
:10289000FF920F931F937C019C012F5F3F4F00918C
:1028A000D7021091D802FC0180816FE342E00E94C0
:1028B000B815F701918180E0228130E0282B392B77
:1028C000C9011F910F91FF90EF900895FC01262FF1
:1028D00080816BE646E00E9492160895FC01262F47
:1028E000808167E341E00E94921608950F93FC01F6
:1028F000062F80816BE642E023E00E9448160F918C
:1029000008950F93FC01062F80816CE144E022E0E2
:102910000E9448160F9108950F93FC01062F8081A5
:102920006BE144E022E00E9448160F9108950F9356
:102930001F938C0161E00E947614C80160E00E9440
:102940008C14C80160E00E948114C80160E00E94FC
:1029500066141F910F9108950F93FC01062F80813B
:102960006AE142E023E00E9448160F910895CF9259
:10297000DF92EF92FF920F931F936C018C010F5F18
:102980001F4FE090D702F090D802FC01808165E7EC
:1029900046E026E00E94CC16F60181811F910F913E
:1029A000FF90EF90DF90CF9008950E94B71490E0D1
:1029B000843309F491E0892F0895EF92FF920F93E9
:1029C0001F93CF93DF93EC018D818F5F8D839A8569
:1029D000981710F481E08D832D8181E090E0821BB7
:1029E0009109880F991F880F991FEA81FB81E81BC5
:1029F000F90B80819181A281B381408351836283ED
:102A00007383EE80FF8008851985E40EF51E061F8E
:102A1000171FE81AF90A0A0B1B0BEE82FF820887C0
:102A200019879C818A85981710F49F5F9C832C815D
:102A300030E040E050E0C801B7010E947F23CA01A6
:102A4000B901DF91CF911F910F91FF90EF90089501
:102A5000FC0184E193E091838083828193810097DC
:102A600011F00E941D080895CF93DF93EC0184E1DB
:102A700093E0998388838A819B81009711F00E945B
:102A80001D08CE010E942208DF91CF9108951F9367
:102A9000CF93DF93EC01162F84E193E09983888331
:102AA0001C821E821F82188619861D82862F90E046
:102AB000880F991F880F991F0E9425089B838A837E
:102AC00020E080E090E00AC0EA81FB81E80FF91F76
:102AD00010821182128213822F5F04962117A0F3B5
:102AE0001A87DF91CF911F910895EF92FF920F9374
:102AF0001F93CF93DF93582F162FE42E022FF32E20
:102B00008FED96E0652F0E94DF0F8FED96E0612F2D
:102B10000E946110202F3F2DC901EC0110E006C07A
:102B20008FED96E069910E9461101F5F1E15C0F342
:102B30008FED96E00E94911090E0882309F491E0D7
:102B4000892FDF91CF911F910F91FF90EF90089502
:102B5000DF93CF930F92CDB7DEB7498341E09E015B
:102B60002F5F3F4F0E9475150F90CF91DF91089511
:102B70005F926F927F928F929F92AF92BF92CF920D
:102B8000DF92EF92FF920F931F93CF93DF93F82E74
:102B9000E62E542E690158018FED96E06F2D0E94AC
:102BA000DF0F8FED96E06E2D0E9461108FED96E0A5
:102BB0000E9491108FED96E06F2D0E94DF0F8FED38
:102BC00096E06F2D452D0E94A1100E9473083B01D5
:102BD0004C01E601780100E010E0CE018C19D82EFE
:102BE0008FED96E00E94E90F892B09F442C0A114F1
:102BF000B10459F00E947308661977098809990988
:102C00006E157F058007910730F48FED96E00E94E6
:102C1000F20F8993E2CF0E94730866197709880939
:102C20009909950140E050E0621773078407950702
:102C300058F02D2D332727FD3095852D90E028174E
:102C4000390714F4DD24DA948FED96E00E94911098
:102C50008D2DDF91CF911F910F91FF90EF90DF901D
:102C6000CF90BF90AF909F908F907F906F905F902C
:102C70000895A114B10441F3CECF0F931F93FA012D
:102C8000890141E09F010E94B8151F910F9108959D
:102C9000DF92EF92FF920F931F93DF93CF930F92E8
:102CA000CDB7DEB7E82ED62EF42E122F2091D70204
:102CB0003091D802AE014F5F5F4F0E943D168823CE
:102CC00041F1212F30E04F2D50E04F5F5F4F421B0D
:102CD000530B81E090E002C0880F991F1A95E2F72C
:102CE0000197042E02C0880F991F0A94E2F7202F43
:102CF00030E002C0220F331F4A95E2F7482F40957B
:102D0000598145238223482B49838E2D6D2D0E94A6
:102D1000A8150F90CF91DF911F910F91FF90EF9029
:102D2000DF900895EF92FF920F931F93DF93CF935D
:102D30000F92CDB7DEB7F82EE62E042F122F20917A
:102D4000D7023091D802AE014F5F5F4F0E943D160F
:102D50002981112351F081E090E002C0880F991F72
:102D60000A95E2F7422F482B0AC081E090E002C0AA
:102D7000880F991F0A95E2F7482F4095422349830F
:102D80008F2D6E2D0E94A8150F90CF91DF911F916E
:102D90000F91FF90EF900895CF92DF92EF92FF9204
:102DA0000F931F93DF93CF930F92CDB7DEB7C42E4F
:102DB000D22E9701AE014F5F5F4F0E943D16682FE4
:102DC000882309F18D2D90E04C2D50E04F5F5F4F2F
:102DD000481B590B21E030E002C0220F331FDA9468
:102DE000E2F721503040042E02C0220F331F0A9414
:102DF000E2F78981822390E002C0959587954A95F4
:102E0000E2F7F8018083862F0F90CF91DF911F9119
:102E10000F91FF90EF90DF90CF9008958EE1809317
:102E20004A0708950F931F93CF93DF93EC019C0102
:102E30002F5F3F4F0091D7021091D80288816AE03E
:102E400043E00E94B815833061F48981883449F4E5
:102E50008A81843331F440E08B81833319F441E07B
:102E600001C040E0842FDF91CF911F910F91089511
:102E70000F931F93CF93DF93EC018B0180E090E0E1
:102E8000A0E0B0E089A79AA7ABA7BCA7B8018827A4
:102E900077FD8095982F0E940022609354077093CD
:102EA00055078093560790935707B80117FF04C042
:102EB00066277727601B710BC8010E944A23609325
:102EC0005807FE01E75BFF4F80819181C55BDF4FB3
:102ED00099838883CB54D040772767FD709588E825
:102EE00093E19C01629FC001639F900D729F900DC2
:102EF000112498878F8382E090E091838083DF9113
:102F0000CF911F910F910895FC0180E090E0A0E027
:102F1000B0E085A796A7A7A7B0AB81AB92ABA3AB58
:102F2000B4ABE85BFF4F1082E854F040818192819E
:102F300090878783E75BFF4F81E090E091838083F8
:102F40000895FC01E95BFF4F21E021932083E854C1
:102F5000F040818192819087878380E590E094871B
:102F60008387E75BFF4F83E090E091838083E954A0
:102F7000F0408081882309F420830895FC01E95BF7
:102F8000FF4F608308958130910549F46F5F7F4F53
:102F900079F489E597E065E00E9447150895892B4B
:102FA00039F46F5F7F4F21F489E597E00E9428157F
:102FB000089580E090E06FEF7FEF0E94C3170895BF
:102FC00081E090E06FEF7FEF0E94C3170895CF92EA
:102FD000DF92FF920F931F93DF93CF93CDB7DEB7AE
:102FE0002B970FB6F894DEBF0FBECDBF6C018E01DC
:102FF0000F5F1F4FC80164E60E944715FF2461E080
:1030000070E080E090E00E94A7088BE397E00E94C8
:103010004714AC01662757FD6095762FC8010E94C2
:10302000DD14F39424E6F21651F7F60174836383FA
:10303000C8010E9428152B960FB6F894DEBF0FBE6C
:10304000CDBFCF91DF911F910F91FF90DF90CF9077
:103050000895CF92DF92FF920F931F93DF93CF9348
:10306000CDB7DEB72B970FB6F894DEBF0FBECDBF3E
:103070006C018E010F5F1F4FC80164E60E94471567
:10308000FF2461E070E080E090E00E94A7088BE3FD
:1030900097E00E942814AC01662757FD6095762FB3
:1030A000C8010E94DD14F39424E6F21651F7F601EC
:1030B00072836183C8010E9428152B960FB6F8947D
:1030C000DEBF0FBECDBFCF91DF911F910F91FF905B
:1030D000DF90CF900895CF93DF93EB0161157105D9
:1030E00031F084E06130780710F0C0E0D4E08091E6
:1030F000B9079091BA07C817D90731F08BEE96E05F
:103100006AE0AE010E946011D093BA07C093B9077C
:10311000DF91CF910895CF93DF93EB016115710596
:1031200031F084E06130780710F0C0E0D4E08091A5
:10313000BB079091BC07C817D90731F08BEE96E01A
:103140006BE0AE010E946011D093BC07C093BB0737
:10315000DF91CF910895EF92FF920F931F938C010F
:103160008CE6E82E87E0F82EC7010E942918C701D7
:103170000E94E7170E9473086093640770936507C5
:103180008093660790936707F80181819281908709
:103190008783075B1F4FF801118210821F910F91E7
:1031A000FF90EF900895CF93DF93EC0188818823FF
:1031B00009F48CC08091D902882371F01092BD0768
:1031C0000E9473086093BE077093BF078093C00787
:1031D0009093C1071092D9020E9473089B01AC0121
:1031E0008091BE079091BF07A091C007B091C10721
:1031F000281B390B4A0B5B0B8091BD07823041F1D4
:10320000833030F4882351F0813009F05FC013C05F
:10321000833051F1843009F059C04AC02C5D3540EB
:103220004040504008F452C0CE016AE570E00E9470
:10323000381781E03AC0285B3B404040504008F4DA
:1032400045C0CE016AE570E00E94381782E02DC0CB
:103250002459314140405040C8F1CE016AE570E048
:103260000E94381783E021C020573741404050402A
:1032700068F180E090E0A0E0B0E08DA79EA7AFA746
:10328000B8AB89AB9AABABABBCABC85BDF4F1882BA
:10329000C854D04089819A8198878F83C75BDF4F5C
:1032A00081E090E09983888384E08093BD070EC01D
:1032B0001092BD071092BE071092BF071092C00770
:1032C0001092C10781E08093D9021882DF91CF91DB
:1032D00008954F925F926F927F928F929F92AF92DA
:1032E000BF92CF92DF92EF92FF920F931F93CF93F3
:1032F000DF93EC0178948BE397E00E9428149C8F75
:103300008B8F8091680790916907A0916A07B091AF
:103310006B070196A11DB11D809368079093690703
:10332000A0936A07B0936B07CE010E94D31829E4DB
:10333000622E712C6C0E7D1EF30180819181823092
:10334000910509F48FC08330910534F40097D1F0D2
:10335000019709F0E9C04AC08330910581F00497D4
:1033600009F0E2C0C85BDF4F18821A92C754D04000
:103370001E821D821E861D86188A1F86D5C08D81DD
:103380009E812FC00E9473082091640730916507C9
:103390004091660750916707621B730B840B950B76
:1033A000615D77408040904020F0CE010E94A117DF
:1033B000BBC08D819E810A969E838D838536910543
:1033C00034F0C95BDF4F81E08883C754D0408D81E2
:1033D0009E8123E0893E920714F088EE93E09E835D
:1033E0008D839E878D87988B8F879EC08D819E81D0
:1033F000889797FF02C080E090E09E838D8389E3E9
:1034000097E00E94ED13AC0160E070E089E597E081
:103410000E94DD1478A76FA38D819E81892B41F4D2
:10342000C75BDF4F84E090E099838883C954D04024
:103430008FA198A54997803B910540F0C75BDF4F6E
:1034400084E090E099838883C954D0408D819E8127
:103450008C5291400CF068C0C95BDF4F1882C75492
:10346000D04062C06B8D7C8D89809A806819790903
:10347000882777FD8095982F0E9400222DA93EA9CC
:103480004FA958AD0E94B42220E030E04AE754E44E
:103490000E94B42220E030E040E058E30E94B422D1
:1034A00029A53AA54BA55CA50E94FD205B016C01F6
:1034B00069A77AA78BA79CA760915807772767FD14
:1034C0007095872F972F0E9400227B018C016091BD
:1034D0005407709155078091560790915707A601A0
:1034E00095010E94FC209B01AC01C801B7010E941C
:1034F000B42220E030E040E050E00E9461218823C7
:103500009CF480E090E0A0E0B0E089A79AA7ABA788
:10351000BCA798868F82C55BDF4F88819981CB5489
:10352000D040F30191838083C85BDF4F8881C8540A
:10353000D040882309F46FC08FA198A5893C9105DC
:1035400024F084E190E098A78FA389E397E00E949C
:10355000ED13AC0160E070E089E597E00E94DD14B6
:103560009B0178A76FA38B859C85AC01421B530BF5
:103570007C010027F7FC0095102F3901882477FC87
:103580008094982C9DE3492E512C4C0E5D1E1416F0
:1035900015063CF4CD5BDF4FA880B980C354D04002
:1035A00006C0CB5BDF4FA880B980C554D040C801AE
:1035B000B7010E9400226B017C01C401B3010E948B
:1035C00000228B019C01C501B701A6010E94D51DF7
:1035D000F2016083718382839383FE01FD96608193
:1035E00071818281938120E030E84BE354E40E94B2
:1035F000FD200E94CD217E836D83F3E0693E7F072D
:1036000014F068EE73E022E06835720714F468E5A0
:1036100072E07E836D83C95BDF4F8881C754D040E1
:10362000882309F441C0CF5BDF4FA880B980C15423
:10363000D0406F817885882777FD8095982F0E94EC
:1036400000226B017C016B8D7C8D882777FD809536
:10365000982F0E9400228B019C01C501B701A60191
:103660000E94D51D7B018C0169AF7AAF8BAF9CAFF7
:103670006D817E81882777FD8095982F0E9400229A
:103680005B016C01A80197010E94FC200E94CD21E2
:103690007E876D87C601B501A80197010E94FD20B4
:1036A0000E94CD21788B6F876D857E85CE010E942B
:1036B0008B186F857889CE010E946B18DF91CF91AE
:1036C0001F910F91FF90EF90DF90CF90BF90AF9040
:1036D0009F908F907F906F905F904F900895809112
:1036E0005207909153070E94691908952F923F92B3
:1036F0004F925F926F927F928F929F92AF92BF9202
:10370000CF92DF92EF92FF920F931F93DF93CF93AD
:1037100000D000D000D0CDB7DEB73C0187E490E008
:10372000680E791ED3011D923D011C92E8EBFFEF5C
:103730006E0E7F1ED30112961C921E921197149644
:103740001C921E9213971A961C921E921997189605
:103750001C921E9217978AE097EDA3E2BCE3F30157
:1037600085AB96ABA7ABB0AF168215820F2EF0E0FB
:103770002F2EF0E03F2EF0E04F2EF0E05F2EF02DE8
:10378000D301D9962D923D924D925C92DC971E9674
:103790001C921E921D9750961C921E921F975C962B
:1037A0001C921E925B9798961C921E92979723A24A
:1037B00034A245A256A299962D923D924D925C92CA
:1037C0009C9725A636A647A650AAD1962D923D9243
:1037D0004D925C92D4978EE290E00E9428088D83EF
:1037E0009E83EDB7FEB73C970FB6F894FEBF0FBEB1
:1037F000EDBF3196D301D5962D913D914D915C91C0
:10380000D897ADB7BEB711962D933D934D935C936A
:10381000149780E090E0A8E4B3E484839583A683C2
:10382000B78380E090E0A8E4B3EC80879187A2871B
:10383000B3878D819E814DEC5CEC6CE47EE392015C
:103840008101720161010F2EF0E08F2EF0E09F2EBA
:10385000F8E4AF2EF3E4BF2EF02D0E94791DF301A2
:10386000EF5BFF4F9D819083AE81A183EDB7FEB7E3
:103870003C960FB6F894FEBF0FBEEDBF8EE290E00F
:103880000E9428088B839C838DB79EB70C970FB638
:10389000F8949EBF0FBE8DBFEDB7FEB73196D30132
:1038A000D5962D913D914D915C91D897ADB7BEB70E
:1038B00011962D933D934D935C93149780E090E087
:1038C000AAE7B3E484839583A683B78380E090E07E
:1038D000A8E4B3EC80879187A287B3878B819C8112
:1038E00040E050E060E071E4920181010E94791DA6
:1038F000F301ED5BFF4F9B819083AC81A183EDB71A
:10390000FEB73C960FB6F894FEBF0FBEEDBF8EE239
:1039100090E00E94280889839A838DB79EB70C9700
:103920000FB6F8949EBF0FBE8DBFEDB7FEB73196B0
:10393000D301D5962D913D914D915C91D897ADB71E
:10394000BEB711962D933D934D935C9314972482AB
:1039500035824682578280E090E0A8E4B3EC80870D
:103960009187A287B38789819A8140E050E060E027
:1039700070E4920181010E94791DF301EB5BFF4F1E
:1039800099819083AA81A183F301108289E490E058
:10399000680E791E84E090E0D3018D939D933D01E4
:1039A0008D939C93E5EBFFEF6E0E7F1E8DB79EB758
:1039B0000C960FB6F8949EBF0FBE8DBF8BEE96E0AF
:1039C00044E650E060E070E00E9458118BEE96E013
:1039D0006BE040E050E004E610E020E030E00E94C0
:1039E00090118BEE96E06AE040E050E004E610E0D3
:1039F00020E030E00E94901188E061E00E946809B8
:103A000081E161E00E94680981E160E00E940C0AA6
:103A100081EF96E040E157E260E070E00E946312BF
:103A2000709253076092520781EF96E06FE67BE158
:103A300020E137E240E050E00E946B128FE494E016
:103A400062E072E00E9433068BE397E00E949714D5
:103A50008BE397E061E00E946E148BE397E066E0F1
:103A60000E94AC148BE397E062E00E948C148BE31D
:103A700097E061E00E9481148FE494E06EE172E0CF
:103A80000E9433068BE397E00E94D514882319F433
:103A900060E472E002C06AE572E08FE494E00E94A4
:103AA00033068AE497E00E941217882319F468E726
:103AB00072E002C063E972E08FE494E00E94330692
:103AC00026960FB6F894DEBF0FBECDBFCF91DF9123
:103AD0001F910F91FF90EF90DF90CF90BF90AF902C
:103AE0009F908F907F906F905F904F903F902F901E
:103AF00008958F929F92AF92BF92CF92DF92EF92F2
:103B0000FF920F931F93DF93CF93CDB7DEB7FC01E6
:103B10008CE193E09183808380E090E0A0E0B0E0CE
:103B2000868F978FA0A3B1A382A393A3A4A3B5A3C9
:103B300086A397A3A0A7B1A782A793A7A4A7B5A779
:103B4000428B538B648B758B068B178B208F318F39
:103B5000C28ED38EE48EF58E82829382A482B58249
:103B60008F859889A989BA8986839783A087B18729
:103B70008B899C89AD89BE8982879387A487B58705
:103B80008F89988DA98DBA8D86879787A08BB18BE9
:103B9000CF91DF911F910F91FF90EF90DF90CF9029
:103BA000BF90AF909F908F9008956F927F928F9269
:103BB0009F92AF92BF92CF92DF92EF92FF920F93BC
:103BC0001F93CF93DF93EC01CB01BA01A9019801B8
:103BD0000E94FC207B018C016EA37FA388A799A77C
:103BE0000E94CD219B0177FF03C0309521953F4F67
:103BF000B901882777FD8095982F0E9400222A819D
:103C00003B814C815D810E94B0221816A4F4C8014A
:103C1000B7012E813F81488559850E94B4229B01BE
:103C2000AC016AA17BA18CA19DA10E94FD206AA389
:103C30007BA38CA39DA36EA17FA188A599A52E8DA2
:103C40003F8D48A159A10E94FC202E813F814885CB
:103C500059850E9465215B016C016AA77BA78CA72F
:103C60009DA76EA07FA088A499A4C401B3012A894E
:103C70003B894C895D890E94B4227B018C016E894D
:103C80007F89888D998D2AA13BA14CA15DA10E94BD
:103C9000B4229B01AC01C801B7010E94FD207B0149
:103CA0008C01C601B5012A8D3B8D4C8D5D8D0E9426
:103CB000B4229B01AC01C801B7010E94FD207B0129
:103CC0008C01DA84CB84BC84AD842D2D3C2D4B2D0E
:103CD0005A2D0E94B02218162CF48D2D9C2DAB2D40
:103CE000BA2D12C0AE84DF84C888B988C801B70174
:103CF0002A2D3D2D4C2D5B2D0E946121882334F40B
:103D00008A2D9D2DAC2DBB2D7C018D016E8E7F8E5D
:103D100088A299A2B701C801DF91CF911F910F919D
:103D2000FF90EF90DF90CF90BF90AF909F908F90DB
:103D30007F906F900895FC018CE193E091838083E4
:103D40000895FC018CE193E091838083CF010E9470
:103D5000220808956091C20781E068276093C20736
:103D600087E10E940C0A0895FF920F931F93F82E8B
:103D70000FE414E0C8010E949904C80162EB72E0EC
:103D80000E949205C8016F2D4AE050E00E94400554
:103D9000C8010E9499041F910F91FF900895FF920E
:103DA0000F931F93F82E0FE414E0C8010E949904AA
:103DB000C8016BEB72E00E949205C8016F2D4AE0CA
:103DC00050E00E944005C8010E9499041F910F9184
:103DD000FF900895CF93DF93EC018A818F3641F1F4
:103DE000803718F48C3689F505C0843741F0883760
:103DF00061F50AC08CE697E00E94841726C08CE625
:103E000097E00E94AB1821C08CE697E00E94291829
:103E10006B817C818D819E810E94CD217093720780
:103E2000609371078CE697E061E00E94BE170DC0B9
:103E30006B817C818D819E810E94CD219B01AC0193
:103E40008CE697E0B9010E943817DF91CF91089571
:103E5000EF92FF920F931F93DF93CF93CDB7DEB70F
:103E600065970FB6F894DEBF0FBECDBF88E0E82E91
:103E7000F12CEC0EFD1EC7010E9475138CE196E03B
:103E80000E94C80A87300CF451C08FE494E00E946D
:103E900099048FE494E063EC72E00E9492058E0135
:103EA0000F5F1F4F8CE196E00E94B10AF8018193E9
:103EB0008F01EE15FF05B1F7CF01BE016F5F7F4F98
:103EC0000E9484138CE196E00E94AC0A8FE494E097
:103ED0006A850E9491048FE494E068EC72E00E948D
:103EE00092054B855C856D857E858FE494E022E0AC
:103EF00030E00E9430068FE494E00E94990484E050
:103F000093E0988B8F878A85898B8B859C85AD857F
:103F1000BE858A8B9B8BAC8BBD8B8E01015F1F4F47
:103F2000C8010E94EA1EC8010E94CF130E94AA1E67
:103F300064E670E080E090E00E94A708CE01089659
:103F40000E94CF1365960FB6F894DEBF0FBECDBFAB
:103F5000CF91DF911F910F91FF90EF9008950F93F4
:103F60001F9387E161E00E94680987E160E00E9499
:103F70000C0A8FED96E00E94AE108FE494E040E8CA
:103F800055E260E070E00E9452020CE116E0C801C8
:103F90006BE00E94250BC8016FEC7EE10E943F0A96
:103FA000C80164EB7EE10E94440A8CE697E00E941F
:103FB000761B1F910F910895CF93DF930E94CD0838
:103FC0000E94AF1FC3E9D1E00E94281F2097E1F3B0
:103FD0000E949301F9CFCF93DF93BC01823091050A
:103FE00010F462E070E0A091C607B091C707ED0140
:103FF000E0E0F0E040E050E021C088819981861740
:10400000970769F48A819B81309719F093838283A3
:1040100004C09093C7078093C607FE0134C0681799
:10402000790738F44115510519F08417950708F4FC
:10403000AC01FE018A819B819C01E9012097E9F690
:1040400041155105A9F1CA01861B970B049708F485
:10405000BA01E0E0F0E02AC08D919C91119784179D
:104060009507F9F46417750781F412968D919C9168
:104070001397309719F09383828304C09093C707F6
:104080008093C607FD0132964FC0CA01861B970B6D
:10409000FD01E80FF91F6193719302978D939C9333
:1040A00043C0FD01828193819C01D9011097A1F643
:1040B0008091C4079091C507892B41F48091CC026F
:1040C0009091CD029093C5078093C4074091CE0292
:1040D0005091CF024115510541F44DB75EB7809123
:1040E000CA029091CB02481B590B2091C407309112
:1040F000C50724173507B0F4CA01821B930B861736
:10410000970780F0AB014E5F5F4F8417950750F023
:10411000420F531F5093C5074093C407F9016193A1
:10412000719302C0E0E0F0E0CF01DF91CF910895FC
:10413000CF93DF93009709F450C0EC0122971B82C4
:104140001A82A091C607B091C707109709F140E005
:1041500050E0AC17BD0708F1BB83AA83FE01219193
:104160003191E20FF31FAE17BF0779F48D919C9147
:104170001197280F391F2E5F3F4F398328831296DE
:104180008D919C9113979B838A834115510571F4FE
:10419000D093C707C093C60720C012968D919C91FB
:1041A0001397AD01009711F0DC01D3CFFA01D3834F
:1041B000C28321913191E20FF31FCE17DF0769F41B
:1041C00088819981280F391F2E5F3F4FFA01318373
:1041D00020838A819B8193838283DF91CF9108958D
:1041E000F8940C94A023FB01DC0102C001900D9215
:1041F00041505040D8F708955058BB27AA270ED0F9
:1042000075C166D130F06BD120F031F49F3F11F4CD
:104210001EF45BC10EF4E095E7FB51C1E92F77D1A5
:1042200080F3BA17620773078407950718F071F4D3
:104230009EF58FC10EF4E0950B2EBA2FA02D0B0129
:10424000B90190010C01CA01A0011124FF27591BDB
:1042500099F0593F50F4503E68F11A16F040A22FE1
:10426000232F342F4427585FF3CF46953795279552
:10427000A795F0405395C9F77EF41F16BA0B620B51
:10428000730B840BBAF09150A1F0FF0FBB1F661F98
:10429000771F881FC2F70EC0BA0F621F731F841FDB
:1042A00048F4879577956795B795F7959E3F08F001
:1042B000B3CF9395880F08F09927EE0F97958795C0
:1042C0000895D9D008F481E008950CD00FC107D12A
:1042D00040F0FED030F021F45F3F19F0F0C05111F2
:1042E00039C1F3C014D198F39923C9F35523B1F31D
:1042F000951B550BBB27AA2762177307840738F055
:104300009F5F5F4F220F331F441FAA1FA9F333D0B3
:104310000E2E3AF0E0E830D091505040E695001C67
:10432000CAF729D0FE2F27D0660F771F881FBB1F23
:10433000261737074807AB07B0E809F0BB0B802DFD
:10434000BF01FF2793585F4F2AF09E3F510568F049
:10435000B6C000C15F3FECF3983EDCF386957795DD
:104360006795B795F7959F5FC9F7880F911D96954B
:10437000879597F90895E1E0660F771F881FBB1FA7
:10438000621773078407BA0720F0621B730B840B54
:10439000BA0BEE1F88F7E095089504D06894B11128
:1043A000D9C00895BCD088F09F5790F0B92F9927B5
:1043B000B751A0F0D1F0660F771F881F991F1AF030
:1043C000BA95C9F712C0B13081F0C3D0B1E00895F9
:1043D000C0C0672F782F8827B85F39F0B93FCCF37A
:1043E000869577956795B395D9F73EF49095809526
:1043F000709561957F4F8F4F9F4F0895E89409C046
:1044000097FB3EF490958095709561957F4F8F4F07
:104410009F4F9923A9F0F92F96E9BB279395F6951D
:10442000879577956795B795F111F8CFFAF4BB0F9B
:1044300011F460FF1BC06F5F7F4F8F4F9F4F16C0FF
:10444000882311F096E911C0772321F09EE8872F89
:10445000762F05C0662371F096E8862F70E060E045
:104460002AF09A95660F771F881FDAF7880F9695BE
:10447000879597F90895990F0008550FAA0BE0E862
:10448000FEEF16161706E807F907C0F01216130616
:10449000E407F50798F0621B730B840B950B39F456
:1044A0000A2661F0232B242B252B21F408950A26BC
:1044B00009F4A140A6958FEF811D811D089597F9FC
:1044C0009F6780E870E060E008959FEF80EC0895BA
:1044D00000240A94161617061806090608950024E3
:1044E0000A9412161306140605060895092E03945D
:1044F000000C11F4882352F0BB0F40F4BF2B11F4D1
:1045000060FF04C06F5F7F4F8F4F9F4F089557FD2F
:104510009058440F551F59F05F3F71F04795880F31
:1045200097FB991F61F09F3F79F0879508951216C8
:1045300013061406551FF2CF4695F1DF08C0161674
:1045400017061806991FF1CF869571056105089425
:104550000895E894BB2766277727CB0197F908953C
:104560008ADF08F48FEF08950BD0C0CFB1DF28F0B9
:10457000B6DF18F0952309F0A2CFA7CF1124EACF18
:10458000C6DFA0F3959FD1F3950F50E0551F629FB2
:10459000F001729FBB27F00DB11D639FAA27F00D9C
:1045A000B11DAA1F649F6627B00DA11D661F829FC3
:1045B0002227B00DA11D621F739FB00DA11D621FA8
:1045C000839FA00D611D221F749F3327A00D611DC5
:1045D000231F849F600D211D822F762F6A2F1124A7
:1045E0009F5750408AF0E1F088234AF0EE0FFF1FFA
:1045F000BB1F661F771F881F91505040A9F79E3F31
:10460000510570F05CCFA6CF5F3FECF3983EDCF332
:10461000869577956795B795F795E7959F5FC1F76D
:10462000FE2B880F911D9695879597F90895629FA7
:10463000D001739FF001829FE00DF11D649FE00D9A
:10464000F11D929FF00D839FF00D749FF00D659FFB
:10465000F00D9927729FB00DE11DF91F639FB00DFA
:10466000E11DF91FBD01CF0111240895AA1BBB1B39
:1046700051E107C0AA1FBB1FA617B70710F0A61B62
:10468000B70B881F991F5A95A9F780959095BC0183
:10469000CD01089597FB092E07260AD077FD04D097
:1046A000E5DF06D000201AF4709561957F4F0895DC
:1046B000F6F7909581959F4F0895A1E21A2EAA1BB7
:1046C000BB1BFD010DC0AA1FBB1FEE1FFF1FA217C2
:1046D000B307E407F50720F0A21BB30BE40BF50BBF
:1046E000661F771F881F991F1A9469F76095709548
:1046F000809590959B01AC01BD01CF01089597FB7A
:10470000092E05260ED057FD04D0D7DF0AD0001C95
:1047100038F450954095309521953F4F4F4F5F4F5E
:104720000895F6F790958095709561957F4F8F4F1E
:104730009F4F0895EE0FFF1F0590F491E02D09940F
:1047400011E0C6EED1E004C0FE010E949C23229637
:0A475000CA3ED107C9F7F894FFCF65
:10475A002E00496E697469616C697A696E672041D5
:10476A006363656C2F4779726F202E2E2E00546575
:10477A007374696E6720416363656C2F4779726F42
:10478A0020636F6E6E656374696F6E732E2E2E00D2
:10479A004D50553630353020636F6E6E65637469DF
:1047AA006F6E206661696C6564004D505536303510
:1047BA003020636F6E6E656374696F6E2073756304
:1047CA006365737366756C00484D43353838334CEE
:1047DA0020636F6E6E656374696F6E206661696CC3
:1047EA00656400484D43353838334C20636F6E6E2C
:1047FA00656374696F6E2073756363657373667539
:10480A006C005478446F6E653A20004572726F727C
:10481A003A200052783A20003D002000C8070000E4
:10482A00FFFFFFFFFFFF01E8030100000000440350
:10483A006704D8020903E9023203000000002504D4
:10484A000000000061103010E90FF20F0710181075
:10485A0000000000CF13D51300000000DE13E4139C
:10486A000000000028153415000000009B1EA11E40
:00000001FF
