:100000000C94F5000C94CE070C94FF070C941F0180
:100010000C941F010C946C070C943B070C940A077A
:100020000C949D070C94ED130C9415140C943D1432
:100030000C941F010C94AA060C941F010C941F0130
:100040000C941F010C941F010C941F010C941F01B0
:100050000C94A9110C941F010C941F010C943E08E0
:100060000C941F010C9422010C94B8010C941F01F4
:100070000C941F010C941F010C941F010C941F0180
:100080000C941F010C941F010C941F010C94B712C7
:100090000C945B010C9405020C941F010C94370F17
:1000A0000C941F010C941F010C941F010C941F0150
:1000B0000C941F010C941F010C941F010C941F0140
:1000C0000C941F010C941F010C941F010C941F0130
:1000D0000C941F010C941F010C941F010C941F0120
:1000E0000C941F010C941F010C941F010C943E0CE6
:1000F0000C94A10C0C941F010C941F010C94440D42
:100100000C941F010C941F010C941F010C941F01EF
:100110000C941F010C941F010C941F010C941F01DF
:100120000504000201030F0F0F0F0F0E0E0E0D0D31
:100130000C0C0B0A0908070604020000000000244A
:100140000000002A002D00300033000000000000F5
:10015000000000000000000000250000002B002E21
:10016000003100340000000000000000000000002A
:100170000000000000260029002C002F00320000A3
:10018000000000000000000000050505050505054C
:100190000502020202020206060606060602040420
:1001A000040401024020040810801080402008024E
:1001B00001020408102004010220400000000B008E
:1001C000090A000705040300000000000000000009
:1001D00000000000000080031604150C0911091529
:1001E0001015CE17B4180215AD1811241FBECFEF8D
:1001F000D1E4DEBFCDBF13E0A0E0B2E0E0E7F8E479
:1002000000E00BBF02C007900D92AC37B107D9F7E1
:1002100017E0ACE7B3E001C01D92AA3FB107E1F7D8
:1002200011E0C6EED1E004C02297FE010E9427240F
:10023000C63DD107C9F70E9476200C948A210C9400
:10024000000008951F920F920FB60F920BB60F92F7
:1002500011242F933F934F938F939F93EF93FF938B
:100260004091C6002091BC033091BD032F5F3F4FEA
:100270002F7330708091BE039091BF032817390708
:1002800059F0E091BC03F091BD03E458FC4F40836A
:100290003093BD032093BC03FF91EF919F918F9109
:1002A0004F913F912F910F900BBE0F900FBE0F906B
:1002B0001F90189508951F920F920FB60F920BB6CC
:1002C0000F9211242F933F934F938F939F93EF930C
:1002D000FF934091CE0020914404309145042F5F5C
:1002E0003F4F2F7330708091460490914704281738
:1002F000390759F0E0914404F0914504EC5FFB4F5D
:1003000040833093450420934404FF91EF919F91E3
:100310008F914F913F912F910F900BBE0F900FBE79
:100320000F901F901895E091B704F091B804E05C2D
:10033000FF4F8191919120813181821B930B8F73AB
:100340009070892B11F00E942101E091B704F09187
:10035000B804E05CFF4F8191919120813181821B33
:10036000930B8F739070892B11F00E945A0108959E
:100370001F920F920FB60F920BB60F9211242F936C
:100380003F934F935F936F937F938F939F93AF931D
:10039000BF93EF93FF93209100043091010480916B
:1003A0000204909103042817390731F48091C100A9
:1003B0008F7D8093C10016C0E0910204F091030488
:1003C000E054FC4F40818091020490910304019617
:1003D00060E470E00E94F023909303048093020491
:1003E0004093C600FF91EF91BF91AF919F918F9184
:1003F0007F916F915F914F913F912F910F900BBE25
:100400000F900FBE0F901F9018951F920F920FB66E
:100410000F920BB60F9211242F933F934F935F933C
:100420006F937F938F939F93AF93BF93EF93FF93BC
:10043000209188043091890480918A0490918B04E2
:100440002817390731F48091C9008F7D8093C90046
:1004500016C0E0918A04F0918B04E85BFB4F408169
:1004600080918A0490918B04019660E470E00E9470
:10047000F02390938B0480938A044093CE00FF91E5
:10048000EF91BF91AF919F918F917F916F915F910C
:100490004F913F912F910F900BBE0F900FBE0F9079
:1004A0001F901895AF92BF92DF92EF92FF920F9339
:1004B0001F93CF93DF93EC017A018B01DD24403051
:1004C00081EE580780E0680780E0780711F0DD24AE
:1004D000D39491E0A92EB12CEC89FD89DD2069F03F
:1004E000C5010E8C02C0880F991F0A94E2F7808321
:1004F00060E079E08DE390E005C0108260E874E888
:100500008EE190E0A80197010E9403242150304021
:1005100040405040569547953795279580E12030CB
:10052000380720F0DD2011F0DD24D6CFE889F989E5
:100530003083EA89FB892083EE89FF89408121E0AD
:1005400030E0C9010A8C02C0880F991F0A94E2F7B3
:10055000482B4083EE89FF894081C9010B8C02C082
:10056000880F991F0A94E2F7482B4083EE89FF8990
:100570004081C9010C8C02C0880F991F0A94E2F7D0
:10058000482B4083EE89FF8980810D8C02C0220FA9
:10059000331F0A94E2F7209528232083DF91CF911F
:1005A0001F910F91FF90EF90DF90BF90AF90089553
:1005B000DC011C96ED91FC911D97E05CFF4F2191B1
:1005C000319180819181281B390B2F733070C901C3
:1005D0000895DC011C96ED91FC911D97E05CFF4FA6
:1005E00020813181E054F040DF01AE5BBF4F8D913F
:1005F0009C9111972817390719F42FEF3FEF07C087
:100600008D919C91E80FF91F8081282F30E0C9015E
:100610000895DC011C96ED91FC911D97E05CFF4F65
:1006200020813181E054F040DF01AE5BBF4F8D91FE
:100630009C9111972817390719F42FEF3FEF10C03D
:100640008D919C911197E80FF91F20818D919C91BC
:10065000119701968F73907011969C938E9330E052
:10066000C9010895FC0186859785DC01A05CBF4F18
:10067000FC01EE5BFF4F2D913C91119780819181A0
:1006800028173907C1F70895CF93DF93EC01462F60
:10069000EE85FF85E05CFF4F80819181E054F04062
:1006A000019660E470E00E94F0239C01DF01AE5BE4
:1006B000BF4F8D919C91119728173907D1F3E05CBA
:1006C000FF4F80819181E054F040E80FF91F408393
:1006D000EE85FF85E05CFF4F31832083EE89FF8943
:1006E000208181E090E00D8C02C0880F991F0A9450
:1006F000E2F7282B208381E090E0DF91CF910895ED
:100700001F9310928F0410928E0428EE33E040E085
:1007100050E02093900430939104409392045093BE
:10072000930469E373E070938D0460938C048CE709
:1007300093E0909399048093980480EC93E09093D5
:100740009B0480939A0485EC90E090939D048093A1
:100750009C0484EC90E090939F0480939E0480EC32
:1007600090E09093A1048093A00481EC90E090939A
:10077000A3048093A20486EC90E09093A504809358
:10078000A40414E01093A604B3E0B093A704A7E078
:10079000A093A804F5E0F093A904E1E0E093AA0493
:1007A0001092AE041092AD042093AF043093B004C5
:1007B0004093B1045093B2047093AC046093AB04C3
:1007C00084E094E09093B8048093B70488E494E0C4
:1007D0009093BA048093B9048DEC90E09093BC049C
:1007E0008093BB048CEC90E09093BE048093BD0496
:1007F00088EC90E09093C0048093BF0489EC90E073
:100800009093C2048093C1048EEC90E09093C40452
:100810008093C3041093C504B093C604A093C70487
:10082000F093C804E093C9041F91089589E493E00C
:100830009093CB048093CA041092CC041092CD0400
:100840001092CE041092CF0408958F929F92AF928F
:10085000BF92CF92DF92EF92FF920F931F93CF93AD
:10086000DF934C016B017C01AA24BB24C0E0D0E0E3
:10087000C601F70162814AE050E00E9440058C0108
:10088000C6016EE20E949104080F191FA00EB11E4E
:1008900021960894E11CF11CC330D10549F7C6012B
:1008A000F40165814AE050E00E9440059501280F5F
:1008B000391FC901DF91CF911F910F91FF90EF90E8
:1008C000DF90CF90BF90AF909F908F900895CF9280
:1008D000DF92EF92FF920F931F93CF93DF937C01F0
:1008E0006B018A01C0E0D0E00FC0D6016D916D01AF
:1008F000D701ED91FC910190F081E02DC7010995A0
:10090000C80FD91F015010400115110571F7CE0114
:10091000DF91CF911F910F91FF90EF90DF90CF90DB
:100920000895DC01ED91FC910190F081E02D099595
:100930000895EF92FF920F931F938C01DC01ED91CC
:10094000FC910190F081E02D6DE009957C01D801CA
:10095000ED91FC910190F081E02DC8016AE00995CC
:100960009C012E0D3F1DC9011F910F91FF90EF902B
:100970000895CF93DF93DB010D900020E9F71197E5
:10098000A61BB70BEC01E881F9810280F381E02D11
:10099000AD010995DF91CF9108954F925F927F92BB
:1009A0008F929F92AF92BF92CF92DF92EF92FF927F
:1009B0000F931F93DF93CF93CDB7DEB7A1970FB6F9
:1009C000F894DEBF0FBECDBF2C01742ECB012230B8
:1009D00008F42AE019A231E2C32ED12CCC0EDD1E80
:1009E000822E9924AA24BB24672D752FA50194017A
:1009F0000E94032479018A01C801B701A50194016D
:100A00000E94B123472D461B0894C108D1084A30E3
:100A100010F4405D01C0495CF6014083E114F1042B
:100A20000105110521F07E2C5F2DC801DDCFC2012B
:100A3000B6010E94B904A1960FB6F894DEBF0FBEAE
:100A4000CDBFCF91DF911F910F91FF90EF90DF907D
:100A5000CF90BF90AF909F908F907F905F904F907E
:100A60000895DC012115310541F4ED91FC910190CF
:100A7000F081E02D642F099508950E94CD0408951A
:100A8000EF92FF920F931F939A01E62EFF2400E04E
:100A900010E0B801A7010E9431051F910F91FF904E
:100AA000EF900895CF92DF92EF92FF920F931F93F2
:100AB000CF93DF93EC016A017B012115310541F4ED
:100AC000E881F9810190F081E02D642F09951FC024
:100AD0002A303105D1F477FF17C0E881F981019000
:100AE000F081E02D6DE209958C0144275527BA016C
:100AF0004C195D096E097F09CE012AE00E94CD04E0
:100B00009801280F391F04C02AE00E94CD049C01DF
:100B1000C901DF91CF911F910F91FF90EF90DF906E
:100B2000CF900895EF92FF920F931F937B019A014C
:100B30000027F7FC0095102FB801A7010E9452056D
:100B40001F910F91FF90EF9008950E94B9040895AE
:100B50007F928F929F92AF92BF92CF92DF92EF924D
:100B6000FF920F931F93CF93DF934C017A018B0178
:100B7000722ECB01BA0120E030E040E050E00E944C
:100B8000FB2187FD03C0C0E0D0E00EC0D401ED9191
:100B9000FC910190F081E02DC4016DE20995EC011A
:100BA00017FB109517F9109520E030E040E05FE367
:100BB000AA240BC0CA01B90120E030E040E251E4B0
:100BC0000E94FF219B01AC01A394A71498F3C801D4
:100BD000B7010E9497215B016C010E946C227B018E
:100BE0008C01C401B801A7012AE030E00E94310560
:100BF000C80FD91F772039F0C40160E072E00E946D
:100C0000B904C80FD91FC801B7010E9498229B01DF
:100C1000AC01C601B5010E94962124C020E030E05D
:100C200040E251E40E944E237B018C010E94672226
:100C30005B016C01CC24B7FCC094DC2CC401B60170
:100C4000A5012AE030E00E945205C80FD91FC60155
:100C5000B5010E949A229B01AC01C801B7010E9414
:100C600096217A947720D1F6CE01DF91CF911F9112
:100C70000F91FF90EF90DF90CF90BF90AF909F903B
:100C80008F907F9008950E94A8050895EF92FF929B
:100C90000F931F937C010E94B9048C01C7010E942D
:100CA0009904080F191FC8011F910F91FF90EF9031
:100CB00008958230B9F0833028F4882351F08130D0
:100CC00051F50AC0843011F18430E8F0853019F50F
:100CD00020C010926E00089580916F008D7F8093E8
:100CE0006F000895809170008D7F8093700081E087
:100CF0008093B0008091B100887F84608093B100C0
:100D00001092B3000895109271000895109272002D
:100D100008951092730008951F93182FACE2B3E06A
:100D200020E231E09FEF4FEF8C91811719F4F90128
:100D300094914C9311962F5F3F4FF3E0A233BF077E
:100D400099F7892F0E945906812F60E00E941F0A9F
:100D50001F9108951F920F920FB60F920BB60F922C
:100D600011242F933F934F935F936F937F938F93B0
:100D70009F93AF93BF93EF93FF938091D004909193
:100D8000D104A091D204B091D3040097A105B1057C
:100D900051F1E091D404F091D50480819091D60472
:100DA000892780838091D0049091D104A091D204AE
:100DB000B091D304181619061A061B06C4F48091C4
:100DC000D0049091D104A091D204B091D3040197A2
:100DD000A109B1098093D0049093D104A093D204C7
:100DE000B093D30404C080912C030E948C06FF9121
:100DF000EF91BF91AF919F918F917F916F915F9193
:100E00004F913F912F910F900BBE0F900FBE0F90FF
:100E10001F9018951F920F920FB60F920BB60F925C
:100E200011242F933F934F935F936F937F938F93EF
:100E30009F93AF93BF93EF93FF938091D7049091CB
:100E4000D804892B29F0E091D704F091D8040995B2
:100E5000FF91EF91BF91AF919F918F917F916F9192
:100E60005F914F913F912F910F900BBE0F900FBE4E
:100E70000F901F9018951F920F920FB60F920BB6FE
:100E80000F9211242F933F934F935F936F937F9310
:100E90008F939F93AF93BF93EF93FF938091D90468
:100EA0009091DA04892B29F0E091D904F091DA04C9
:100EB0000995FF91EF91BF91AF919F918F917F9194
:100EC0006F915F914F913F912F910F900BBE0F90BB
:100ED0000FBE0F901F9018951F920F920FB60F9292
:100EE0000BB60F9211242F933F934F935F936F9301
:100EF0007F938F939F93AF93BF93EF93FF938091D3
:100F0000DB049091DC04892B29F0E091DB04F09163
:100F1000DC040995FF91EF91BF91AF919F918F9163
:100F20007F916F915F914F913F912F910F900BBEE9
:100F30000F900FBE0F901F9018951F920F920FB633
:100F40000F920BB60F9211242F933F934F935F9301
:100F50006F937F938F939F93AF93BF93EF93FF9381
:100F60008091DD049091DE04892B29F0E091DD046D
:100F7000F091DE040995FF91EF91BF91AF919F91A0
:100F80008F917F916F915F914F913F912F910F9032
:100F90000BBE0F900FBE0F901F9018951F920F92CF
:100FA0000FB60F920BB60F9211242F933F934F93CE
:100FB0005F936F937F938F939F93AF93BF93EF93C1
:100FC000FF938091DF049091E004892B29F0E09158
:100FD000DF04F091E0040995FF91EF91BF91AF918B
:100FE0009F918F917F916F915F914F913F912F9141
:100FF0000F900BBE0F900FBE0F901F9018951F9271
:101000000F920FB60F920BB60F9211242F933F93AE
:101010004F935F936F937F938F939F93AF93BF9300
:10102000EF93FF938091E1049091E204892B29F0E2
:10103000E091E104F091E2040995FF91EF91BF91F5
:10104000AF919F918F917F916F915F914F913F9160
:101050002F910F900BBE0F900FBE0F901F90189501
:10106000009711F00E94322108950E9432210895C4
:101070000E94852008950E94852008951F920F9256
:101080000FB60F9211242F933F938F939F93AF939B
:10109000BF938091EB049091EC04A091ED04B0918A
:1010A000EE043091EF040196A11DB11D232F2D5F99
:1010B0002D3720F02D570196A11DB11D2093EF046F
:1010C0008093EB049093EC04A093ED04B093EE04B2
:1010D0008091E7049091E804A091E904B091EA04BA
:1010E0000196A11DB11D8093E7049093E804A0939D
:1010F000E904B093EA04BF91AF919F918F913F9122
:101100002F910F900FBE0F901F9018958FB7F894E6
:101110002091EB043091EC044091ED045091EE04E9
:101120008FBFB901CA0108959FB7F8942091E704D1
:101130003091E8044091E9045091EA0486B5A89BF7
:1011400006C08F3F21F02F5F3F4F4F4F5F4F9FBF34
:10115000542F432F322F2227280F311D411D511D9F
:1011600082E0220F331F441F551F8A95D1F7B90122
:10117000CA010895EF92FF920F931F93CF93DF93CD
:101180007B018C010E949408EB010EC00E94940820
:101190006C1B7D0B685E7340C8F30894E108F1088E
:1011A00001091109C851DC4FE114F10401051105D1
:1011B00069F7DF91CF911F910F91FF90EF90089504
:1011C000789484B5826084BD84B5816084BD85B522
:1011D000826085BD85B5816085BDEEE6F0E08081E9
:1011E00081608083E1E8F0E010828081826080830A
:1011F000808181608083E0E8F0E08081816080838D
:10120000E1EBF0E0808184608083E0EBF0E08081BE
:1012100081608083E1E9F0E0808182608083808169
:1012200081608083E0E9F0E0808181608083E1EA91
:10123000F0E0808182608083808181608083E0EA49
:10124000F0E0808181608083E1E2F1E08081826072
:101250008083808181608083E0E2F1E08081816031
:101260008083EAE7F0E0808184608083808182600F
:101270008083808181608083808180688083ECE7C7
:10128000F0E08081806480831092C1000895382F3F
:101290008E3008F03E5020917B00832F86958695F6
:1012A000869590E08170907043E0880F991F4A9571
:1012B000E1F7277F282B20937B0037708091320342
:1012C0008295880F880F807C832B80937C0080918F
:1012D0007A00806480937A0080917A0086FDFCCF4A
:1012E0002091780040917900942F80E030E0282B05
:1012F000392BC9010895482F50E0CA018E559E4FE1
:10130000FC01249147575E4FFA0184918823C1F074
:10131000E82FF0E0EE0FFF1FE55CFE4FA591B491C2
:10132000662341F49FB7F8948C91209582238C9387
:101330009FBF08959FB7F8948C91822B8C939FBF89
:101340000895893009F44FC08A30A0F4843081F1C7
:10135000853040F48230C9F1833030F5813009F0B6
:101360006DC030C08730A9F18830B8F5853009F0FC
:1013700065C022C08D3009F448C08E3028F48B300F
:10138000D1F18C30F0F533C0803109F448C081319F
:1013900020F48E3009F052C03CC0813109F443C0C2
:1013A000823109F04BC045C0809180008F7707C023
:1013B000809180008F7D03C080918000877F809323
:1013C0008000089584B58F7702C084B58F7D84BD79
:1013D00008958091B0008F7703C08091B0008F7D19
:1013E0008093B0000895809190008F7707C080911E
:1013F00090008F7D03C080919000877F8093900044
:1014000008958091A0008F7707C08091A0008F7D04
:1014100003C08091A000877F8093A00008958091F1
:1014200020018F7703C0809120018F7D8093200160
:10143000089580912001877F809320010895FF9275
:101440000F931F93F62E482F50E0CA0185549E4FEC
:10145000FC012491CA018E559E4FFC0114914757FF
:101460005E4FFA0104910023C9F0222319F0822F64
:101470000E94A109E02FF0E0EE0FFF1FEB5AFE4F94
:10148000A591B4919FB7F894FF2021F48C91109509
:10149000812302C08C91812B8C939FBF1F910F9150
:1014A000FF90089570937C0660937B060895709377
:1014B00079066093780610927306672B19F081E025
:1014C000809373060895CF93DF93582F409371064E
:1014D00080917206882309F044C08091F00558304D
:1014E00030F4C82FD0E0462FCB01DC0135C0C82F27
:1014F000D0E097E0252F30E02250304015C0809199
:10150000EF05E82FF0E03196AF014F77507031973B
:101510004C175D0771F1E159FA4FA60FB71F8C9177
:1015200080834093EF059F5FA92FB0E0A217B30718
:1015300034F31FC08091EF05E82FF0E031969F0152
:101540002F77307031972C173D0799F0E159FA4FFA
:101550008D9180832093EF058A2F841B851750F38C
:1015600008C0E0917606F0917706852F09959C01D9
:1015700002C02FE635E0C901DF91CF910895809137
:10158000F0058093EF0508959091F0058091EF05A7
:10159000891719F42FEF3FEF0CC0892F90E0FC0161
:1015A000E159FA4F208101968F7790708093F00572
:1015B00030E0C90108958091EF0590E080589F4F79
:1015C0002091F005821B910960E870E00E94F023F1
:1015D000089581E08093740687E0809370060895F3
:1015E0009C0180917306882331F0E0917806F09198
:1015F0007906C9010995109275060895DF93CF9376
:1016000000D0CDB7DEB710927406809170068E5F61
:1016100080937006F8948FEF9FEF9A83898380916F
:1016200075068823A1F089819A8101979A8389831D
:10163000019669F0F4CF809175068823D1F08981F5
:101640009A8101979A838983019699F0F4CF81E07A
:10165000809375060E94CA0C5D9A8091700661EFB6
:1016600075E040E00E946A0C8FEF9FEF9A838983B8
:10167000E2CF82E00E94CA0C1092750678940F9017
:101680000F90CF91DF910895DF93CF9300D0CDB726
:10169000DEB79C01809174068823D1F0809170069A
:1016A0008D3708F04DC0E82FF0E0EF50FA4F60831F
:1016B0008F5F809370068D3709F042C0C9010E9488
:1016C000FE0A81E08093740687E08093700638C03C
:1016D0006093F8051092F9051092FA058FEF9FEFCD
:1016E0009A838983809175068823A1F089819A81E4
:1016F00001979A838983019669F0F4CF80917506EA
:101700008823C9F089819A8101979A8389830196F8
:1017100091F0F4CF81E0809375060E94CA0C5D9A27
:101720008AE061EF75E040E00E946A0C8FEF9FEF66
:101730009A838983E3CF82E00E94CA0C10927506D7
:101740000F900F90CF91DF910895EF92FF920F933A
:101750001F93CF93DF937C01042FEB0110E005C0B2
:10176000C70169910E94440B1F5F1017C8F3DF91F6
:10177000CF911F910F91FF90EF9008951F93CF93FA
:10178000DF93162FEA0180EF94E06FE70E94060EC8
:10179000209781F020E030E0F901EF50FA4FDE01B0
:1017A000A20FB31F8C9180832F5F3F4F27303105ED
:1017B00099F714C081E08093F10580E88093F205E9
:1017C0001092F30581E18093F40582E28093F505A0
:1017D00083E38093F60584E48093F70580E090E04E
:1017E000612F70E00E948E0D82E00E94CA0C569A12
:1017F000559A5E985D98DF91CF911F91089540E0D2
:1018000050E00E94BE0B089510927C0610927B0659
:1018100010927E0610927D0683E69AE00E94340CB8
:1018200080EF9AE00E94390C08958AE796E00E94C2
:10183000040C0895E0917B06F0917C06309709F046
:1018400009950895E0917F06F0918006309711F098
:101850000995BC01CB010895E0918106F0918206C3
:10186000309709F0099508959093800680937F063C
:101870000895909382068093810608951F920F9297
:101880000FB60F920BB60F9211242F933F934F93E5
:101890005F936F937F938F939F93AF93BF93EF93D8
:1018A000FF935E9A86E00E94530E8093F507FF91A6
:1018B000EF91BF91AF919F918F917F916F915F91C8
:1018C0004F913F912F910F900BBE0F900FBE0F9035
:1018D0001F9018950E94970EE9E3F1E080818260E5
:1018E000808380818D7F808308951F93DF93CF93C2
:1018F0000F92CDB7DEB786E060E847E00E94590E50
:10190000182F809188069091890660918A06AE0111
:101910004F5F5F4F0E94780E8F77609188067091BD
:10192000890620E0112309F421E049810E94220C5C
:1019300090938906809388060F90CF91DF911F9135
:1019400008951F920F920FB60F920BB60F921124AB
:101950002F933F934F935F936F937F938F939F93B7
:10196000AF93BF93EF93FF935E980E94750CFF9126
:10197000EF91BF91AF919F918F917F916F915F9107
:101980004F913F912F910F900BBE0F900FBE0F9074
:101990001F901895CF92DF92FF920F931F93DF93C2
:1019A000CF9300D00F92CDB7DEB7F82E82E0F816B5
:1019B00089F08F1530F0FF20F1F081E0F816C1F4C6
:1019C0000BC084E0F81651F0F81650F085E0F816D8
:1019D00079F408C086E010C089E00EC086E10CC032
:1019E00089E10AC088E08A8383E0898311E007C027
:1019F00084E00E941A0C88E08A83898310E0809139
:101A00008606853059F41123A1F5809139018D7F27
:101A10008093390180ED97E00197F1F7298182E009
:101A20006FE140E00E94660E0CE830E8C32ED12C36
:101A300081E06FE140E00E94590E8B839A818B8197
:101A4000981739F0C6010197F1F7002311F0015002
:101A5000EFCF9A818B81981719F081E00E941A0CC0
:101A6000112329F080913901826080933901F0922D
:101A700086060F900F900F90CF91DF911F910F91DD
:101A8000FF90DF90CF9008951F920F920FB60F92A4
:101A90000BB60F9211242F933F934F935F936F9345
:101AA0007F938F939F93AF93BF93EF93FF935D9833
:101AB00080918606813019F480E090E016C0833072
:101AC000D1F482E060EE45E00E94590E833029F0A7
:101AD000833028F0853039F404C081E005C080E00F
:101AE00003C082E001C083E090E00E942C0C809152
:101AF00087060E94CA0CFF91EF91BF91AF919F9111
:101B00008F917F916F915F914F913F912F910F90A6
:101B10000BBE0F900FBE0F901F9018950F931F9341
:101B2000CF93DF93162F072F8430C9F1853058F4F7
:101B3000813009F466C0813090F08230F1F083305A
:101B400009F05CC037C0863009F43FC08630C0F170
:101B5000873009F442C0883009F050C04BC0862F4E
:101B60008B50803108F04AC088E06FE140E0212FBF
:101B70000E94660E1093830644C0E62FEF5EE531A7
:101B800008F03CC060938406F0E0EA5DFE4FE0811F
:101B9000F0E0E49185E06FE040E02E2F08C0643073
:101BA00068F56093850688E060E645E0212F0E9495
:101BB000660E27C060938706862F0E94CA0C21C03C
:101BC00082E20E944D0E83E204C080E20E944D0E2C
:101BD00081E2602F0E944D0E14C0862F972F9C012A
:101BE000E90114E2812F69910E944D0E1F5F1C32A2
:101BF000C9F707C0862F0E94490E03C082E00E94E9
:101C00001A0CDF91CF911F910F910895909389063F
:101C10008093880660938A06809139018E7F809335
:101C20003901809139018D7F8093390188E190E0FD
:101C30000197F1F7809139018160809339018EE03D
:101C400060E00E944D0E8FE00E94530E82E06FE133
:101C500040E028E00E94660E88EF97E00197F1F7D8
:101C600081E06FE140E00E94590E883019F081E078
:101C70000E941A0C84E060E245E021E00E94660EBA
:101C80008EE06CE40E944D0E10928606109287063C
:101C90000895833309F08FEF0895E82FF0E0E05CBA
:101CA000FE4F60830895E82FF0E0E05CFE4F8081F6
:101CB0000895E82FF0E0E05CFE4F8081862390E0FD
:101CC00002C0959587954A95E2F70895E82FF0E0D0
:101CD000E05CFE4F30E002C0220F331F4A95E2F76E
:101CE000962F9223609580818623982B9083089568
:101CF000FF920F931F93CF93DF93EA01F0907B0144
:101D0000F61608F46F2D062F10E060E871E0402F02
:101D100050E00E948D2100581E4FF8018081888379
:101D20008F2DDF91CF911F910F91FF900895482F34
:101D300087FD4FE74093800181E891E050E00E94E9
:101D40008D210895982F413210F040E030C08091ED
:101D50008B068823E1F781E080938B068FEF8093D9
:101D6000F6061092B10641504093B2064F5F990FAC
:101D7000916090938C0685EE8093BC0080918B06D9
:101D80008130E1F38091B106841710F44091B106DF
:101D900020E030E00AC0FB01E20FF31FD901AF568B
:101DA000B94F8C9180832F5F3F4F2417A0F3842F6E
:101DB00008951F93582F122F413210F081E03AC03E
:101DC00080918B068823E1F782E080938B068FEF6A
:101DD0008093F6061092B1064093B206A1E9B6E0F0
:101DE000FB0102C081918D938E2F861B8417D0F347
:101DF000852F90E0880F991F80938C0685EE809345
:101E0000BC00112321F080918B068230E1F3809198
:101E1000F6068F3F11F480E00DC08091F606803207
:101E200011F482E007C08091F606803311F084E05F
:101E300001C083E01F910895482F613210F081E0C6
:101E4000089580918B06843011F082E008956093AC
:101E5000D406A3EBB6E0842F9C01F90102C0819166
:101E60008D938E2F841B8617D0F380E008951F92E8
:101E70000F920FB60F920BB60F9211242F933F9330
:101E80004F935F936F937F938F939F93AF93BF9382
:101E9000EF93FF938091B90090E0887F9070803637
:101EA000910509F4DCC081369105CCF588329105A5
:101EB00009F47BC089329105B4F48031910509F4AD
:101EC0006FC0813191053CF4009709F431C1089746
:101ED00009F039C165C08831910509F466C0809761
:101EE00009F031C17DC08034910509F49FC081346F
:101EF000910544F48033910509F47DC0C89709F039
:101F000022C184C08035910509F484C088359105CB
:101F100009F491C08834910509F015C198C0883939
:101F2000910509F4FDC089399105ECF488379105D4
:101F300009F495C0893791054CF48836910509F468
:101F40008EC08037910509F0FEC089C088389105A0
:101F500009F4E6C08039910509F487C080389105FD
:101F600009F0F1C082C0803B910509F4B0C0813B0B
:101F700091054CF4803A910509F489C0883A91059D
:101F800009F0E1C0A4C0803C910509F4CDC0883CB3
:101F9000910509F4C9C0883B910509F0D4C0ACC0D3
:101FA00080918C068093BB00B9C09091B10680915E
:101FB000B206981768F49091B106E92FF0E0EF5659
:101FC000F94F80818093BB009F5F9093B106A6C0BC
:101FD00085ED8093BC008091BC0084FDFCCFB1C036
:101FE00080E28093F60685ED8093BC008091BC0072
:101FF00084FDFCCFA6C080E38093F60685ED809338
:10200000BC008091BC0084FDFCCF9BC088E3809322
:10201000F6068AC08091B1069091BB00E82FF0E0EF
:10202000EF56F94F90838F5F8093B1069091B10680
:102030008091B20671C08091B1069091BB00E82FEB
:10204000F0E0EF56F94F90838F5F8093B10685EDF6
:102050008093BC008091BC0084FDFCCF72C083E003
:1020600080938B061092F50659C08091F506803258
:1020700008F056C08091F5069091BB00E82FF0E083
:10208000EB52F94F90838F5F8093F50647C08091A4
:10209000F506803230F4E091F506F0E0EB52F94FAE
:1020A000108285ED8093BC008091BC0084FDFCCF44
:1020B00010928B066091F506E0918F06F0919006E4
:1020C00085ED96E070E009951092F5062DC084E04C
:1020D00080938B061092D3061092D406E0918D0661
:1020E000F0918E0609958091D406882329F481E029
:1020F0008093D4061092B3069091D306E92FF0E0B6
:10210000ED54F94F80818093BB009F5F9093D3067D
:102110009091D3068091D406981710F485EC01C0F5
:1021200085E88093BC000FC085EC8093BC0009C09B
:102130001092F60685ED8093BC008091BC0084FD72
:10214000FCCF10928B06FF91EF91BF91AF919F91C1
:102150008F917F916F915F914F913F912F910F9050
:102160000BBE0F900FBE0F901F90189510928B060C
:1021700085E161E00E941F0A86E161E00E941F0A7A
:10218000E9EBF0E080818E7F808380818D7F80838A
:1021900088E48093B80085E48093BC00089581E0D2
:1021A00080933C076093190710923A0710923B07FF
:1021B00008952091180730E080911707281B3109F6
:1021C000C90108954091170780911807481718F022
:1021D0002FEF3FEF0AC0E42FF0E0E950F94F808184
:1021E000282F30E04F5F40931707C9010895E09111
:1021F000170780911807E81718F0EFEFFFEF06C0F8
:10220000F0E0E950F94F8081E82FF0E0CF01089528
:1022100008951092400710923F0788EE93E0A0E0E7
:10222000B0E08093410790934207A0934307B09397
:1022300044078FE493E090933E0780933D07089511
:10224000CF92DF92EF92FF920F931F93CF93DF9382
:102250007C016B018A0180913C078823A1F0C0E0DA
:10226000D0E00DC0D701ED91FC91D601AC0FBD1FA0
:102270000190F081E02DC7016C9109952196C0175E
:10228000D10780F304C0CB01642F0E941C0FC8014A
:10229000DF91CF911F910F91FF90EF90DF90CF9042
:1022A0000895DF93CF930F92CDB7DEB7FC0169831A
:1022B00080913C078823C9F080913B07803238F039
:1022C00081E090E09383828320E030E015C080912C
:1022D0003A07E82FF0E0E65EF84F998190838F5F30
:1022E00080933A0780933B0705C0CE01019661E0D9
:1022F0000E941C0F21E030E0C9010F90CF91DF91C7
:102300000895809119076AE177E040913B0721E049
:102310000E94D90E10923A0710923B0710923C0788
:102320000895413208F040E2862F67EF76E00E9480
:10233000A20E10921707809318070895109217079E
:102340001092180710923A0710923B070E94B6109D
:1023500008951F920F920FB60F920BB60F92112491
:102360002F933F934F935F936F937F938F939F939D
:10237000AF93BF93EF93FF93E0914D07F0914E071A
:102380000995FF91EF91BF91AF919F918F917F91AF
:102390006F915F914F913F912F910F900BBE0F90D6
:1023A0000FBE0F901F901895FC01A3E0440F551F1E
:1023B000661F771FAA95D1F7403080E0580781E06B
:1023C000680780E0780714F481E010C033E0759569
:1023D0006795579547953A95D1F7403080E0580773
:1023E00081E0680780E078071CF482E0828339C0CE
:1023F00023E075956795579547952A95D1F7403015
:1024000080E0580781E0680780E0780714F483E0F3
:10241000EDCF92E075956795579547959A95D1F7C9
:10242000403080E0580781E0680780E0780714F4C6
:1024300084E0DCCF82E075956795579547958A953E
:10244000D1F7403080E0580781E0680780E07807E6
:1024500014F485E0CBCF85E082834FEF5FEF60E03F
:1024600070E08FB78383F894518340835093870043
:102470004093860083818FBF80918100887F809305
:102480008100809181009281892B80938100089541
:102490001092800020E1209381000E94D4110895C1
:1024A000FF920F931F938C01F62EBA01FC0120813D
:1024B000318140E050E0882777FD8095982F0E9479
:1024C000B123BAE09695879577956795BA95D1F738
:1024D0002FB7F8012383F894FBE0FF1629F47093DB
:1024E00089006093880007C03AE0F31621F47093E6
:1024F0008B0060938A002FBF1F910F91FF9008956A
:10250000CF92DF92FF920F931F93CF93DF93EC0153
:10251000F62E6A01101611061206130624F4B901EC
:10252000A8010E94D4118BE0F81629F4259A809115
:102530008000806807C08AE0F81631F4269A8091FE
:102540008000806280938000CE016F2DA6010E94E2
:102550005012809181009A81892B80938100DF91B4
:10256000CF911F910F91FF90DF90CF9008951F9210
:102570000F920FB60F920BB60F9211242F933F9329
:102580004F935F936F937F938F939F93AF93BF937B
:10259000EF93FF93E0915107F09152070995FF9156
:1025A000EF91BF91AF919F918F917F916F915F91CB
:1025B0004F913F912F910F900BBE0F900FBE0F9038
:1025C0001F901895FC01A3E0440F551F661F771F4D
:1025D000AA95D1F7403080E0580781E0680780E095
:1025E000780714F481E010C033E07595679557952E
:1025F00047953A95D1F7403080E0580781E0680769
:1026000080E078071CF482E0808339C023E0759570
:102610006795579547952A95D1F7403080E0580740
:1026200081E0680780E0780714F483E0EDCF92E062
:1026300075956795579547959A95D1F7403080E005
:10264000580781E0680780E0780714F484E0DCCF65
:1026500082E075956795579547958A95D1F74030F3
:1026600080E0580781E0680780E0780714F485E08F
:10267000CBCF85E080834FEF5FEF60E070E08FB7F6
:102680008183F89450939700409396008FBF809178
:102690009100887F80939100809191009081892B97
:1026A0008093910008951092900020E12093910072
:1026B0000E94E21208950F931F93CF93DF93EC01D2
:1026C0008B01121613061406150624F4BA01A9018B
:1026D0000E94E2121B830A8381E080937100809143
:1026E00091009881892B80939100DF91CF911F9168
:1026F0000F9108950F931F93CF93DF93FC01838D68
:10270000A685B7859585082F027081FF05C08C913D
:10271000892309F454C004C08C91892309F04FC067
:102720008389948920E001972FEF8F3F9207D9F793
:10273000C589D689A685B785758560E031E040E01A
:1027400050E010E0CE01212F01972FEF8F3F92072D
:10275000D9F78C91872311F0632B03C0832F8095C9
:102760006823330F4F5F5F4F4830510559F7878912
:10277000908D20E001972FEF8F3F9207D9F701113D
:102780006095809195072091960790E001968F7350
:10279000907030E08217930779F0E0919507F0E0B0
:1027A000EB5AF84F60838091950790E001968F7304
:1027B00090708093950703C0838D8160838FDF9134
:1027C000CF911F910F9108958091530790915407D5
:1027D000009711F00E947A1308951F920F920FB67E
:1027E0000F920BB60F9211242F933F934F935F9349
:1027F0006F937F938F939F93AF93BF93EF93FF93C9
:102800000E94E413FF91EF91BF91AF919F918F913F
:102810007F916F915F914F913F912F910F900BBEE0
:102820000F900FBE0F901F9018951F920F920FB62A
:102830000F920BB60F9211242F933F934F935F93F8
:102840006F937F938F939F93AF93BF93EF93FF9378
:102850000E94E413FF91EF91BF91AF919F918F91EF
:102860007F916F915F914F913F912F910F900BBE90
:102870000F900FBE0F901F9018951F920F920FB6DA
:102880000F920BB60F9211242F933F934F935F93A8
:102890006F937F938F939F93AF93BF93EF93FF9328
:1028A0000E94E413FF91EF91BF91AF919F918F919F
:1028B0007F916F915F914F913F912F910F900BBE40
:1028C0000F900FBE0F901F901895FC018FE593E0BD
:1028D00091838083128280E090E0A0E0B0E0838367
:1028E0009483A583B68308950F931F93DF93CF93AB
:1028F00000D000D0CDB7DEB78C01FB018081D801BC
:1029000012968C93228130E040E050E0542F432F08
:10291000322F2227838190E0A0E0B0E0DC019927EC
:102920008827282B392B4A2B5B2B818190E0A0E054
:10293000B0E0282B392B4A2B5B2B848190E0A0E060
:10294000B0E0B82FAA2799278827282B392B4A2BA4
:102950005B2B29833A834B835C8389819A81AB818A
:10296000BC81F80183839483A583B6830F900F9075
:102970000F900F90CF91DF911F910F910895FC015F
:102980008FE593E0918380830895FC018FE593E0C8
:1029900091838083CF010E9435080895FC0187E66A
:1029A00093E0918380830895FC0187E693E091830F
:1029B0008083CF010E94350808958EE00E94470968
:1029C0000895FC0187E693E0918380838EE060E0C8
:1029D0000E947B0908958130910541F46F5F7F4F1C
:1029E00081F487E997E00E94E1140895892B49F466
:1029F0006F5F7F4F31F487E693E090939807809361
:102A00009707089580E090E06FEF7FEF0E94EB144E
:102A1000089581E090E06FEF7FEF0E94EB1408953E
:102A200088E6809399070895EF92FF920F931F9382
:102A30007C019C012F5F3F4F0091330310913403C1
:102A4000FC01808167E442E00E947816F7019181E1
:102A500080E0228130E0282B392BC9011F910F9192
:102A6000FF90EF900895FC01262F80816BE646E0F1
:102A70000E9452170895FC01262F808167E341E0F0
:102A80000E94521708950F93FC01062F80816BE678
:102A900042E023E00E9408170F9108950F93FC0174
:102AA000062F80816CE144E022E00E9408170F911C
:102AB00008950F93FC01062F80816BE144E022E032
:102AC0000E9408170F9108950F931F938C0161E0E6
:102AD0000E944315C80160E00E945915C80160E0DA
:102AE0000E944E15C80160E00E9433151F910F919E
:102AF00008950F93FC01062F80816AE142E023E0F4
:102B00000E9408170F910895CF92DF92EF92FF92E3
:102B10000F931F936C018C010F5F1F4FE0903303E5
:102B2000F0903403FC01808165E746E026E00E94D6
:102B30008C17F60181811F910F91FF90EF90DF902C
:102B4000CF9008950E94841590E0843309F491E0B9
:102B5000892F0895DC0115968C9115978F5F159636
:102B60008C93159718969C911897981720F481E0EC
:102B700015968C93159715962C91159781E090E0FA
:102B8000821B9109880F991F1296ED91FC91139762
:102B9000E81BF90B808191817183608316962D91DA
:102BA0003C911797260F371F281B390B17963C931C
:102BB0002E93169714969C91149718968C911897AB
:102BC000981720F49F5F14969C93149714966C9119
:102BD000C90170E00E94F023CB010895FC018FE64B
:102BE00093E09183808382819381009711F00E940A
:102BF00030080895CF93DF93EC018FE693E099833B
:102C000088838A819B81009711F00E943008CE0151
:102C10000E943508DF91CF9108951F93CF93DF93E2
:102C2000EC01162F8FE693E0998388831C821F8224
:102C30001E821D82862F90E0880F991F0E943808FF
:102C40009B838A8320E080E090E008C0EA81FB81DA
:102C5000E80FF91F118210822F5F02962117B0F33F
:102C60001887DF91CF911F910895EF92FF920F93F4
:102C70001F93CF93DF93582F162FE42E022FF32E9E
:102C80008DE397E0652F0E94CF108DE397E0612FD1
:102C90000E945111202F3F2DC901EC0110E006C008
:102CA0008DE397E069910E9451111F5F1E15C0F3DB
:102CB0008DE397E00E94811190E0882309F491E070
:102CC000892FDF91CF911F910F91FF90EF90089581
:102CD000DF93CF930F92CDB7DEB7498341E09E01DA
:102CE0002F5F3F4F0E9435160F90CF91DF910895CF
:102CF0005F926F927F928F929F92AF92BF92CF928C
:102D0000DF92EF92FF920F931F93CF93DF93F82EF2
:102D1000E62E542E690158018DE397E06F2D0E9435
:102D2000CF108DE397E06E2D0E9451118DE397E057
:102D30000E9481118DE397E06F2D0E94CF108DE3EB
:102D400097E06F2D452D0E9491110E9486083B014E
:102D50004C01E601780100E010E0CE018C19D82E7C
:102D60008DE397E00E94D910892B09F442C0A11489
:102D7000B10459F00E9486086619770988099909F3
:102D80006E157F058007910730F48DE397E00E9470
:102D9000E2108993E2CF0E948608661977098809B4
:102DA0009909950140E050E0621773078407950781
:102DB00058F02D2D332727FD3095852D90E02817CD
:102DC000390714F4DD24DA948DE397E00E94811131
:102DD0008D2DDF91CF911F910F91FF90EF90DF909C
:102DE000CF90BF90AF909F908F907F906F905F90AB
:102DF0000895A114B10441F3CECF0F931F93FA01AC
:102E0000890141E09F010E9478161F910F9108955A
:102E1000DF92EF92FF920F931F93DF93CF930F9266
:102E2000CDB7DEB7E82ED62EF42E122F2091330325
:102E300030913403AE014F5F5F4F0E94FD1688232F
:102E400041F1212F30E04F2D50E04F5F5F4F421B8B
:102E5000530B81E090E002C0880F991F1A95E2F7AA
:102E60000197042E02C0880F991F0A94E2F7202FC1
:102E700030E002C0220F331F4A95E2F7482F4095F9
:102E8000598145238223482B49838E2D6D2D0E9425
:102E900068160F90CF91DF911F910F91FF90EF90E7
:102EA000DF900895EF92FF920F931F93DF93CF93DC
:102EB0000F92CDB7DEB7F82EE62E042F122F2091F9
:102EC000330330913403AE014F5F5F4F0E94FD1614
:102ED0002981112351F081E090E002C0880F991FF1
:102EE0000A95E2F7422F482B0AC081E090E002C029
:102EF000880F991F0A95E2F7482F4095422349838E
:102F00008F2D6E2D0E9468160F90CF91DF911F912B
:102F10000F91FF90EF900895CF92DF92EF92FF9282
:102F20000F931F93DF93CF930F92CDB7DEB7C42ECD
:102F3000D22E9701AE014F5F5F4F0E94FD16682FA2
:102F4000882309F18D2D90E04C2D50E04F5F5F4FAD
:102F5000481B590B21E030E002C0220F331FDA94E6
:102F6000E2F721503040042E02C0220F331F0A9492
:102F7000E2F78981822390E002C0959587954A9572
:102F8000E2F7F8018083862F0F90CF91DF911F9198
:102F90000F91FF90EF90DF90CF9008958EE1809396
:102FA000A80708950F931F93CF93DF93EC019C0123
:102FB0002F5F3F4F009133031091340388816AE003
:102FC00043E00E947816833061F48981883449F4A3
:102FD0008A81843331F440E08B81833319F441E0FA
:102FE00001C040E0842FDF91CF911F910F91089590
:102FF0000F931F93CF93DF93EC019C012F5F3F4F03
:103000000091330310913403888163E046E00E940D
:1030100078168F81813029F4888162E041E00E9436
:1030200068169D8180E02E8130E0282B392BC90164
:10303000DF91CF911F910F910895FF920F931F93EE
:103040008C01F62EFC01808162E047810E946816A7
:10305000F801F7821F910F91FF900895FC01462F10
:103060004295440F407E808161E00E946816089579
:103070000F931F938C01FC01808160E040E70E9468
:103080006816C80161E00E942E18C80161E00E9424
:103090001D181F910F9108950F931F93CF93DF93E6
:1030A0008C01EB0180E090E0A0E0B0E0F801848BBF
:1030B000958BA68BB78BBE01882777FD8095982FBF
:1030C0000E949A226093B2077093B3078093B4076B
:1030D0009093B507BE01D7FF04C0662777276C1B06
:1030E0007D0BCE010E94F0236093B607F80110A675
:1030F000DF91CF911F910F9108951092BA0710920E
:10310000B907FC0113A612A6089521E030E0FC01E6
:1031100033A722A70895FC0181E080A781A783E05F
:1031200090E093A782A70895FC0160A708958130DD
:10313000910549F46F5F7F4F79F487EE97E06AE07D
:103140000E940D160895892B39F46F5F7F4F21F48B
:1031500087EE97E00E94EE15089580E090E06FEF13
:103160007FEF0E949718089581E090E06FEF7FEF66
:103170000E9497180895CF93DF93EB0161157105B5
:1031800031F084E06130780710F0C0E0D4E0809145
:10319000F0079091F107C817D90731F089E497E05B
:1031A0006AE0AE010E945012D093F107C093F0077D
:1031B000DF91CF910895CF93DF93EB0161157105F6
:1031C00031F084E06130780710F0C0E0D4E0809105
:1031D000F2079091F307C817D90731F089E497E017
:1031E0006BE0AE010E945012D093F307C093F20738
:1031F000DF91CF910895662319F088E061E002C065
:1032000088E060E00E941F0A08958F929F92AF921B
:10321000BF92CF92DF92EF92FF920F931F93CF93C3
:10322000DF93EC01789489E997E00E9414159B875D
:103230008A8788EA97E00E94F817998B888B2091FB
:10324000F4072F5F2093F4078AA59BA58230910590
:1032500009F4B8C0833091053CF4009709F465C0C7
:10326000019709F046C18FC08430910539F0843050
:10327000910564F0059709F03CC11DC118A61D8297
:103280001C821F821E821986188633C189A5882355
:1032900009F495C0822F6AE00E94D023992309F097
:1032A0008EC087E997E00E94DD14BC0187EE97E0AD
:1032B0000E94AA157C019B8B8A8B8EA09FA06A819D
:1032C0007B81882777FD8095982F0E949A225B0149
:1032D0006C010027F7FC0095102FC801B7010E9470
:1032E0009A228B019C01C401B601A5010E949C1C7D
:1032F00068A379A38AA39BA320E030E041E654E4CD
:103300000E9497210E946722CB0177FF02C080E0D4
:1033100090E09D838C83BC0124E08130920714F0FF
:1033200060E074E07D836C834AC08091B90790911E
:10333000BA0701969093BA078093B9078A35910529
:103340000CF0D3C0822F6AE00E94D023992309F0A9
:10335000D0C08C819D818C599F4F9D838C838D52D1
:10336000914014F081E088A78C819D8124E0813018
:10337000920714F080E094E09D838C839F838E837A
:1033800099878887B6C0822F6AE00E94D02399234C
:1033900009F0AFC08C819D81449797FF02C080E007
:1033A00090E09D838C838C5291400CF418A68C8104
:1033B0009D81892B21F484E090E09BA78AA78C81D2
:1033C0009D81DCCF6A857B8528813981621B730BE7
:1033D000882777FD8095982F0E949A22288D398D15
:1033E0004A8D5B8D0E944E2320E030E04AE754E492
:1033F0000E944E2320E030E040E058E30E944E233C
:103400002C893D894E895F890E9497215B016C015F
:103410006C8B7D8B8E8B9F8B20E030E040E050E00A
:103420000E944A23181624F0D7FAD094D7F8D094E3
:10343000E090B207F090B3070091B4071091B50780
:10344000C801B70120E030E040E050E00E944A238C
:10345000181624F017FB109517F91095C601B50141
:10346000A80197010E94962120E030E040E050E062
:103470000E944A2318165CF480E090E0A0E0B0E0DF
:103480008C8B9D8BAE8BBF8B81E088A732C08091E7
:10349000B607992787FD90959C01220F331F280FAF
:1034A000391F8C819D81A901480F591F5F834E836D
:1034B000821B930B65CF8091B7079091B807892B3A
:1034C00021F4CE0161E00E94FB188091B707909132
:1034D000B80701969093B8078093B707883C910589
:1034E00044F0CE0160E00E94FB1881E090E09BA7D1
:1034F0008AA788A58823E9F1ACA0BDA0688179815D
:10350000882777FD8095982F0E949A226B017C0175
:103510006A857B85882777FD8095982F0E949A225F
:103520008B019C01C501B701A6010E949C1C7B0177
:103530008C016C8F7D8F8E8F9F8F6C817D81882712
:1035400077FD8095982F0E949A225B016C01A8015B
:1035500097010E9496210E9467227F836E83C60195
:10356000B501A80197010E9497210E9467227987DF
:1035700068876E817F81CE010E94DB18688579851E
:10358000CE010E94BB18DF91CF911F910F91FF9048
:10359000EF90DF90CF90BF90AF909F908F90089565
:1035A0008091B0079091B1070E94051908956F921C
:1035B0007F928F929F92AF92BF92CF92DF92EF92C3
:1035C000FF920F931F93CF93DF93EC0118A619A6D8
:1035D00085E090E09983888386E490E09B838A83EA
:1035E0008AE097EDA3E2BCE3888F998FAA8FBB8F07
:1035F0001D821C8280E090E0A0E0B0E08C8F9D8F67
:10360000AE8FBF8F1F821E82198618861B861A8670
:103610001B8A1A8A8C8B9D8BAE8BBF8B8EE290E0BF
:103620000E943B08782E692E8DB79EB70C970FB677
:10363000F8949EBF0FBE8DBFEDB7FEB73196288DB3
:10364000398D4A8D5B8DADB7BEB711962D933D93E5
:103650004D935C93149780E090E0A8ECB2E48483EF
:103660009583A683B78380E090E0A8ECB2EC8087D6
:103670009187A287B387872D962D4DEC5CEC6CE487
:103680007EE300E010E020E030E0680179010F2ED9
:10369000F0E08F2EF0E09F2EFAEFAF2EF3E4BF2E76
:1036A000F02D0E94401C7CA26DA2EDB7FEB73C96A7
:1036B0000FB6F894FEBF0FBEEDBF8EE290E00E9401
:1036C0003B08782E692E8DB79EB70C970FB6F894ED
:1036D0009EBF0FBE8DBF0DB71EB70F5F1F4F688D0A
:1036E000798D8A8D9B8D20E030E040E251E40E948C
:1036F0004E23D8016D937D938D939C93139780E017
:1037000090E0A6E9B3E4F80184839583A683B783A8
:1037100080E090E0A8E4B3EC80879187A287B3872C
:10372000872D962D40E050E060EA70E49701860115
:103730004A015B010E94401C7EA26FA284E090E0DF
:103740009BA78AA78DB79EB70C960FB6F8949EBF1D
:103750000FBE8DBF89E497E040E157E260E070E082
:103760000E94481289E497E06BE040E050E000E1FD
:1037700017E220E030E00E94801289E497E06AE0DE
:1037800040E050E000E117E220E030E00E948012CB
:1037900088E061E00E947B0981E161E00E947B0991
:1037A00081E160E00E941F0A8FE497E040E157E268
:1037B00060E070E00E945313D093B107C093B0074C
:1037C0008FE497E060ED7AE120E137E240E050E0FD
:1037D0000E945B138BEA94E062E072E00E9446066E
:1037E00089E997E00E94641589E997E061E00E9409
:1037F0003B1589E997E062E00E94791589E997E035
:1038000062E00E94591588EA97E00E9438188BEA16
:1038100094E06EE172E00E94460689E997E00E941A
:10382000A215882319F460E472E002C06AE572E030
:103830008BEA94E00E94460688EA97E00E94D2173D
:10384000882319F468E772E002C063E972E08BEA4A
:1038500094E00E94460687E997E00E94DD149B8B66
:103860008A8BDF91CF911F910F91FF90EF90DF90A6
:10387000CF90BF90AF909F908F907F906F90089562
:103880008F929F92AF92BF92CF92DF92EF92FF9270
:103890000F931F93DF93CF93CDB7DEB7FC0187E77C
:1038A00093E09183808380E090E0A0E0B0E0868F99
:1038B000978FA0A3B1A382A393A3A4A3B5A386A328
:1038C00097A3A0A7B1A782A793A7A4A7B5A7428B48
:1038D000538B648B758B068B178B208F318FC28E29
:1038E000D38EE48EF58E82829382A482B5828F85F8
:1038F0009889A989BA8986839783A087B1878B899C
:103900009C89AD89BE8982879387A487B5878F8973
:10391000988DA98DBA8D86879787A08BB18BCF9113
:10392000DF911F910F91FF90EF90DF90CF90BF90AC
:10393000AF909F908F9008956F927F928F929F92F9
:10394000AF92BF92CF92DF92EF92FF920F931F93AD
:10395000CF93DF93EC01CB01BA01A90198010E943A
:1039600096217B018C016EA37FA388A799A70E9453
:1039700067229B0177FF03C0309521953F4FB90126
:10398000882777FD8095982F0E949A222A813B8173
:103990004C815D810E944A231816A4F4C801B70126
:1039A0002E813F81488559850E944E239B01AC01A1
:1039B0006AA17BA18CA19DA10E9497216AA37BA3F0
:1039C0008CA39DA36EA17FA188A599A52E8D3F8D67
:1039D00048A159A10E9496212E813F814885598591
:1039E0000E94FF215B016C016AA77BA78CA79DA7A2
:1039F0006EA07FA088A499A4C401B3012A893B8941
:103A00004C895D890E944E237B018C016E897F89E0
:103A1000888D998D2AA13BA14CA15DA10E944E23C6
:103A20009B01AC01C801B7010E9497217B018C0169
:103A3000C601B5012A8D3B8D4C8D5D8D0E944E23B4
:103A40009B01AC01C801B7010E9497217B018C0149
:103A5000DA84CB84BC84AD842D2D3C2D4B2D5A2D86
:103A60000E944A2318162CF48D2D9C2DAB2DBA2DB7
:103A700012C0AE84DF84C888B988C801B7012A2D76
:103A80003D2D4C2D5B2D0E94FB21882334F48A2D83
:103A90009D2DAC2DBB2D7C018D016E8E7F8E88A25D
:103AA00099A2B701C801DF91CF911F910F91FF90AB
:103AB000EF90DF90CF90BF90AF909F908F907F90CE
:103AC0006F900895FC0187E793E0918380830895C8
:103AD000FC0187E793E091838083CF010E94350842
:103AE0000895FF920F931F93F82E0BEA14E0C8017C
:103AF0000E949904C80162EB72E00E94A505C8010A
:103B00006F2D4AE050E00E944005C8010E949904D0
:103B10001F910F91FF900895FF920F931F93F82E1E
:103B20000BEA14E0C8010E949904C8016BEB72E033
:103B30000E94A505C8016F2D4AE050E00E94400593
:103B4000C8010E9499041F910F91FF900895DC0114
:103B500012968C911297883609F47AC0893698F4B7
:103B6000853609F487C0863638F4813609F459C0A1
:103B7000843609F0C0C039C0863609F4A3C0873640
:103B800009F0B9C041C08F3609F48CC0803730F4D9
:103B90008936E1F08C3609F0AEC050C0843709F4A4
:103BA00052C0883709F459C0803709F0A4C0E091A9
:103BB000DF07F091E00713968D919D910D90BC91D8
:103BC000A02D828B938BA48BB58B0895E091DF079A
:103BD000F091E00713968D919D910D90BC91A02DD1
:103BE000868B978BA08FB18F0895E091DF07F091BE
:103BF000E00713968D919D910D90BC91A02D828F21
:103C0000938FA48FB58F089513966D917D918D91AB
:103C10009C9116970E9467227093BC076093BB0724
:103C2000089513966D917D918D919C9116970E94A8
:103C300067227093BE076093BD0708958BEB97E0F2
:103C40000E94851808958BEB97E00E947D180895D7
:103C50008BEB97E00E948B18089513966D917D91E0
:103C60008D919C9116970E9467227093C007609374
:103C7000BF07089513966D917D918D919C91169734
:103C800020E030E040E85FE30E94FB21882324F439
:103C90008BEB97E060E003C08BEB97E061E00E9464
:103CA0009418089513966D917D918D919C9116971E
:103CB0000E9467229B01AC018BEB97E0B9010E9447
:103CC0004C18089513966D917D918D919C91169746
:103CD00020E030E040E85FE30E94FB21882334F4D9
:103CE0008BEB97E060E00E94FB1808958BEB97E068
:103CF00061E00E94FB180895EF92FF920F931F93CB
:103D0000DF93CF93CDB7DEB7E5970FB6F894DEBF5C
:103D10000FBECDBF88E0E82EF12CEC0EFD1EC701D2
:103D20000E9465148AE796E00E94DB0A87300CF453
:103D300051C08BEA94E00E9499048BEA94E063EC12
:103D400072E00E94A5058E010F5F1F4F8AE796E083
:103D50000E94C40AF80181938F01EE15FF05B1F7A7
:103D6000CF01BE016F5F7F4F0E9474148AE796E017
:103D70000E94BF0A8BEA94E06A850E9491048BEA54
:103D800094E068EC72E00E94A5054B855C856D852A
:103D90007E858BEA94E022E030E00E9443068BEAC5
:103DA00094E00E9499048FE593E0988B8F878A8531
:103DB000898B8B859C85AD85BE858A8B9B8BAC8BD7
:103DC000BD8B8E01015F1F4FC8010E94A71DC80156
:103DD0000E94BF148091CD079091CE079F8B8E8B50
:103DE0008091C5079091C607998F888F8091CB07E6
:103DF0009091CC079B8F8A8F8091D7079091D8079D
:103E0000A091D907B091DA078C8F9D8FAE8FBF8FAD
:103E1000E091DF07F091E00786A197A1A0A5B1A5E9
:103E200088A399A3AAA3BBA38091C1079091C207BD
:103E30009DA38CA38091C3079091C4079FA38EA3D9
:103E40008091DB079091DC07A091DD07B091DE0740
:103E500088A799A7AAA7BBA7E091E107F091E2077D
:103E600086A197A1A0A5B1A58CA79DA7AEA7BFA726
:103E70008091BF079091C00799AB88AB8091CF0725
:103E80009091D007A091D107B091D2078AAB9BAB9C
:103E9000ACABBDAB8BEA94E00E9499048BEA94E052
:103EA0006AEC72E00E94A5056091CD077091CE0783
:103EB0008BEA94E04AE050E00E9492058BEA94E09D
:103EC0006DEC72E00E94A5056091C5077091C60770
:103ED0008BEA94E04AE050E00E9492058BEA94E07D
:103EE00063ED72E00E94A5056091C5077091C60759
:103EF0008BEA94E04AE050E00E9492058BEA94E05D
:103F00000E9499048BEA94E069ED72E00E94A50595
:103F10004091D7075091D8076091D9077091DA077F
:103F20008BEA94E022E030E00E9443068BEA94E0C2
:103F300061EE72E00E94A505E091DF07F091E007D5
:103F400046A157A160A571A58BEA94E022E030E07C
:103F50000E9443068BEA94E06BEE72E00E94A50596
:103F60006091C1077091C2078BEA94E04AE050E08B
:103F70000E9492058BEA94E065EF72E00E94A5052D
:103F80006091C3077091C4078BEA94E04AE050E067
:103F90000E9492058BEA94E00E9499048BEA94E0D7
:103FA0006FEF72E00E94A5054091DB075091DC079E
:103FB0006091DD077091DE078BEA94E022E030E04B
:103FC0000E9443068BEA94E067E073E00E94A50537
:103FD000E091E107F091E20746A157A160A571A524
:103FE0008BEA94E022E030E00E9443068BEA94E002
:103FF00061E173E00E94A5056091BF077091C00761
:104000008BEA94E04AE050E00E9492058BEA94E04B
:104010000E9499048BEA94E06DE173E00E94A5058B
:104020004091CF075091D0076091D1077091D2078E
:104030008BEA94E022E030E00E9443068BEA94E0B1
:104040000E9499048AE796E00E94E90A8AE796E0CE
:10405000BE016A5E7F4F40E20E94A50B8AE796E0B0
:104060000E94FE0A68EC70E080E090E00E94BA08CE
:10407000CE0108960E94BF14E5960FB6F894DEBFF5
:104080000FBECDBFCF91DF911F910F91FF90EF90A9
:1040900008950F931F9387E161E00E947B0987E1F8
:1040A00060E00E941F0A8DE397E00E949E118BEA58
:1040B00094E040E855E260E070E00E9452020AE7B6
:1040C00016E0C8016BE00E94FF0BC8016CE87DE1BF
:1040D0000E94520AC80161E77DE10E94570A8BEBFA
:1040E00097E00E94D71A1F910F910895CF93DF9305
:1040F0000E94E0080E944920C3E9D1E00E947C1E92
:104100002097E1F30E949301F9CFCF93DF93BC0195
:104110008230910510F462E070E0A091F807B09150
:10412000F907ED01E0E0F0E040E050E021C08881D7
:1041300099818617970769F48A819B81309719F0D6
:104140009383828304C09093F9078093F807FE015C
:1041500034C06817790738F44115510519F08417F0
:10416000950708F4AC01FE018A819B819C01E9015D
:104170002097E9F641155105A9F1CA01861B970B55
:10418000049708F4BA01E0E0F0E02AC08D919C9118
:10419000119784179507F9F46417750781F412963F
:1041A0008D919C911397309719F09383828304C06B
:1041B0009093F9078093F807FD0132964FC0CA012A
:1041C000861B970BFD01E80FF91F6193719302970E
:1041D0008D939C9343C0FD01828193819C01D90101
:1041E0001097A1F68091F6079091F707892B41F47B
:1041F00080912803909129039093F7078093F60705
:1042000040912A0350912B034115510541F44DB7BC
:104210005EB78091260390912703481B590B20918C
:10422000F6073091F70724173507B0F4CA01821B4F
:10423000930B8617970780F0AB014E5F5F4F841793
:10424000950750F0420F531F5093F7074093F6071E
:10425000F9016193719302C0E0E0F0E0CF01DF91DA
:10426000CF910895CF93DF93009709F450C0EC01EC
:1042700022971B821A82A091F807B091F907109734
:1042800009F140E050E0AC17BD0708F1BB83AA83F9
:10429000FE0121913191E20FF31FAE17BF0779F4B0
:1042A0008D919C911197280F391F2E5F3F4F3983B5
:1042B000288312968D919C9113979B838A83411535
:1042C000510571F4D093F907C093F80720C01296F6
:1042D0008D919C911397AD01009711F0DC01D3CF24
:1042E000FA01D383C28321913191E20FF31FCE17DC
:1042F000DF0769F488819981280F391F2E5F3F4FAE
:10430000FA01318320838A819B8193838283DF91A9
:10431000CF910895F8940C942B24FB01DC0102C08A
:1043200001900D9241505040D8F708955058BB2746
:10433000AA270ED075C166D130F06BD120F031F4D0
:104340009F3F11F41EF45BC10EF4E095E7FB51C1F1
:10435000E92F77D180F3BA176207730784079507AF
:1043600018F071F49EF58FC10EF4E0950B2EBA2F64
:10437000A02D0B01B90190010C01CA01A00111246B
:10438000FF27591B99F0593F50F4503E68F11A1617
:10439000F040A22F232F342F4427585FF3CF4695A8
:1043A00037952795A795F0405395C9F77EF41F16CA
:1043B000BA0B620B730B840BBAF09150A1F0FF0F94
:1043C000BB1F661F771F881FC2F70EC0BA0F621F80
:1043D000731F841F48F4879577956795B795F79570
:1043E0009E3F08F0B3CF9395880F08F09927EE0F02
:1043F000979587950895D9D008F481E008950CD059
:104400000FC107D140F0FED030F021F45F3F19F02A
:10441000F0C0511139C1F3C014D198F39923C9F3F5
:104420005523B1F3951B550BBB27AA2762177307BA
:10443000840738F09F5F5F4F220F331F441FAA1F6E
:10444000A9F333D00E2E3AF0E0E830D0915050402E
:10445000E695001CCAF729D0FE2F27D0660F771FDC
:10446000881FBB1F261737074807AB07B0E809F0BE
:10447000BB0B802DBF01FF2793585F4F2AF09E3F53
:10448000510568F0B6C000C15F3FECF3983EDCF325
:10449000869577956795B795F7959F5FC9F7880FCC
:1044A000911D9695879597F90895E1E0660F771F1E
:1044B000881FBB1F621773078407BA0720F0621BAF
:1044C000730B840BBA0BEE1F88F7E095089504D0A8
:1044D0006894B111D9C00895BCD088F09F5790F06E
:1044E000B92F9927B751A0F0D1F0660F771F881F19
:1044F000991F1AF0BA95C9F712C0B13081F0C3D034
:10450000B1E00895C0C0672F782F8827B85F39F0D1
:10451000B93FCCF3869577956795B395D9F73EF477
:1045200090958095709561957F4F8F4F9F4F08951F
:10453000E89409C097FB3EF490958095709561953D
:104540007F4F8F4F9F4F9923A9F0F92F96E9BB27F3
:104550009395F695879577956795B795F111F8CF6F
:10456000FAF4BB0F11F460FF1BC06F5F7F4F8F4FDA
:104570009F4F16C0882311F096E911C0772321F0D0
:104580009EE8872F762F05C0662371F096E8862F68
:1045900070E060E02AF09A95660F771F881FDAF7BF
:1045A000880F9695879597F90895990F0008550FEC
:1045B000AA0BE0E8FEEF16161706E807F907C0F0A9
:1045C00012161306E407F50798F0621B730B840BB1
:1045D000950B39F40A2661F0232B242B252B21F48B
:1045E00008950A2609F4A140A6958FEF811D811D2B
:1045F000089597F99F6780E870E060E008959FEF65
:1046000080EC089500240A94161617061806090669
:10461000089500240A941216130614060506089538
:10462000092E0394000C11F4882352F0BB0F40F4C0
:10463000BF2B11F460FF04C06F5F7F4F8F4F9F4F00
:10464000089557FD9058440F551F59F05F3F71F082
:104650004795880F97FB991F61F09F3F79F08795E9
:104660000895121613061406551FF2CF4695F1DF72
:1046700008C0161617061806991FF1CF8695710502
:10468000610508940895E894BB2766277727CB0136
:1046900097F908958ADF08F48FEF08950BD0C0CF03
:1046A000B1DF28F0B6DF18F0952309F0A2CFA7CF2D
:1046B0001124EACFC6DFA0F3959FD1F3950F50E008
:1046C000551F629FF001729FBB27F00DB11D639FC4
:1046D000AA27F00DB11DAA1F649F6627B00DA11D6A
:1046E000661F829F2227B00DA11D621F739FB00D10
:1046F000A11D621F839FA00D611D221F749F332780
:10470000A00D611D231F849F600D211D822F762F18
:104710006A2F11249F5750408AF0E1F088234AF015
:10472000EE0FFF1FBB1F661F771F881F9150504061
:10473000A9F79E3F510570F05CCFA6CF5F3FECF329
:10474000983EDCF3869577956795B795F795E7954D
:104750009F5FC1F7FE2B880F911D9695879597F95E
:104760000895629FD001739FF001829FE00DF11DBB
:10477000649FE00DF11D929FF00D839FF00D749FDB
:10478000F00D659FF00D9927729FB00DE11DF91F87
:10479000639FB00DE11DF91FBD01CF0111240895E4
:1047A000991B79E004C0991F961708F0961B881F83
:1047B0007A95C9F780950895AA1BBB1B51E107C0E4
:1047C000AA1FBB1FA617B70710F0A61BB70B881FA1
:1047D000991F5A95A9F780959095BC01CD01089530
:1047E00097FB092E07260AD077FD04D0E5DF06D017
:1047F00000201AF4709561957F4F0895F6F7909513
:1048000081959F4F0895A1E21A2EAA1BBB1BFD01A3
:104810000DC0AA1FBB1FEE1FFF1FA217B307E4079F
:10482000F50720F0A21BB30BE40BF50B661F771FF7
:10483000881F991F1A9469F76095709580959095D7
:104840009B01AC01BD01CF010895EE0FFF1F059044
:10485000F491E02D099411E0C6EED1E004C0FE0110
:104860000E9427242296CA3ED107C9F7F894FFCFA9
:104870002E00496E697469616C697A696E672041BE
:104880006363656C2F4779726F202E2E2E0054655E
:104890007374696E6720416363656C2F4779726F2B
:1048A00020636F6E6E656374696F6E732E2E2E00BB
:1048B0004D50553630353020636F6E6E65637469C8
:1048C0006F6E206661696C6564004D5055363035F9
:1048D0003020636F6E6E656374696F6E20737563ED
:1048E0006365737366756C00484D43353838334CD7
:1048F00020636F6E6E656374696F6E206661696CAC
:10490000656400484D43353838334C20636F6E6E14
:10491000656374696F6E2073756363657373667521
:104920006C005478446F6E653A20004572726F7265
:104930003A200052783A20003D00683A000920678A
:104940007A3A0009206D7A3A00796177496E703AB7
:104950000009207961774572723A000920746F70FE
:10496000526F743A000920626F74526F743A00619A
:104970006C74496E703A000920616C744572723A29
:104980000009207468726F74746C653A00677972FC
:104990006F73756D3A002000FA070000FFFFFFFFFC
:1049A000FFFF01E8030000000044036704D8020988
:1049B00003E902320300000000250400000000515A
:1049C000112011D910E210F710081100000000BFEB
:1049D00014C51400000000CE14D41400000000EE32
:0C49E00015FA1500000000621D681D00A3
:00000001FF
