:100000000C94F5000C94CA060C94FB060C941F018A
:100010000C941F010C9468060C9437060C94060689
:100020000C9499060C94A5100C94CD100C94F5101A
:100030000C941F010C94A6050C941F010C941F0135
:100040000C941F010C941F010C941F010C941F01B0
:100050000C94DC0F0C941F010C941F010C943707B7
:100060000C941F010C9422010C94B8010C941F01F4
:100070000C941F010C941F010C941F010C941F0180
:100080000C941F010C941F010C941F010C94071079
:100090000C945B010C9405020C941F010C94910DBF
:1000A0000C941F010C941F010C941F010C941F0150
:1000B0000C941F010C941F010C941F010C941F0140
:1000C0000C941F010C941F010C941F010C941F0130
:1000D0000C941F010C941F010C941F010C941F0120
:1000E0000C941F010C941F010C941F010C94120B13
:1000F0000C94750B0C941F010C941F010C94180C9C
:100100000C941F010C941F010C941F010C941F01EF
:100110000C941F010C941F010C941F010C941F01DF
:100120000504000201030F0F0F0F0F0E0E0E0D0D31
:100130000C0C0B0A0908070604020000000000244A
:100140000000002A002D00300033000000000000F5
:10015000000000000000000000250000002B002E21
:10016000003100340000000000000000000000002A
:100170000000000000260029002C002F00320000A3
:10018000000000000000000000050505050505054C
:100190000502020202020206060606060602040420
:1001A000040401024020040810801080402008024E
:1001B00001020408102004010220400000000B008E
:1001C000090A000705040300000000000000000009
:1001D00000000000000080031604E90A590F5811BE
:1001E0005F11B011D1115111CA1111241FBECFEFEF
:1001F000D1E4DEBFCDBF12E0A0E0B2E0EAEDF8E26C
:1002000000E00BBF02C007900D92A435B107D9F7EB
:1002100016E0A4E5B2E001C01D92A33BB107E1F7EF
:1002200011E0C6EED1E004C02297FE010E945C14EA
:10023000C63DD107C9F70E94D2120C94E6130C9464
:10024000000008951F920F920FB60F920BB60F92F7
:1002500011242F933F934F938F939F93EF93FF938B
:100260004091C60020919402309195022F5F3F4F3C
:100270002F7330708091960290919702281739075A
:1002800059F0E0919402F0919502EC5AFD4F4083B1
:100290003093950220939402FF91EF919F918F915B
:1002A0004F913F912F910F900BBE0F900FBE0F906B
:1002B0001F90189508951F920F920FB60F920BB6CC
:1002C0000F9211242F933F934F938F939F93EF930C
:1002D000FF934091CE0020911C0330911D032F5FAE
:1002E0003F4F2F73307080911E0390911F0328178A
:1002F000390759F0E0911C03F0911D03E452FD4FC2
:10030000408330931D0320931C03FF91EF919F9135
:100310008F914F913F912F910F900BBE0F900FBE79
:100320000F901F901895E0918F03F0919003E05C7F
:10033000FF4F8191919120813181821B930B8F73AB
:100340009070892B11F00E942101E0918F03F091B0
:100350009003E05CFF4F8191919120813181821B5C
:10036000930B8F739070892B11F00E945A0108959E
:100370001F920F920FB60F920BB60F9211242F936C
:100380003F934F935F936F937F938F939F93AF931D
:10039000BF93EF93FF932091D8023091D9028091BF
:1003A000DA029091DB022817390731F48091C100FD
:1003B0008F7D8093C10016C0E091DA02F091DB02DC
:1003C000E856FD4F40818091DA029091DB02019660
:1003D00060E470E00E9425149093DB028093DA02BF
:1003E0004093C600FF91EF91BF91AF919F918F9184
:1003F0007F916F915F914F913F912F910F900BBE25
:100400000F900FBE0F901F9018951F920F920FB66E
:100410000F920BB60F9211242F933F934F935F933C
:100420006F937F938F939F93AF93BF93EF93FF93BC
:100430002091600330916103809162039091630386
:100440002817390731F48091C9008F7D8093C90046
:1004500016C0E0916203F0916303E05EFC4F4081BF
:100460008091620390916303019660E470E00E94C2
:10047000251490936303809362034093CE00FF9111
:10048000EF91BF91AF919F918F917F916F915F910C
:100490004F913F912F910F900BBE0F900FBE0F9079
:1004A0001F901895AF92BF92DF92EF92FF920F9339
:1004B0001F93CF93DF93EC017A018B01DD24403051
:1004C00081EE580780E0680780E0780711F0DD24AE
:1004D000D39491E0A92EB12CEC89FD89DD2069F03F
:1004E000C5010E8C02C0880F991F0A94E2F7808321
:1004F00060E079E08DE390E005C0108260E874E888
:100500008EE190E0A80197010E94381421503040FC
:1005100040405040569547953795279580E12030CB
:10052000380720F0DD2011F0DD24D6CFE889F989E5
:100530003083EA89FB892083EE89FF89408121E0AD
:1005400030E0C9010A8C02C0880F991F0A94E2F7B3
:10055000482B4083EE89FF894081C9010B8C02C082
:10056000880F991F0A94E2F7482B4083EE89FF8990
:100570004081C9010C8C02C0880F991F0A94E2F7D0
:10058000482B4083EE89FF8980810D8C02C0220FA9
:10059000331F0A94E2F7209528232083DF91CF911F
:1005A0001F910F91FF90EF90DF90BF90AF90089553
:1005B000DC011C96ED91FC911D97E05CFF4F2191B1
:1005C000319180819181281B390B2F733070C901C3
:1005D0000895DC011C96ED91FC911D97E05CFF4FA6
:1005E00020813181E054F040DF01AE5BBF4F8D913F
:1005F0009C9111972817390719F42FEF3FEF07C087
:100600008D919C91E80FF91F8081282F30E0C9015E
:100610000895DC011C96ED91FC911D97E05CFF4F65
:1006200020813181E054F040DF01AE5BBF4F8D91FE
:100630009C9111972817390719F42FEF3FEF10C03D
:100640008D919C911197E80FF91F20818D919C91BC
:10065000119701968F73907011969C938E9330E052
:10066000C9010895FC0186859785DC01A05CBF4F18
:10067000FC01EE5BFF4F2D913C91119780819181A0
:1006800028173907C1F70895CF93DF93EC01462F60
:10069000EE85FF85E05CFF4F80819181E054F04062
:1006A000019660E470E00E9425149C01DF01AE5BBE
:1006B000BF4F8D919C91119728173907D1F3E05CBA
:1006C000FF4F80819181E054F040E80FF91F408393
:1006D000EE85FF85E05CFF4F31832083EE89FF8943
:1006E000208181E090E00D8C02C0880F991F0A9450
:1006F000E2F7282B208381E090E0DF91CF910895ED
:100700001F93109267031092660328EE33E040E0D7
:1007100050E0209368033093690340936A03509339
:100720006B0361E272E0709365036093640384E598
:1007300092E0909371038093700388E992E0909324
:1007400073038093720385EC90E09093750380931C
:10075000740384EC90E0909377038093760380ECAD
:1007600090E0909379038093780381EC90E09093EC
:100770007B0380937A0386EC90E090937D038093D3
:100780007C0314E010937E03B3E0B0937F03A7E0F3
:10079000A0938003F5E0F0938103E1E0E09382030E
:1007A0001092860310928503209387033093880369
:1007B0004093890350938A03709384036093830367
:1007C0008CED92E09093900380938F0380E293E00E
:1007D00090939203809391038DEC90E09093940317
:1007E000809393038CEC90E0909396038093950311
:1007F00088EC90E0909398038093970389EC90E0C5
:1008000090939A03809399038EEC90E090939C03CD
:1008100080939B0310939D03B0939E03A0939F032B
:10082000F093A003E093A1031F91089581E392E068
:100830009093A3038093A2031092A4031092A503A4
:100840001092A6031092A70308958F929F92AF92E1
:10085000BF92CF92DF92EF92FF920F931F93CF93AD
:10086000DF934C016B017C01AA24BB24C0E0D0E0E3
:10087000C601F70162814AE050E00E9440058C0108
:10088000C6016EE20E949104080F191FA00EB11E4E
:1008900021960894E11CF11CC330D10549F7C6012B
:1008A000F40165814AE050E00E9440059501280F5F
:1008B000391FC901DF91CF911F910F91FF90EF90E8
:1008C000DF90CF90BF90AF909F908F900895CF9280
:1008D000DF92EF92FF920F931F93CF93DF937C01F0
:1008E0006B018A01C0E0D0E00FC0D6016D916D01AF
:1008F000D701ED91FC910190F081E02DC7010995A0
:10090000C80FD91F015010400115110571F7CE0114
:10091000DF91CF911F910F91FF90EF90DF90CF90DB
:100920000895DC01ED91FC910190F081E02D099595
:100930000895EF92FF920F931F938C01DC01ED91CC
:10094000FC910190F081E02D6DE009957C01D801CA
:10095000ED91FC910190F081E02DC8016AE00995CC
:100960009C012E0D3F1DC9011F910F91FF90EF902B
:100970000895CF93DF93DB010D900020E9F71197E5
:10098000A61BB70BEC01E881F9810280F381E02D11
:10099000AD010995DF91CF9108954F925F927F92BB
:1009A0008F929F92AF92BF92CF92DF92EF92FF927F
:1009B0000F931F93DF93CF93CDB7DEB7A1970FB6F9
:1009C000F894DEBF0FBECDBF2C01742ECB012230B8
:1009D00008F42AE019A231E2C32ED12CCC0EDD1E80
:1009E000822E9924AA24BB24672D752FA50194017A
:1009F0000E94381479018A01C801B701A501940148
:100A00000E94F213472D461B0894C108D1084A30B2
:100A100010F4405D01C0495CF6014083E114F1042B
:100A20000105110521F07E2C5F2DC801DDCFC2012B
:100A3000B6010E94B904A1960FB6F894DEBF0FBEAE
:100A4000CDBFCF91DF911F910F91FF90EF90DF907D
:100A5000CF90BF90AF909F908F907F905F904F907E
:100A60000895DC012115310541F4ED91FC910190CF
:100A7000F081E02D642F099508950E94CD0408951A
:100A8000EF92FF920F931F939A01E62EFF2400E04E
:100A900010E0B801A7010E9431051F910F91FF904E
:100AA000EF9008950E94B90408958230B9F0833020
:100AB00028F4882351F0813051F50AC0843011F1B7
:100AC0008430E8F0853019F520C010926E0008954A
:100AD00080916F008D7F80936F00089580917000EA
:100AE0008D7F8093700081E08093B0008091B10091
:100AF000887F84608093B1001092B30008951092B3
:100B00007100089510927200089510927300089574
:100B10001F93182FA7E1B2E020E231E09FEF4FEFE3
:100B20008C91811719F4F90194914C9311962F5FD0
:100B30003F4FF2E0AD31BF0799F7892F0E9455056D
:100B4000812F60E00E94D6081F9108951F920F9296
:100B50000FB60F920BB60F9211242F933F934F9322
:100B60005F936F937F938F939F93AF93BF93EF9315
:100B7000FF938091A8039091A903A091AA03B0913B
:100B8000AB030097A105B10551F1E091AC03F091E1
:100B9000AD0380819091AE03892780838091A80363
:100BA0009091A903A091AA03B091AB03181619065E
:100BB0001A061B06C4F48091A8039091A903A09182
:100BC000AA03B091AB030197A109B1098093A803CF
:100BD0009093A903A093AA03B093AB0304C08091A0
:100BE00017020E948805FF91EF91BF91AF919F91ED
:100BF0008F917F916F915F914F913F912F910F90C6
:100C00000BBE0F900FBE0F901F9018951F920F9262
:100C10000FB60F920BB60F9211242F933F934F9361
:100C20005F936F937F938F939F93AF93BF93EF9354
:100C3000FF938091AF039091B003892B29F0E0914D
:100C4000AF03F091B0030995FF91EF91BF91AF9180
:100C50009F918F917F916F915F914F913F912F91D4
:100C60000F900BBE0F900FBE0F901F9018951F9204
:100C70000F920FB60F920BB60F9211242F933F9342
:100C80004F935F936F937F938F939F93AF93BF9394
:100C9000EF93FF938091B1039091B203892B29F0D8
:100CA000E091B103F091B2030995FF91EF91BF91EB
:100CB000AF919F918F917F916F915F914F913F91F4
:100CC0002F910F900BBE0F900FBE0F901F90189595
:100CD0001F920F920FB60F920BB60F9211242F9303
:100CE0003F934F935F936F937F938F939F93AF93B4
:100CF000BF93EF93FF938091B3039091B403892B3B
:100D000029F0E091B303F091B4030995FF91EF91BD
:100D1000BF91AF919F918F917F916F915F914F9113
:100D20003F912F910F900BBE0F900FBE0F901F9011
:100D300018951F920F920FB60F920BB60F921124B7
:100D40002F933F934F935F936F937F938F939F93D3
:100D5000AF93BF93EF93FF938091B5039091B60348
:100D6000892B29F0E091B503F091B6030995FF9125
:100D7000EF91BF91AF919F918F917F916F915F9113
:100D80004F913F912F910F900BBE0F900FBE0F9080
:100D90001F9018951F920F920FB60F920BB60F92DD
:100DA00011242F933F934F935F936F937F938F9370
:100DB0009F93AF93BF93EF93FF938091B70390916D
:100DC000B803892B29F0E091B703F091B803099596
:100DD000FF91EF91BF91AF919F918F917F916F9113
:100DE0005F914F913F912F910F900BBE0F900FBECF
:100DF0000F901F9018951F920F920FB60F920BB67F
:100E00000F9211242F933F934F935F936F937F9390
:100E10008F939F93AF93BF93EF93FF938091B90309
:100E20009091BA03892B29F0E091B903F091BA03AC
:100E30000995FF91EF91BF91AF919F918F917F9114
:100E40006F915F914F913F912F910F900BBE0F903B
:100E50000FBE0F901F901895009711F00E948E13EF
:100E600008950E948E1308950E94E11208951F9222
:100E70000F920FB60F9211242F933F938F939F934E
:100E8000AF93BF938091C3039091C403A091C50316
:100E9000B091C6033091C7030196A11DB11D232F48
:100EA0002D5F2D3720F02D570196A11DB11D2093E8
:100EB000C7038093C3039093C403A093C503B09367
:100EC000C6038091BF039091C003A091C103B0916C
:100ED000C2030196A11DB11D8093BF039093C0036F
:100EE000A093C103B093C203BF91AF919F918F9123
:100EF0003F912F910F900FBE0F901F9018959FB7A5
:100F0000F8942091BF033091C0034091C1035091E8
:100F1000C20386B5A89B06C08F3F21F02F5F3F4FCD
:100F20004F4F5F4F9FBF542F432F322F2227280F41
:100F3000311D411D511D82E0220F331F441F551FDB
:100F40008A95D1F7B901CA010895EF92FF920F93E4
:100F50001F93CF93DF937B018C010E947F07EB01EE
:100F60000EC00E947F076C1B7D0B685E7340C8F348
:100F70000894E108F10801091109C851DC4FE11496
:100F8000F1040105110569F7DF91CF911F910F91D0
:100F9000FF90EF900895789484B5826084BD84B505
:100FA000816084BD85B5826085BD85B5816085BD64
:100FB000EEE6F0E0808181608083E1E8F0E010827D
:100FC000808182608083808181608083E0E8F0E0BE
:100FD000808181608083E1EBF0E0808184608083A8
:100FE000E0EBF0E0808181608083E1E9F0E08081E6
:100FF00082608083808181608083E0E9F0E080818D
:1010000081608083E1EAF0E080818260808380817A
:1010100081608083E0EAF0E0808181608083E1E2AA
:10102000F1E0808182608083808181608083E0E262
:10103000F1E0808181608083EAE7F0E08081846074
:1010400080838081826080838081816080838081D1
:1010500080688083ECE7F0E0808180648083109278
:10106000C1000895482F50E0CA018E559E4FFC01E3
:10107000249147575E4FFA0184918823C1F0E82FED
:10108000F0E0EE0FFF1FE55CFE4FA591B4916623E3
:1010900041F49FB7F8948C91209582238C939FBF45
:1010A00008959FB7F8948C91822B8C939FBF0895DD
:1010B000893009F44FC08A30A0F4843081F1853042
:1010C00040F48230C9F1833030F5813009F06DC0D1
:1010D00030C08730A9F18830B8F5853009F065C097
:1010E00022C08D3009F448C08E3028F48B30D1F105
:1010F0008C30F0F533C0803109F448C0813120F4E0
:101100008E3009F052C03CC0813109F443C08231B5
:1011100009F04BC045C0809180008F7707C0809157
:1011200080008F7D03C080918000877F8093800046
:10113000089584B58F7702C084B58F7D84BD0895EE
:101140008091B0008F7703C08091B0008F7D809335
:10115000B0000895809190008F7707C08091900033
:101160008F7D03C080919000877F809390000895C9
:101170008091A0008F7707C08091A0008F7D03C071
:101180008091A000877F8093A00008958091200126
:101190008F7703C0809120018F7D80932001089577
:1011A00080912001877F809320010895FF920F9303
:1011B0001F93F62E482F50E0CA0185549E4FFC0124
:1011C0002491CA018E559E4FFC01149147575E4FE2
:1011D000FA0104910023C9F0222319F0822F0E9402
:1011E0005808E02FF0E0EE0FFF1FEB5AFE4FA591DD
:1011F000B4919FB7F894FF2021F48C91109581232E
:1012000002C08C91812B8C939FBF1F910F91FF90F7
:101210000895709354056093530508957093510594
:101220006093500510924B05672B19F081E0809375
:101230004B050895CF93DF93582F40934905809134
:101240004A05882309F044C08091C804583030F41E
:10125000C82FD0E0462FCB01DC0135C0C82FD0E02D
:1012600097E0252F30E02250304015C08091C70410
:10127000E82FF0E03196AF014F77507031974C175F
:101280005D0771F1E95BFB4FA60FB71F8C9180835F
:101290004093C7049F5FA92FB0E0A217B30734F3B0
:1012A0001FC08091C704E82FF0E031969F012F778F
:1012B000307031972C173D0799F0E95BFB4F8D910A
:1012C00080832093C7048A2F841B851750F308C09E
:1012D000E0914E05F0914F05852F09959C0102C0C4
:1012E00027E434E0C901DF91CF9108959091C804BB
:1012F0008091C704891719F42FEF3FEF0CC0892F95
:1013000090E0FC01E95BFB4F208101968F779070A4
:101310008093C80430E0C90108958091C70490E02B
:1013200080589F4F2091C804821B910960E870E0AB
:101330000E942514089581E080934C0587E08093F6
:10134000480508959C0180914B05882331F0E09178
:101350005005F0915105C901099510924D05089568
:101360008091AE06282F30E02F71307021153105A5
:1013700019F485EA9FEF08952C3131051CF087EFB1
:101380009FEF0895C901880F991F820F931F8D55F4
:1013900090400895DF93CF9300D0CDB7DEB7109281
:1013A0004C05809148058E5F80934805F8948FEF37
:1013B0009FEF9A83898380914D058823A1F08981CD
:1013C0009A8101979A838983019669F0F4CF80917D
:1013D0004D058823D1F089819A8101979A83898369
:1013E000019699F0F4CF81E080934D050E949E0B09
:1013F0005D9A8091480569EC74E040E00E943E0BE4
:101400008FEF9FEF9A838983E2CF82E00E949E0B49
:1014100010924D0578940F900F90CF91DF91089521
:10142000DF93CF9300D0CDB7DEB79C0180914C0500
:101430008823D1F0809148058D3708F04DC0E82F02
:10144000F0E0E753FB4F60838F5F809348058D3753
:1014500009F042C0C9010E94CA0981E080934C058D
:1014600087E08093480538C06093D0041092D1047F
:101470001092D2048FEF9FEF9A83898380914D055C
:101480008823A1F089819A8101979A8389830196A3
:1014900069F0F4CF80914D058823C9F089819A8144
:1014A00001979A838983019691F0F4CF81E080932C
:1014B0004D050E949E0B5D9A8AE069EC74E040E065
:1014C0000E943E0B8FEF9FEF9A838983E3CF82E0E8
:1014D0000E949E0B10924D050F900F90CF91DF91BF
:1014E0000895EF92FF920F931F93CF93DF937C01A8
:1014F000042FEB0110E005C0C70169910E94100A9A
:101500001F5F1017C8F3DF91CF911F910F91FF90CC
:10151000EF9008951F93CF93DF93162FEA0188EC85
:1015200093E06FE70E94DA0C209781F020E030E032
:10153000F901E753FB4FDE01A20FB31F8C918083AB
:101540002F5F3F4F2730310599F714C081E080931A
:10155000C90480E88093CA041092CB0481E180938F
:10156000CC0482E28093CD0483E38093CE0484E4B0
:101570008093CF0480E090E0612F70E00E94620CC5
:1015800082E00E949E0B569A559A5E985D98DF9174
:10159000CF911F9108951F93142FA9010E948A0AC9
:1015A00082E090E0612F70E00E94620C1F9108952C
:1015B000109254051092530510925605109255053D
:1015C0008AE199E00E94080B82EA99E00E940D0BE3
:1015D000089582E595E00E94D80A0895E0915305A8
:1015E000F0915405309709F009950895E091570559
:1015F000F0915805309711F00995BC01CB01089581
:10160000E0915905F0915A05309709F00995089530
:101610009093580580935705089590935A058093A9
:10162000590508951F920F920FB60F920BB60F92A5
:1016300011242F933F934F935F936F937F938F93D7
:101640009F93AF93BF93EF93FF935E9A86E00E94C0
:10165000270D8093AE06FF91EF91BF91AF919F91BF
:101660008F917F916F915F914F913F912F910F904B
:101670000BBE0F900FBE0F901F9018950E946B0D20
:10168000E9E3F1E080818260808380818D7F8083C7
:1016900008951F93DF93CF930F92CDB7DEB786E007
:1016A00060E847E00E942D0D182F80916005909111
:1016B000610560916205AE014F5F5F4F0E944C0D66
:1016C0008F77609160057091610520E0112309F426
:1016D00021E049810E94F60A90936105809360059C
:1016E0000F90CF91DF911F9108951F920F920FB627
:1016F0000F920BB60F9211242F933F934F935F934A
:101700006F937F938F939F93AF93BF93EF93FF93C9
:101710005E980E94490BFF91EF91BF91AF919F910D
:101720008F917F916F915F914F913F912F910F908A
:101730000BBE0F900FBE0F901F901895CF92DF92A7
:10174000FF920F931F93DF93CF9300D00F92CDB7EB
:10175000DEB7F82E82E0F81689F08F1530F0FF2002
:10176000F1F081E0F816C1F40BC084E0F81651F0F6
:10177000F81650F085E0F81679F408C086E010C03D
:1017800089E00EC086E10CC089E10AC088E08A8346
:1017900083E0898311E007C084E00E94EE0A88E0BC
:1017A0008A83898310E080915E05853059F4112386
:1017B000A1F5809139018D7F8093390180ED97E00B
:1017C0000197F1F7298182E06FE140E00E943A0D34
:1017D0000CE830E8C32ED12C81E06FE140E00E949C
:1017E0002D0D8B839A818B81981739F0C601019753
:1017F000F1F7002311F00150EFCF9A818B819817F8
:1018000019F081E00E94EE0A112329F0809139013C
:10181000826080933901F0925E050F900F900F90D7
:10182000CF91DF911F910F91FF90DF90CF9008959E
:101830001F920F920FB60F920BB60F9211242F9397
:101840003F934F935F936F937F938F939F93AF9348
:10185000BF93EF93FF935D9880915E05813019F4FB
:1018600080E090E016C08330D1F482E060EE45E085
:101870000E942D0D833029F0833028F0853039F413
:1018800004C081E005C080E003C082E001C083E0C5
:1018900090E00E94000B80915F050E949E0BFF91DB
:1018A000EF91BF91AF919F918F917F916F915F91D8
:1018B0004F913F912F910F900BBE0F900FBE0F9045
:1018C0001F9018950F931F93CF93DF93162F072F19
:1018D0008430C9F1853058F4813009F466C0813014
:1018E00090F08230F1F0833009F05CC037C0863070
:1018F00009F43FC08630C0F1873009F442C0883017
:1019000009F050C04BC0862F8B50803108F04AC080
:1019100088E06FE140E0212F0E943A0D10935B05B3
:1019200044C0E62FEF5EE53108F03CC060935C05F3
:10193000F0E0EA5DFE4FE081F0E0E49185E06FE0E9
:1019400040E02E2F08C0643068F560935D0588E0A4
:1019500060E645E0212F0E943A0D27C060935F05A5
:10196000862F0E949E0B21C082E20E94210D83E2FD
:1019700004C080E20E94210D81E2602F0E94210DAF
:1019800014C0862F972F9C01E90114E2812F6991E1
:101990000E94210D1F5F1C32C9F707C0862F0E94CD
:1019A0001D0D03C082E00E94EE0ADF91CF911F91CE
:1019B0000F9108959093610580936005609362058F
:1019C000809139018E7F80933901809139018D7F1B
:1019D0008093390188E190E00197F1F78091390116
:1019E0008160809339018EE060E00E94210D8FE0DC
:1019F0000E94270D82E06FE140E028E00E943A0D4E
:101A000088EF97E00197F1F781E06FE140E00E94F5
:101A10002D0D883019F081E00E94EE0A84E060E22A
:101A200045E021E00E943A0D8EE06CE40E94210D19
:101A300010925E0510925F050895833309F08FEFD1
:101A40000895E82FF0E0E05CFE4F60830895E82FF2
:101A5000F0E0E05CFE4F80810895E82FF0E0E05C6C
:101A6000FE4F8081862390E002C0959587954A9528
:101A7000E2F70895E82FF0E0E05CFE4F30E002C0AE
:101A8000220F331F4A95E2F7962F922360958081AB
:101A90008623982B90830895FF920F931F93CF93E3
:101AA000DF93EA01F0907B01F61608F46F2D062F04
:101AB00010E060E871E0402F50E00E94E913005808
:101AC0001E4FF801808188838F2DDF91CF911F9168
:101AD0000F91FF900895482F87FD4FE740938001B5
:101AE00081E891E050E00E94E9130895482F6132A7
:101AF00010F081E0089580916305843011F082E058
:101B000008956093AC05ABE8B5E0842F9C01F90122
:101B100002C081918D938E2F841B8617D0F380E0B5
:101B200008951F920F920FB60F920BB60F921124C9
:101B30002F933F934F935F936F937F938F939F93D5
:101B4000AF93BF93EF93FF938091B90090E0887FAC
:101B500090708036910509F4DCC081369105CCF592
:101B60008832910509F47BC089329105B4F4803143
:101B7000910509F46FC0813191053CF4009709F497
:101B800031C1089709F039C165C08831910509F460
:101B900066C0809709F031C17DC08034910509F499
:101BA0009FC08134910544F48033910509F47DC0D0
:101BB000C89709F022C184C08035910509F484C01A
:101BC0008835910509F491C08834910509F015C153
:101BD00098C08839910509F4FDC089399105ECF464
:101BE0008837910509F495C0893791054CF48836FA
:101BF000910509F48EC08037910509F0FEC089C0B7
:101C00008838910509F4E6C08039910509F487C048
:101C10008038910509F0F1C082C0803B910509F43C
:101C2000B0C0813B91054CF4803A910509F489C01C
:101C3000883A910509F0E1C0A4C0803C910509F4FF
:101C4000CDC0883C910509F4C9C0883B910509F0D5
:101C5000D4C0ACC0809164058093BB00B9C09091A2
:101C6000890580918A05981768F490918905E92F74
:101C7000F0E0E759FA4F80818093BB009F5F90931B
:101C80008905A6C085ED8093BC008091BC0084FDD1
:101C9000FCCFB1C080E28093CE0585ED8093BC007F
:101CA0008091BC0084FDFCCFA6C080E38093CE056C
:101CB00085ED8093BC008091BC0084FDFCCF9BC06F
:101CC00088E38093CE058AC0809189059091BB00FE
:101CD000E82FF0E0E759FA4F90838F5F80938905F2
:101CE0009091890580918A0571C0809189059091B4
:101CF000BB00E82FF0E0E759FA4F90838F5F8093A5
:101D0000890585ED8093BC008091BC0084FDFCCFEB
:101D100072C083E0809363051092CD0559C0809115
:101D2000CD05803208F056C08091CD059091BB0062
:101D3000E82FF0E0E355FA4F90838F5F8093CD0555
:101D400047C08091CD05803230F4E091CD05F0E0C0
:101D5000E355FA4F108285ED8093BC008091BC0062
:101D600084FDFCCF109263056091CD05E09167057D
:101D7000F09168058DEA95E070E009951092CD0527
:101D80002DC084E0809363051092AB051092AC05E2
:101D9000E0916505F091660509958091AC05882371
:101DA00029F481E08093AC0510928B059091AB05EE
:101DB000E92FF0E0E557FA4F80818093BB009F5FE9
:101DC0009093AB059091AB058091AC05981710F4FA
:101DD00085EC01C085E88093BC000FC085EC809342
:101DE000BC0009C01092CE0585ED8093BC008091A7
:101DF000BC0084FDFCCF10926305FF91EF91BF9171
:101E0000AF919F918F917F916F915F914F913F9192
:101E10002F910F900BBE0F900FBE0F901F90189533
:101E20001092630585E161E00E94D60886E161E0D9
:101E30000E94D608E9EBF0E080818E7F808380816C
:101E40008D7F808388E48093B80085E48093BC0014
:101E500008952091F00530E08091EF05281B3109AD
:101E6000C90108954091EF058091F005481718F0D9
:101E70002FEF3FEF0AC0E42FF0E0E153FA4F8081EB
:101E8000282F30E04F5F4093EF05C9010895E0919E
:101E9000EF058091F005E81718F0EFEFFFEF06C0AF
:101EA000F0E0E153FA4F8081E82FF0E0CF01089590
:101EB0000895109217061092160688EE93E0A0E09F
:101EC000B0E08093180690931906A0931A06B09379
:101ED0001B0687E392E090931506809314060895FD
:101EE000CF92DF92EF92FF920F931F93CF93DF93E6
:101EF0007C016B018A01809113068823A1F0C0E068
:101F0000D0E00DC0D701ED91FC91D601AC0FBD1F03
:101F10000190F081E02DC7016C9109952196C017C1
:101F2000D10780F304C0CB01642F0E94760DC80155
:101F3000DF91CF911F910F91FF90EF90DF90CF90A5
:101F40000895DF93CF930F92CDB7DEB7FC0169837D
:101F5000809113068823C9F080911206803238F0F0
:101F600081E090E09383828320E030E015C080918F
:101F70001106E82FF0E0EF50FA4F998190838F5FC0
:101F8000809311068093120605C0CE01019661E090
:101F90000E94760D21E030E0C9010F90CF91DF91D2
:101FA00008951092EF051092F0051092110610920C
:101FB00012060E94100F08951F920F920FB60F92F3
:101FC0000BB60F9211242F933F934F935F936F9310
:101FD0007F938F939F93AF93BF93EF93FF93E09182
:101FE0002406F09125060995FF91EF91BF91AF91DD
:101FF0009F918F917F916F915F914F913F912F9121
:102000000F900BBE0F900FBE0F901F9018951F9250
:102010000F920FB60F920BB60F9211242F933F938E
:102020004F935F936F937F938F939F93AF93BF93E0
:10203000EF93FF93E0912806F09129060995FF910F
:10204000EF91BF91AF919F918F917F916F915F9130
:102050004F913F912F910F900BBE0F900FBE0F909D
:102060001F9018950F931F93CF93DF93FC01838DDF
:10207000A685B7859585082F027081FF05C08C91D4
:10208000892309F454C004C08C91892309F04FC0FE
:102090008389948920E001972FEF8F3F9207D9F72A
:1020A000C589D689A685B785758560E031E040E0B1
:1020B00050E010E0CE01212F01972FEF8F3F9207C4
:1020C000D9F78C91872311F0632B03C0832F809560
:1020D0006823330F4F5F5F4F4830510559F78789A9
:1020E000908D20E001972FEF8F3F9207D9F70111D4
:1020F000609580916C0620916D0690E001968F733B
:10210000907030E08217930779F0E0916C06F0E070
:10211000E45DF94F608380916C0690E001968F73C7
:10212000907080936C0603C0838D8160838FDF91F4
:10213000CF911F910F91089580912A0690912B06BF
:10214000009711F00E94321008951F920F920FB65F
:102150000F920BB60F9211242F933F934F935F93DF
:102160006F937F938F939F93AF93BF93EF93FF935F
:102170000E949C10FF91EF91BF91AF919F918F9121
:102180007F916F915F914F913F912F910F900BBE77
:102190000F900FBE0F901F9018951F920F920FB6C1
:1021A0000F920BB60F9211242F933F934F935F938F
:1021B0006F937F938F939F93AF93BF93EF93FF930F
:1021C0000E949C10FF91EF91BF91AF919F918F91D1
:1021D0007F916F915F914F913F912F910F900BBE27
:1021E0000F900FBE0F901F9018951F920F920FB671
:1021F0000F920BB60F9211242F933F934F935F933F
:102200006F937F938F939F93AF93BF93EF93FF93BE
:102210000E949C10FF91EF91BF91AF919F918F9180
:102220007F916F915F914F913F912F910F900BBED6
:102230000F900FBE0F901F901895FC0187E492E05D
:10224000918380830895FC0187E492E091838083E9
:10225000CF010E9431070895FC0187E492E0918349
:1022600080838EE060E00E9432088EE060E00E9491
:10227000D60808958130910541F46F5F7F4F81F456
:102280008EE696E00E942C110895892B49F46F5F29
:102290007F4F31F487E492E090936F0680936E064F
:1022A000089580E090E06FEF7FEF0E943A1108956B
:1022B00081E090E06FEF7FEF0E943A11089588E689
:1022C000809370060895FC018FE492E091838083EF
:1022D00082819381009711F00E942C070895CF937B
:1022E000DF93EC018FE492E0998388838A819B815C
:1022F000009711F00E942C07CE010E943107DF9158
:10230000CF9108951F93CF93DF93EC01162F8FE4A5
:1023100092E0998388831C821E821F821886198608
:102320001D82862F90E0880F991F880F991F0E94A9
:1023300034079B838A8320E080E090E00AC0EA8132
:10234000FB81E80FF91F10821182128213822F5F26
:1023500004962117A0F31A87DF91CF911F9108955A
:102360008EE180937F0608958130910549F46F5F77
:102370007F4F79F487E896E065E00E948211089526
:10238000892B39F46F5F7F4F21F487E896E00E9434
:102390006311089580E090E06FEF7FEF0E94B41129
:1023A000089581E090E06FEF7FEF0E94B4110895EF
:1023B000FF920F931F93F82E03E813E0C8010E94C9
:1023C0009904C80160E072E00E945205C8016F2DB7
:1023D0004AE050E00E944005C8010E9499041F9104
:1023E0000F91FF900895FF920F931F93F82E03E82B
:1023F00013E0C8010E949904C80169E072E00E94DC
:102400005205C8016F2D4AE050E00E944005C80106
:102410000E9499041F910F91FF900895DF93CF932D
:10242000CDB7DEB72D970FB6F894DEBF0FBECDBF88
:1024300081E090E09093A2068093A10687E08093CC
:10244000A006DE011196E0EAF6E08DE001900D9223
:102450008150E1F782E595E00E949B0982E595E0D5
:10246000BE016F5F7F4F4DE00E94710A82E595E0EB
:102470000E94CA092D960FB6F894DEBF0FBECDBFDD
:10248000CF91DF9108958091940690919506892BC4
:1024900041F46CE271E080E090E00E94A5070E94A8
:1024A0000E126091920681E068276093920687E1A0
:1024B0000E94D6080895EF92FF920F931F93DF9327
:1024C000CF93CDB7DEB72D970FB6F894DEBF0FBE12
:1024D000CDBF82E595E00E948D098D3044F11092C8
:1024E000AD068E010F5F1F4F8EE0E82EF12CEC0E33
:1024F000FD1E82E595E00E947609F80181938F0127
:1025000082E595E00E94B0099091AD06980F9093F6
:10251000AD060E151F0569F7A3E9B6E0FE01319679
:102520008DE001900D928150E1F70E9443126AE024
:1025300070E080E090E00E94A5072D960FB6F89419
:10254000DEBF0FBECDBFCF91DF911F910F91FF90E6
:10255000EF9008950F931F9384E196E00E94D10FAE
:1025600083E893E040E855E260E070E00E945202A8
:1025700087E161E00E94320802E515E0C80165E1EB
:102580004FEE20E030E00E94CB0AC80163EF71E11A
:102590000E940909C80168ED71E10E940E091F91AE
:1025A0000F910895CF93DF930E94CB070E94AA1248
:1025B000C3E9D1E00E945B122097E1F30E949301EE
:1025C000F9CFCF93DF93BC018230910510F462E024
:1025D00070E0A091B106B091B206ED01E0E0F0E04C
:1025E00040E050E021C0888199818617970769F4FF
:1025F0008A819B81309719F09383828304C09093E2
:10260000B2068093B106FE0134C06817790738F42A
:102610004115510519F08417950708F4AC01FE0126
:102620008A819B819C01E9012097E9F641155105BA
:10263000A9F1CA01861B970B049708F4BA01E0E0E0
:10264000F0E02AC08D919C91119784179507F9F4B9
:102650006417750781F412968D919C9113973097AA
:1026600019F09383828304C09093B2068093B106DD
:10267000FD0132964FC0CA01861B970BFD01E80F82
:10268000F91F6193719302978D939C9343C0FD0151
:10269000828193819C01D9011097A1F68091AF06A8
:1026A0009091B006892B41F480911302909114020D
:1026B0009093B0068093AF06409115025091160298
:1026C0004115510541F44DB75EB7809111029091CB
:1026D0001202481B590B2091AF063091B006241707
:1026E0003507B0F4CA01821B930B8617970780F059
:1026F000AB014E5F5F4F8417950750F0420F531F99
:102700005093B0064093AF06F9016193719302C0F4
:10271000E0E0F0E0CF01DF91CF910895CF93DF9318
:10272000009709F450C0EC0122971B821A82A091F5
:10273000B106B091B206109709F140E050E0AC1735
:10274000BD0708F1BB83AA83FE0121913191E20FFD
:10275000F31FAE17BF0779F48D919C911197280F45
:10276000391F2E5F3F4F3983288312968D919C919C
:1027700013979B838A834115510571F4D093B20658
:10278000C093B10620C012968D919C911397AD0114
:10279000009711F0DC01D3CFFA01D383C2832191DA
:1027A0003191E20FF31FCE17DF0769F48881998119
:1027B000280F391F2E5F3F4FFA01318320838A8112
:1027C0009B8193838283DF91CF910895F8940C9439
:1027D0006014FB01DC0102C001900D924150504099
:1027E000D8F70895629FD001739FF001829FE00D9A
:1027F000F11D649FE00DF11D929FF00D839FF00D80
:10280000749FF00D659FF00D9927729FB00DE11D2B
:10281000F91F639FB00DE11DF91FBD01CF01112408
:102820000895AA1BBB1B51E107C0AA1FBB1FA61717
:10283000B70710F0A61BB70B881F991F5A95A9F769
:1028400080959095BC01CD01089597FB092E072630
:102850000AD077FD04D0E5DF06D000201AF4709589
:1028600061957F4F0895F6F7909581959F4F089554
:10287000A1E21A2EAA1BBB1BFD010DC0AA1FBB1F84
:10288000EE1FFF1FA217B307E407F50720F0A21BF6
:10289000B30BE40BF50B661F771F881F991F1A9463
:1028A00069F760957095809590959B01AC01BD018D
:1028B000CF010895EE0FFF1F0590F491E02D0994CC
:1028C00011E0C6EED1E004C0FE010E945C14229625
:0A28D000CA3ED107C9F7F894FFCF04
:1028DA005478446F6E653A20004572726F723A20DE
:1028EA00002000B3060000FFFFFFFFFFFF0000000B
:1028FA000044036704D8020903E902320300000016
:10290A0000250400000000A10F700F290F320F47A5
:10291A000F580F000000001D112311000000006372
:04292A00116F110018
:00000001FF
